{
  "_format": "hh-sol-artifact-1",
  "contractName": "BuyNode",
  "sourceName": "contracts/BuyNode.sol",
  "abi": [
    {
      "inputs": [
        {
          "internalType": "address",
          "name": "_verify",
          "type": "address"
        }
      ],
      "stateMutability": "nonpayable",
      "type": "constructor"
    },
    {
      "anonymous": false,
      "inputs": [
        {
          "indexed": false,
          "internalType": "address",
          "name": "",
          "type": "address"
        },
        {
          "indexed": false,
          "internalType": "uint256",
          "name": "",
          "type": "uint256"
        },
        {
          "indexed": false,
          "internalType": "uint256",
          "name": "",
          "type": "uint256"
        },
        {
          "indexed": false,
          "internalType": "uint256",
          "name": "",
          "type": "uint256"
        }
      ],
      "name": "Award",
      "type": "event"
    },
    {
      "anonymous": false,
      "inputs": [
        {
          "indexed": false,
          "internalType": "address",
          "name": "user",
          "type": "address"
        },
        {
          "indexed": false,
          "internalType": "uint256",
          "name": "amount",
          "type": "uint256"
        },
        {
          "indexed": false,
          "internalType": "uint256",
          "name": "no",
          "type": "uint256"
        },
        {
          "indexed": false,
          "internalType": "address",
          "name": "payToken",
          "type": "address"
        }
      ],
      "name": "BuyNodeEven",
      "type": "event"
    },
    {
      "anonymous": false,
      "inputs": [
        {
          "indexed": false,
          "internalType": "address",
          "name": "",
          "type": "address"
        },
        {
          "indexed": false,
          "internalType": "uint256",
          "name": "",
          "type": "uint256"
        }
      ],
      "name": "GetAllFee",
      "type": "event"
    },
    {
      "anonymous": false,
      "inputs": [
        {
          "indexed": false,
          "internalType": "address",
          "name": "user",
          "type": "address"
        },
        {
          "indexed": false,
          "internalType": "uint256",
          "name": "outAmount",
          "type": "uint256"
        },
        {
          "indexed": false,
          "internalType": "uint256",
          "name": "no",
          "type": "uint256"
        }
      ],
      "name": "QuitNodeven",
      "type": "event"
    },
    {
      "anonymous": false,
      "inputs": [
        {
          "indexed": true,
          "internalType": "address",
          "name": "sender",
          "type": "address"
        },
        {
          "indexed": false,
          "internalType": "uint256",
          "name": "amount",
          "type": "uint256"
        }
      ],
      "name": "ReceivedEther",
      "type": "event"
    },
    {
      "stateMutability": "payable",
      "type": "fallback"
    },
    {
      "inputs": [],
      "name": "admin",
      "outputs": [
        {
          "internalType": "address",
          "name": "",
          "type": "address"
        }
      ],
      "stateMutability": "view",
      "type": "function"
    },
    {
      "inputs": [],
      "name": "balanceReceived",
      "outputs": [
        {
          "internalType": "uint256",
          "name": "",
          "type": "uint256"
        }
      ],
      "stateMutability": "view",
      "type": "function"
    },
    {
      "inputs": [
        {
          "internalType": "bytes",
          "name": "data",
          "type": "bytes"
        }
      ],
      "name": "buyNode",
      "outputs": [],
      "stateMutability": "payable",
      "type": "function"
    },
    {
      "inputs": [],
      "name": "fee",
      "outputs": [
        {
          "internalType": "uint256",
          "name": "",
          "type": "uint256"
        }
      ],
      "stateMutability": "view",
      "type": "function"
    },
    {
      "inputs": [
        {
          "internalType": "address",
          "name": "_addr",
          "type": "address"
        }
      ],
      "name": "getAllFees",
      "outputs": [],
      "stateMutability": "nonpayable",
      "type": "function"
    },
    {
      "inputs": [
        {
          "internalType": "bytes",
          "name": "data",
          "type": "bytes"
        },
        {
          "internalType": "uint256",
          "name": "_logeType",
          "type": "uint256"
        }
      ],
      "name": "getAward",
      "outputs": [],
      "stateMutability": "nonpayable",
      "type": "function"
    },
    {
      "inputs": [],
      "name": "getBalance",
      "outputs": [
        {
          "internalType": "uint256",
          "name": "",
          "type": "uint256"
        }
      ],
      "stateMutability": "view",
      "type": "function"
    },
    {
      "inputs": [],
      "name": "getNewAdmin",
      "outputs": [],
      "stateMutability": "nonpayable",
      "type": "function"
    },
    {
      "inputs": [],
      "name": "getTokenAddr",
      "outputs": [
        {
          "internalType": "address",
          "name": "",
          "type": "address"
        }
      ],
      "stateMutability": "view",
      "type": "function"
    },
    {
      "inputs": [],
      "name": "intervalBlock",
      "outputs": [
        {
          "internalType": "uint256",
          "name": "",
          "type": "uint256"
        }
      ],
      "stateMutability": "view",
      "type": "function"
    },
    {
      "inputs": [],
      "name": "mainAddress",
      "outputs": [
        {
          "internalType": "address",
          "name": "",
          "type": "address"
        }
      ],
      "stateMutability": "view",
      "type": "function"
    },
    {
      "inputs": [],
      "name": "manager",
      "outputs": [
        {
          "internalType": "contract Manager",
          "name": "",
          "type": "address"
        }
      ],
      "stateMutability": "view",
      "type": "function"
    },
    {
      "inputs": [],
      "name": "newAdmin",
      "outputs": [
        {
          "internalType": "address",
          "name": "",
          "type": "address"
        }
      ],
      "stateMutability": "view",
      "type": "function"
    },
    {
      "inputs": [
        {
          "internalType": "bytes",
          "name": "data",
          "type": "bytes"
        }
      ],
      "name": "quitNode",
      "outputs": [],
      "stateMutability": "nonpayable",
      "type": "function"
    },
    {
      "inputs": [
        {
          "internalType": "address",
          "name": "_addr",
          "type": "address"
        },
        {
          "internalType": "address",
          "name": "mainAddr",
          "type": "address"
        },
        {
          "internalType": "uint256",
          "name": "_fee",
          "type": "uint256"
        }
      ],
      "name": "setGetTolenAddr",
      "outputs": [],
      "stateMutability": "nonpayable",
      "type": "function"
    },
    {
      "inputs": [
        {
          "internalType": "uint256",
          "name": "_intervalBlock",
          "type": "uint256"
        }
      ],
      "name": "setIntervalBlock",
      "outputs": [],
      "stateMutability": "nonpayable",
      "type": "function"
    },
    {
      "inputs": [
        {
          "internalType": "address",
          "name": "addr",
          "type": "address"
        }
      ],
      "name": "setManager",
      "outputs": [],
      "stateMutability": "nonpayable",
      "type": "function"
    },
    {
      "inputs": [
        {
          "internalType": "address",
          "name": "_newAdmin",
          "type": "address"
        }
      ],
      "name": "setNewAdmin",
      "outputs": [],
      "stateMutability": "nonpayable",
      "type": "function"
    },
    {
      "inputs": [
        {
          "internalType": "uint256",
          "name": "_node",
          "type": "uint256"
        },
        {
          "internalType": "bool",
          "name": "_isOpen",
          "type": "bool"
        }
      ],
      "name": "setNodeInfo",
      "outputs": [],
      "stateMutability": "nonpayable",
      "type": "function"
    },
    {
      "inputs": [
        {
          "internalType": "address",
          "name": "_verify",
          "type": "address"
        }
      ],
      "name": "setVerifyAddr",
      "outputs": [],
      "stateMutability": "nonpayable",
      "type": "function"
    },
    {
      "inputs": [],
      "name": "toSaveBnb",
      "outputs": [],
      "stateMutability": "payable",
      "type": "function"
    },
    {
      "stateMutability": "payable",
      "type": "receive"
    }
  ],
  "bytecode": "0x608060405234801561001057600080fd5b506040516119ff3803806119ff83398101604081905261002f916100cb565b600180546001600160a01b031990811633178255600580546001600160a01b039490941693821693909317909255600081905260066020527f3e5fec24aa4dc4e5aee2e025e51e1392c72a2500577559fae9665c6d52bd6a31805460ff19169091179055600780548216301790556008805490911673c71a734958dc368386dc637db4c72bc11591147d17905560c86009556064600a556100fb565b6000602082840312156100dd57600080fd5b81516001600160a01b03811681146100f457600080fd5b9392505050565b6118f58061010a6000396000f3fe60806040526004361061012e5760003560e01c8063718963cd116100ab578063bcb86eea1161006f578063bcb86eea14610331578063c483960914610351578063d0ebdbe714610371578063ddca3f4314610391578063ebfa7ade146103a7578063f851a440146103ba57610135565b8063718963cd146102be5780638eec99c8146102de5780638f54be0e146102fe5780639ddd497414610314578063ab7748c81461032957610135565b80633ea26384116100f25780633ea2638414610228578063481c6a75146102485780634c3cbeac1461026857806352a90c4214610288578063582b27201461029e57610135565b80630cdd42341461016c57806312065fe0146101a957806314931783146101c65780631c7ba5c1146101e8578063234586711461020857610135565b3661013557005b60405134815233907fa419615bc8fda4c87663805ee2a3597a6d71c1d476911d9892f340d965bc7bf19060200160405180910390a2005b34801561017857600080fd5b5060085461018c906001600160a01b031681565b6040516001600160a01b0390911681526020015b60405180910390f35b3480156101b557600080fd5b50475b6040519081526020016101a0565b3480156101d257600080fd5b506101e66101e13660046114b6565b6103da565b005b3480156101f457600080fd5b506101e66102033660046114e7565b610493565b34801561021457600080fd5b506101e66102233660046115a7565b6106a2565b34801561023457600080fd5b5060025461018c906001600160a01b031681565b34801561025457600080fd5b5060005461018c906001600160a01b031681565b34801561027457600080fd5b506101e66102833660046115f2565b6108a9565b34801561029457600080fd5b506101b8600c5481565b3480156102aa57600080fd5b5060075461018c906001600160a01b031681565b3480156102ca57600080fd5b506101e66102d9366004611622565b610974565b3480156102ea57600080fd5b506101e66102f93660046114e7565b610b5c565b34801561030a57600080fd5b506101b8600a5481565b34801561032057600080fd5b506101e6610c1c565b6101e6610c81565b34801561033d57600080fd5b506101e661034c3660046114e7565b610ce2565b34801561035d57600080fd5b506101e661036c366004611667565b610daf565b34801561037d57600080fd5b506101e661038c3660046114e7565b610e8f565b34801561039d57600080fd5b506101b860095481565b6101e66103b53660046115a7565b610f01565b3480156103c657600080fd5b5060015461018c906001600160a01b031681565b6040805180820182526006815265436f6e66696760d01b60208201526000549151637dd13a9560e01b815290916001600160a01b031690637dd13a959061042790339085906004016116ee565b602060405180830381865afa158015610444573d6000803e3d6000fd5b505050506040513d601f19601f820116820180604052508101906104689190611712565b61048d5760405162461bcd60e51b81526004016104849061172f565b60405180910390fd5b50600a55565b604080518082018252600581526420b236b4b760d91b60208201526000549151637dd13a9560e01b815290916001600160a01b031690637dd13a95906104df90339085906004016116ee565b602060405180830381865afa1580156104fc573d6000803e3d6000fd5b505050506040513d601f19601f820116820180604052508101906105209190611712565b61053c5760405162461bcd60e51b81526004016104849061172f565b6001600160a01b038216610584576040516001600160a01b038316904780156108fc02916000818181858888f1935050505015801561057f573d6000803e3d6000fd5b505050565b6040516370a0823160e01b81523060048201526000906001600160a01b038416906370a0823190602401602060405180830381865afa1580156105cb573d6000803e3d6000fd5b505050506040513d601f19601f820116820180604052508101906105ef9190611752565b60405163a9059cbb60e01b8152336004820152602481018290529091506001600160a01b0384169063a9059cbb906044016020604051808303816000875af115801561063f573d6000803e3d6000fd5b505050506040513d601f19601f820116820180604052508101906106639190611712565b5060408051338152602081018390527f940b21371a562b5228300b24512d3abc564e456a0deddfb5f32b4fe63b72eb46910160405180910390a1505050565b60055460405163f8d5123b60e01b8152600091829182916001600160a01b03169063f8d5123b906106d790879060040161176b565b6060604051808303816000875af11580156106f6573d6000803e3d6000fd5b505050506040513d601f19601f8201168201806040525081019061071a919061177e565b6001600160a01b0383166000908152600b60209081526040808320848452909152902060040154929550909350915060ff1661078d5760405162461bcd60e51b815260206004820152601260248201527175736572206e6f646520697320636c6f736560701b6044820152606401610484565b6001600160a01b0383166000908152600b6020908152604080832084845290915290206002015482106107fa5760405162461bcd60e51b81526020600482015260156024820152743ab9b2b9102130b630b731b29034b99032b93937b960591b6044820152606401610484565b6001600160a01b0383166000818152600b6020908152604080832085845290915280822060028101839055600401805460ff19169055516108fc85150291859190818181858888f19350505050158015610858573d6000803e3d6000fd5b50604080516001600160a01b0385168152602081018490529081018290527ff7579ac8b9a2877f8d366779d77af4a2d9e02ba9dbd487d0d687141676a785a09060600160405180910390a150505050565b6040805180820182526006815265436f6e66696760d01b60208201526000549151637dd13a9560e01b815290916001600160a01b031690637dd13a95906108f690339085906004016116ee565b602060405180830381865afa158015610913573d6000803e3d6000fd5b505050506040513d601f19601f820116820180604052508101906109379190611712565b6109535760405162461bcd60e51b81526004016104849061172f565b50600091825260066020526040909120805460ff1916911515919091179055565b6005546040516342093ccf60e01b81526000918291829182916001600160a01b03909116906342093ccf906109ad90899060040161176b565b6080604051808303816000875af11580156109cc573d6000803e3d6000fd5b505050506040513d601f19601f820116820180604052508101906109f091906117b5565b9350935093509350336001600160a01b0316846001600160a01b031614610a4e5760405162461bcd60e51b81526020600482015260126024820152713ab9b2b91030b2323932b9b99032b93937b960711b6044820152606401610484565b6001600160a01b038216610a98576040516001600160a01b0385169084156108fc029085906000818181858888f19350505050158015610a92573d6000803e3d6000fd5b50610b0b565b60405163a9059cbb60e01b8152336004820152602481018490526001600160a01b0383169063a9059cbb906044016020604051808303816000875af1158015610ae5573d6000803e3d6000fd5b505050506040513d601f19601f82011682018060405250810190610b099190611712565b505b6040805133815260208101859052908101829052606081018690527fc5d0aba04b7cd5dd8a59ed0b989a6adaba9d0674b4783192e5904d65bc15d66f906080015b60405180910390a1505050505050565b6001546001600160a01b03163314610bac5760405162461bcd60e51b8152602060048201526013602482015272636f6e7472616374206f776e6572206f6e6c7960681b6044820152606401610484565b6001546001600160a01b03163314610bfa5760405162461bcd60e51b81526020600482015260116024820152703cb7ba9030b932903737ba1030b236b4b760791b6044820152606401610484565b600280546001600160a01b0319166001600160a01b0392909216919091179055565b6002546001600160a01b03163314610c6d5760405162461bcd60e51b81526020600482015260146024820152733cb7ba9030b932903737ba103732bba0b236b4b760611b6044820152606401610484565b600180546001600160a01b03191633179055565b6007546040516001600160a01b03909116903480156108fc02916000818181858888f19350505050158015610cba573d6000803e3d6000fd5b50600754306001600160a01b0390911603610ce057600c54610cdc90346112e0565b600c555b565b6040805180820182526006815265436f6e66696760d01b60208201526000549151637dd13a9560e01b815290916001600160a01b031690637dd13a9590610d2f90339085906004016116ee565b602060405180830381865afa158015610d4c573d6000803e3d6000fd5b505050506040513d601f19601f82011682018060405250810190610d709190611712565b610d8c5760405162461bcd60e51b81526004016104849061172f565b50600580546001600160a01b0319166001600160a01b0392909216919091179055565b6040805180820182526006815265436f6e66696760d01b60208201526000549151637dd13a9560e01b815290916001600160a01b031690637dd13a9590610dfc90339085906004016116ee565b602060405180830381865afa158015610e19573d6000803e3d6000fd5b505050506040513d601f19601f82011682018060405250810190610e3d9190611712565b610e595760405162461bcd60e51b81526004016104849061172f565b50600780546001600160a01b039485166001600160a01b0319918216179091556008805493909416921691909117909155600955565b6001546001600160a01b03163314610edf5760405162461bcd60e51b8152602060048201526013602482015272636f6e7472616374206f776e6572206f6e6c7960681b6044820152606401610484565b600080546001600160a01b0319166001600160a01b0392909216919091179055565b600554604051634c0f0abb60e01b81526000918291829182916001600160a01b0390911690634c0f0abb90610f3a90889060040161176b565b6080604051808303816000875af1158015610f59573d6000803e3d6000fd5b505050506040513d601f19601f82011682018060405250810190610f7d91906117fe565b9350935093509350600a5443610f939190611860565b6001600160a01b0385166000908152600b6020908152604080832086845290915290206003015411156110085760405162461bcd60e51b815260206004820152601860248201527f596f75206861766520707572636861736564206e6f64657300000000000000006044820152606401610484565b600061102b6103e86110256009548761134890919063ffffffff16565b906113ca565b90506001600160a01b0382161561115c576008546040516323b872dd60e01b81526001600160a01b038781166004830152918216602482015260448101839052908316906323b872dd906064016020604051808303816000875af1158015611097573d6000803e3d6000fd5b505050506040513d601f19601f820116820180604052508101906110bb9190611712565b506007546001600160a01b03808416916323b872dd918891166110de888661140c565b6040516001600160e01b031960e086901b1681526001600160a01b03938416600482015292909116602483015260448201526064016020604051808303816000875af1158015611132573d6000803e3d6000fd5b505050506040513d601f19601f820116820180604052508101906111569190611712565b50611214565b8334101561116957600080fd5b6008546040516001600160a01b039091169082156108fc029083906000818181858888f193505050501580156111a3573d6000803e3d6000fd5b506007546001600160a01b03166108fc6111bd868461140c565b6040518115909202916000818181858888f193505050501580156111e5573d6000803e3d6000fd5b50600754306001600160a01b039091160361121457611210611207858361140c565b600c54906112e0565b600c555b6040805160a0810182526001600160a01b0387811680835260208084018881528486018a815243606080880191825260016080808a018281526000988952600b88528b89208f8a528852978b902099518a546001600160a01b031916908a16178a559451908901559151600288015551600387015592516004909501805460ff1916951515959095179094558451338152908101899052938401879052908516908301527f3c0df247152863416acc3fe8044954afd7b78057bf6ce0decc3cea9637dea6c39101610b4c565b6000806112ed8385611873565b90508381101561133f5760405162461bcd60e51b815260206004820152601b60248201527f536166654d6174683a206164646974696f6e206f766572666c6f7700000000006044820152606401610484565b90505b92915050565b60008260000361135a57506000611342565b60006113668385611886565b905082611373858361189d565b1461133f5760405162461bcd60e51b815260206004820152602160248201527f536166654d6174683a206d756c7469706c69636174696f6e206f766572666c6f6044820152607760f81b6064820152608401610484565b600061133f83836040518060400160405280601a81526020017f536166654d6174683a206469766973696f6e206279207a65726f00000000000081525061144e565b600061133f83836040518060400160405280601e81526020017f536166654d6174683a207375627472616374696f6e206f766572666c6f770000815250611485565b6000818361146f5760405162461bcd60e51b8152600401610484919061176b565b50600061147c848661189d565b95945050505050565b600081848411156114a95760405162461bcd60e51b8152600401610484919061176b565b50600061147c8486611860565b6000602082840312156114c857600080fd5b5035919050565b6001600160a01b03811681146114e457600080fd5b50565b6000602082840312156114f957600080fd5b813561133f816114cf565b634e487b7160e01b600052604160045260246000fd5b600082601f83011261152b57600080fd5b813567ffffffffffffffff8082111561154657611546611504565b604051601f8301601f19908116603f0116810190828211818310171561156e5761156e611504565b8160405283815286602085880101111561158757600080fd5b836020870160208301376000602085830101528094505050505092915050565b6000602082840312156115b957600080fd5b813567ffffffffffffffff8111156115d057600080fd5b6115dc8482850161151a565b949350505050565b80151581146114e457600080fd5b6000806040838503121561160557600080fd5b823591506020830135611617816115e4565b809150509250929050565b6000806040838503121561163557600080fd5b823567ffffffffffffffff81111561164c57600080fd5b6116588582860161151a565b95602094909401359450505050565b60008060006060848603121561167c57600080fd5b8335611687816114cf565b92506020840135611697816114cf565b929592945050506040919091013590565b6000815180845260005b818110156116ce576020818501810151868301820152016116b2565b506000602082860101526020601f19601f83011685010191505092915050565b6001600160a01b03831681526040602082018190526000906115dc908301846116a8565b60006020828403121561172457600080fd5b815161133f816115e4565b6020808252600990820152681b9bc81c195c9b5a5d60ba1b604082015260600190565b60006020828403121561176457600080fd5b5051919050565b60208152600061133f60208301846116a8565b60008060006060848603121561179357600080fd5b835161179e816114cf565b602085015160409095015190969495509392505050565b600080600080608085870312156117cb57600080fd5b84516117d6816114cf565b6020860151604087015191955093506117ee816114cf565b6060959095015193969295505050565b6000806000806080858703121561181457600080fd5b845161181f816114cf565b809450506020850151925060408501519150606085015161183f816114cf565b939692955090935050565b634e487b7160e01b600052601160045260246000fd5b818103818111156113425761134261184a565b808201808211156113425761134261184a565b80820281158282048414176113425761134261184a565b6000826118ba57634e487b7160e01b600052601260045260246000fd5b50049056fea26469706673582212200dc4e2b96497a06f052b449cc363d1822323be8402d8f2e3c3c50310664b7a6b64736f6c63430008110033",
  "linkReferences": {},
  "deployedLinkReferences": {}
}