{
  "_format": "hh-sol-artifact-1",
  "contractName": "Stake",
  "sourceName": "contracts/Stake.sol",
  "abi": [
    {
      "inputs": [
        {
          "internalType": "address",
          "name": "_nftAddress",
          "type": "address"
        },
        {
          "internalType": "address",
          "name": "_singer",
          "type": "address"
        },
        {
          "internalType": "address",
          "name": "_MBAFeeTo",
          "type": "address"
        },
        {
          "internalType": "address",
          "name": "_SBLAddress",
          "type": "address"
        }
      ],
      "stateMutability": "nonpayable",
      "type": "constructor"
    },
    {
      "anonymous": false,
      "inputs": [
        {
          "indexed": true,
          "internalType": "address",
          "name": "caller",
          "type": "address"
        },
        {
          "indexed": false,
          "internalType": "uint256",
          "name": "tokenId",
          "type": "uint256"
        }
      ],
      "name": "CancleStake",
      "type": "event"
    },
    {
      "anonymous": false,
      "inputs": [
        {
          "indexed": true,
          "internalType": "address",
          "name": "caller",
          "type": "address"
        },
        {
          "indexed": false,
          "internalType": "uint256",
          "name": "amount",
          "type": "uint256"
        }
      ],
      "name": "ImproveHashRate",
      "type": "event"
    },
    {
      "anonymous": false,
      "inputs": [
        {
          "indexed": true,
          "internalType": "bytes32",
          "name": "role",
          "type": "bytes32"
        },
        {
          "indexed": true,
          "internalType": "bytes32",
          "name": "previousAdminRole",
          "type": "bytes32"
        },
        {
          "indexed": true,
          "internalType": "bytes32",
          "name": "newAdminRole",
          "type": "bytes32"
        }
      ],
      "name": "RoleAdminChanged",
      "type": "event"
    },
    {
      "anonymous": false,
      "inputs": [
        {
          "indexed": true,
          "internalType": "bytes32",
          "name": "role",
          "type": "bytes32"
        },
        {
          "indexed": true,
          "internalType": "address",
          "name": "account",
          "type": "address"
        },
        {
          "indexed": true,
          "internalType": "address",
          "name": "sender",
          "type": "address"
        }
      ],
      "name": "RoleGranted",
      "type": "event"
    },
    {
      "anonymous": false,
      "inputs": [
        {
          "indexed": true,
          "internalType": "bytes32",
          "name": "role",
          "type": "bytes32"
        },
        {
          "indexed": true,
          "internalType": "address",
          "name": "account",
          "type": "address"
        },
        {
          "indexed": true,
          "internalType": "address",
          "name": "sender",
          "type": "address"
        }
      ],
      "name": "RoleRevoked",
      "type": "event"
    },
    {
      "anonymous": false,
      "inputs": [
        {
          "indexed": true,
          "internalType": "address",
          "name": "caller",
          "type": "address"
        },
        {
          "indexed": false,
          "internalType": "uint256",
          "name": "tokenId",
          "type": "uint256"
        }
      ],
      "name": "StakeEvent",
      "type": "event"
    },
    {
      "anonymous": false,
      "inputs": [
        {
          "indexed": true,
          "internalType": "address",
          "name": "caller",
          "type": "address"
        },
        {
          "indexed": true,
          "internalType": "address",
          "name": "token",
          "type": "address"
        },
        {
          "indexed": false,
          "internalType": "uint256",
          "name": "amount",
          "type": "uint256"
        },
        {
          "indexed": false,
          "internalType": "uint256",
          "name": "timestamp",
          "type": "uint256"
        },
        {
          "indexed": false,
          "internalType": "uint256",
          "name": "order",
          "type": "uint256"
        }
      ],
      "name": "WithdrawReward",
      "type": "event"
    },
    {
      "inputs": [],
      "name": "DEFAULT_ADMIN_ROLE",
      "outputs": [
        {
          "internalType": "bytes32",
          "name": "",
          "type": "bytes32"
        }
      ],
      "stateMutability": "view",
      "type": "function"
    },
    {
      "inputs": [],
      "name": "DOMAIN_SEPARATOR",
      "outputs": [
        {
          "internalType": "bytes32",
          "name": "",
          "type": "bytes32"
        }
      ],
      "stateMutability": "view",
      "type": "function"
    },
    {
      "inputs": [],
      "name": "MANAGE_ROLE",
      "outputs": [
        {
          "internalType": "bytes32",
          "name": "",
          "type": "bytes32"
        }
      ],
      "stateMutability": "view",
      "type": "function"
    },
    {
      "inputs": [],
      "name": "MBAFeeTo",
      "outputs": [
        {
          "internalType": "address",
          "name": "",
          "type": "address"
        }
      ],
      "stateMutability": "view",
      "type": "function"
    },
    {
      "inputs": [],
      "name": "SBLAddress",
      "outputs": [
        {
          "internalType": "address",
          "name": "",
          "type": "address"
        }
      ],
      "stateMutability": "view",
      "type": "function"
    },
    {
      "inputs": [
        {
          "internalType": "address",
          "name": "token",
          "type": "address"
        }
      ],
      "name": "balance",
      "outputs": [
        {
          "internalType": "uint256",
          "name": "",
          "type": "uint256"
        }
      ],
      "stateMutability": "view",
      "type": "function"
    },
    {
      "inputs": [
        {
          "internalType": "bytes32",
          "name": "role",
          "type": "bytes32"
        }
      ],
      "name": "getRoleAdmin",
      "outputs": [
        {
          "internalType": "bytes32",
          "name": "",
          "type": "bytes32"
        }
      ],
      "stateMutability": "view",
      "type": "function"
    },
    {
      "inputs": [
        {
          "internalType": "bytes32",
          "name": "role",
          "type": "bytes32"
        },
        {
          "internalType": "address",
          "name": "account",
          "type": "address"
        }
      ],
      "name": "grantRole",
      "outputs": [],
      "stateMutability": "nonpayable",
      "type": "function"
    },
    {
      "inputs": [
        {
          "internalType": "bytes32",
          "name": "role",
          "type": "bytes32"
        },
        {
          "internalType": "address",
          "name": "account",
          "type": "address"
        }
      ],
      "name": "hasRole",
      "outputs": [
        {
          "internalType": "bool",
          "name": "",
          "type": "bool"
        }
      ],
      "stateMutability": "view",
      "type": "function"
    },
    {
      "inputs": [
        {
          "internalType": "uint256",
          "name": "amount",
          "type": "uint256"
        }
      ],
      "name": "improveHashRate",
      "outputs": [],
      "stateMutability": "nonpayable",
      "type": "function"
    },
    {
      "inputs": [],
      "name": "nftAddress",
      "outputs": [
        {
          "internalType": "address",
          "name": "",
          "type": "address"
        }
      ],
      "stateMutability": "view",
      "type": "function"
    },
    {
      "inputs": [
        {
          "internalType": "address",
          "name": "",
          "type": "address"
        }
      ],
      "name": "nonces",
      "outputs": [
        {
          "internalType": "uint256",
          "name": "",
          "type": "uint256"
        }
      ],
      "stateMutability": "view",
      "type": "function"
    },
    {
      "inputs": [
        {
          "internalType": "address",
          "name": "",
          "type": "address"
        },
        {
          "internalType": "address",
          "name": "",
          "type": "address"
        },
        {
          "internalType": "uint256",
          "name": "",
          "type": "uint256"
        },
        {
          "internalType": "bytes",
          "name": "",
          "type": "bytes"
        }
      ],
      "name": "onERC721Received",
      "outputs": [
        {
          "internalType": "bytes4",
          "name": "",
          "type": "bytes4"
        }
      ],
      "stateMutability": "nonpayable",
      "type": "function"
    },
    {
      "inputs": [
        {
          "internalType": "bytes32",
          "name": "role",
          "type": "bytes32"
        },
        {
          "internalType": "address",
          "name": "account",
          "type": "address"
        }
      ],
      "name": "renounceRole",
      "outputs": [],
      "stateMutability": "nonpayable",
      "type": "function"
    },
    {
      "inputs": [
        {
          "internalType": "bytes32",
          "name": "role",
          "type": "bytes32"
        },
        {
          "internalType": "address",
          "name": "account",
          "type": "address"
        }
      ],
      "name": "revokeRole",
      "outputs": [],
      "stateMutability": "nonpayable",
      "type": "function"
    },
    {
      "inputs": [],
      "name": "signer",
      "outputs": [
        {
          "internalType": "address",
          "name": "",
          "type": "address"
        }
      ],
      "stateMutability": "view",
      "type": "function"
    },
    {
      "inputs": [
        {
          "internalType": "uint256",
          "name": "tokenId",
          "type": "uint256"
        }
      ],
      "name": "stake",
      "outputs": [],
      "stateMutability": "nonpayable",
      "type": "function"
    },
    {
      "inputs": [
        {
          "internalType": "uint256",
          "name": "",
          "type": "uint256"
        }
      ],
      "name": "stakeAddress",
      "outputs": [
        {
          "internalType": "address",
          "name": "",
          "type": "address"
        }
      ],
      "stateMutability": "view",
      "type": "function"
    },
    {
      "inputs": [
        {
          "internalType": "uint256",
          "name": "",
          "type": "uint256"
        }
      ],
      "name": "stakeState",
      "outputs": [
        {
          "internalType": "bool",
          "name": "",
          "type": "bool"
        }
      ],
      "stateMutability": "view",
      "type": "function"
    },
    {
      "inputs": [
        {
          "internalType": "bytes4",
          "name": "interfaceId",
          "type": "bytes4"
        }
      ],
      "name": "supportsInterface",
      "outputs": [
        {
          "internalType": "bool",
          "name": "",
          "type": "bool"
        }
      ],
      "stateMutability": "view",
      "type": "function"
    },
    {
      "inputs": [
        {
          "internalType": "uint256",
          "name": "tokenId",
          "type": "uint256"
        }
      ],
      "name": "unstake",
      "outputs": [],
      "stateMutability": "nonpayable",
      "type": "function"
    },
    {
      "inputs": [
        {
          "internalType": "address",
          "name": "_MBAFeeTo",
          "type": "address"
        }
      ],
      "name": "updateMBAFeeTo",
      "outputs": [],
      "stateMutability": "nonpayable",
      "type": "function"
    },
    {
      "inputs": [
        {
          "internalType": "address",
          "name": "_nftAddress",
          "type": "address"
        }
      ],
      "name": "updateNftAddress",
      "outputs": [],
      "stateMutability": "nonpayable",
      "type": "function"
    },
    {
      "inputs": [
        {
          "internalType": "bytes",
          "name": "data",
          "type": "bytes"
        }
      ],
      "name": "withdrawReward",
      "outputs": [],
      "stateMutability": "nonpayable",
      "type": "function"
    }
  ],
  "bytecode": "0x60806040523480156200001157600080fd5b50604051620018c5380380620018c583398101604081905262000034916200024c565b600180546001600160a01b03199081166001600160a01b0387811691909117909255600780548216868416179055600480548216858416179055600580549091169183169190911790556200008b6000336200018e565b620000b77fa076a07f65bcd51bcb15a0f01a65bc18f2d922acb81bcfd8af4caf5adb557091336200018e565b505060408051808201825260058152645374616b6560d81b6020918201528151808301835260018152603160f81b9082015281517f8b73c3c69bb8fe3d512ecc4cf759cc79239f7b179b0ffacaa9a75d522b39400f818301527f46e0152631724883515adf5183d0ad68b0f3fdb4ea59b5bb258492ab0edd5ec7818401527fc89efdaa54c0f20c7adf612882df0950f5a951637e0307cdcb4c672f298b8bc660608201524660808201523060a0808301919091528351808303909101815260c0909101909252815191012060065550620002a99050565b6000828152602081815260408083206001600160a01b038516845290915290205460ff166200022b576000828152602081815260408083206001600160a01b03851684529091529020805460ff19166001179055620001ea3390565b6001600160a01b0316816001600160a01b0316837f2f8788117e7eff1d82e926ec794901d17c78024a50270940304540a733656f0d60405160405180910390a45b5050565b80516001600160a01b03811681146200024757600080fd5b919050565b600080600080608085870312156200026357600080fd5b6200026e856200022f565b93506200027e602086016200022f565b92506200028e604086016200022f565b91506200029e606086016200022f565b905092959194509250565b61160c80620002b96000396000f3fe608060405234801561001057600080fd5b50600436106101585760003560e01c806360a4b76a116100c357806391d148541161007c57806391d1485414610361578063a217fddf14610374578063a694fc3a1461037c578063d547741f1461038f578063e3d670d7146103a2578063e5eb7ae8146103b557600080fd5b806360a4b76a146102a85780636763ccbd146102cf5780636e13d418146102e25780636ea3b5a81461030b5780637ecebe001461032e578063896156a41461034e57600080fd5b80632e17de78116101155780632e17de78146102405780632f2ff15d146102535780632f787727146102665780633644e5151461027957806336568abe146102825780635bf8633a1461029557600080fd5b806301ffc9a71461015d57806307f49eb214610185578063101a48611461019a578063150b7a02146101c5578063238ac933146101fc578063248a9ca31461020f575b600080fd5b61017061016b36600461116e565b6103c8565b60405190151581526020015b60405180910390f35b6101986101933660046111ad565b6103ff565b005b6004546101ad906001600160a01b031681565b6040516001600160a01b03909116815260200161017c565b6101e36101d336600461128f565b630a85bd0160e11b949350505050565b6040516001600160e01b0319909116815260200161017c565b6007546101ad906001600160a01b031681565b61023261021d3660046112fb565b60009081526020819052604090206001015490565b60405190815260200161017c565b61019861024e3660046112fb565b61049d565b610198610261366004611314565b610623565b6101986102743660046112fb565b61064d565b61023260065481565b610198610290366004611314565b610747565b6001546101ad906001600160a01b031681565b6102327fa076a07f65bcd51bcb15a0f01a65bc18f2d922acb81bcfd8af4caf5adb55709181565b6101986102dd366004611344565b6107c5565b6101ad6102f03660046112fb565b6003602052600090815260409020546001600160a01b031681565b6101706103193660046112fb565b60026020526000908152604090205460ff1681565b61023261033c3660046111ad565b60086020526000908152604090205481565b6005546101ad906001600160a01b031681565b61017061036f366004611314565b610bc2565b610232600081565b61019861038a3660046112fb565b610beb565b61019861039d366004611314565b610cbb565b6102326103b03660046111ad565b610ce0565b6101986103c33660046111ad565b610d5f565b60006001600160e01b03198216637965db0b60e01b14806103f957506301ffc9a760e01b6001600160e01b03198316145b92915050565b7fa076a07f65bcd51bcb15a0f01a65bc18f2d922acb81bcfd8af4caf5adb55709161042981610df8565b6001600160a01b03821661047a5760405162461bcd60e51b81526020600482015260136024820152725374616b653a205a45524f5f4144445245535360681b60448201526064015b60405180910390fd5b50600480546001600160a01b0319166001600160a01b0392909216919091179055565b6000818152600360205260409020546001600160a01b031633146105035760405162461bcd60e51b815260206004820152601860248201527f5374616b653a204e4f545f5354414b455f4144445245535300000000000000006044820152606401610471565b60008181526002602052604090205460ff166105545760405162461bcd60e51b815260206004820152601060248201526f5374616b653a204e4f545f5354414b4560801b6044820152606401610471565b600154604051632142170760e11b8152306004820152336024820152604481018390526001600160a01b03909116906342842e0e90606401600060405180830381600087803b1580156105a657600080fd5b505af11580156105ba573d6000803e3d6000fd5b5050506000828152600260209081526040808320805460ff19169055600382529182902080546001600160a01b031916905590518381523392507f7b1dc03267ac7888666a44f4b18181d2f89e340a6e58b5979696bc733346a00491015b60405180910390a250565b60008281526020819052604090206001015461063e81610df8565b6106488383610e05565b505050565b600081116106915760405162461bcd60e51b81526020600482015260116024820152705374616b653a205a45524f5f56414c554560781b6044820152606401610471565b600554600480546040516323b872dd60e01b815233928101929092526001600160a01b03908116602483015260448201849052909116906323b872dd906064016020604051808303816000875af11580156106f0573d6000803e3d6000fd5b505050506040513d601f19601f820116820180604052508101906107149190611381565b5060405181815233907fd0ad8e094e2cd3c16ed7bcfbf183ef870421eb0b2fe4ce05d02874a1fcf934d390602001610618565b6001600160a01b03811633146107b75760405162461bcd60e51b815260206004820152602f60248201527f416363657373436f6e74726f6c3a2063616e206f6e6c792072656e6f756e636560448201526e103937b632b9903337b91039b2b63360891b6064820152608401610471565b6107c18282610e89565b5050565b6000806000806000806000878060200190518101906107e491906113c7565b9650965096509650965096509650336001600160a01b0316876001600160a01b0316146108485760405162461bcd60e51b815260206004820152601260248201527129ba30b5b29d24a72b20a624a22faaa9a2a960711b6044820152606401610471565b33600090815260086020526040902054831461089c5760405162461bcd60e51b81526020600482015260136024820152725374616b653a494e56414c49445f4e4f4e434560681b6044820152606401610471565b60008060006108aa84610eee565b6006546040519396509194509250600091610937906020017f5065726d6974286164647265737320757365722c6164647265737320746f6b6581527f6e2c75696e74323536206f726465722c75696e7432353620616d6f756e742c7560208201527f696e74323536206e6f6e63652c75696e7432353620646561646c696e652900006040820152605e0190565b60408051808303601f190181528282528051602091820120818401526001600160a01b038f8116848401528e166060840152608083018d905260a083018c905260c083018b905260e08084018b9052825180850390910181526101008401909252815191012061190160f01b6101208301526101228201929092526101428101919091526101620160408051601f1981840301815282825280516020918201206000845290830180835281905260ff8716918301919091526060820185905260808201849052915060019060a0016020604051602081039080840390855afa158015610a27573d6000803e3d6000fd5b5050604051601f1901516007546001600160a01b039081169116149050610a885760405162461bcd60e51b815260206004820152601560248201527411549493d48e9253959053125117d49154555154d5605a1b6044820152606401610471565b336000908152600860205260408120805491610aa3836114a5565b919050555087610ab28b610ce0565b1015610af55760405162461bcd60e51b815260206004820152601260248201527114dd185ad94e925394d551919250d251539560721b6044820152606401610471565b60405163a9059cbb60e01b8152336004820152602481018990526001600160a01b038b169063a9059cbb906044016020604051808303816000875af1158015610b42573d6000803e3d6000fd5b505050506040513d601f19601f82011682018060405250810190610b669190611381565b50604080518981524260208201529081018a90526001600160a01b038b169033907fbb873e1f721a078dc6666b560c8f8a58540d7f2482138c9ecb84a8f7fa7cf73b9060600160405180910390a3505050505050505050505050565b6000918252602082815260408084206001600160a01b0393909316845291905290205460ff1690565b600154604051632142170760e11b8152336004820152306024820152604481018390526001600160a01b03909116906342842e0e90606401600060405180830381600087803b158015610c3d57600080fd5b505af1158015610c51573d6000803e3d6000fd5b5050506000828152600260209081526040808320805460ff19166001179055600382529182902080546001600160a01b0319163390811790915591518481529192507fb58845b0a64f92dd8d1ba04f905319d6be2021b57783b3d10155e7e36a84e1289101610618565b600082815260208190526040902060010154610cd681610df8565b6106488383610e89565b60006001600160a01b038216610cf7575047919050565b6040516370a0823160e01b81523060048201526001600160a01b038316906370a0823190602401602060405180830381865afa158015610d3b573d6000803e3d6000fd5b505050506040513d601f19601f820116820180604052508101906103f991906114be565b7fa076a07f65bcd51bcb15a0f01a65bc18f2d922acb81bcfd8af4caf5adb557091610d8981610df8565b6001600160a01b038216610dd55760405162461bcd60e51b81526020600482015260136024820152725374616b653a205a45524f5f4144445245535360681b6044820152606401610471565b50600180546001600160a01b0319166001600160a01b0392909216919091179055565b610e028133610f60565b50565b610e0f8282610bc2565b6107c1576000828152602081815260408083206001600160a01b03851684529091529020805460ff19166001179055610e453390565b6001600160a01b0316816001600160a01b0316837f2f8788117e7eff1d82e926ec794901d17c78024a50270940304540a733656f0d60405160405180910390a45050565b610e938282610bc2565b156107c1576000828152602081815260408083206001600160a01b0385168085529252808320805460ff1916905551339285917ff6391f5c32d9c69d2a47ea670b442974b53935d1edc7fd64eb21e047a839171b9190a45050565b60008060008351604114610f445760405162461bcd60e51b815260206004820152601a60248201527f4e6f7420496e76616c6964205369676e617475726520446174610000000000006044820152606401610471565b5050506020810151604082015160609092015160001a92909190565b610f6a8282610bc2565b6107c157610f7781610fb9565b610f82836020610fcb565b604051602001610f939291906114d7565b60408051601f198184030181529082905262461bcd60e51b82526104719160040161154c565b60606103f96001600160a01b03831660145b60606000610fda83600261157f565b610fe5906002611596565b67ffffffffffffffff811115610ffd57610ffd6111ca565b6040519080825280601f01601f191660200182016040528015611027576020820181803683370190505b509050600360fc1b81600081518110611042576110426115a9565b60200101906001600160f81b031916908160001a905350600f60fb1b81600181518110611071576110716115a9565b60200101906001600160f81b031916908160001a905350600061109584600261157f565b6110a0906001611596565b90505b6001811115611118576f181899199a1a9b1b9c1cb0b131b232b360811b85600f16601081106110d4576110d46115a9565b1a60f81b8282815181106110ea576110ea6115a9565b60200101906001600160f81b031916908160001a90535060049490941c93611111816115bf565b90506110a3565b5083156111675760405162461bcd60e51b815260206004820181905260248201527f537472696e67733a20686578206c656e67746820696e73756666696369656e746044820152606401610471565b9392505050565b60006020828403121561118057600080fd5b81356001600160e01b03198116811461116757600080fd5b6001600160a01b0381168114610e0257600080fd5b6000602082840312156111bf57600080fd5b813561116781611198565b634e487b7160e01b600052604160045260246000fd5b604051601f8201601f1916810167ffffffffffffffff81118282101715611209576112096111ca565b604052919050565b600067ffffffffffffffff82111561122b5761122b6111ca565b50601f01601f191660200190565b600082601f83011261124a57600080fd5b813561125d61125882611211565b6111e0565b81815284602083860101111561127257600080fd5b816020850160208301376000918101602001919091529392505050565b600080600080608085870312156112a557600080fd5b84356112b081611198565b935060208501356112c081611198565b925060408501359150606085013567ffffffffffffffff8111156112e357600080fd5b6112ef87828801611239565b91505092959194509250565b60006020828403121561130d57600080fd5b5035919050565b6000806040838503121561132757600080fd5b82359150602083013561133981611198565b809150509250929050565b60006020828403121561135657600080fd5b813567ffffffffffffffff81111561136d57600080fd5b61137984828501611239565b949350505050565b60006020828403121561139357600080fd5b8151801515811461116757600080fd5b60005b838110156113be5781810151838201526020016113a6565b50506000910152565b600080600080600080600060e0888a0312156113e257600080fd5b87516113ed81611198565b60208901519097506113fe81611198565b8096505060408801519450606088015193506080880151925060a0880151915060c088015167ffffffffffffffff81111561143857600080fd5b8801601f81018a1361144957600080fd5b805161145761125882611211565b8181528b602083850101111561146c57600080fd5b61147d8260208301602086016113a3565b80935050505092959891949750929550565b634e487b7160e01b600052601160045260246000fd5b6000600182016114b7576114b761148f565b5060010190565b6000602082840312156114d057600080fd5b5051919050565b7f416363657373436f6e74726f6c3a206163636f756e742000000000000000000081526000835161150f8160178501602088016113a3565b7001034b99036b4b9b9b4b733903937b6329607d1b60179184019182015283516115408160288401602088016113a3565b01602801949350505050565b602081526000825180602084015261156b8160408501602087016113a3565b601f01601f19169190910160400192915050565b80820281158282048414176103f9576103f961148f565b808201808211156103f9576103f961148f565b634e487b7160e01b600052603260045260246000fd5b6000816115ce576115ce61148f565b50600019019056fea2646970667358221220abe36f4ce3db42af0ee11a823aea902d7cf4929e09dd7847ad32291d81a06c3964736f6c63430008110033",
  "linkReferences": {},
  "deployedLinkReferences": {}
}