{
  "_format": "hh-sol-artifact-1",
  "contractName": "BadgeNFT",
  "sourceName": "contracts/BadgeNFT.sol",
  "abi": [
    {
      "inputs": [
        {
          "internalType": "address",
          "name": "_singer",
          "type": "address"
        },
        {
          "internalType": "address",
          "name": "_landNFTAdd",
          "type": "address"
        }
      ],
      "stateMutability": "nonpayable",
      "type": "constructor"
    },
    {
      "anonymous": false,
      "inputs": [
        {
          "indexed": true,
          "internalType": "address",
          "name": "owner",
          "type": "address"
        },
        {
          "indexed": true,
          "internalType": "address",
          "name": "approved",
          "type": "address"
        },
        {
          "indexed": true,
          "internalType": "uint256",
          "name": "tokenId",
          "type": "uint256"
        }
      ],
      "name": "Approval",
      "type": "event"
    },
    {
      "anonymous": false,
      "inputs": [
        {
          "indexed": true,
          "internalType": "address",
          "name": "owner",
          "type": "address"
        },
        {
          "indexed": true,
          "internalType": "address",
          "name": "operator",
          "type": "address"
        },
        {
          "indexed": false,
          "internalType": "bool",
          "name": "approved",
          "type": "bool"
        }
      ],
      "name": "ApprovalForAll",
      "type": "event"
    },
    {
      "anonymous": false,
      "inputs": [
        {
          "indexed": true,
          "internalType": "address",
          "name": "caller",
          "type": "address"
        },
        {
          "indexed": false,
          "internalType": "uint256[]",
          "name": "nftIds",
          "type": "uint256[]"
        },
        {
          "indexed": false,
          "internalType": "uint256",
          "name": "nftType",
          "type": "uint256"
        },
        {
          "indexed": false,
          "internalType": "uint256",
          "name": "newNftId",
          "type": "uint256"
        },
        {
          "indexed": false,
          "internalType": "uint256",
          "name": "newNftType",
          "type": "uint256"
        }
      ],
      "name": "Compound",
      "type": "event"
    },
    {
      "anonymous": false,
      "inputs": [
        {
          "indexed": true,
          "internalType": "address",
          "name": "caller",
          "type": "address"
        },
        {
          "indexed": false,
          "internalType": "uint256",
          "name": "tokenId",
          "type": "uint256"
        },
        {
          "indexed": false,
          "internalType": "uint256",
          "name": "nftType",
          "type": "uint256"
        }
      ],
      "name": "Mint",
      "type": "event"
    },
    {
      "anonymous": false,
      "inputs": [
        {
          "indexed": true,
          "internalType": "bytes32",
          "name": "role",
          "type": "bytes32"
        },
        {
          "indexed": true,
          "internalType": "bytes32",
          "name": "previousAdminRole",
          "type": "bytes32"
        },
        {
          "indexed": true,
          "internalType": "bytes32",
          "name": "newAdminRole",
          "type": "bytes32"
        }
      ],
      "name": "RoleAdminChanged",
      "type": "event"
    },
    {
      "anonymous": false,
      "inputs": [
        {
          "indexed": true,
          "internalType": "bytes32",
          "name": "role",
          "type": "bytes32"
        },
        {
          "indexed": true,
          "internalType": "address",
          "name": "account",
          "type": "address"
        },
        {
          "indexed": true,
          "internalType": "address",
          "name": "sender",
          "type": "address"
        }
      ],
      "name": "RoleGranted",
      "type": "event"
    },
    {
      "anonymous": false,
      "inputs": [
        {
          "indexed": true,
          "internalType": "bytes32",
          "name": "role",
          "type": "bytes32"
        },
        {
          "indexed": true,
          "internalType": "address",
          "name": "account",
          "type": "address"
        },
        {
          "indexed": true,
          "internalType": "address",
          "name": "sender",
          "type": "address"
        }
      ],
      "name": "RoleRevoked",
      "type": "event"
    },
    {
      "anonymous": false,
      "inputs": [
        {
          "indexed": true,
          "internalType": "address",
          "name": "from",
          "type": "address"
        },
        {
          "indexed": true,
          "internalType": "address",
          "name": "to",
          "type": "address"
        },
        {
          "indexed": true,
          "internalType": "uint256",
          "name": "tokenId",
          "type": "uint256"
        }
      ],
      "name": "Transfer",
      "type": "event"
    },
    {
      "inputs": [],
      "name": "DEFAULT_ADMIN_ROLE",
      "outputs": [
        {
          "internalType": "bytes32",
          "name": "",
          "type": "bytes32"
        }
      ],
      "stateMutability": "view",
      "type": "function"
    },
    {
      "inputs": [],
      "name": "DOMAIN_SEPARATOR",
      "outputs": [
        {
          "internalType": "bytes32",
          "name": "",
          "type": "bytes32"
        }
      ],
      "stateMutability": "view",
      "type": "function"
    },
    {
      "inputs": [],
      "name": "MANAGE_ROLE",
      "outputs": [
        {
          "internalType": "bytes32",
          "name": "",
          "type": "bytes32"
        }
      ],
      "stateMutability": "view",
      "type": "function"
    },
    {
      "inputs": [
        {
          "internalType": "address",
          "name": "to",
          "type": "address"
        },
        {
          "internalType": "uint256",
          "name": "tokenId",
          "type": "uint256"
        }
      ],
      "name": "approve",
      "outputs": [],
      "stateMutability": "nonpayable",
      "type": "function"
    },
    {
      "inputs": [
        {
          "internalType": "uint256",
          "name": "",
          "type": "uint256"
        }
      ],
      "name": "badgeType",
      "outputs": [
        {
          "internalType": "uint256",
          "name": "",
          "type": "uint256"
        }
      ],
      "stateMutability": "view",
      "type": "function"
    },
    {
      "inputs": [
        {
          "internalType": "address",
          "name": "owner",
          "type": "address"
        }
      ],
      "name": "balanceOf",
      "outputs": [
        {
          "internalType": "uint256",
          "name": "",
          "type": "uint256"
        }
      ],
      "stateMutability": "view",
      "type": "function"
    },
    {
      "inputs": [],
      "name": "baseUri",
      "outputs": [
        {
          "internalType": "string",
          "name": "",
          "type": "string"
        }
      ],
      "stateMutability": "view",
      "type": "function"
    },
    {
      "inputs": [
        {
          "internalType": "bytes",
          "name": "data",
          "type": "bytes"
        }
      ],
      "name": "compound",
      "outputs": [],
      "stateMutability": "nonpayable",
      "type": "function"
    },
    {
      "inputs": [
        {
          "internalType": "uint256",
          "name": "tokenId",
          "type": "uint256"
        }
      ],
      "name": "getApproved",
      "outputs": [
        {
          "internalType": "address",
          "name": "",
          "type": "address"
        }
      ],
      "stateMutability": "view",
      "type": "function"
    },
    {
      "inputs": [
        {
          "internalType": "bytes32",
          "name": "role",
          "type": "bytes32"
        }
      ],
      "name": "getRoleAdmin",
      "outputs": [
        {
          "internalType": "bytes32",
          "name": "",
          "type": "bytes32"
        }
      ],
      "stateMutability": "view",
      "type": "function"
    },
    {
      "inputs": [
        {
          "internalType": "bytes32",
          "name": "role",
          "type": "bytes32"
        },
        {
          "internalType": "address",
          "name": "account",
          "type": "address"
        }
      ],
      "name": "grantRole",
      "outputs": [],
      "stateMutability": "nonpayable",
      "type": "function"
    },
    {
      "inputs": [
        {
          "internalType": "bytes32",
          "name": "role",
          "type": "bytes32"
        },
        {
          "internalType": "address",
          "name": "account",
          "type": "address"
        }
      ],
      "name": "hasRole",
      "outputs": [
        {
          "internalType": "bool",
          "name": "",
          "type": "bool"
        }
      ],
      "stateMutability": "view",
      "type": "function"
    },
    {
      "inputs": [
        {
          "internalType": "address",
          "name": "owner",
          "type": "address"
        },
        {
          "internalType": "address",
          "name": "operator",
          "type": "address"
        }
      ],
      "name": "isApprovedForAll",
      "outputs": [
        {
          "internalType": "bool",
          "name": "",
          "type": "bool"
        }
      ],
      "stateMutability": "view",
      "type": "function"
    },
    {
      "inputs": [],
      "name": "landNFTAdd",
      "outputs": [
        {
          "internalType": "address",
          "name": "",
          "type": "address"
        }
      ],
      "stateMutability": "view",
      "type": "function"
    },
    {
      "inputs": [
        {
          "internalType": "uint256[]",
          "name": "nftTypes",
          "type": "uint256[]"
        },
        {
          "internalType": "address",
          "name": "to",
          "type": "address"
        }
      ],
      "name": "mintTo",
      "outputs": [],
      "stateMutability": "nonpayable",
      "type": "function"
    },
    {
      "inputs": [],
      "name": "name",
      "outputs": [
        {
          "internalType": "string",
          "name": "",
          "type": "string"
        }
      ],
      "stateMutability": "view",
      "type": "function"
    },
    {
      "inputs": [
        {
          "internalType": "uint256",
          "name": "",
          "type": "uint256"
        }
      ],
      "name": "nftValue",
      "outputs": [
        {
          "internalType": "uint256",
          "name": "",
          "type": "uint256"
        }
      ],
      "stateMutability": "view",
      "type": "function"
    },
    {
      "inputs": [
        {
          "internalType": "address",
          "name": "",
          "type": "address"
        }
      ],
      "name": "nonces",
      "outputs": [
        {
          "internalType": "uint256",
          "name": "",
          "type": "uint256"
        }
      ],
      "stateMutability": "view",
      "type": "function"
    },
    {
      "inputs": [
        {
          "internalType": "address",
          "name": "",
          "type": "address"
        },
        {
          "internalType": "address",
          "name": "",
          "type": "address"
        },
        {
          "internalType": "uint256",
          "name": "",
          "type": "uint256"
        },
        {
          "internalType": "bytes",
          "name": "",
          "type": "bytes"
        }
      ],
      "name": "onERC721Received",
      "outputs": [
        {
          "internalType": "bytes4",
          "name": "",
          "type": "bytes4"
        }
      ],
      "stateMutability": "nonpayable",
      "type": "function"
    },
    {
      "inputs": [
        {
          "internalType": "uint256",
          "name": "tokenId",
          "type": "uint256"
        }
      ],
      "name": "ownerOf",
      "outputs": [
        {
          "internalType": "address",
          "name": "",
          "type": "address"
        }
      ],
      "stateMutability": "view",
      "type": "function"
    },
    {
      "inputs": [
        {
          "internalType": "bytes32",
          "name": "role",
          "type": "bytes32"
        },
        {
          "internalType": "address",
          "name": "account",
          "type": "address"
        }
      ],
      "name": "renounceRole",
      "outputs": [],
      "stateMutability": "nonpayable",
      "type": "function"
    },
    {
      "inputs": [
        {
          "internalType": "bytes32",
          "name": "role",
          "type": "bytes32"
        },
        {
          "internalType": "address",
          "name": "account",
          "type": "address"
        }
      ],
      "name": "revokeRole",
      "outputs": [],
      "stateMutability": "nonpayable",
      "type": "function"
    },
    {
      "inputs": [
        {
          "internalType": "address",
          "name": "from",
          "type": "address"
        },
        {
          "internalType": "address",
          "name": "to",
          "type": "address"
        },
        {
          "internalType": "uint256",
          "name": "tokenId",
          "type": "uint256"
        }
      ],
      "name": "safeTransferFrom",
      "outputs": [],
      "stateMutability": "nonpayable",
      "type": "function"
    },
    {
      "inputs": [
        {
          "internalType": "address",
          "name": "from",
          "type": "address"
        },
        {
          "internalType": "address",
          "name": "to",
          "type": "address"
        },
        {
          "internalType": "uint256",
          "name": "tokenId",
          "type": "uint256"
        },
        {
          "internalType": "bytes",
          "name": "data",
          "type": "bytes"
        }
      ],
      "name": "safeTransferFrom",
      "outputs": [],
      "stateMutability": "nonpayable",
      "type": "function"
    },
    {
      "inputs": [],
      "name": "sendLandNFT",
      "outputs": [
        {
          "internalType": "bool",
          "name": "",
          "type": "bool"
        }
      ],
      "stateMutability": "view",
      "type": "function"
    },
    {
      "inputs": [
        {
          "internalType": "address",
          "name": "operator",
          "type": "address"
        },
        {
          "internalType": "bool",
          "name": "approved",
          "type": "bool"
        }
      ],
      "name": "setApprovalForAll",
      "outputs": [],
      "stateMutability": "nonpayable",
      "type": "function"
    },
    {
      "inputs": [],
      "name": "signer",
      "outputs": [
        {
          "internalType": "address",
          "name": "",
          "type": "address"
        }
      ],
      "stateMutability": "view",
      "type": "function"
    },
    {
      "inputs": [
        {
          "internalType": "bytes4",
          "name": "interfaceId",
          "type": "bytes4"
        }
      ],
      "name": "supportsInterface",
      "outputs": [
        {
          "internalType": "bool",
          "name": "",
          "type": "bool"
        }
      ],
      "stateMutability": "view",
      "type": "function"
    },
    {
      "inputs": [],
      "name": "symbol",
      "outputs": [
        {
          "internalType": "string",
          "name": "",
          "type": "string"
        }
      ],
      "stateMutability": "view",
      "type": "function"
    },
    {
      "inputs": [
        {
          "internalType": "uint256",
          "name": "index",
          "type": "uint256"
        }
      ],
      "name": "tokenByIndex",
      "outputs": [
        {
          "internalType": "uint256",
          "name": "",
          "type": "uint256"
        }
      ],
      "stateMutability": "view",
      "type": "function"
    },
    {
      "inputs": [
        {
          "internalType": "address",
          "name": "owner",
          "type": "address"
        },
        {
          "internalType": "uint256",
          "name": "index",
          "type": "uint256"
        }
      ],
      "name": "tokenOfOwnerByIndex",
      "outputs": [
        {
          "internalType": "uint256",
          "name": "",
          "type": "uint256"
        }
      ],
      "stateMutability": "view",
      "type": "function"
    },
    {
      "inputs": [
        {
          "internalType": "uint256",
          "name": "tokenId",
          "type": "uint256"
        }
      ],
      "name": "tokenURI",
      "outputs": [
        {
          "internalType": "string",
          "name": "",
          "type": "string"
        }
      ],
      "stateMutability": "view",
      "type": "function"
    },
    {
      "inputs": [],
      "name": "totalSupply",
      "outputs": [
        {
          "internalType": "uint256",
          "name": "",
          "type": "uint256"
        }
      ],
      "stateMutability": "view",
      "type": "function"
    },
    {
      "inputs": [
        {
          "internalType": "address",
          "name": "from",
          "type": "address"
        },
        {
          "internalType": "address",
          "name": "to",
          "type": "address"
        },
        {
          "internalType": "uint256",
          "name": "tokenId",
          "type": "uint256"
        }
      ],
      "name": "transferFrom",
      "outputs": [],
      "stateMutability": "nonpayable",
      "type": "function"
    },
    {
      "inputs": [
        {
          "internalType": "string",
          "name": "_baseUri",
          "type": "string"
        }
      ],
      "name": "updateBaseUri",
      "outputs": [],
      "stateMutability": "nonpayable",
      "type": "function"
    },
    {
      "inputs": [
        {
          "internalType": "address",
          "name": "_landNFTAdd",
          "type": "address"
        }
      ],
      "name": "updateLandNFTAdd",
      "outputs": [],
      "stateMutability": "nonpayable",
      "type": "function"
    },
    {
      "inputs": [
        {
          "internalType": "uint256",
          "name": "tokenId",
          "type": "uint256"
        },
        {
          "internalType": "uint256",
          "name": "value",
          "type": "uint256"
        }
      ],
      "name": "updateNftValue",
      "outputs": [],
      "stateMutability": "nonpayable",
      "type": "function"
    },
    {
      "inputs": [
        {
          "internalType": "bool",
          "name": "_sendLandNFT",
          "type": "bool"
        }
      ],
      "name": "updateSendLandNFT",
      "outputs": [],
      "stateMutability": "nonpayable",
      "type": "function"
    }
  ],
  "bytecode": "0x60806040526010805460ff60a01b1916600160a01b17905560016014553480156200002957600080fd5b50604051620033d6380380620033d68339810160408190526200004c91620002da565b6040518060400160405280601281526020017114dc1bdc9d1cc810d95b9d195c8813185b9960721b8152506040518060400160405280600381526020016214d0d360ea1b8152508160009081620000a49190620003b7565b506001620000b38282620003b7565b5050506001600b81905550620000da6001600d6200021460201b620010541790919060201c565b620000e760003362000218565b620001137fa076a07f65bcd51bcb15a0f01a65bc18f2d922acb81bcfd8af4caf5adb5570913362000218565b601380546001600160a01b039384166001600160a01b03199182161790915560108054929093169116179055604080518082018252600881526710985919d953919560c21b6020918201528151808301835260018152603160f81b9082015281517f8b73c3c69bb8fe3d512ecc4cf759cc79239f7b179b0ffacaa9a75d522b39400f818301527fb05c05533edde657b3625e3b807f679c2d2c34b401113f66d2e8df4ef4248e11818401527fc89efdaa54c0f20c7adf612882df0950f5a951637e0307cdcb4c672f298b8bc660608201524660808201523060a0808301919091528351808303909101815260c0909101909252815191012060115562000483565b9055565b6000828152600a602090815260408083206001600160a01b038516845290915290205460ff16620002b9576000828152600a602090815260408083206001600160a01b03851684529091529020805460ff19166001179055620002783390565b6001600160a01b0316816001600160a01b0316837f2f8788117e7eff1d82e926ec794901d17c78024a50270940304540a733656f0d60405160405180910390a45b5050565b80516001600160a01b0381168114620002d557600080fd5b919050565b60008060408385031215620002ee57600080fd5b620002f983620002bd565b91506200030960208401620002bd565b90509250929050565b634e487b7160e01b600052604160045260246000fd5b600181811c908216806200033d57607f821691505b6020821081036200035e57634e487b7160e01b600052602260045260246000fd5b50919050565b601f821115620003b257600081815260208120601f850160051c810160208610156200038d5750805b601f850160051c820191505b81811015620003ae5782815560010162000399565b5050505b505050565b81516001600160401b03811115620003d357620003d362000312565b620003eb81620003e4845462000328565b8462000364565b602080601f8311600181146200042357600084156200040a5750858301515b600019600386901b1c1916600185901b178555620003ae565b600085815260208120601f198616915b82811015620004545788860151825594840194600190910190840162000433565b5085821015620004735787850151600019600388901b60f8161c191681555b5050505050600190811b01905550565b612f4380620004936000396000f3fe608060405234801561001057600080fd5b50600436106102325760003560e01c80634f6ccce71161013057806395d89b41116100b8578063c87b56dd1161007c578063c87b56dd14610501578063d547741f14610514578063e985e9c514610527578063e9f699d814610563578063ea998f8f1461057657600080fd5b806395d89b41146104c35780639abc8320146104cb578063a217fddf146104d3578063a22cb465146104db578063b88d4fde146104ee57600080fd5b80637c05a2a7116100ff5780637c05a2a71461044a5780637ecebe001461046a578063848c93f91461048a57806391d148541461049d57806394d83141146104b057600080fd5b80634f6ccce7146103fc57806360a4b76a1461040f5780636352211e1461042457806370a082311461043757600080fd5b806323b872dd116101be57806336568abe1161018257806336568abe1461039057806339f7e37f146103a357806342842e0e146103b6578063471f9a09146103c95780634832bc2d146103e957600080fd5b806323b872dd1461032b578063248a9ca31461033e5780632f2ff15d146103615780632f745c59146103745780633644e5151461038757600080fd5b80631454df98116102055780631454df98146102b4578063150b7a02146102c757806318160ddd146102f357806322a58c5d14610305578063238ac9331461031857600080fd5b806301ffc9a71461023757806306fdde031461025f578063081812fc14610274578063095ea7b31461029f575b600080fd5b61024a61024536600461251f565b61058a565b60405190151581526020015b60405180910390f35b61026761059b565b604051610256919061258c565b61028761028236600461259f565b61062d565b6040516001600160a01b039091168152602001610256565b6102b26102ad3660046125cd565b610654565b005b601054610287906001600160a01b031681565b6102da6102d53660046126b8565b61076e565b6040516001600160e01b03199091168152602001610256565b6008545b604051908152602001610256565b6102b2610313366004612724565b61077f565b601354610287906001600160a01b031681565b6102b2610339366004612796565b610a37565b6102f761034c36600461259f565b6000908152600a602052604090206001015490565b6102b261036f3660046127d7565b610a68565b6102f76103823660046125cd565b610a8d565b6102f760115481565b6102b261039e3660046127d7565b610b23565b6102b26103b1366004612807565b610b9d565b6102b26103c4366004612796565b610c06565b6102f76103d736600461259f565b600e6020526000908152604090205481565b6102b26103f7366004612850565b610c21565b6102f761040a36600461259f565b610c5c565b6102f7600080516020612eee83398151915281565b61028761043236600461259f565b610cef565b6102f7610445366004612850565b610d4f565b6102f761045836600461259f565b600f6020526000908152604090205481565b6102f7610478366004612850565b60126020526000908152604090205481565b6102b2610498366004612882565b610dd5565b61024a6104ab3660046127d7565b610e0c565b6102b26104be36600461291d565b610e37565b610267610ec3565b610267610ed2565b6102f7600081565b6102b26104e9366004612964565b610f60565b6102b26104fc3660046126b8565b610f6b565b61026761050f36600461259f565b610f9d565b6102b26105223660046127d7565b611004565b61024a610535366004612999565b6001600160a01b03918216600090815260056020908152604080832093909416825291909152205460ff1690565b6102b26105713660046129c7565b611029565b60105461024a90600160a01b900460ff1681565b600061059582611058565b92915050565b6060600080546105aa906129e9565b80601f01602080910402602001604051908101604052809291908181526020018280546105d6906129e9565b80156106235780601f106105f857610100808354040283529160200191610623565b820191906000526020600020905b81548152906001019060200180831161060657829003601f168201915b5050505050905090565b60006106388261107d565b506000908152600460205260409020546001600160a01b031690565b600061065f82610cef565b9050806001600160a01b0316836001600160a01b0316036106d15760405162461bcd60e51b815260206004820152602160248201527f4552433732313a20617070726f76616c20746f2063757272656e74206f776e656044820152603960f91b60648201526084015b60405180910390fd5b336001600160a01b03821614806106ed57506106ed8133610535565b61075f5760405162461bcd60e51b815260206004820152603d60248201527f4552433732313a20617070726f76652063616c6c6572206973206e6f7420746f60448201527f6b656e206f776e6572206f7220617070726f76656420666f7220616c6c00000060648201526084016106c8565b61076983836110df565b505050565b630a85bd0160e11b5b949350505050565b61078761114d565b600080600061079685856111a6565b92509250925082516002146107ed5760405162461bcd60e51b815260206004820152601f60248201527f6572726f723a206e6674496473206172726179206c656e67746820213d20320060448201526064016106c8565b6006821061082e5760405162461bcd60e51b815260206004820152600e60248201526d6572726f723a206e66745479706560901b60448201526064016106c8565b6000805b84518110156109435783600e600087848151811061085257610852612a23565b6020026020010151815260200190815260200160002054146108c15760405162461bcd60e51b815260206004820152602260248201527f6572726f723a206e66742074797065206e6f7420656171756c73206e66745479604482015261706560f01b60648201526084016106c8565b6108f73361dead8784815181106108da576108da612a23565b602002602001015160405180602001604052806000815250610f6b565b600f600086838151811061090d5761090d612a23565b60200260200101518152602001908152602001600020548261092f9190612a4f565b91508061093b81612a62565b915050610832565b50600061095b610954856001612a4f565b3385611535565b601054909150600160a01b900460ff16156109dc576010546040516365a2032f60e11b815260048101869052600160248201523360448201526001600160a01b039091169063cb44065e90606401600060405180830381600087803b1580156109c357600080fd5b505af11580156109d7573d6000803e3d6000fd5b505050505b337f89752312bc448c22998403d874eec7353036d8f40a4e0e68dbb0ac1e7bf0f715868684610a0c826001612a4f565b604051610a1c9493929190612a7b565b60405180910390a25050505050610a336001600b55565b5050565b610a4133826115c5565b610a5d5760405162461bcd60e51b81526004016106c890612ad2565b610769838383611643565b6000828152600a6020526040902060010154610a83816117b4565b61076983836117be565b6000610a9883610d4f565b8210610afa5760405162461bcd60e51b815260206004820152602b60248201527f455243373231456e756d657261626c653a206f776e657220696e646578206f7560448201526a74206f6620626f756e647360a81b60648201526084016106c8565b506001600160a01b03919091166000908152600660209081526040808320938352929052205490565b6001600160a01b0381163314610b935760405162461bcd60e51b815260206004820152602f60248201527f416363657373436f6e74726f6c3a2063616e206f6e6c792072656e6f756e636560448201526e103937b632b9903337b91039b2b63360891b60648201526084016106c8565b610a338282611844565b600080516020612eee833981519152610bb5816117b4565b6000825111610bfa5760405162461bcd60e51b815260206004820152601160248201527008aa4a49ea474b48aa49ebe988a9c8ea89607b1b60448201526064016106c8565b600c6107698382612b6e565b61076983838360405180602001604052806000815250610f6b565b600080516020612eee833981519152610c39816117b4565b50601080546001600160a01b0319166001600160a01b0392909216919091179055565b6000610c6760085490565b8210610cca5760405162461bcd60e51b815260206004820152602c60248201527f455243373231456e756d657261626c653a20676c6f62616c20696e646578206f60448201526b7574206f6620626f756e647360a01b60648201526084016106c8565b60088281548110610cdd57610cdd612a23565b90600052602060002001549050919050565b6000818152600260205260408120546001600160a01b0316806105955760405162461bcd60e51b8152602060048201526018602482015277115490cdcc8c4e881a5b9d985b1a59081d1bdad95b88125160421b60448201526064016106c8565b60006001600160a01b038216610db95760405162461bcd60e51b815260206004820152602960248201527f4552433732313a2061646472657373207a65726f206973206e6f7420612076616044820152683634b21037bbb732b960b91b60648201526084016106c8565b506001600160a01b031660009081526003602052604090205490565b600080516020612eee833981519152610ded816117b4565b5060108054911515600160a01b0260ff60a01b19909216919091179055565b6000918252600a602090815260408084206001600160a01b0393909316845291905290205460ff1690565b600080516020612eee833981519152610e4f816117b4565b60005b8351811015610ebd576000848281518110610e6f57610e6f612a23565b60200260200101511115610eab57610eab610e8b826001612a4f565b858381518110610e9d57610e9d612a23565b6020026020010151856118ab565b80610eb581612a62565b915050610e52565b50505050565b6060600180546105aa906129e9565b600c8054610edf906129e9565b80601f0160208091040260200160405190810160405280929190818152602001828054610f0b906129e9565b8015610f585780601f10610f2d57610100808354040283529160200191610f58565b820191906000526020600020905b815481529060010190602001808311610f3b57829003601f168201915b505050505081565b610a33338383611958565b610f7533836115c5565b610f915760405162461bcd60e51b81526004016106c890612ad2565b610ebd84848484611a26565b6060610fa88261107d565b6000610fb2611a59565b90506000815111610fd25760405180602001604052806000815250610ffd565b80610fdc84611a68565b604051602001610fed929190612c2e565b6040516020818303038152906040525b9392505050565b6000828152600a602052604090206001015461101f816117b4565b6107698383611844565b600080516020612eee833981519152611041816117b4565b506000918252600f602052604090912055565b9055565b60006001600160e01b03198216637965db0b60e01b1480610595575061059582611afb565b6000818152600260205260409020546001600160a01b03166110dc5760405162461bcd60e51b8152602060048201526018602482015277115490cdcc8c4e881a5b9d985b1a59081d1bdad95b88125160421b60448201526064016106c8565b50565b600081815260046020526040902080546001600160a01b0319166001600160a01b038416908117909155819061111482610cef565b6001600160a01b03167f8c5be1e5ebec7d5bd14f71427d1e84f3dd0314c0f7b2291e5b200ac8c7c3b92560405160405180910390a45050565b6002600b540361119f5760405162461bcd60e51b815260206004820152601f60248201527f5265656e7472616e637947756172643a207265656e7472616e742063616c6c0060448201526064016106c8565b6002600b55565b6060600080808080808080806111be8b8d018d612c5d565b9650965096509650965096509650336001600160a01b0316876001600160a01b0316146112265760405162461bcd60e51b81526020600482015260166024820152752130b233b2a7232a1d1024a72b20a624a22faaa9a2a960511b60448201526064016106c8565b3360009081526012602052604090205483146112845760405162461bcd60e51b815260206004820152601760248201527f42616467654e46543a20494e56414c49445f4e4f4e434500000000000000000060448201526064016106c8565b814211156112c85760405162461bcd60e51b815260206004820152601160248201527010985919d95391950e881512535153d555607a1b60448201526064016106c8565b60008060006112d684611b20565b925092509250600060115460405160200161136e907f5065726d6974286164647265737320757365722c75696e743235365b5d206e6681527f744964732c75696e74323536206e6674547970652c75696e74323536206e667460208201527f56616c75652c75696e74323536206e6f6e63652c75696e7432353620646561646040820152646c696e652960d81b606082015260650190565b604051602081830303815290604052805190602001208c8c6040516020016113969190612cfa565b60408051601f198184030181528282528051602091820120908301949094526001600160a01b03909216918101919091526060810191909152608081018b905260a081018a905260c0810189905260e08101889052610100016040516020818303038152906040528051906020012060405160200161142c92919061190160f01b81526002810192909252602282015260420190565b60408051601f1981840301815282825280516020918201206000845290830180835281905260ff8716918301919091526060820185905260808201849052915060019060a0016020604051602081039080840390855afa158015611494573d6000803e3d6000fd5b5050604051601f1901516013546001600160a01b0390811691161490506114fd5760405162461bcd60e51b815260206004820152601860248201527f42616467654e46543a20494e56414c49445f53494e474552000000000000000060448201526064016106c8565b33600090815260126020526040812080549161151883612a62565b90915550999d50979b509599505050505050505050509250925092565b600080611541600d5490565b9050611551600d80546001019055565b6000818152600e60209081526040808320889055600f90915290208390556115798482611b92565b60408051828152602081018790526001600160a01b038616917f4c209b5fc8ad50758f13e2e1088ba56a560dff690a1c6fef26394f4c03821c4f910160405180910390a2949350505050565b6000806115d183610cef565b9050806001600160a01b0316846001600160a01b0316148061161857506001600160a01b0380821660009081526005602090815260408083209388168352929052205460ff165b806107775750836001600160a01b03166116318461062d565b6001600160a01b031614949350505050565b826001600160a01b031661165682610cef565b6001600160a01b03161461167c5760405162461bcd60e51b81526004016106c890612d30565b6001600160a01b0382166116de5760405162461bcd60e51b8152602060048201526024808201527f4552433732313a207472616e7366657220746f20746865207a65726f206164646044820152637265737360e01b60648201526084016106c8565b6116eb8383836001611bac565b826001600160a01b03166116fe82610cef565b6001600160a01b0316146117245760405162461bcd60e51b81526004016106c890612d30565b600081815260046020908152604080832080546001600160a01b03199081169091556001600160a01b0387811680865260038552838620805460001901905590871680865283862080546001019055868652600290945282852080549092168417909155905184937fddf252ad1be2c89b69c2b068fc378daa952ba7f163c4a11628f55a4df523b3ef91a4505050565b6110dc8133611bb8565b6117c88282610e0c565b610a33576000828152600a602090815260408083206001600160a01b03851684529091529020805460ff191660011790556118003390565b6001600160a01b0316816001600160a01b0316837f2f8788117e7eff1d82e926ec794901d17c78024a50270940304540a733656f0d60405160405180910390a45050565b61184e8282610e0c565b15610a33576000828152600a602090815260408083206001600160a01b0385168085529252808320805460ff1916905551339285917ff6391f5c32d9c69d2a47ea670b442974b53935d1edc7fd64eb21e047a839171b9190a45050565b60005b82811015610ebd5760006118c1600d5490565b90506118d1600d80546001019055565b6000818152600e60209081526040808320889055600f9091529020671158e460913d000090556119018382611b92565b60408051828152602081018790526001600160a01b038516917f4c209b5fc8ad50758f13e2e1088ba56a560dff690a1c6fef26394f4c03821c4f910160405180910390a2508061195081612a62565b9150506118ae565b816001600160a01b0316836001600160a01b0316036119b95760405162461bcd60e51b815260206004820152601960248201527f4552433732313a20617070726f766520746f2063616c6c65720000000000000060448201526064016106c8565b6001600160a01b03838116600081815260056020908152604080832094871680845294825291829020805460ff191686151590811790915591519182527f17307eab39ab6107e8899845ad3d59bd9653f200f220920489ca2b5937696c31910160405180910390a3505050565b611a31848484611643565b611a3d84848484611c11565b610ebd5760405162461bcd60e51b81526004016106c890612d75565b6060600c80546105aa906129e9565b60606000611a7583611d0f565b600101905060008167ffffffffffffffff811115611a9557611a956125f9565b6040519080825280601f01601f191660200182016040528015611abf576020820181803683370190505b5090508181016020015b600019016f181899199a1a9b1b9c1cb0b131b232b360811b600a86061a8153600a8504945084611ac957509392505050565b60006001600160e01b0319821663780e9d6360e01b1480610595575061059582611de7565b60008060008351604114611b765760405162461bcd60e51b815260206004820152601a60248201527f4e6f7420496e76616c6964205369676e6174757265204461746100000000000060448201526064016106c8565b5050506020810151604082015160609092015160001a92909190565b610a33828260405180602001604052806000815250611e37565b610ebd84848484611e6a565b611bc28282610e0c565b610a3357611bcf81611faa565b611bda836020611fbc565b604051602001611beb929190612dc7565b60408051601f198184030181529082905262461bcd60e51b82526106c89160040161258c565b60006001600160a01b0384163b15611d0757604051630a85bd0160e11b81526001600160a01b0385169063150b7a0290611c55903390899088908890600401612e3c565b6020604051808303816000875af1925050508015611c90575060408051601f3d908101601f19168201909252611c8d91810190612e79565b60015b611ced573d808015611cbe576040519150601f19603f3d011682016040523d82523d6000602084013e611cc3565b606091505b508051600003611ce55760405162461bcd60e51b81526004016106c890612d75565b805181602001fd5b6001600160e01b031916630a85bd0160e11b149050610777565b506001610777565b60008072184f03e93ff9f4daa797ed6e38ed64bf6a1f0160401b8310611d4e5772184f03e93ff9f4daa797ed6e38ed64bf6a1f0160401b830492506040015b6d04ee2d6d415b85acef81000000008310611d7a576d04ee2d6d415b85acef8100000000830492506020015b662386f26fc100008310611d9857662386f26fc10000830492506010015b6305f5e1008310611db0576305f5e100830492506008015b6127108310611dc457612710830492506004015b60648310611dd6576064830492506002015b600a83106105955760010192915050565b60006001600160e01b031982166380ac58cd60e01b1480611e1857506001600160e01b03198216635b5e139f60e01b145b8061059557506301ffc9a760e01b6001600160e01b0319831614610595565b611e418383612158565b611e4e6000848484611c11565b6107695760405162461bcd60e51b81526004016106c890612d75565b611e76848484846122f1565b6001811115611ee55760405162461bcd60e51b815260206004820152603560248201527f455243373231456e756d657261626c653a20636f6e7365637574697665207472604482015274185b9cd9995c9cc81b9bdd081cdd5c1c1bdc9d1959605a1b60648201526084016106c8565b816001600160a01b038516611f4157611f3c81600880546000838152600960205260408120829055600182018355919091527ff3f7a9fe364faab93b216da50a3214154f22a0a2b415b23a84c8169e8b636ee30155565b611f64565b836001600160a01b0316856001600160a01b031614611f6457611f648582612379565b6001600160a01b038416611f8057611f7b81612416565b611fa3565b846001600160a01b0316846001600160a01b031614611fa357611fa384826124c5565b5050505050565b60606105956001600160a01b03831660145b60606000611fcb836002612e96565b611fd6906002612a4f565b67ffffffffffffffff811115611fee57611fee6125f9565b6040519080825280601f01601f191660200182016040528015612018576020820181803683370190505b509050600360fc1b8160008151811061203357612033612a23565b60200101906001600160f81b031916908160001a905350600f60fb1b8160018151811061206257612062612a23565b60200101906001600160f81b031916908160001a9053506000612086846002612e96565b612091906001612a4f565b90505b6001811115612109576f181899199a1a9b1b9c1cb0b131b232b360811b85600f16601081106120c5576120c5612a23565b1a60f81b8282815181106120db576120db612a23565b60200101906001600160f81b031916908160001a90535060049490941c9361210281612ead565b9050612094565b508315610ffd5760405162461bcd60e51b815260206004820181905260248201527f537472696e67733a20686578206c656e67746820696e73756666696369656e7460448201526064016106c8565b6001600160a01b0382166121ae5760405162461bcd60e51b815260206004820181905260248201527f4552433732313a206d696e7420746f20746865207a65726f206164647265737360448201526064016106c8565b6000818152600260205260409020546001600160a01b0316156122135760405162461bcd60e51b815260206004820152601c60248201527f4552433732313a20746f6b656e20616c7265616479206d696e7465640000000060448201526064016106c8565b612221600083836001611bac565b6000818152600260205260409020546001600160a01b0316156122865760405162461bcd60e51b815260206004820152601c60248201527f4552433732313a20746f6b656e20616c7265616479206d696e7465640000000060448201526064016106c8565b6001600160a01b038216600081815260036020908152604080832080546001019055848352600290915280822080546001600160a01b0319168417905551839291907fddf252ad1be2c89b69c2b068fc378daa952ba7f163c4a11628f55a4df523b3ef908290a45050565b6001811115610ebd576001600160a01b03841615612337576001600160a01b03841660009081526003602052604081208054839290612331908490612ec4565b90915550505b6001600160a01b03831615610ebd576001600160a01b0383166000908152600360205260408120805483929061236e908490612a4f565b909155505050505050565b6000600161238684610d4f565b6123909190612ec4565b6000838152600760205260409020549091508082146123e3576001600160a01b03841660009081526006602090815260408083208584528252808320548484528184208190558352600790915290208190555b5060009182526007602090815260408084208490556001600160a01b039094168352600681528383209183525290812055565b60085460009061242890600190612ec4565b6000838152600960205260408120546008805493945090928490811061245057612450612a23565b90600052602060002001549050806008838154811061247157612471612a23565b60009182526020808320909101929092558281526009909152604080822084905585825281205560088054806124a9576124a9612ed7565b6001900381819060005260206000200160009055905550505050565b60006124d083610d4f565b6001600160a01b039093166000908152600660209081526040808320868452825280832085905593825260079052919091209190915550565b6001600160e01b0319811681146110dc57600080fd5b60006020828403121561253157600080fd5b8135610ffd81612509565b60005b8381101561255757818101518382015260200161253f565b50506000910152565b6000815180845261257881602086016020860161253c565b601f01601f19169290920160200192915050565b602081526000610ffd6020830184612560565b6000602082840312156125b157600080fd5b5035919050565b6001600160a01b03811681146110dc57600080fd5b600080604083850312156125e057600080fd5b82356125eb816125b8565b946020939093013593505050565b634e487b7160e01b600052604160045260246000fd5b604051601f8201601f1916810167ffffffffffffffff81118282101715612638576126386125f9565b604052919050565b600067ffffffffffffffff83111561265a5761265a6125f9565b61266d601f8401601f191660200161260f565b905082815283838301111561268157600080fd5b828260208301376000602084830101529392505050565b600082601f8301126126a957600080fd5b610ffd83833560208501612640565b600080600080608085870312156126ce57600080fd5b84356126d9816125b8565b935060208501356126e9816125b8565b925060408501359150606085013567ffffffffffffffff81111561270c57600080fd5b61271887828801612698565b91505092959194509250565b6000806020838503121561273757600080fd5b823567ffffffffffffffff8082111561274f57600080fd5b818501915085601f83011261276357600080fd5b81358181111561277257600080fd5b86602082850101111561278457600080fd5b60209290920196919550909350505050565b6000806000606084860312156127ab57600080fd5b83356127b6816125b8565b925060208401356127c6816125b8565b929592945050506040919091013590565b600080604083850312156127ea57600080fd5b8235915060208301356127fc816125b8565b809150509250929050565b60006020828403121561281957600080fd5b813567ffffffffffffffff81111561283057600080fd5b8201601f8101841361284157600080fd5b61077784823560208401612640565b60006020828403121561286257600080fd5b8135610ffd816125b8565b8035801515811461287d57600080fd5b919050565b60006020828403121561289457600080fd5b610ffd8261286d565b600082601f8301126128ae57600080fd5b8135602067ffffffffffffffff8211156128ca576128ca6125f9565b8160051b6128d982820161260f565b92835284810182019282810190878511156128f357600080fd5b83870192505b84831015612912578235825291830191908301906128f9565b979650505050505050565b6000806040838503121561293057600080fd5b823567ffffffffffffffff81111561294757600080fd5b6129538582860161289d565b92505060208301356127fc816125b8565b6000806040838503121561297757600080fd5b8235612982816125b8565b91506129906020840161286d565b90509250929050565b600080604083850312156129ac57600080fd5b82356129b7816125b8565b915060208301356127fc816125b8565b600080604083850312156129da57600080fd5b50508035926020909101359150565b600181811c908216806129fd57607f821691505b602082108103612a1d57634e487b7160e01b600052602260045260246000fd5b50919050565b634e487b7160e01b600052603260045260246000fd5b634e487b7160e01b600052601160045260246000fd5b8082018082111561059557610595612a39565b600060018201612a7457612a74612a39565b5060010190565b6080808252855190820181905260009060209060a0840190828901845b82811015612ab457815184529284019290840190600101612a98565b50505090830195909552506040810192909252606090910152919050565b6020808252602e908201527f4552433732313a2063616c6c6572206973206e6f7420746f6b656e206f776e6560408201526d1c881b9bdc88185c1c1c9bdd995960921b606082015260800190565b601f82111561076957600081815260208120601f850160051c81016020861015612b475750805b601f850160051c820191505b81811015612b6657828155600101612b53565b505050505050565b815167ffffffffffffffff811115612b8857612b886125f9565b612b9c81612b9684546129e9565b84612b20565b602080601f831160018114612bd15760008415612bb95750858301515b600019600386901b1c1916600185901b178555612b66565b600085815260208120601f198616915b82811015612c0057888601518255948401946001909101908401612be1565b5085821015612c1e5787850151600019600388901b60f8161c191681555b5050505050600190811b01905550565b60008351612c4081846020880161253c565b835190830190612c5481836020880161253c565b01949350505050565b600080600080600080600060e0888a031215612c7857600080fd5b8735612c83816125b8565b9650602088013567ffffffffffffffff80821115612ca057600080fd5b612cac8b838c0161289d565b975060408a0135965060608a0135955060808a0135945060a08a0135935060c08a0135915080821115612cde57600080fd5b50612ceb8a828b01612698565b91505092959891949750929550565b815160009082906020808601845b83811015612d2457815185529382019390820190600101612d08565b50929695505050505050565b60208082526025908201527f4552433732313a207472616e736665722066726f6d20696e636f72726563742060408201526437bbb732b960d91b606082015260800190565b60208082526032908201527f4552433732313a207472616e7366657220746f206e6f6e20455243373231526560408201527131b2b4bb32b91034b6b83632b6b2b73a32b960711b606082015260800190565b7f416363657373436f6e74726f6c3a206163636f756e7420000000000000000000815260008351612dff81601785016020880161253c565b7001034b99036b4b9b9b4b733903937b6329607d1b6017918401918201528351612e3081602884016020880161253c565b01602801949350505050565b6001600160a01b0385811682528416602082015260408101839052608060608201819052600090612e6f90830184612560565b9695505050505050565b600060208284031215612e8b57600080fd5b8151610ffd81612509565b808202811582820484141761059557610595612a39565b600081612ebc57612ebc612a39565b506000190190565b8181038181111561059557610595612a39565b634e487b7160e01b600052603160045260246000fdfea076a07f65bcd51bcb15a0f01a65bc18f2d922acb81bcfd8af4caf5adb557091a26469706673582212207962bf1010db5da1e29a9264dda92bd3f734e4055423f6a7f5c39df651c6dbb364736f6c63430008110033",
  "linkReferences": {},
  "deployedLinkReferences": {}
}