{
  "_format": "hh-sol-artifact-1",
  "contractName": "LandNFT",
  "sourceName": "contracts/LandNFT.sol",
  "abi": [
    {
      "inputs": [
        {
          "internalType": "address",
          "name": "_singer",
          "type": "address"
        }
      ],
      "stateMutability": "nonpayable",
      "type": "constructor"
    },
    {
      "anonymous": false,
      "inputs": [
        {
          "indexed": true,
          "internalType": "address",
          "name": "owner",
          "type": "address"
        },
        {
          "indexed": true,
          "internalType": "address",
          "name": "approved",
          "type": "address"
        },
        {
          "indexed": true,
          "internalType": "uint256",
          "name": "tokenId",
          "type": "uint256"
        }
      ],
      "name": "Approval",
      "type": "event"
    },
    {
      "anonymous": false,
      "inputs": [
        {
          "indexed": true,
          "internalType": "address",
          "name": "owner",
          "type": "address"
        },
        {
          "indexed": true,
          "internalType": "address",
          "name": "operator",
          "type": "address"
        },
        {
          "indexed": false,
          "internalType": "bool",
          "name": "approved",
          "type": "bool"
        }
      ],
      "name": "ApprovalForAll",
      "type": "event"
    },
    {
      "anonymous": false,
      "inputs": [
        {
          "indexed": true,
          "internalType": "address",
          "name": "caller",
          "type": "address"
        },
        {
          "indexed": false,
          "internalType": "uint256",
          "name": "tokenId",
          "type": "uint256"
        },
        {
          "indexed": false,
          "internalType": "uint256",
          "name": "nftType",
          "type": "uint256"
        }
      ],
      "name": "Mint",
      "type": "event"
    },
    {
      "anonymous": false,
      "inputs": [
        {
          "indexed": true,
          "internalType": "bytes32",
          "name": "role",
          "type": "bytes32"
        },
        {
          "indexed": true,
          "internalType": "bytes32",
          "name": "previousAdminRole",
          "type": "bytes32"
        },
        {
          "indexed": true,
          "internalType": "bytes32",
          "name": "newAdminRole",
          "type": "bytes32"
        }
      ],
      "name": "RoleAdminChanged",
      "type": "event"
    },
    {
      "anonymous": false,
      "inputs": [
        {
          "indexed": true,
          "internalType": "bytes32",
          "name": "role",
          "type": "bytes32"
        },
        {
          "indexed": true,
          "internalType": "address",
          "name": "account",
          "type": "address"
        },
        {
          "indexed": true,
          "internalType": "address",
          "name": "sender",
          "type": "address"
        }
      ],
      "name": "RoleGranted",
      "type": "event"
    },
    {
      "anonymous": false,
      "inputs": [
        {
          "indexed": true,
          "internalType": "bytes32",
          "name": "role",
          "type": "bytes32"
        },
        {
          "indexed": true,
          "internalType": "address",
          "name": "account",
          "type": "address"
        },
        {
          "indexed": true,
          "internalType": "address",
          "name": "sender",
          "type": "address"
        }
      ],
      "name": "RoleRevoked",
      "type": "event"
    },
    {
      "anonymous": false,
      "inputs": [
        {
          "indexed": true,
          "internalType": "address",
          "name": "from",
          "type": "address"
        },
        {
          "indexed": true,
          "internalType": "address",
          "name": "to",
          "type": "address"
        },
        {
          "indexed": true,
          "internalType": "uint256",
          "name": "tokenId",
          "type": "uint256"
        }
      ],
      "name": "Transfer",
      "type": "event"
    },
    {
      "inputs": [],
      "name": "DEFAULT_ADMIN_ROLE",
      "outputs": [
        {
          "internalType": "bytes32",
          "name": "",
          "type": "bytes32"
        }
      ],
      "stateMutability": "view",
      "type": "function"
    },
    {
      "inputs": [],
      "name": "DOMAIN_SEPARATOR",
      "outputs": [
        {
          "internalType": "bytes32",
          "name": "",
          "type": "bytes32"
        }
      ],
      "stateMutability": "view",
      "type": "function"
    },
    {
      "inputs": [],
      "name": "MANAGE_ROLE",
      "outputs": [
        {
          "internalType": "bytes32",
          "name": "",
          "type": "bytes32"
        }
      ],
      "stateMutability": "view",
      "type": "function"
    },
    {
      "inputs": [
        {
          "internalType": "address",
          "name": "to",
          "type": "address"
        },
        {
          "internalType": "uint256",
          "name": "tokenId",
          "type": "uint256"
        }
      ],
      "name": "approve",
      "outputs": [],
      "stateMutability": "nonpayable",
      "type": "function"
    },
    {
      "inputs": [
        {
          "internalType": "address",
          "name": "owner",
          "type": "address"
        }
      ],
      "name": "balanceOf",
      "outputs": [
        {
          "internalType": "uint256",
          "name": "",
          "type": "uint256"
        }
      ],
      "stateMutability": "view",
      "type": "function"
    },
    {
      "inputs": [],
      "name": "baseUri",
      "outputs": [
        {
          "internalType": "string",
          "name": "",
          "type": "string"
        }
      ],
      "stateMutability": "view",
      "type": "function"
    },
    {
      "inputs": [
        {
          "internalType": "uint256",
          "name": "tokenId",
          "type": "uint256"
        }
      ],
      "name": "getApproved",
      "outputs": [
        {
          "internalType": "address",
          "name": "",
          "type": "address"
        }
      ],
      "stateMutability": "view",
      "type": "function"
    },
    {
      "inputs": [
        {
          "internalType": "bytes32",
          "name": "role",
          "type": "bytes32"
        }
      ],
      "name": "getRoleAdmin",
      "outputs": [
        {
          "internalType": "bytes32",
          "name": "",
          "type": "bytes32"
        }
      ],
      "stateMutability": "view",
      "type": "function"
    },
    {
      "inputs": [
        {
          "internalType": "bytes32",
          "name": "role",
          "type": "bytes32"
        },
        {
          "internalType": "address",
          "name": "account",
          "type": "address"
        }
      ],
      "name": "grantRole",
      "outputs": [],
      "stateMutability": "nonpayable",
      "type": "function"
    },
    {
      "inputs": [
        {
          "internalType": "bytes32",
          "name": "role",
          "type": "bytes32"
        },
        {
          "internalType": "address",
          "name": "account",
          "type": "address"
        }
      ],
      "name": "hasRole",
      "outputs": [
        {
          "internalType": "bool",
          "name": "",
          "type": "bool"
        }
      ],
      "stateMutability": "view",
      "type": "function"
    },
    {
      "inputs": [
        {
          "internalType": "address",
          "name": "owner",
          "type": "address"
        },
        {
          "internalType": "address",
          "name": "operator",
          "type": "address"
        }
      ],
      "name": "isApprovedForAll",
      "outputs": [
        {
          "internalType": "bool",
          "name": "",
          "type": "bool"
        }
      ],
      "stateMutability": "view",
      "type": "function"
    },
    {
      "inputs": [
        {
          "internalType": "uint256",
          "name": "",
          "type": "uint256"
        }
      ],
      "name": "landType",
      "outputs": [
        {
          "internalType": "uint256",
          "name": "",
          "type": "uint256"
        }
      ],
      "stateMutability": "view",
      "type": "function"
    },
    {
      "inputs": [
        {
          "internalType": "bytes",
          "name": "data",
          "type": "bytes"
        }
      ],
      "name": "mint",
      "outputs": [],
      "stateMutability": "nonpayable",
      "type": "function"
    },
    {
      "inputs": [
        {
          "internalType": "uint256",
          "name": "nftType",
          "type": "uint256"
        },
        {
          "internalType": "uint256",
          "name": "amount",
          "type": "uint256"
        },
        {
          "internalType": "address",
          "name": "to",
          "type": "address"
        }
      ],
      "name": "mint2",
      "outputs": [],
      "stateMutability": "nonpayable",
      "type": "function"
    },
    {
      "inputs": [
        {
          "internalType": "uint256[]",
          "name": "nftTypes",
          "type": "uint256[]"
        },
        {
          "internalType": "address",
          "name": "to",
          "type": "address"
        }
      ],
      "name": "mintTo",
      "outputs": [],
      "stateMutability": "nonpayable",
      "type": "function"
    },
    {
      "inputs": [],
      "name": "name",
      "outputs": [
        {
          "internalType": "string",
          "name": "",
          "type": "string"
        }
      ],
      "stateMutability": "view",
      "type": "function"
    },
    {
      "inputs": [
        {
          "internalType": "address",
          "name": "",
          "type": "address"
        }
      ],
      "name": "nonces",
      "outputs": [
        {
          "internalType": "uint256",
          "name": "",
          "type": "uint256"
        }
      ],
      "stateMutability": "view",
      "type": "function"
    },
    {
      "inputs": [
        {
          "internalType": "address",
          "name": "",
          "type": "address"
        },
        {
          "internalType": "address",
          "name": "",
          "type": "address"
        },
        {
          "internalType": "uint256",
          "name": "",
          "type": "uint256"
        },
        {
          "internalType": "bytes",
          "name": "",
          "type": "bytes"
        }
      ],
      "name": "onERC721Received",
      "outputs": [
        {
          "internalType": "bytes4",
          "name": "",
          "type": "bytes4"
        }
      ],
      "stateMutability": "nonpayable",
      "type": "function"
    },
    {
      "inputs": [
        {
          "internalType": "uint256",
          "name": "tokenId",
          "type": "uint256"
        }
      ],
      "name": "ownerOf",
      "outputs": [
        {
          "internalType": "address",
          "name": "",
          "type": "address"
        }
      ],
      "stateMutability": "view",
      "type": "function"
    },
    {
      "inputs": [
        {
          "internalType": "bytes32",
          "name": "role",
          "type": "bytes32"
        },
        {
          "internalType": "address",
          "name": "account",
          "type": "address"
        }
      ],
      "name": "renounceRole",
      "outputs": [],
      "stateMutability": "nonpayable",
      "type": "function"
    },
    {
      "inputs": [
        {
          "internalType": "bytes32",
          "name": "role",
          "type": "bytes32"
        },
        {
          "internalType": "address",
          "name": "account",
          "type": "address"
        }
      ],
      "name": "revokeRole",
      "outputs": [],
      "stateMutability": "nonpayable",
      "type": "function"
    },
    {
      "inputs": [
        {
          "internalType": "address",
          "name": "from",
          "type": "address"
        },
        {
          "internalType": "address",
          "name": "to",
          "type": "address"
        },
        {
          "internalType": "uint256",
          "name": "tokenId",
          "type": "uint256"
        }
      ],
      "name": "safeTransferFrom",
      "outputs": [],
      "stateMutability": "nonpayable",
      "type": "function"
    },
    {
      "inputs": [
        {
          "internalType": "address",
          "name": "from",
          "type": "address"
        },
        {
          "internalType": "address",
          "name": "to",
          "type": "address"
        },
        {
          "internalType": "uint256",
          "name": "tokenId",
          "type": "uint256"
        },
        {
          "internalType": "bytes",
          "name": "data",
          "type": "bytes"
        }
      ],
      "name": "safeTransferFrom",
      "outputs": [],
      "stateMutability": "nonpayable",
      "type": "function"
    },
    {
      "inputs": [
        {
          "internalType": "address",
          "name": "operator",
          "type": "address"
        },
        {
          "internalType": "bool",
          "name": "approved",
          "type": "bool"
        }
      ],
      "name": "setApprovalForAll",
      "outputs": [],
      "stateMutability": "nonpayable",
      "type": "function"
    },
    {
      "inputs": [],
      "name": "signer",
      "outputs": [
        {
          "internalType": "address",
          "name": "",
          "type": "address"
        }
      ],
      "stateMutability": "view",
      "type": "function"
    },
    {
      "inputs": [
        {
          "internalType": "bytes4",
          "name": "interfaceId",
          "type": "bytes4"
        }
      ],
      "name": "supportsInterface",
      "outputs": [
        {
          "internalType": "bool",
          "name": "",
          "type": "bool"
        }
      ],
      "stateMutability": "view",
      "type": "function"
    },
    {
      "inputs": [],
      "name": "symbol",
      "outputs": [
        {
          "internalType": "string",
          "name": "",
          "type": "string"
        }
      ],
      "stateMutability": "view",
      "type": "function"
    },
    {
      "inputs": [
        {
          "internalType": "uint256",
          "name": "index",
          "type": "uint256"
        }
      ],
      "name": "tokenByIndex",
      "outputs": [
        {
          "internalType": "uint256",
          "name": "",
          "type": "uint256"
        }
      ],
      "stateMutability": "view",
      "type": "function"
    },
    {
      "inputs": [
        {
          "internalType": "address",
          "name": "owner",
          "type": "address"
        },
        {
          "internalType": "uint256",
          "name": "index",
          "type": "uint256"
        }
      ],
      "name": "tokenOfOwnerByIndex",
      "outputs": [
        {
          "internalType": "uint256",
          "name": "",
          "type": "uint256"
        }
      ],
      "stateMutability": "view",
      "type": "function"
    },
    {
      "inputs": [
        {
          "internalType": "uint256",
          "name": "tokenId",
          "type": "uint256"
        }
      ],
      "name": "tokenURI",
      "outputs": [
        {
          "internalType": "string",
          "name": "",
          "type": "string"
        }
      ],
      "stateMutability": "view",
      "type": "function"
    },
    {
      "inputs": [],
      "name": "totalSupply",
      "outputs": [
        {
          "internalType": "uint256",
          "name": "",
          "type": "uint256"
        }
      ],
      "stateMutability": "view",
      "type": "function"
    },
    {
      "inputs": [
        {
          "internalType": "address",
          "name": "from",
          "type": "address"
        },
        {
          "internalType": "address",
          "name": "to",
          "type": "address"
        },
        {
          "internalType": "uint256",
          "name": "tokenId",
          "type": "uint256"
        }
      ],
      "name": "transferFrom",
      "outputs": [],
      "stateMutability": "nonpayable",
      "type": "function"
    },
    {
      "inputs": [
        {
          "internalType": "string",
          "name": "_baseUri",
          "type": "string"
        }
      ],
      "name": "updateBaseUri",
      "outputs": [],
      "stateMutability": "nonpayable",
      "type": "function"
    }
  ],
  "bytecode": "0x608060405260016011553480156200001657600080fd5b5060405162002e1238038062002e12833981016040819052620000399162000295565b6040518060400160405280601281526020017114dc1bdc9d1cc810d95b9d195c8813185b9960721b8152506040518060400160405280600381526020016214d0d360ea1b81525081600090816200009191906200036c565b506001620000a082826200036c565b505050620000bf6001600c620001ec60201b6200103f1790919060201c565b620000cc600033620001f0565b620000f87fa076a07f65bcd51bcb15a0f01a65bc18f2d922acb81bcfd8af4caf5adb55709133620001f0565b601080546001600160a01b0319166001600160a01b0392909216919091179055604080518082018252600781526613185b9913919560ca1b6020918201528151808301835260018152603160f81b9082015281517f8b73c3c69bb8fe3d512ecc4cf759cc79239f7b179b0ffacaa9a75d522b39400f818301527f5b33b75e34ccfe8f1b3b7f2c8c8002f0f73c82abbc35af927ce247353281cde2818401527fc89efdaa54c0f20c7adf612882df0950f5a951637e0307cdcb4c672f298b8bc660608201524660808201523060a0808301919091528351808303909101815260c09091019092528151910120600e5562000438565b9055565b6000828152600a602090815260408083206001600160a01b038516845290915290205460ff1662000291576000828152600a602090815260408083206001600160a01b03851684529091529020805460ff19166001179055620002503390565b6001600160a01b0316816001600160a01b0316837f2f8788117e7eff1d82e926ec794901d17c78024a50270940304540a733656f0d60405160405180910390a45b5050565b600060208284031215620002a857600080fd5b81516001600160a01b0381168114620002c057600080fd5b9392505050565b634e487b7160e01b600052604160045260246000fd5b600181811c90821680620002f257607f821691505b6020821081036200031357634e487b7160e01b600052602260045260246000fd5b50919050565b601f8211156200036757600081815260208120601f850160051c81016020861015620003425750805b601f850160051c820191505b8181101562000363578281556001016200034e565b5050505b505050565b81516001600160401b03811115620003885762000388620002c7565b620003a081620003998454620002dd565b8462000319565b602080601f831160018114620003d85760008415620003bf5750858301515b600019600386901b1c1916600185901b17855562000363565b600085815260208120601f198616915b828110156200040957888601518255948401946001909101908401620003e8565b5085821015620004285787850151600019600388901b60f8161c191681555b5050505050600190811b01905550565b6129ca80620004486000396000f3fe608060405234801561001057600080fd5b50600436106101fb5760003560e01c806360a4b76a1161011a5780639abc8320116100ad578063c87b56dd1161007c578063c87b56dd14610451578063cb44065e14610464578063d547741f14610477578063d82b40a91461048a578063e985e9c5146104aa57600080fd5b80639abc83201461041b578063a217fddf14610423578063a22cb4651461042b578063b88d4fde1461043e57600080fd5b80637ecebe00116100e95780637ecebe00146103cd57806391d14854146103ed57806394d831411461040057806395d89b411461041357600080fd5b806360a4b76a1461037f5780636352211e1461039457806370a08231146103a75780637ba0e2e7146103ba57600080fd5b8063248a9ca31161019257806336568abe1161016157806336568abe1461033357806339f7e37f1461034657806342842e0e146103595780634f6ccce71461036c57600080fd5b8063248a9ca3146102e15780632f2ff15d146103045780632f745c59146103175780633644e5151461032a57600080fd5b8063150b7a02116101ce578063150b7a021461027d57806318160ddd146102a9578063238ac933146102bb57806323b872dd146102ce57600080fd5b806301ffc9a71461020057806306fdde0314610228578063081812fc1461023d578063095ea7b314610268575b600080fd5b61021361020e36600461207d565b6104e6565b60405190151581526020015b60405180910390f35b6102306104f7565b60405161021f91906120ea565b61025061024b3660046120fd565b610589565b6040516001600160a01b03909116815260200161021f565b61027b61027636600461213b565b6105b0565b005b61029061028b366004612226565b6106ca565b6040516001600160e01b0319909116815260200161021f565b6008545b60405190815260200161021f565b601054610250906001600160a01b031681565b61027b6102dc366004612292565b6106db565b6102ad6102ef3660046120fd565b6000908152600a602052604090206001015490565b61027b6103123660046122d3565b61070c565b6102ad61032536600461213b565b610731565b6102ad600e5481565b61027b6103413660046122d3565b6107c7565b61027b610354366004612303565b610845565b61027b610367366004612292565b6108ae565b6102ad61037a3660046120fd565b6108c9565b6102ad60008051602061297583398151915281565b6102506103a23660046120fd565b61095c565b6102ad6103b536600461234c565b6109bc565b61027b6103c8366004612369565b610a42565b6102ad6103db36600461234c565b600f6020526000908152604090205481565b6102136103fb3660046122d3565b610dff565b61027b61040e3660046123db565b610e2a565b610230610eb6565b610230610ec5565b6102ad600081565b61027b610439366004612493565b610f53565b61027b61044c366004612226565b610f5e565b61023061045f3660046120fd565b610f90565b61027b6104723660046124c6565b610ff7565b61027b6104853660046122d3565b61101a565b6102ad6104983660046120fd565b600d6020526000908152604090205481565b6102136104b83660046124ff565b6001600160a01b03918216600090815260056020908152604080832093909416825291909152205460ff1690565b60006104f182611043565b92915050565b6060600080546105069061252d565b80601f01602080910402602001604051908101604052809291908181526020018280546105329061252d565b801561057f5780601f106105545761010080835404028352916020019161057f565b820191906000526020600020905b81548152906001019060200180831161056257829003601f168201915b5050505050905090565b600061059482611068565b506000908152600460205260409020546001600160a01b031690565b60006105bb8261095c565b9050806001600160a01b0316836001600160a01b03160361062d5760405162461bcd60e51b815260206004820152602160248201527f4552433732313a20617070726f76616c20746f2063757272656e74206f776e656044820152603960f91b60648201526084015b60405180910390fd5b336001600160a01b0382161480610649575061064981336104b8565b6106bb5760405162461bcd60e51b815260206004820152603d60248201527f4552433732313a20617070726f76652063616c6c6572206973206e6f7420746f60448201527f6b656e206f776e6572206f7220617070726f76656420666f7220616c6c0000006064820152608401610624565b6106c583836110ca565b505050565b630a85bd0160e11b5b949350505050565b6106e53382611138565b6107015760405162461bcd60e51b815260040161062490612567565b6106c58383836111b6565b6000828152600a602052604090206001015461072781611327565b6106c58383611331565b600061073c836109bc565b821061079e5760405162461bcd60e51b815260206004820152602b60248201527f455243373231456e756d657261626c653a206f776e657220696e646578206f7560448201526a74206f6620626f756e647360a81b6064820152608401610624565b506001600160a01b03919091166000908152600660209081526040808320938352929052205490565b6001600160a01b03811633146108375760405162461bcd60e51b815260206004820152602f60248201527f416363657373436f6e74726f6c3a2063616e206f6e6c792072656e6f756e636560448201526e103937b632b9903337b91039b2b63360891b6064820152608401610624565b61084182826113b7565b5050565b60008051602061297583398151915261085d81611327565b60008251116108a25760405162461bcd60e51b815260206004820152601160248201527008aa4a49ea474b48aa49ebe988a9c8ea89607b1b6044820152606401610624565b600b6106c58382612603565b6106c583838360405180602001604052806000815250610f5e565b60006108d460085490565b82106109375760405162461bcd60e51b815260206004820152602c60248201527f455243373231456e756d657261626c653a20676c6f62616c20696e646578206f60448201526b7574206f6620626f756e647360a01b6064820152608401610624565b6008828154811061094a5761094a6126c3565b90600052602060002001549050919050565b6000818152600260205260408120546001600160a01b0316806104f15760405162461bcd60e51b8152602060048201526018602482015277115490cdcc8c4e881a5b9d985b1a59081d1bdad95b88125160421b6044820152606401610624565b60006001600160a01b038216610a265760405162461bcd60e51b815260206004820152602960248201527f4552433732313a2061646472657373207a65726f206973206e6f7420612076616044820152683634b21037bbb732b960b91b6064820152608401610624565b506001600160a01b031660009081526003602052604090205490565b601154600114610a865760405162461bcd60e51b815260206004820152600f60248201526e13185b991391950e881313d0d2d151608a1b6044820152606401610624565b6000601181905580808080610a9d868801886126d9565b94509450945094509450336001600160a01b0316856001600160a01b031614610b085760405162461bcd60e51b815260206004820152601760248201527f5261626269744e46543a20494e56414c49445f555345520000000000000000006044820152606401610624565b6005841115610b595760405162461bcd60e51b815260206004820152601760248201527f5261626269744e46543a204e4f545f4e46545f545950450000000000000000006044820152606401610624565b336000908152600f60205260409020548314610bb75760405162461bcd60e51b815260206004820152601860248201527f5261626269744e46543a20494e56414c49445f4e4f4e434500000000000000006044820152606401610624565b81421115610bfc5760405162461bcd60e51b8152602060048201526012602482015271149858989a5d1391950e881512535153d55560721b6044820152606401610624565b6000806000610c0a8461141e565b9250925092506000600e54604051602001610c7a907f5065726d6974286164647265737320757365722c75696e74323536206e66745481527f7970652c75696e74323536206e6f6e63652c75696e7432353620646561646c696020820152626e652960e81b604082015260430190565b60408051808303601f190181528282528051602091820120818401526001600160a01b038d1683830152606083018c9052608083018b905260a08084018b90528251808503909101815260c08401909252815191012061190160f01b60e083015260e28201929092526101028101919091526101220160408051601f1981840301815282825280516020918201206000845290830180835281905260ff8716918301919091526060820185905260808201849052915060019060a0016020604051602081039080840390855afa158015610d58573d6000803e3d6000fd5b5050604051601f1901516010546001600160a01b039081169116149050610dc15760405162461bcd60e51b815260206004820152601a60248201527f5261626269744e46543a20494e56414c49445f524551554553540000000000006044820152606401610624565b336000908152600f60205260408120805491610ddc8361275c565b9190505550610ded88600133611490565b50506001601155505050505050505050565b6000918252600a602090815260408084206001600160a01b0393909316845291905290205460ff1690565b600080516020612975833981519152610e4281611327565b60005b8351811015610eb0576000848281518110610e6257610e626126c3565b60200260200101511115610e9e57610e9e610e7e826001612775565b858381518110610e9057610e906126c3565b602002602001015185611490565b80610ea88161275c565b915050610e45565b50505050565b6060600180546105069061252d565b600b8054610ed29061252d565b80601f0160208091040260200160405190810160405280929190818152602001828054610efe9061252d565b8015610f4b5780601f10610f2057610100808354040283529160200191610f4b565b820191906000526020600020905b815481529060010190602001808311610f2e57829003601f168201915b505050505081565b610841338383611528565b610f683383611138565b610f845760405162461bcd60e51b815260040161062490612567565b610eb0848484846115f6565b6060610f9b82611068565b6000610fa5611629565b90506000815111610fc55760405180602001604052806000815250610ff0565b80610fcf84611638565b604051602001610fe0929190612788565b6040516020818303038152906040525b9392505050565b60008051602061297583398151915261100f81611327565b610eb0848484611490565b6000828152600a602052604090206001015461103581611327565b6106c583836113b7565b9055565b60006001600160e01b03198216637965db0b60e01b14806104f157506104f1826116cb565b6000818152600260205260409020546001600160a01b03166110c75760405162461bcd60e51b8152602060048201526018602482015277115490cdcc8c4e881a5b9d985b1a59081d1bdad95b88125160421b6044820152606401610624565b50565b600081815260046020526040902080546001600160a01b0319166001600160a01b03841690811790915581906110ff8261095c565b6001600160a01b03167f8c5be1e5ebec7d5bd14f71427d1e84f3dd0314c0f7b2291e5b200ac8c7c3b92560405160405180910390a45050565b6000806111448361095c565b9050806001600160a01b0316846001600160a01b0316148061118b57506001600160a01b0380821660009081526005602090815260408083209388168352929052205460ff165b806106d35750836001600160a01b03166111a484610589565b6001600160a01b031614949350505050565b826001600160a01b03166111c98261095c565b6001600160a01b0316146111ef5760405162461bcd60e51b8152600401610624906127b7565b6001600160a01b0382166112515760405162461bcd60e51b8152602060048201526024808201527f4552433732313a207472616e7366657220746f20746865207a65726f206164646044820152637265737360e01b6064820152608401610624565b61125e83838360016116f0565b826001600160a01b03166112718261095c565b6001600160a01b0316146112975760405162461bcd60e51b8152600401610624906127b7565b600081815260046020908152604080832080546001600160a01b03199081169091556001600160a01b0387811680865260038552838620805460001901905590871680865283862080546001019055868652600290945282852080549092168417909155905184937fddf252ad1be2c89b69c2b068fc378daa952ba7f163c4a11628f55a4df523b3ef91a4505050565b6110c781336116fc565b61133b8282610dff565b610841576000828152600a602090815260408083206001600160a01b03851684529091529020805460ff191660011790556113733390565b6001600160a01b0316816001600160a01b0316837f2f8788117e7eff1d82e926ec794901d17c78024a50270940304540a733656f0d60405160405180910390a45050565b6113c18282610dff565b15610841576000828152600a602090815260408083206001600160a01b0385168085529252808320805460ff1916905551339285917ff6391f5c32d9c69d2a47ea670b442974b53935d1edc7fd64eb21e047a839171b9190a45050565b600080600083516041146114745760405162461bcd60e51b815260206004820152601a60248201527f4e6f7420496e76616c6964205369676e617475726520446174610000000000006044820152606401610624565b5050506020810151604082015160609092015160001a92909190565b60005b82811015610eb05760006114a6600c5490565b90506114b6600c80546001019055565b6000818152600d602052604090208590556114d18382611755565b60408051828152602081018790526001600160a01b038516917f4c209b5fc8ad50758f13e2e1088ba56a560dff690a1c6fef26394f4c03821c4f910160405180910390a250806115208161275c565b915050611493565b816001600160a01b0316836001600160a01b0316036115895760405162461bcd60e51b815260206004820152601960248201527f4552433732313a20617070726f766520746f2063616c6c6572000000000000006044820152606401610624565b6001600160a01b03838116600081815260056020908152604080832094871680845294825291829020805460ff191686151590811790915591519182527f17307eab39ab6107e8899845ad3d59bd9653f200f220920489ca2b5937696c31910160405180910390a3505050565b6116018484846111b6565b61160d8484848461176f565b610eb05760405162461bcd60e51b8152600401610624906127fc565b6060600b80546105069061252d565b606060006116458361186d565b600101905060008167ffffffffffffffff81111561166557611665612167565b6040519080825280601f01601f19166020018201604052801561168f576020820181803683370190505b5090508181016020015b600019016f181899199a1a9b1b9c1cb0b131b232b360811b600a86061a8153600a850494508461169957509392505050565b60006001600160e01b0319821663780e9d6360e01b14806104f157506104f182611945565b610eb084848484611995565b6117068282610dff565b6108415761171381611ad5565b61171e836020611ae7565b60405160200161172f92919061284e565b60408051601f198184030181529082905262461bcd60e51b8252610624916004016120ea565b610841828260405180602001604052806000815250611c83565b60006001600160a01b0384163b1561186557604051630a85bd0160e11b81526001600160a01b0385169063150b7a02906117b39033908990889088906004016128c3565b6020604051808303816000875af19250505080156117ee575060408051601f3d908101601f191682019092526117eb91810190612900565b60015b61184b573d80801561181c576040519150601f19603f3d011682016040523d82523d6000602084013e611821565b606091505b5080516000036118435760405162461bcd60e51b8152600401610624906127fc565b805181602001fd5b6001600160e01b031916630a85bd0160e11b1490506106d3565b5060016106d3565b60008072184f03e93ff9f4daa797ed6e38ed64bf6a1f0160401b83106118ac5772184f03e93ff9f4daa797ed6e38ed64bf6a1f0160401b830492506040015b6d04ee2d6d415b85acef810000000083106118d8576d04ee2d6d415b85acef8100000000830492506020015b662386f26fc1000083106118f657662386f26fc10000830492506010015b6305f5e100831061190e576305f5e100830492506008015b612710831061192257612710830492506004015b60648310611934576064830492506002015b600a83106104f15760010192915050565b60006001600160e01b031982166380ac58cd60e01b148061197657506001600160e01b03198216635b5e139f60e01b145b806104f157506301ffc9a760e01b6001600160e01b03198316146104f1565b6119a184848484611cb6565b6001811115611a105760405162461bcd60e51b815260206004820152603560248201527f455243373231456e756d657261626c653a20636f6e7365637574697665207472604482015274185b9cd9995c9cc81b9bdd081cdd5c1c1bdc9d1959605a1b6064820152608401610624565b816001600160a01b038516611a6c57611a6781600880546000838152600960205260408120829055600182018355919091527ff3f7a9fe364faab93b216da50a3214154f22a0a2b415b23a84c8169e8b636ee30155565b611a8f565b836001600160a01b0316856001600160a01b031614611a8f57611a8f8582611d3e565b6001600160a01b038416611aab57611aa681611ddb565b611ace565b846001600160a01b0316846001600160a01b031614611ace57611ace8482611e8a565b5050505050565b60606104f16001600160a01b03831660145b60606000611af683600261291d565b611b01906002612775565b67ffffffffffffffff811115611b1957611b19612167565b6040519080825280601f01601f191660200182016040528015611b43576020820181803683370190505b509050600360fc1b81600081518110611b5e57611b5e6126c3565b60200101906001600160f81b031916908160001a905350600f60fb1b81600181518110611b8d57611b8d6126c3565b60200101906001600160f81b031916908160001a9053506000611bb184600261291d565b611bbc906001612775565b90505b6001811115611c34576f181899199a1a9b1b9c1cb0b131b232b360811b85600f1660108110611bf057611bf06126c3565b1a60f81b828281518110611c0657611c066126c3565b60200101906001600160f81b031916908160001a90535060049490941c93611c2d81612934565b9050611bbf565b508315610ff05760405162461bcd60e51b815260206004820181905260248201527f537472696e67733a20686578206c656e67746820696e73756666696369656e746044820152606401610624565b611c8d8383611ece565b611c9a600084848461176f565b6106c55760405162461bcd60e51b8152600401610624906127fc565b6001811115610eb0576001600160a01b03841615611cfc576001600160a01b03841660009081526003602052604081208054839290611cf690849061294b565b90915550505b6001600160a01b03831615610eb0576001600160a01b03831660009081526003602052604081208054839290611d33908490612775565b909155505050505050565b60006001611d4b846109bc565b611d55919061294b565b600083815260076020526040902054909150808214611da8576001600160a01b03841660009081526006602090815260408083208584528252808320548484528184208190558352600790915290208190555b5060009182526007602090815260408084208490556001600160a01b039094168352600681528383209183525290812055565b600854600090611ded9060019061294b565b60008381526009602052604081205460088054939450909284908110611e1557611e156126c3565b906000526020600020015490508060088381548110611e3657611e366126c3565b6000918252602080832090910192909255828152600990915260408082208490558582528120556008805480611e6e57611e6e61295e565b6001900381819060005260206000200160009055905550505050565b6000611e95836109bc565b6001600160a01b039093166000908152600660209081526040808320868452825280832085905593825260079052919091209190915550565b6001600160a01b038216611f245760405162461bcd60e51b815260206004820181905260248201527f4552433732313a206d696e7420746f20746865207a65726f20616464726573736044820152606401610624565b6000818152600260205260409020546001600160a01b031615611f895760405162461bcd60e51b815260206004820152601c60248201527f4552433732313a20746f6b656e20616c7265616479206d696e746564000000006044820152606401610624565b611f976000838360016116f0565b6000818152600260205260409020546001600160a01b031615611ffc5760405162461bcd60e51b815260206004820152601c60248201527f4552433732313a20746f6b656e20616c7265616479206d696e746564000000006044820152606401610624565b6001600160a01b038216600081815260036020908152604080832080546001019055848352600290915280822080546001600160a01b0319168417905551839291907fddf252ad1be2c89b69c2b068fc378daa952ba7f163c4a11628f55a4df523b3ef908290a45050565b6001600160e01b0319811681146110c757600080fd5b60006020828403121561208f57600080fd5b8135610ff081612067565b60005b838110156120b557818101518382015260200161209d565b50506000910152565b600081518084526120d681602086016020860161209a565b601f01601f19169290920160200192915050565b602081526000610ff060208301846120be565b60006020828403121561210f57600080fd5b5035919050565b6001600160a01b03811681146110c757600080fd5b803561213681612116565b919050565b6000806040838503121561214e57600080fd5b823561215981612116565b946020939093013593505050565b634e487b7160e01b600052604160045260246000fd5b604051601f8201601f1916810167ffffffffffffffff811182821017156121a6576121a6612167565b604052919050565b600067ffffffffffffffff8311156121c8576121c8612167565b6121db601f8401601f191660200161217d565b90508281528383830111156121ef57600080fd5b828260208301376000602084830101529392505050565b600082601f83011261221757600080fd5b610ff0838335602085016121ae565b6000806000806080858703121561223c57600080fd5b843561224781612116565b9350602085013561225781612116565b925060408501359150606085013567ffffffffffffffff81111561227a57600080fd5b61228687828801612206565b91505092959194509250565b6000806000606084860312156122a757600080fd5b83356122b281612116565b925060208401356122c281612116565b929592945050506040919091013590565b600080604083850312156122e657600080fd5b8235915060208301356122f881612116565b809150509250929050565b60006020828403121561231557600080fd5b813567ffffffffffffffff81111561232c57600080fd5b8201601f8101841361233d57600080fd5b6106d3848235602084016121ae565b60006020828403121561235e57600080fd5b8135610ff081612116565b6000806020838503121561237c57600080fd5b823567ffffffffffffffff8082111561239457600080fd5b818501915085601f8301126123a857600080fd5b8135818111156123b757600080fd5b8660208285010111156123c957600080fd5b60209290920196919550909350505050565b600080604083850312156123ee57600080fd5b823567ffffffffffffffff8082111561240657600080fd5b818501915085601f83011261241a57600080fd5b813560208282111561242e5761242e612167565b8160051b925061243f81840161217d565b828152928401810192818101908985111561245957600080fd5b948201945b848610156124775785358252948201949082019061245e565b9650612486905087820161212b565b9450505050509250929050565b600080604083850312156124a657600080fd5b82356124b181612116565b9150602083013580151581146122f857600080fd5b6000806000606084860312156124db57600080fd5b833592506020840135915060408401356124f481612116565b809150509250925092565b6000806040838503121561251257600080fd5b823561251d81612116565b915060208301356122f881612116565b600181811c9082168061254157607f821691505b60208210810361256157634e487b7160e01b600052602260045260246000fd5b50919050565b6020808252602e908201527f4552433732313a2063616c6c6572206973206e6f7420746f6b656e206f776e6560408201526d1c881b9bdc88185c1c1c9bdd995960921b606082015260800190565b601f8211156106c557600081815260208120601f850160051c810160208610156125dc5750805b601f850160051c820191505b818110156125fb578281556001016125e8565b505050505050565b815167ffffffffffffffff81111561261d5761261d612167565b6126318161262b845461252d565b846125b5565b602080601f831160018114612666576000841561264e5750858301515b600019600386901b1c1916600185901b1785556125fb565b600085815260208120601f198616915b8281101561269557888601518255948401946001909101908401612676565b50858210156126b35787850151600019600388901b60f8161c191681555b5050505050600190811b01905550565b634e487b7160e01b600052603260045260246000fd5b600080600080600060a086880312156126f157600080fd5b85356126fc81612116565b9450602086013593506040860135925060608601359150608086013567ffffffffffffffff81111561272d57600080fd5b61273988828901612206565b9150509295509295909350565b634e487b7160e01b600052601160045260246000fd5b60006001820161276e5761276e612746565b5060010190565b808201808211156104f1576104f1612746565b6000835161279a81846020880161209a565b8351908301906127ae81836020880161209a565b01949350505050565b60208082526025908201527f4552433732313a207472616e736665722066726f6d20696e636f72726563742060408201526437bbb732b960d91b606082015260800190565b60208082526032908201527f4552433732313a207472616e7366657220746f206e6f6e20455243373231526560408201527131b2b4bb32b91034b6b83632b6b2b73a32b960711b606082015260800190565b7f416363657373436f6e74726f6c3a206163636f756e742000000000000000000081526000835161288681601785016020880161209a565b7001034b99036b4b9b9b4b733903937b6329607d1b60179184019182015283516128b781602884016020880161209a565b01602801949350505050565b6001600160a01b03858116825284166020820152604081018390526080606082018190526000906128f6908301846120be565b9695505050505050565b60006020828403121561291257600080fd5b8151610ff081612067565b80820281158282048414176104f1576104f1612746565b60008161294357612943612746565b506000190190565b818103818111156104f1576104f1612746565b634e487b7160e01b600052603160045260246000fdfea076a07f65bcd51bcb15a0f01a65bc18f2d922acb81bcfd8af4caf5adb557091a2646970667358221220ba29d1065e3a33d7b3f842683b25dd9e62a424ca2f9a85cf22b8fc9404b2d35164736f6c63430008110033",
  "linkReferences": {},
  "deployedLinkReferences": {}
}