{
  "_format": "hh-sol-artifact-1",
  "contractName": "BurnFund",
  "sourceName": "contracts/BurnFund.sol",
  "abi": [
    {
      "inputs": [
        {
          "internalType": "address",
          "name": "_SBLTokenAdd",
          "type": "address"
        },
        {
          "internalType": "address",
          "name": "_routerAdd",
          "type": "address"
        },
        {
          "internalType": "address",
          "name": "_signer",
          "type": "address"
        }
      ],
      "stateMutability": "nonpayable",
      "type": "constructor"
    },
    {
      "anonymous": false,
      "inputs": [
        {
          "indexed": true,
          "internalType": "address",
          "name": "caller",
          "type": "address"
        },
        {
          "indexed": false,
          "internalType": "uint256",
          "name": "SBLAmount",
          "type": "uint256"
        },
        {
          "indexed": false,
          "internalType": "uint256",
          "name": "ETHAmount",
          "type": "uint256"
        }
      ],
      "name": "BurnToEarn",
      "type": "event"
    },
    {
      "anonymous": false,
      "inputs": [
        {
          "indexed": true,
          "internalType": "bytes32",
          "name": "role",
          "type": "bytes32"
        },
        {
          "indexed": true,
          "internalType": "bytes32",
          "name": "previousAdminRole",
          "type": "bytes32"
        },
        {
          "indexed": true,
          "internalType": "bytes32",
          "name": "newAdminRole",
          "type": "bytes32"
        }
      ],
      "name": "RoleAdminChanged",
      "type": "event"
    },
    {
      "anonymous": false,
      "inputs": [
        {
          "indexed": true,
          "internalType": "bytes32",
          "name": "role",
          "type": "bytes32"
        },
        {
          "indexed": true,
          "internalType": "address",
          "name": "account",
          "type": "address"
        },
        {
          "indexed": true,
          "internalType": "address",
          "name": "sender",
          "type": "address"
        }
      ],
      "name": "RoleGranted",
      "type": "event"
    },
    {
      "anonymous": false,
      "inputs": [
        {
          "indexed": true,
          "internalType": "bytes32",
          "name": "role",
          "type": "bytes32"
        },
        {
          "indexed": true,
          "internalType": "address",
          "name": "account",
          "type": "address"
        },
        {
          "indexed": true,
          "internalType": "address",
          "name": "sender",
          "type": "address"
        }
      ],
      "name": "RoleRevoked",
      "type": "event"
    },
    {
      "anonymous": false,
      "inputs": [
        {
          "indexed": true,
          "internalType": "address",
          "name": "caller",
          "type": "address"
        },
        {
          "indexed": false,
          "internalType": "uint256",
          "name": "SBLAmount",
          "type": "uint256"
        },
        {
          "indexed": false,
          "internalType": "uint256",
          "name": "ETHAmount",
          "type": "uint256"
        }
      ],
      "name": "SwapSBLToETH",
      "type": "event"
    },
    {
      "anonymous": false,
      "inputs": [
        {
          "indexed": true,
          "internalType": "address",
          "name": "caller",
          "type": "address"
        },
        {
          "indexed": false,
          "internalType": "uint256",
          "name": "amount",
          "type": "uint256"
        },
        {
          "indexed": false,
          "internalType": "uint256",
          "name": "order",
          "type": "uint256"
        }
      ],
      "name": "WithdrawReward",
      "type": "event"
    },
    {
      "inputs": [],
      "name": "DEFAULT_ADMIN_ROLE",
      "outputs": [
        {
          "internalType": "bytes32",
          "name": "",
          "type": "bytes32"
        }
      ],
      "stateMutability": "view",
      "type": "function"
    },
    {
      "inputs": [],
      "name": "DOMAIN_SEPARATOR",
      "outputs": [
        {
          "internalType": "bytes32",
          "name": "",
          "type": "bytes32"
        }
      ],
      "stateMutability": "view",
      "type": "function"
    },
    {
      "inputs": [],
      "name": "ETHAmount",
      "outputs": [
        {
          "internalType": "uint256",
          "name": "",
          "type": "uint256"
        }
      ],
      "stateMutability": "view",
      "type": "function"
    },
    {
      "inputs": [],
      "name": "MANAGE_ROLE",
      "outputs": [
        {
          "internalType": "bytes32",
          "name": "",
          "type": "bytes32"
        }
      ],
      "stateMutability": "view",
      "type": "function"
    },
    {
      "inputs": [],
      "name": "SBLTokenAdd",
      "outputs": [
        {
          "internalType": "address",
          "name": "",
          "type": "address"
        }
      ],
      "stateMutability": "view",
      "type": "function"
    },
    {
      "inputs": [],
      "name": "allSubscribed",
      "outputs": [
        {
          "internalType": "uint256",
          "name": "",
          "type": "uint256"
        }
      ],
      "stateMutability": "view",
      "type": "function"
    },
    {
      "inputs": [],
      "name": "amountToSwap",
      "outputs": [
        {
          "internalType": "uint256",
          "name": "",
          "type": "uint256"
        }
      ],
      "stateMutability": "view",
      "type": "function"
    },
    {
      "inputs": [
        {
          "internalType": "address",
          "name": "token",
          "type": "address"
        }
      ],
      "name": "balance",
      "outputs": [
        {
          "internalType": "uint256",
          "name": "",
          "type": "uint256"
        }
      ],
      "stateMutability": "view",
      "type": "function"
    },
    {
      "inputs": [],
      "name": "burnLimit",
      "outputs": [
        {
          "internalType": "uint256",
          "name": "",
          "type": "uint256"
        }
      ],
      "stateMutability": "view",
      "type": "function"
    },
    {
      "inputs": [
        {
          "internalType": "uint256",
          "name": "amount",
          "type": "uint256"
        }
      ],
      "name": "burnToEarn",
      "outputs": [],
      "stateMutability": "nonpayable",
      "type": "function"
    },
    {
      "inputs": [
        {
          "internalType": "bytes32",
          "name": "role",
          "type": "bytes32"
        }
      ],
      "name": "getRoleAdmin",
      "outputs": [
        {
          "internalType": "bytes32",
          "name": "",
          "type": "bytes32"
        }
      ],
      "stateMutability": "view",
      "type": "function"
    },
    {
      "inputs": [
        {
          "internalType": "bytes32",
          "name": "role",
          "type": "bytes32"
        },
        {
          "internalType": "address",
          "name": "account",
          "type": "address"
        }
      ],
      "name": "grantRole",
      "outputs": [],
      "stateMutability": "nonpayable",
      "type": "function"
    },
    {
      "inputs": [
        {
          "internalType": "bytes32",
          "name": "role",
          "type": "bytes32"
        },
        {
          "internalType": "address",
          "name": "account",
          "type": "address"
        }
      ],
      "name": "hasRole",
      "outputs": [
        {
          "internalType": "bool",
          "name": "",
          "type": "bool"
        }
      ],
      "stateMutability": "view",
      "type": "function"
    },
    {
      "inputs": [],
      "name": "intervalBlockNum",
      "outputs": [
        {
          "internalType": "uint256",
          "name": "",
          "type": "uint256"
        }
      ],
      "stateMutability": "view",
      "type": "function"
    },
    {
      "inputs": [],
      "name": "limitIndex",
      "outputs": [
        {
          "internalType": "uint256",
          "name": "",
          "type": "uint256"
        }
      ],
      "stateMutability": "view",
      "type": "function"
    },
    {
      "inputs": [],
      "name": "minToBurn",
      "outputs": [
        {
          "internalType": "uint256",
          "name": "",
          "type": "uint256"
        }
      ],
      "stateMutability": "view",
      "type": "function"
    },
    {
      "inputs": [
        {
          "internalType": "address",
          "name": "",
          "type": "address"
        }
      ],
      "name": "nonces",
      "outputs": [
        {
          "internalType": "uint256",
          "name": "",
          "type": "uint256"
        }
      ],
      "stateMutability": "view",
      "type": "function"
    },
    {
      "inputs": [
        {
          "internalType": "uint256",
          "name": "amountIn",
          "type": "uint256"
        }
      ],
      "name": "queryAmountOut",
      "outputs": [
        {
          "internalType": "uint256",
          "name": "",
          "type": "uint256"
        }
      ],
      "stateMutability": "view",
      "type": "function"
    },
    {
      "inputs": [
        {
          "internalType": "bytes32",
          "name": "role",
          "type": "bytes32"
        },
        {
          "internalType": "address",
          "name": "account",
          "type": "address"
        }
      ],
      "name": "renounceRole",
      "outputs": [],
      "stateMutability": "nonpayable",
      "type": "function"
    },
    {
      "inputs": [
        {
          "internalType": "bytes32",
          "name": "role",
          "type": "bytes32"
        },
        {
          "internalType": "address",
          "name": "account",
          "type": "address"
        }
      ],
      "name": "revokeRole",
      "outputs": [],
      "stateMutability": "nonpayable",
      "type": "function"
    },
    {
      "inputs": [],
      "name": "routerAdd",
      "outputs": [
        {
          "internalType": "address",
          "name": "",
          "type": "address"
        }
      ],
      "stateMutability": "view",
      "type": "function"
    },
    {
      "inputs": [],
      "name": "signer",
      "outputs": [
        {
          "internalType": "address",
          "name": "",
          "type": "address"
        }
      ],
      "stateMutability": "view",
      "type": "function"
    },
    {
      "inputs": [
        {
          "internalType": "address",
          "name": "",
          "type": "address"
        }
      ],
      "name": "subscribed",
      "outputs": [
        {
          "internalType": "uint256",
          "name": "",
          "type": "uint256"
        }
      ],
      "stateMutability": "view",
      "type": "function"
    },
    {
      "inputs": [
        {
          "internalType": "address",
          "name": "",
          "type": "address"
        }
      ],
      "name": "subscribedBlockNum",
      "outputs": [
        {
          "internalType": "uint256",
          "name": "",
          "type": "uint256"
        }
      ],
      "stateMutability": "view",
      "type": "function"
    },
    {
      "inputs": [
        {
          "internalType": "bytes4",
          "name": "interfaceId",
          "type": "bytes4"
        }
      ],
      "name": "supportsInterface",
      "outputs": [
        {
          "internalType": "bool",
          "name": "",
          "type": "bool"
        }
      ],
      "stateMutability": "view",
      "type": "function"
    },
    {
      "inputs": [],
      "name": "swapSBLToETH",
      "outputs": [],
      "stateMutability": "nonpayable",
      "type": "function"
    },
    {
      "inputs": [
        {
          "internalType": "uint256",
          "name": "_amountToSwap",
          "type": "uint256"
        }
      ],
      "name": "updateAmountToSwap",
      "outputs": [],
      "stateMutability": "nonpayable",
      "type": "function"
    },
    {
      "inputs": [
        {
          "internalType": "uint256",
          "name": "_intervalBlockNum",
          "type": "uint256"
        }
      ],
      "name": "updateIntervalBlockNum",
      "outputs": [],
      "stateMutability": "nonpayable",
      "type": "function"
    },
    {
      "inputs": [
        {
          "internalType": "uint256",
          "name": "_limitIndex",
          "type": "uint256"
        }
      ],
      "name": "updateLimitIndex",
      "outputs": [],
      "stateMutability": "nonpayable",
      "type": "function"
    },
    {
      "inputs": [
        {
          "internalType": "uint256",
          "name": "_minToBurn",
          "type": "uint256"
        }
      ],
      "name": "updateMinToBurn",
      "outputs": [],
      "stateMutability": "nonpayable",
      "type": "function"
    },
    {
      "inputs": [
        {
          "internalType": "address",
          "name": "_SBLTokenAdd",
          "type": "address"
        }
      ],
      "name": "updateSBLTokenAdd",
      "outputs": [],
      "stateMutability": "nonpayable",
      "type": "function"
    },
    {
      "inputs": [
        {
          "internalType": "bytes",
          "name": "data",
          "type": "bytes"
        }
      ],
      "name": "withdrawReward",
      "outputs": [],
      "stateMutability": "nonpayable",
      "type": "function"
    },
    {
      "stateMutability": "payable",
      "type": "receive"
    }
  ],
  "bytecode": "0x60806040526801158e460913d00000600455600d60065561708060095567016345785d8a0000600a553480156200003557600080fd5b50604051620022733803806200227383398101604081905262000058916200026f565b60018055600280546001600160a01b038086166001600160a01b03199283161790925560038054858416908316179055600e805492841692909116919091179055620000ad6000620000a73390565b620001b1565b620000d97fa076a07f65bcd51bcb15a0f01a65bc18f2d922acb81bcfd8af4caf5adb55709133620001b1565b50506040805180820182526008815267109d5c9b919d5b9960c21b6020918201528151808301835260018152603160f81b9082015281517f8b73c3c69bb8fe3d512ecc4cf759cc79239f7b179b0ffacaa9a75d522b39400f818301527fa1cc0d5db86c3557b13f04ab1b0053ea772a0555c9bbdd46af99feb25a2f5d8b818401527fc89efdaa54c0f20c7adf612882df0950f5a951637e0307cdcb4c672f298b8bc660608201524660808201523060a0808301919091528351808303909101815260c09091019092528151910120600c5550620002b9565b6000828152602081815260408083206001600160a01b038516845290915290205460ff166200024e576000828152602081815260408083206001600160a01b03851684529091529020805460ff191660011790556200020d3390565b6001600160a01b0316816001600160a01b0316837f2f8788117e7eff1d82e926ec794901d17c78024a50270940304540a733656f0d60405160405180910390a45b5050565b80516001600160a01b03811681146200026a57600080fd5b919050565b6000806000606084860312156200028557600080fd5b620002908462000252565b9250620002a06020850162000252565b9150620002b06040850162000252565b90509250925092565b611faa80620002c96000396000f3fe6080604052600436106101e75760003560e01c8063875257f711610102578063c7db765511610095578063e1a4ac2011610064578063e1a4ac2014610596578063e3d670d7146105ac578063eac13e61146105cc578063f55b2c4f146105e257600080fd5b8063c7db765514610513578063d18d69af14610529578063d547741f14610556578063d9a83b4c1461057657600080fd5b8063a79260d2116100d1578063a79260d214610486578063aa01dd77146104a6578063ae5ade83146104c6578063c4981b44146104e657600080fd5b8063875257f71461041b5780639006b7441461043157806391d1485414610451578063a217fddf1461047157600080fd5b806336568abe1161017a5780636c8b1738116101495780636c8b1738146103a25780636dc697a6146103b85780637286ec32146103d85780637ecebe00146103ee57600080fd5b806336568abe1461032b57806357548ddd1461034b57806360a4b76a146103605780636763ccbd1461038257600080fd5b8063248a9ca3116101b6578063248a9ca3146102b05780632a9c72c8146102e05780632f2ff15d146102f55780633644e5151461031557600080fd5b806301ffc9a7146101f3578063107328961461022857806314127b4814610256578063238ac9331461027857600080fd5b366101ee57005b600080fd5b3480156101ff57600080fd5b5061021361020e36600461198b565b610602565b60405190151581526020015b60405180910390f35b34801561023457600080fd5b506102486102433660046119b5565b610639565b60405190815260200161021f565b34801561026257600080fd5b506102766102713660046119b5565b610821565b005b34801561028457600080fd5b50600e54610298906001600160a01b031681565b6040516001600160a01b03909116815260200161021f565b3480156102bc57600080fd5b506102486102cb3660046119b5565b60009081526020819052604090206001015490565b3480156102ec57600080fd5b50610248610a84565b34801561030157600080fd5b506102766103103660046119e3565b610b3f565b34801561032157600080fd5b50610248600c5481565b34801561033757600080fd5b506102766103463660046119e3565b610b69565b34801561035757600080fd5b50610276610be7565b34801561036c57600080fd5b50610248600080516020611f5583398151915281565b34801561038e57600080fd5b5061027661039d366004611a82565b610efb565b3480156103ae57600080fd5b5061024860095481565b3480156103c457600080fd5b506102766103d33660046119b5565b610f88565b3480156103e457600080fd5b5061024860055481565b3480156103fa57600080fd5b50610248610409366004611b02565b600d6020526000908152604090205481565b34801561042757600080fd5b50610248600b5481565b34801561043d57600080fd5b50600254610298906001600160a01b031681565b34801561045d57600080fd5b5061021361046c3660046119e3565b610fc6565b34801561047d57600080fd5b50610248600081565b34801561049257600080fd5b506102766104a1366004611b02565b610fef565b3480156104b257600080fd5b506102766104c13660046119b5565b611079565b3480156104d257600080fd5b50600354610298906001600160a01b031681565b3480156104f257600080fd5b50610248610501366004611b02565b60086020526000908152604090205481565b34801561051f57600080fd5b5061024860065481565b34801561053557600080fd5b50610248610544366004611b02565b60076020526000908152604090205481565b34801561056257600080fd5b506102766105713660046119e3565b6110b7565b34801561058257600080fd5b506102766105913660046119b5565b6110dc565b3480156105a257600080fd5b50610248600a5481565b3480156105b857600080fd5b506102486105c7366004611b02565b61111a565b3480156105d857600080fd5b5061024860045481565b3480156105ee57600080fd5b506102766105fd3660046119b5565b611199565b60006001600160e01b03198216637965db0b60e01b148061063357506301ffc9a760e01b6001600160e01b03198316145b92915050565b6003546040805160028082526060820183526000936001600160a01b03169284929190602083019080368337505060025482519293506001600160a01b03169183915060009061068b5761068b611b1f565b60200260200101906001600160a01b031690816001600160a01b031681525050816001600160a01b031663ad5c46486040518163ffffffff1660e01b8152600401602060405180830381865afa1580156106e9573d6000803e3d6000fd5b505050506040513d601f19601f8201168201806040525081019061070d9190611b35565b8160018151811061072057610720611b1f565b6001600160a01b03928316602091820292909201015260405163d06ca61f60e01b815260009184169063d06ca61f9061075f9088908690600401611b96565b600060405180830381865afa15801561077c573d6000803e3d6000fd5b505050506040513d6000823e601f3d908101601f191682016040526107a49190810190611bb7565b905060018151116107fc5760405162461bcd60e51b815260206004820152601e60248201527f4275726e46756e643a204745545f414d4f554e545f4f55545f4552524f52000060448201526064015b60405180910390fd5b8060018151811061080f5761080f611b1f565b60200260200101519350505050919050565b6009543360009081526008602052604090205461083e9043611c73565b101561089a5760405162461bcd60e51b815260206004820152602560248201527f4275726e46756e643a204c4553535f5448414e5f494e54455256414c5f424c4f604482015264434b4e554d60d81b60648201526084016107f3565b60006108a582610639565b9050600a548110156108f95760405162461bcd60e51b815260206004820152601e60248201527f4275726e46756e643a204c4553535f5448414e5f4d494e5f414d4f554e54000060448201526064016107f3565b6109176064610911600561090b610a84565b906111d7565b906111ea565b8111156109665760405162461bcd60e51b815260206004820152601f60248201527f4275726e46756e643a2047524541545f5448414e5f4d41585f414d4f554e540060448201526064016107f3565b6002546040516323b872dd60e01b815233600482015261dead6024820152604481018490526001600160a01b03909116906323b872dd906064016020604051808303816000875af11580156109bf573d6000803e3d6000fd5b505050506040513d601f19601f820116820180604052508101906109e39190611c86565b503360009081526007602052604081208054839290610a03908490611ca8565b90915550503360009081526008602052604081208054439290610a27908490611ca8565b9250508190555080600b6000828254610a409190611ca8565b9091555050604080518381526020810183905233917f111a68060facc101a2b0264fb8756ea323aef0845ad0bcd6348d20e0d1b7fdd5910160405180910390a25050565b6000610a9c600b5460026111d790919063ffffffff16565b610ab8600a6109116006546005546111d790919063ffffffff16565b11610b055760405162461bcd60e51b815260206004820152601960248201527f4275726e46756e643a2043414c43554c4154455f4552524f520000000000000060448201526064016107f3565b600b54610b14906002906111d7565b610b30600a6109116006546005546111d790919063ffffffff16565b610b3a9190611c73565b905090565b600082815260208190526040902060010154610b5a816111f6565b610b648383611200565b505050565b6001600160a01b0381163314610bd95760405162461bcd60e51b815260206004820152602f60248201527f416363657373436f6e74726f6c3a2063616e206f6e6c792072656e6f756e636560448201526e103937b632b9903337b91039b2b63360891b60648201526084016107f3565b610be38282611284565b5050565b600080516020611f55833981519152610bff816111f6565b610c076112e9565b600454600254610c1f906001600160a01b031661111a565b1015610c6d5760405162461bcd60e51b815260206004820152601f60248201527f4275726e46756e643a204e4f545f52454143485f535741505f414d4f554e540060448201526064016107f3565b600254600090610c85906001600160a01b031661111a565b90506000610c93600061111a565b6003546040805160028082526060820183529394506001600160a01b039092169260009291602083019080368337505060025482519293506001600160a01b031691839150600090610ce757610ce7611b1f565b60200260200101906001600160a01b031690816001600160a01b031681525050816001600160a01b031663ad5c46486040518163ffffffff1660e01b8152600401602060405180830381865afa158015610d45573d6000803e3d6000fd5b505050506040513d601f19601f82011682018060405250810190610d699190611b35565b81600181518110610d7c57610d7c611b1f565b6001600160a01b03928316602091820292909201015260025460035460405163095ea7b360e01b815290831660048201526024810187905291169063095ea7b3906044016020604051808303816000875af1158015610ddf573d6000803e3d6000fd5b505050506040513d601f19601f82011682018060405250810190610e039190611c86565b506001600160a01b03821663791ac9478560008430610e2442610258611ca8565b6040518663ffffffff1660e01b8152600401610e44959493929190611cbb565b600060405180830381600087803b158015610e5e57600080fd5b505af1158015610e72573d6000803e3d6000fd5b505050506000610e82600061111a565b9050610e8e8185611342565b60056000828254610e9f9190611ca8565b909155503390507f4d37dde1a9569539a519cfca5166a8a83e72405b77d1d7067c0a7b296d7572b686610ed28488611342565b6040805192835260208301919091520160405180910390a25050505050610ef860018055565b50565b610f036112e9565b600080610f0f8361134e565b6040519193509150339082156108fc029083906000818181858888f19350505050158015610f41573d6000803e3d6000fd5b50604080518281526020810184905233917f48f1e4b8fb0469595617480e6784e40ab6b8c49209761b8e09305bf7b73e53de910160405180910390a25050610ef860018055565b600080516020611f55833981519152610fa0816111f6565b60008211610fc05760405162461bcd60e51b81526004016107f390611cf7565b50600a55565b6000918252602082815260408084206001600160a01b0393909316845291905290205460ff1690565b600080516020611f55833981519152611007816111f6565b6001600160a01b0382166110565760405162461bcd60e51b81526020600482015260166024820152754275726e46756e643a205a45524f5f4144445245535360501b60448201526064016107f3565b50600280546001600160a01b0319166001600160a01b0392909216919091179055565b600080516020611f55833981519152611091816111f6565b600082116110b15760405162461bcd60e51b81526004016107f390611cf7565b50600955565b6000828152602081905260409020600101546110d2816111f6565b610b648383611284565b600080516020611f558339815191526110f4816111f6565b600082116111145760405162461bcd60e51b81526004016107f390611cf7565b50600455565b60006001600160a01b038216611131575047919050565b6040516370a0823160e01b81523060048201526001600160a01b038316906370a0823190602401602060405180830381865afa158015611175573d6000803e3d6000fd5b505050506040513d601f19601f820116820180604052508101906106339190611d25565b600080516020611f558339815191526111b1816111f6565b600082116111d15760405162461bcd60e51b81526004016107f390611cf7565b50600655565b60006111e38284611d3e565b9392505050565b60006111e38284611d55565b610ef881336116ac565b61120a8282610fc6565b610be3576000828152602081815260408083206001600160a01b03851684529091529020805460ff191660011790556112403390565b6001600160a01b0316816001600160a01b0316837f2f8788117e7eff1d82e926ec794901d17c78024a50270940304540a733656f0d60405160405180910390a45050565b61128e8282610fc6565b15610be3576000828152602081815260408083206001600160a01b0385168085529252808320805460ff1916905551339285917ff6391f5c32d9c69d2a47ea670b442974b53935d1edc7fd64eb21e047a839171b9190a45050565b60026001540361133b5760405162461bcd60e51b815260206004820152601f60248201527f5265656e7472616e637947756172643a207265656e7472616e742063616c6c0060448201526064016107f3565b6002600155565b60006111e38284611c73565b6000806000806000806000808880602001905181019061136e9190611d9b565b955095509550955095509550336001600160a01b0316866001600160a01b0316146113d45760405162461bcd60e51b815260206004820152601660248201527521393ab7233ab7321d1024a72b20a624a22faaa9a2a960511b60448201526064016107f3565b336000908152600d602052604090205483146114325760405162461bcd60e51b815260206004820152601760248201527f4272756e46756e643a20494e56414c49445f4e4f4e434500000000000000000060448201526064016107f3565b61145a6040518060400160405280600681526020016503a34b6b29d160d51b81525042611705565b8142111561149e5760405162461bcd60e51b8152602060048201526011602482015270109c9d5b919d5b990e881512535153d555607a1b60448201526064016107f3565b60008060006114ac8461174a565b9250925092506000600c54604051602001611529907f5065726d6974286164647265737320757365722c75696e74323536206f72646581527f722c75696e7432353620616d6f756e742c75696e74323536206e6f6e63652c7560208201526f696e7432353620646561646c696e652960801b604082015260500190565b60408051808303601f190181528282528051602091820120818401526001600160a01b038e1683830152606083018d9052608083018c905260a083018b905260c08084018b90528251808503909101815260e08401909252815191012061190160f01b6101008301526101028201929092526101228101919091526101420160408051601f1981840301815282825280516020918201206000845290830180835281905260ff8716918301919091526060820185905260808201849052915060019060a0016020604051602081039080840390855afa158015611610573d6000803e3d6000fd5b5050604051601f190151600e546001600160a01b0390811691161490506116795760405162461bcd60e51b815260206004820152601860248201527f4272756e46756e643a20494e56414c49445f53494e474552000000000000000060448201526064016107f3565b336000908152600d6020526040812080549161169483611e4e565b90915550989d979c50969a5050505050505050505050565b6116b68282610fc6565b610be3576116c3816117bc565b6116ce8360206117ce565b6040516020016116df929190611e67565b60408051601f198184030181529082905262461bcd60e51b82526107f391600401611f08565b610be3828260405160240161171b929190611f1b565b60408051601f198184030181529190526020810180516001600160e01b0316632d839cb360e21b17905261196a565b600080600083516041146117a05760405162461bcd60e51b815260206004820152601a60248201527f4e6f7420496e76616c6964205369676e6174757265204461746100000000000060448201526064016107f3565b5050506020810151604082015160609092015160001a92909190565b60606106336001600160a01b03831660145b606060006117dd836002611d3e565b6117e8906002611ca8565b67ffffffffffffffff81111561180057611800611a13565b6040519080825280601f01601f19166020018201604052801561182a576020820181803683370190505b509050600360fc1b8160008151811061184557611845611b1f565b60200101906001600160f81b031916908160001a905350600f60fb1b8160018151811061187457611874611b1f565b60200101906001600160f81b031916908160001a9053506000611898846002611d3e565b6118a3906001611ca8565b90505b600181111561191b576f181899199a1a9b1b9c1cb0b131b232b360811b85600f16601081106118d7576118d7611b1f565b1a60f81b8282815181106118ed576118ed611b1f565b60200101906001600160f81b031916908160001a90535060049490941c9361191481611f3d565b90506118a6565b5083156111e35760405162461bcd60e51b815260206004820181905260248201527f537472696e67733a20686578206c656e67746820696e73756666696369656e7460448201526064016107f3565b80516a636f6e736f6c652e6c6f67602083016000808483855afa5050505050565b60006020828403121561199d57600080fd5b81356001600160e01b0319811681146111e357600080fd5b6000602082840312156119c757600080fd5b5035919050565b6001600160a01b0381168114610ef857600080fd5b600080604083850312156119f657600080fd5b823591506020830135611a08816119ce565b809150509250929050565b634e487b7160e01b600052604160045260246000fd5b604051601f8201601f1916810167ffffffffffffffff81118282101715611a5257611a52611a13565b604052919050565b600067ffffffffffffffff821115611a7457611a74611a13565b50601f01601f191660200190565b600060208284031215611a9457600080fd5b813567ffffffffffffffff811115611aab57600080fd5b8201601f81018413611abc57600080fd5b8035611acf611aca82611a5a565b611a29565b818152856020838501011115611ae457600080fd5b81602084016020830137600091810160200191909152949350505050565b600060208284031215611b1457600080fd5b81356111e3816119ce565b634e487b7160e01b600052603260045260246000fd5b600060208284031215611b4757600080fd5b81516111e3816119ce565b600081518084526020808501945080840160005b83811015611b8b5781516001600160a01b031687529582019590820190600101611b66565b509495945050505050565b828152604060208201526000611baf6040830184611b52565b949350505050565b60006020808385031215611bca57600080fd5b825167ffffffffffffffff80821115611be257600080fd5b818501915085601f830112611bf657600080fd5b815181811115611c0857611c08611a13565b8060051b9150611c19848301611a29565b8181529183018401918481019088841115611c3357600080fd5b938501935b83851015611c5157845182529385019390850190611c38565b98975050505050505050565b634e487b7160e01b600052601160045260246000fd5b8181038181111561063357610633611c5d565b600060208284031215611c9857600080fd5b815180151581146111e357600080fd5b8082018082111561063357610633611c5d565b85815284602082015260a060408201526000611cda60a0830186611b52565b6001600160a01b0394909416606083015250608001529392505050565b6020808252601490820152734275726e46756e643a205a45524f5f56414c554560601b604082015260600190565b600060208284031215611d3757600080fd5b5051919050565b808202811582820484141761063357610633611c5d565b600082611d7257634e487b7160e01b600052601260045260246000fd5b500490565b60005b83811015611d92578181015183820152602001611d7a565b50506000910152565b60008060008060008060c08789031215611db457600080fd5b8651611dbf816119ce565b809650506020870151945060408701519350606087015192506080870151915060a087015167ffffffffffffffff811115611df957600080fd5b8701601f81018913611e0a57600080fd5b8051611e18611aca82611a5a565b8181528a6020838501011115611e2d57600080fd5b611e3e826020830160208601611d77565b8093505050509295509295509295565b600060018201611e6057611e60611c5d565b5060010190565b7f416363657373436f6e74726f6c3a206163636f756e7420000000000000000000815260008351611e9f816017850160208801611d77565b7001034b99036b4b9b9b4b733903937b6329607d1b6017918401918201528351611ed0816028840160208801611d77565b01602801949350505050565b60008151808452611ef4816020860160208601611d77565b601f01601f19169290920160200192915050565b6020815260006111e36020830184611edc565b604081526000611f2e6040830185611edc565b90508260208301529392505050565b600081611f4c57611f4c611c5d565b50600019019056fea076a07f65bcd51bcb15a0f01a65bc18f2d922acb81bcfd8af4caf5adb557091a2646970667358221220dbf091894ced2ef3b3ec165ca21d9e86c1439ea957fa9dccfdc0a6df91b68e7064736f6c63430008110033",
  "linkReferences": {},
  "deployedLinkReferences": {}
}