{
  "_format": "hh-sol-artifact-1",
  "contractName": "Manager",
  "sourceName": "contracts/utils/Manager.sol",
  "abi": [
    {
      "inputs": [],
      "name": "contractOwner",
      "outputs": [
        {
          "internalType": "address",
          "name": "",
          "type": "address"
        }
      ],
      "stateMutability": "view",
      "type": "function"
    },
    {
      "inputs": [],
      "name": "getTimestamp",
      "outputs": [
        {
          "internalType": "uint256",
          "name": "",
          "type": "uint256"
        }
      ],
      "stateMutability": "view",
      "type": "function"
    },
    {
      "inputs": [
        {
          "internalType": "string",
          "name": "",
          "type": "string"
        }
      ],
      "name": "members",
      "outputs": [
        {
          "internalType": "address",
          "name": "",
          "type": "address"
        }
      ],
      "stateMutability": "view",
      "type": "function"
    },
    {
      "inputs": [
        {
          "internalType": "string",
          "name": "name",
          "type": "string"
        },
        {
          "internalType": "address",
          "name": "member",
          "type": "address"
        }
      ],
      "name": "setMember",
      "outputs": [],
      "stateMutability": "nonpayable",
      "type": "function"
    },
    {
      "inputs": [
        {
          "internalType": "address",
          "name": "user",
          "type": "address"
        },
        {
          "internalType": "string",
          "name": "permit",
          "type": "string"
        },
        {
          "internalType": "bool",
          "name": "enable",
          "type": "bool"
        }
      ],
      "name": "setUserPermit",
      "outputs": [],
      "stateMutability": "nonpayable",
      "type": "function"
    },
    {
      "inputs": [
        {
          "internalType": "address",
          "name": "",
          "type": "address"
        },
        {
          "internalType": "string",
          "name": "",
          "type": "string"
        }
      ],
      "name": "userPermits",
      "outputs": [
        {
          "internalType": "bool",
          "name": "",
          "type": "bool"
        }
      ],
      "stateMutability": "view",
      "type": "function"
    }
  ],
  "bytecode": "0x6080604052600080546001600160a01b0319163317905534801561002257600080fd5b506104ec806100326000396000f3fe608060405234801561001057600080fd5b50600436106100625760003560e01c8063188ec3561461006757806319f225a51461007a578063540e26171461008f5780636957a0b2146100a25780637dd13a95146100ee578063ce606ee01461013d575b600080fd5b6040514281526020015b60405180910390f35b61008d610088366004610347565b610150565b005b61008d61009d3660046103ae565b6101f4565b6100d66100b03660046103fc565b80516020818301810180516001825292820191909301209152546001600160a01b031681565b6040516001600160a01b039091168152602001610071565b61012d6100fc366004610439565b6002602090815260009283526040909220815180830184018051928152908401929093019190912091525460ff1681565b6040519015158152602001610071565b6000546100d6906001600160a01b031681565b6000546001600160a01b031633146101a55760405162461bcd60e51b8152602060048201526013602482015272636f6e7472616374206f776e6572206f6e6c7960681b60448201526064015b60405180910390fd5b6001600160a01b0383166000908152600260205260409081902090518291906101cf908590610487565b908152604051908190036020019020805491151560ff19909216919091179055505050565b6000546001600160a01b031633146102445760405162461bcd60e51b8152602060048201526013602482015272636f6e7472616374206f776e6572206f6e6c7960681b604482015260640161019c565b806001836040516102559190610487565b90815260405190819003602001902080546001600160a01b03929092166001600160a01b03199092169190911790555050565b80356001600160a01b038116811461029f57600080fd5b919050565b634e487b7160e01b600052604160045260246000fd5b600082601f8301126102cb57600080fd5b813567ffffffffffffffff808211156102e6576102e66102a4565b604051601f8301601f19908116603f0116810190828211818310171561030e5761030e6102a4565b8160405283815286602085880101111561032757600080fd5b836020870160208301376000602085830101528094505050505092915050565b60008060006060848603121561035c57600080fd5b61036584610288565b9250602084013567ffffffffffffffff81111561038157600080fd5b61038d868287016102ba565b925050604084013580151581146103a357600080fd5b809150509250925092565b600080604083850312156103c157600080fd5b823567ffffffffffffffff8111156103d857600080fd5b6103e4858286016102ba565b9250506103f360208401610288565b90509250929050565b60006020828403121561040e57600080fd5b813567ffffffffffffffff81111561042557600080fd5b610431848285016102ba565b949350505050565b6000806040838503121561044c57600080fd5b61045583610288565b9150602083013567ffffffffffffffff81111561047157600080fd5b61047d858286016102ba565b9150509250929050565b6000825160005b818110156104a8576020818601810151858301520161048e565b50600092019182525091905056fea26469706673582212209cd20bd7264d9fda91379fa619decf1183748d4fd041747f725e2755fa3ef8a164736f6c63430008110033",
  "linkReferences": {},
  "deployedLinkReferences": {}
}