{
  "_format": "hh-sol-artifact-1",
  "contractName": "ExchangeNFT",
  "sourceName": "contracts/ExchangeCard.sol",
  "abi": [
    {
      "inputs": [
        {
          "internalType": "address",
          "name": "_address",
          "type": "address"
        },
        {
          "internalType": "address",
          "name": "_feeMan",
          "type": "address"
        },
        {
          "internalType": "uint256",
          "name": "_takeFee",
          "type": "uint256"
        }
      ],
      "stateMutability": "nonpayable",
      "type": "constructor"
    },
    {
      "anonymous": false,
      "inputs": [
        {
          "indexed": false,
          "internalType": "bytes32",
          "name": "orderId",
          "type": "bytes32"
        }
      ],
      "name": "Cancel",
      "type": "event"
    },
    {
      "anonymous": false,
      "inputs": [
        {
          "indexed": false,
          "internalType": "bytes32",
          "name": "orderId",
          "type": "bytes32"
        },
        {
          "indexed": false,
          "internalType": "address",
          "name": "createMan",
          "type": "address"
        },
        {
          "indexed": false,
          "internalType": "address",
          "name": "payToken",
          "type": "address"
        },
        {
          "indexed": false,
          "internalType": "address",
          "name": "nftToken",
          "type": "address"
        },
        {
          "indexed": false,
          "internalType": "uint256",
          "name": "price",
          "type": "uint256"
        },
        {
          "indexed": false,
          "internalType": "uint256",
          "name": "tokenId",
          "type": "uint256"
        }
      ],
      "name": "CreateOrder",
      "type": "event"
    },
    {
      "anonymous": false,
      "inputs": [
        {
          "indexed": false,
          "internalType": "bytes32",
          "name": "orderId",
          "type": "bytes32"
        },
        {
          "indexed": false,
          "internalType": "uint256",
          "name": "tokenId",
          "type": "uint256"
        },
        {
          "indexed": false,
          "internalType": "uint256",
          "name": "price",
          "type": "uint256"
        },
        {
          "indexed": false,
          "internalType": "address",
          "name": "payToken",
          "type": "address"
        },
        {
          "indexed": false,
          "internalType": "address",
          "name": "nftToken",
          "type": "address"
        },
        {
          "indexed": false,
          "internalType": "address",
          "name": "marker",
          "type": "address"
        },
        {
          "indexed": false,
          "internalType": "address",
          "name": "takeMan",
          "type": "address"
        },
        {
          "indexed": false,
          "internalType": "uint256",
          "name": "finishTime",
          "type": "uint256"
        }
      ],
      "name": "TakeOrder",
      "type": "event"
    },
    {
      "inputs": [],
      "name": "admin",
      "outputs": [
        {
          "internalType": "address",
          "name": "",
          "type": "address"
        }
      ],
      "stateMutability": "view",
      "type": "function"
    },
    {
      "inputs": [
        {
          "internalType": "bytes32",
          "name": "orderId",
          "type": "bytes32"
        }
      ],
      "name": "cancelOrder",
      "outputs": [],
      "stateMutability": "nonpayable",
      "type": "function"
    },
    {
      "inputs": [
        {
          "internalType": "uint256",
          "name": "tokenId",
          "type": "uint256"
        }
      ],
      "name": "checkCardGrade",
      "outputs": [
        {
          "internalType": "bool",
          "name": "",
          "type": "bool"
        }
      ],
      "stateMutability": "view",
      "type": "function"
    },
    {
      "inputs": [
        {
          "internalType": "uint256",
          "name": "tokenId",
          "type": "uint256"
        },
        {
          "internalType": "uint256",
          "name": "price",
          "type": "uint256"
        },
        {
          "internalType": "address",
          "name": "payToken",
          "type": "address"
        },
        {
          "internalType": "address",
          "name": "nftAddr",
          "type": "address"
        }
      ],
      "name": "createOrder",
      "outputs": [],
      "stateMutability": "nonpayable",
      "type": "function"
    },
    {
      "inputs": [],
      "name": "getAllNowOeder",
      "outputs": [
        {
          "components": [
            {
              "internalType": "bytes32",
              "name": "orderId",
              "type": "bytes32"
            },
            {
              "internalType": "uint256",
              "name": "tokenId",
              "type": "uint256"
            },
            {
              "internalType": "uint256",
              "name": "price",
              "type": "uint256"
            },
            {
              "internalType": "address",
              "name": "payToken",
              "type": "address"
            },
            {
              "internalType": "address",
              "name": "nftToken",
              "type": "address"
            },
            {
              "internalType": "address",
              "name": "marker",
              "type": "address"
            },
            {
              "internalType": "address",
              "name": "takeMan",
              "type": "address"
            },
            {
              "internalType": "uint256",
              "name": "finishTime",
              "type": "uint256"
            },
            {
              "internalType": "bool",
              "name": "isUse",
              "type": "bool"
            }
          ],
          "internalType": "struct ExchangeNFT.OrderInfo[]",
          "name": "",
          "type": "tuple[]"
        }
      ],
      "stateMutability": "view",
      "type": "function"
    },
    {
      "inputs": [],
      "name": "getAllTakeOeder",
      "outputs": [
        {
          "components": [
            {
              "internalType": "bytes32",
              "name": "orderId",
              "type": "bytes32"
            },
            {
              "internalType": "uint256",
              "name": "tokenId",
              "type": "uint256"
            },
            {
              "internalType": "uint256",
              "name": "price",
              "type": "uint256"
            },
            {
              "internalType": "address",
              "name": "payToken",
              "type": "address"
            },
            {
              "internalType": "address",
              "name": "nftToken",
              "type": "address"
            },
            {
              "internalType": "address",
              "name": "marker",
              "type": "address"
            },
            {
              "internalType": "address",
              "name": "takeMan",
              "type": "address"
            },
            {
              "internalType": "uint256",
              "name": "finishTime",
              "type": "uint256"
            },
            {
              "internalType": "bool",
              "name": "isUse",
              "type": "bool"
            }
          ],
          "internalType": "struct ExchangeNFT.OrderInfo[]",
          "name": "",
          "type": "tuple[]"
        }
      ],
      "stateMutability": "view",
      "type": "function"
    },
    {
      "inputs": [],
      "name": "getNewAdmin",
      "outputs": [],
      "stateMutability": "nonpayable",
      "type": "function"
    },
    {
      "inputs": [],
      "name": "manager",
      "outputs": [
        {
          "internalType": "contract Manager",
          "name": "",
          "type": "address"
        }
      ],
      "stateMutability": "view",
      "type": "function"
    },
    {
      "inputs": [],
      "name": "newAdmin",
      "outputs": [
        {
          "internalType": "address",
          "name": "",
          "type": "address"
        }
      ],
      "stateMutability": "view",
      "type": "function"
    },
    {
      "inputs": [
        {
          "internalType": "uint256",
          "name": "",
          "type": "uint256"
        }
      ],
      "name": "nowOrder",
      "outputs": [
        {
          "internalType": "bytes32",
          "name": "orderId",
          "type": "bytes32"
        },
        {
          "internalType": "uint256",
          "name": "tokenId",
          "type": "uint256"
        },
        {
          "internalType": "uint256",
          "name": "price",
          "type": "uint256"
        },
        {
          "internalType": "address",
          "name": "payToken",
          "type": "address"
        },
        {
          "internalType": "address",
          "name": "nftToken",
          "type": "address"
        },
        {
          "internalType": "address",
          "name": "marker",
          "type": "address"
        },
        {
          "internalType": "address",
          "name": "takeMan",
          "type": "address"
        },
        {
          "internalType": "uint256",
          "name": "finishTime",
          "type": "uint256"
        },
        {
          "internalType": "bool",
          "name": "isUse",
          "type": "bool"
        }
      ],
      "stateMutability": "view",
      "type": "function"
    },
    {
      "inputs": [
        {
          "internalType": "address",
          "name": "operator",
          "type": "address"
        },
        {
          "internalType": "address",
          "name": "from",
          "type": "address"
        },
        {
          "internalType": "uint256",
          "name": "tokenId",
          "type": "uint256"
        },
        {
          "internalType": "bytes",
          "name": "data",
          "type": "bytes"
        }
      ],
      "name": "onERC721Received",
      "outputs": [
        {
          "internalType": "bytes4",
          "name": "",
          "type": "bytes4"
        }
      ],
      "stateMutability": "nonpayable",
      "type": "function"
    },
    {
      "inputs": [
        {
          "internalType": "uint256",
          "name": "_fee",
          "type": "uint256"
        },
        {
          "internalType": "address",
          "name": "_feeMan",
          "type": "address"
        }
      ],
      "name": "setFee",
      "outputs": [],
      "stateMutability": "nonpayable",
      "type": "function"
    },
    {
      "inputs": [
        {
          "internalType": "address",
          "name": "addr",
          "type": "address"
        }
      ],
      "name": "setManager",
      "outputs": [],
      "stateMutability": "nonpayable",
      "type": "function"
    },
    {
      "inputs": [
        {
          "internalType": "address",
          "name": "_newAdmin",
          "type": "address"
        }
      ],
      "name": "setNewAdmin",
      "outputs": [],
      "stateMutability": "nonpayable",
      "type": "function"
    },
    {
      "inputs": [
        {
          "internalType": "address",
          "name": "addr",
          "type": "address"
        },
        {
          "internalType": "bool",
          "name": "status",
          "type": "bool"
        }
      ],
      "name": "setNftAddress",
      "outputs": [],
      "stateMutability": "nonpayable",
      "type": "function"
    },
    {
      "inputs": [
        {
          "internalType": "uint256",
          "name": "_grade",
          "type": "uint256"
        },
        {
          "internalType": "bool",
          "name": "_isUser",
          "type": "bool"
        }
      ],
      "name": "setNftGrade",
      "outputs": [],
      "stateMutability": "nonpayable",
      "type": "function"
    },
    {
      "inputs": [
        {
          "internalType": "bytes32",
          "name": "orderId",
          "type": "bytes32"
        }
      ],
      "name": "takeOrder",
      "outputs": [],
      "stateMutability": "payable",
      "type": "function"
    },
    {
      "inputs": [
        {
          "internalType": "uint256",
          "name": "",
          "type": "uint256"
        }
      ],
      "name": "takeOrderList",
      "outputs": [
        {
          "internalType": "bytes32",
          "name": "orderId",
          "type": "bytes32"
        },
        {
          "internalType": "uint256",
          "name": "tokenId",
          "type": "uint256"
        },
        {
          "internalType": "uint256",
          "name": "price",
          "type": "uint256"
        },
        {
          "internalType": "address",
          "name": "payToken",
          "type": "address"
        },
        {
          "internalType": "address",
          "name": "nftToken",
          "type": "address"
        },
        {
          "internalType": "address",
          "name": "marker",
          "type": "address"
        },
        {
          "internalType": "address",
          "name": "takeMan",
          "type": "address"
        },
        {
          "internalType": "uint256",
          "name": "finishTime",
          "type": "uint256"
        },
        {
          "internalType": "bool",
          "name": "isUse",
          "type": "bool"
        }
      ],
      "stateMutability": "view",
      "type": "function"
    }
  ],
  "bytecode": "0x60806040523480156200001157600080fd5b5060405162002037380380620020378339810160408190526200003491620000f8565b600180546001600160a01b03199081163317825560046020527f04cde762ef08b6b6c5ded8e8c4c0b3f4e5c9ad7342c88fcc93681b4588b73f05805460ff19908116841790915560066000527fc59312466997bb42aaaf719ece141047820e6b34531e1670dc1852a453648f0f8054909116909217909155600580546001600160a01b03958616908316179055600a80549390941692169190911790915560095562000139565b80516001600160a01b0381168114620000f357600080fd5b919050565b6000806000606084860312156200010e57600080fd5b6200011984620000db565b92506200012960208501620000db565b9150604084015190509250925092565b611eee80620001496000396000f3fe6080604052600436106101095760003560e01c806372a2ea5e116100955780639ddd4974116100645780639ddd49741461033d578063b4f2e8b814610352578063c544851a14610372578063d0ebdbe714610392578063f851a440146103b257600080fd5b806372a2ea5e146102bd5780637489ec23146102dd578063813133c4146102fd5780638eec99c81461031d57600080fd5b806355862d83116100dc57806355862d83146101e057806358b91f0d146101f55780635b1ff357146102155780636022878b1461023757806364bff1bf146102a857600080fd5b8063150b7a021461010e57806329ef4a99146101585780633ea2638414610188578063481c6a75146101c0575b600080fd5b34801561011a57600080fd5b5061013a610129366004611a8b565b630a85bd0160e11b95945050505050565b6040516001600160e01b031990911681526020015b60405180910390f35b34801561016457600080fd5b50610178610173366004611b2a565b6103d2565b604051901515815260200161014f565b34801561019457600080fd5b506002546101a8906001600160a01b031681565b6040516001600160a01b03909116815260200161014f565b3480156101cc57600080fd5b506000546101a8906001600160a01b031681565b6101f36101ee366004611b2a565b61045d565b005b34801561020157600080fd5b506101f3610210366004611b43565b610a80565b34801561022157600080fd5b5061022a610eff565b60405161014f9190611b8d565b34801561024357600080fd5b50610257610252366004611b2a565b610fc9565b60408051998a5260208a0198909852968801959095526001600160a01b0393841660608801529183166080870152821660a08601521660c084015260e083015215156101008201526101200161014f565b3480156102b457600080fd5b5061022a611039565b3480156102c957600080fd5b506102576102d8366004611b2a565b6110f9565b3480156102e957600080fd5b506101f36102f8366004611b2a565b611109565b34801561030957600080fd5b506101f3610318366004611c4a565b611490565b34801561032957600080fd5b506101f3610338366004611c83565b611566565b34801561034957600080fd5b506101f3611626565b34801561035e57600080fd5b506101f361036d366004611ca0565b61168b565b34801561037e57600080fd5b506101f361038d366004611cc5565b61175d565b34801561039e57600080fd5b506101f36103ad366004611c83565b611828565b3480156103be57600080fd5b506001546101a8906001600160a01b031681565b600554604051634b8094df60e11b81526004810183905260009182916001600160a01b039091169063970129be906024016040805180830381865afa15801561041f573d6000803e3d6000fd5b505050506040513d601f19601f820116820180604052508101906104439190611cea565b5060009081526004602052604090205460ff169392505050565b6000818152600660205260409020600881015460ff166104b15760405162461bcd60e51b815260206004820152600a6024820152694f646572206572726f6560b01b60448201526064015b60405180910390fd5b60006104d86103e86104d2600954856002015461189a90919063ffffffff16565b90611925565b60038301549091506001600160a01b031661058b5781600201543410156104fe57600080fd5b600a546040516001600160a01b039091169082156108fc029083906000818181858888f19350505050158015610538573d6000803e3d6000fd5b50600582015460028301546001600160a01b03909116906108fc9061055d9084611967565b6040518115909202916000818181858888f19350505050158015610585573d6000803e3d6000fd5b5061069d565b6003820154600a546040516323b872dd60e01b81526001600160a01b03928316926323b872dd926105c6923392909116908690600401611d0e565b6020604051808303816000875af11580156105e5573d6000803e3d6000fd5b505050506040513d601f19601f820116820180604052508101906106099190611d32565b506003820154600583015460028401546001600160a01b03928316926323b872dd92339291169061063a9086611967565b6040518463ffffffff1660e01b815260040161065893929190611d0e565b6020604051808303816000875af1158015610677573d6000803e3d6000fd5b505050506040513d601f19601f8201168201806040525081019061069b9190611d32565b505b4260078301556006820180546001600160a01b0319163390811790915560088301805460ff1916905560048084015460018501546040516323b872dd60e01b81526001600160a01b0392909216936323b872dd936106fe9330939101611d0e565b600060405180830381600087803b15801561071857600080fd5b505af115801561072c573d6000803e3d6000fd5b505060088054600180820183556000839052865460099092027ff3f7a9fe364faab93b216da50a3214154f22a0a2b415b23a84c8169e8b636ee3810192909255860180547ff3f7a9fe364faab93b216da50a3214154f22a0a2b415b23a84c8169e8b636ee48301556002870180547ff3f7a9fe364faab93b216da50a3214154f22a0a2b415b23a84c8169e8b636ee58401556003880180547ff3f7a9fe364faab93b216da50a3214154f22a0a2b415b23a84c8169e8b636ee6850180546001600160a01b03199081166001600160a01b039384161790915560048b0180547ff3f7a9fe364faab93b216da50a3214154f22a0a2b415b23a84c8169e8b636ee788018054841691851691909117905560058c0180547ff3f7a9fe364faab93b216da50a3214154f22a0a2b415b23a84c8169e8b636ee889018054851691861691909117905560068d01547ff3f7a9fe364faab93b216da50a3214154f22a0a2b415b23a84c8169e8b636ee9890180549094169085161790925560078c01547ff3f7a9fe364faab93b216da50a3214154f22a0a2b415b23a84c8169e8b636eea880155968b01547ff3f7a9fe364faab93b216da50a3214154f22a0a2b415b23a84c8169e8b636eeb909601805460ff909716151560ff199097169690961790955592549154905494549354604080518c815260208101949094528381019290925294831660608301529282166080820152921660a08301523360c08301524260e0830152517fee3eee9f37417f7b578a99a1254787d83a1154be42988cedbcb82ba7e56bb0e4935090819003610100019150a16000838152600660208190526040822082815560018101839055600281018390556003810180546001600160a01b03199081169091556004820180548216905560058201805482169055918101805490921690915560078101829055600801805460ff191690556109ed846119a9565b90508015610a7a576007610a02600183611d65565b81548110610a1257610a12611d78565b60009182526020822060099091020181815560018101829055600281018290556003810180546001600160a01b0319908116909155600482018054821690556005820180548216905560068201805490911690556007810191909155600801805460ff191690555b50505050565b6001600160a01b03811660009081526003602052604090205460ff16610adc5760405162461bcd60e51b815260206004820152601160248201527027232a1020b2323932b9b99022b93937b960791b60448201526064016104a8565b6040516323b872dd60e01b81526001600160a01b038216906323b872dd90610b0c90339030908990600401611d0e565b600060405180830381600087803b158015610b2657600080fd5b505af1158015610b3a573d6000803e3d6000fd5b505060408051602081018890523391810191909152436060820152600092506080019050604051602081830303815290604052805190602001209050604051806101200160405280828152602001868152602001858152602001846001600160a01b03168152602001836001600160a01b03168152602001336001600160a01b0316815260200160006001600160a01b0316815260200160008152602001600115158152506006600083815260200190815260200160002060008201518160000155602082015181600101556040820151816002015560608201518160030160006101000a8154816001600160a01b0302191690836001600160a01b0316021790555060808201518160040160006101000a8154816001600160a01b0302191690836001600160a01b0316021790555060a08201518160050160006101000a8154816001600160a01b0302191690836001600160a01b0316021790555060c08201518160060160006101000a8154816001600160a01b0302191690836001600160a01b0316021790555060e082015181600701556101008201518160080160006101000a81548160ff02191690831515021790555090505060076006600083815260200190815260200160002090806001815401808255809150506001900390600052602060002090600902016000909190919091506000820154816000015560018201548160010155600282015481600201556003820160009054906101000a90046001600160a01b03168160030160006101000a8154816001600160a01b0302191690836001600160a01b031602179055506004820160009054906101000a90046001600160a01b03168160040160006101000a8154816001600160a01b0302191690836001600160a01b031602179055506005820160009054906101000a90046001600160a01b03168160050160006101000a8154816001600160a01b0302191690836001600160a01b031602179055506006820160009054906101000a90046001600160a01b03168160060160006101000a8154816001600160a01b0302191690836001600160a01b03160217905550600782015481600701556008820160009054906101000a900460ff168160080160006101000a81548160ff02191690831515021790555050507f3c13d4822978e82ae2366b7c6a118ce3186f377d47dff48d4911c8eaf8d6e70281338585888a604051610ef0969594939291909586526001600160a01b039485166020870152928416604086015292166060840152608083019190915260a082015260c00190565b60405180910390a15050505050565b60606008805480602002602001604051908101604052809291908181526020016000905b82821015610fc0576000848152602090819020604080516101208101825260098602909201805483526001808201548486015260028201549284019290925260038101546001600160a01b0390811660608501526004820154811660808501526005820154811660a085015260068201541660c0840152600781015460e08401526008015460ff1615156101008301529083529092019101610f23565b50505050905090565b60078181548110610fd957600080fd5b6000918252602090912060099091020180546001820154600283015460038401546004850154600586015460068701546007880154600890980154969850949693956001600160a01b039384169592841694918416939092169160ff1689565b606060078054806020026020016040519081016040528092919081815260200160009082821015610fc0576000848152602090819020604080516101208101825260098602909201805483526001808201548486015260028201549284019290925260038101546001600160a01b0390811660608501526004820154811660808501526005820154811660a085015260068201541660c0840152600781015460e08401526008015460ff1615156101008301529083529092019101610f23565b60088181548110610fd957600080fd5b6000818152600660205260409020600501546001600160a01b031633146111685760405162461bcd60e51b815260206004820152601360248201527224ba1034b9903737ba103cb7ba9037b93232b960691b60448201526064016104a8565b600081815260066020819052604090912001546001600160a01b0316156111c65760405162461bcd60e51b8152602060048201526012602482015271027b93232b9103430b9903a30b5b2a6b0b7160751b60448201526064016104a8565b6000818152600660205260409020600701541561121d5760405162461bcd60e51b8152602060048201526015602482015274027b93232b9103430b9903334b734b9b42a34b6b29605d1b60448201526064016104a8565b60008181526006602052604080822060048082015460019092015492516331a9108f60e11b8152908101929092526001600160a01b031690636352211e90602401602060405180830381865afa15801561127b573d6000803e3d6000fd5b505050506040513d601f19601f8201168201806040525081019061129f9190611d8e565b90506001600160a01b03811630146112eb5760405162461bcd60e51b815260206004820152600f60248201526e27232a103a37b5b2b71032b93937b960891b60448201526064016104a8565b6000828152600660208190526040822060018101805460048301805486855592869055600284018690556003840180546001600160a01b0319908116909155808416909155600584018054821690559383018054909416909355600782018490556008909101805460ff1916905590916001600160a01b0390911690611370856119a9565b905080156113fd576007611385600183611d65565b8154811061139557611395611d78565b60009182526020822060099091020181815560018101829055600281018290556003810180546001600160a01b0319908116909155600482018054821690556005820180548216905560068201805490911690556007810191909155600801805460ff191690555b6040516323b872dd60e01b81526001600160a01b038316906323b872dd9061142d90309033908890600401611d0e565b600060405180830381600087803b15801561144757600080fd5b505af115801561145b573d6000803e3d6000fd5b505050507fe8d9861dbc9c663ed3accd261bbe2fe01e0d3d9e5f51fa38523b265c7757a93a85604051610ef091815260200190565b6040805180820182526006815265436f6e66696760d01b60208201526000549151637dd13a9560e01b815290916001600160a01b031690637dd13a95906114dd9033908590600401611df1565b602060405180830381865afa1580156114fa573d6000803e3d6000fd5b505050506040513d601f19601f8201168201806040525081019061151e9190611d32565b61153a5760405162461bcd60e51b81526004016104a890611e1d565b506001600160a01b03919091166000908152600360205260409020805460ff1916911515919091179055565b6001546001600160a01b031633146115b65760405162461bcd60e51b8152602060048201526013602482015272636f6e7472616374206f776e6572206f6e6c7960681b60448201526064016104a8565b6001546001600160a01b031633146116045760405162461bcd60e51b81526020600482015260116024820152703cb7ba9030b932903737ba1030b236b4b760791b60448201526064016104a8565b600280546001600160a01b0319166001600160a01b0392909216919091179055565b6002546001600160a01b031633146116775760405162461bcd60e51b81526020600482015260146024820152733cb7ba9030b932903737ba103732bba0b236b4b760611b60448201526064016104a8565b600180546001600160a01b03191633179055565b6040805180820182526006815265436f6e66696760d01b60208201526000549151637dd13a9560e01b815290916001600160a01b031690637dd13a95906116d89033908590600401611df1565b602060405180830381865afa1580156116f5573d6000803e3d6000fd5b505050506040513d601f19601f820116820180604052508101906117199190611d32565b6117355760405162461bcd60e51b81526004016104a890611e1d565b50600991909155600a80546001600160a01b0319166001600160a01b03909216919091179055565b6040805180820182526006815265436f6e66696760d01b60208201526000549151637dd13a9560e01b815290916001600160a01b031690637dd13a95906117aa9033908590600401611df1565b602060405180830381865afa1580156117c7573d6000803e3d6000fd5b505050506040513d601f19601f820116820180604052508101906117eb9190611d32565b6118075760405162461bcd60e51b81526004016104a890611e1d565b50600091825260046020526040909120805460ff1916911515919091179055565b6001546001600160a01b031633146118785760405162461bcd60e51b8152602060048201526013602482015272636f6e7472616374206f776e6572206f6e6c7960681b60448201526064016104a8565b600080546001600160a01b0319166001600160a01b0392909216919091179055565b6000826000036118ac5750600061191f565b60006118b88385611e40565b9050826118c58583611e57565b1461191c5760405162461bcd60e51b815260206004820152602160248201527f536166654d6174683a206d756c7469706c69636174696f6e206f766572666c6f6044820152607760f81b60648201526084016104a8565b90505b92915050565b600061191c83836040518060400160405280601a81526020017f536166654d6174683a206469766973696f6e206279207a65726f000000000000815250611a0b565b600061191c83836040518060400160405280601e81526020017f536166654d6174683a207375627472616374696f6e206f766572666c6f770000815250611a42565b600080805b6007548114611a0457600781815481106119ca576119ca611d78565b90600052602060002090600902016000015484036119f4576119ed816001611e79565b9150611a04565b6119fd81611e8c565b90506119ae565b5092915050565b60008183611a2c5760405162461bcd60e51b81526004016104a89190611ea5565b506000611a398486611e57565b95945050505050565b60008184841115611a665760405162461bcd60e51b81526004016104a89190611ea5565b506000611a398486611d65565b6001600160a01b0381168114611a8857600080fd5b50565b600080600080600060808688031215611aa357600080fd5b8535611aae81611a73565b94506020860135611abe81611a73565b935060408601359250606086013567ffffffffffffffff80821115611ae257600080fd5b818801915088601f830112611af657600080fd5b813581811115611b0557600080fd5b896020828501011115611b1757600080fd5b9699959850939650602001949392505050565b600060208284031215611b3c57600080fd5b5035919050565b60008060008060808587031215611b5957600080fd5b84359350602085013592506040850135611b7281611a73565b91506060850135611b8281611a73565b939692955090935050565b602080825282518282018190526000919060409081850190868401855b82811015611c2f57815180518552868101518786015285810151868601526060808201516001600160a01b039081169187019190915260808083015182169087015260a08083015182169087015260c0808301519091169086015260e08082015190860152610100908101511515908501526101209093019290850190600101611baa565b5091979650505050505050565b8015158114611a8857600080fd5b60008060408385031215611c5d57600080fd5b8235611c6881611a73565b91506020830135611c7881611c3c565b809150509250929050565b600060208284031215611c9557600080fd5b813561191c81611a73565b60008060408385031215611cb357600080fd5b823591506020830135611c7881611a73565b60008060408385031215611cd857600080fd5b823591506020830135611c7881611c3c565b60008060408385031215611cfd57600080fd5b505080516020909101519092909150565b6001600160a01b039384168152919092166020820152604081019190915260600190565b600060208284031215611d4457600080fd5b815161191c81611c3c565b634e487b7160e01b600052601160045260246000fd5b8181038181111561191f5761191f611d4f565b634e487b7160e01b600052603260045260246000fd5b600060208284031215611da057600080fd5b815161191c81611a73565b6000815180845260005b81811015611dd157602081850181015186830182015201611db5565b506000602082860101526020601f19601f83011685010191505092915050565b6001600160a01b0383168152604060208201819052600090611e1590830184611dab565b949350505050565b6020808252600990820152681b9bc81c195c9b5a5d60ba1b604082015260600190565b808202811582820484141761191f5761191f611d4f565b600082611e7457634e487b7160e01b600052601260045260246000fd5b500490565b8082018082111561191f5761191f611d4f565b600060018201611e9e57611e9e611d4f565b5060010190565b60208152600061191c6020830184611dab56fea2646970667358221220d8a4f5b320c3dea33b86e35b5a62538a99eb725ec1602d569bf7f6abe591fbd464736f6c63430008110033",
  "linkReferences": {},
  "deployedLinkReferences": {}
}