{
  "_format": "hh-sol-artifact-1",
  "contractName": "SynthesisCard",
  "sourceName": "contracts/Synthesis.sol",
  "abi": [
    {
      "inputs": [
        {
          "internalType": "address",
          "name": "_verify",
          "type": "address"
        },
        {
          "internalType": "address",
          "name": "nftAddress",
          "type": "address"
        },
        {
          "internalType": "address",
          "name": "_mainAddress",
          "type": "address"
        },
        {
          "internalType": "address",
          "name": "_income",
          "type": "address"
        },
        {
          "internalType": "uint256",
          "name": "_fee",
          "type": "uint256"
        }
      ],
      "stateMutability": "nonpayable",
      "type": "constructor"
    },
    {
      "anonymous": false,
      "inputs": [
        {
          "indexed": false,
          "internalType": "uint256",
          "name": "newTokenId",
          "type": "uint256"
        },
        {
          "indexed": false,
          "internalType": "uint256",
          "name": "amount",
          "type": "uint256"
        },
        {
          "indexed": false,
          "internalType": "address",
          "name": "payToken",
          "type": "address"
        },
        {
          "indexed": false,
          "internalType": "address",
          "name": "user",
          "type": "address"
        },
        {
          "indexed": false,
          "internalType": "uint256",
          "name": "burnTokenId",
          "type": "uint256"
        },
        {
          "indexed": false,
          "internalType": "uint256",
          "name": "cardType",
          "type": "uint256"
        },
        {
          "indexed": false,
          "internalType": "uint256",
          "name": "cardGrade",
          "type": "uint256"
        }
      ],
      "name": "ToSynthesis",
      "type": "event"
    },
    {
      "inputs": [],
      "name": "admin",
      "outputs": [
        {
          "internalType": "address",
          "name": "",
          "type": "address"
        }
      ],
      "stateMutability": "view",
      "type": "function"
    },
    {
      "inputs": [
        {
          "internalType": "uint256[]",
          "name": "ids",
          "type": "uint256[]"
        }
      ],
      "name": "checkCardGrade",
      "outputs": [
        {
          "internalType": "bool",
          "name": "",
          "type": "bool"
        }
      ],
      "stateMutability": "view",
      "type": "function"
    },
    {
      "inputs": [],
      "name": "fee",
      "outputs": [
        {
          "internalType": "uint256",
          "name": "",
          "type": "uint256"
        }
      ],
      "stateMutability": "view",
      "type": "function"
    },
    {
      "inputs": [],
      "name": "getNewAdmin",
      "outputs": [],
      "stateMutability": "nonpayable",
      "type": "function"
    },
    {
      "inputs": [],
      "name": "income",
      "outputs": [
        {
          "internalType": "address",
          "name": "",
          "type": "address"
        }
      ],
      "stateMutability": "view",
      "type": "function"
    },
    {
      "inputs": [],
      "name": "mainAddress",
      "outputs": [
        {
          "internalType": "address",
          "name": "",
          "type": "address"
        }
      ],
      "stateMutability": "view",
      "type": "function"
    },
    {
      "inputs": [],
      "name": "manager",
      "outputs": [
        {
          "internalType": "contract Manager",
          "name": "",
          "type": "address"
        }
      ],
      "stateMutability": "view",
      "type": "function"
    },
    {
      "inputs": [],
      "name": "newAdmin",
      "outputs": [
        {
          "internalType": "address",
          "name": "",
          "type": "address"
        }
      ],
      "stateMutability": "view",
      "type": "function"
    },
    {
      "inputs": [],
      "name": "nftAddr",
      "outputs": [
        {
          "internalType": "contract NFTContract",
          "name": "",
          "type": "address"
        }
      ],
      "stateMutability": "view",
      "type": "function"
    },
    {
      "inputs": [
        {
          "internalType": "address",
          "name": "_addr",
          "type": "address"
        },
        {
          "internalType": "uint256",
          "name": "_fee",
          "type": "uint256"
        }
      ],
      "name": "setFees",
      "outputs": [],
      "stateMutability": "nonpayable",
      "type": "function"
    },
    {
      "inputs": [
        {
          "internalType": "address",
          "name": "_income",
          "type": "address"
        }
      ],
      "name": "setIncome",
      "outputs": [],
      "stateMutability": "nonpayable",
      "type": "function"
    },
    {
      "inputs": [
        {
          "internalType": "address",
          "name": "addr",
          "type": "address"
        }
      ],
      "name": "setManager",
      "outputs": [],
      "stateMutability": "nonpayable",
      "type": "function"
    },
    {
      "inputs": [
        {
          "internalType": "address",
          "name": "_newAdmin",
          "type": "address"
        }
      ],
      "name": "setNewAdmin",
      "outputs": [],
      "stateMutability": "nonpayable",
      "type": "function"
    },
    {
      "inputs": [
        {
          "internalType": "address",
          "name": "_addr",
          "type": "address"
        },
        {
          "internalType": "bool",
          "name": "isUse",
          "type": "bool"
        }
      ],
      "name": "setNftAddress",
      "outputs": [],
      "stateMutability": "nonpayable",
      "type": "function"
    },
    {
      "inputs": [
        {
          "internalType": "address",
          "name": "_addr",
          "type": "address"
        }
      ],
      "name": "setVerify",
      "outputs": [],
      "stateMutability": "nonpayable",
      "type": "function"
    },
    {
      "inputs": [
        {
          "internalType": "bytes",
          "name": "data",
          "type": "bytes"
        }
      ],
      "name": "toSynthesis",
      "outputs": [],
      "stateMutability": "payable",
      "type": "function"
    }
  ],
  "bytecode": "0x60806040523480156200001157600080fd5b5060405162001929380380620019298339810160408190526200003491620000c9565b60018054336001600160a01b03199182161782556004805482166001600160a01b039889161790559486166000818152600360205260409020805460ff191690921790915560058054861690911790556006805485169386169390931790925560078054909316931692909217905560085562000130565b80516001600160a01b0381168114620000c457600080fd5b919050565b600080600080600060a08688031215620000e257600080fd5b620000ed86620000ac565b9450620000fd60208701620000ac565b93506200010d60408701620000ac565b92506200011d60608701620000ac565b9150608086015190509295509295909350565b6117e980620001406000396000f3fe6080604052600436106100f35760003560e01c8063851f5b2c1161008a578063cde240b011610059578063cde240b01461028f578063d0ebdbe7146102af578063ddca3f43146102cf578063f851a440146102f357600080fd5b8063851f5b2c1461021a57806388b450461461023a5780638eec99c81461025a5780639ddd49741461027a57600080fd5b80634c9d61fd116100c65780634c9d61fd1461018a5780635e5c6ada146101ba578063740f1e18146101da578063813133c4146101fa57600080fd5b80630601b31f146100f85780630cdd42341461010d5780633ea263841461014a578063481c6a751461016a575b600080fd5b61010b61010636600461126e565b610313565b005b34801561011957600080fd5b5060065461012d906001600160a01b031681565b6040516001600160a01b0390911681526020015b60405180910390f35b34801561015657600080fd5b5060025461012d906001600160a01b031681565b34801561017657600080fd5b5060005461012d906001600160a01b031681565b34801561019657600080fd5b506101aa6101a5366004611312565b610a39565b6040519015158152602001610141565b3480156101c657600080fd5b5061010b6101d53660046113bb565b610b9c565b3480156101e657600080fd5b5060055461012d906001600160a01b031681565b34801561020657600080fd5b5061010b6102153660046113f5565b610c6d565b34801561022657600080fd5b5061010b61023536600461142e565b610d57565b34801561024657600080fd5b5060075461012d906001600160a01b031681565b34801561026657600080fd5b5061010b61027536600461142e565b610e24565b34801561028657600080fd5b5061010b610ee4565b34801561029b57600080fd5b5061010b6102aa36600461142e565b610f49565b3480156102bb57600080fd5b5061010b6102ca36600461142e565b611016565b3480156102db57600080fd5b506102e560085481565b604051908152602001610141565b3480156102ff57600080fd5b5060015461012d906001600160a01b031681565b600480546040516377624ea160e11b8152600092839283926001600160a01b039091169163eec49d42916103499188910161149b565b6000604051808303816000875af1158015610368573d6000803e3d6000fd5b505050506040513d6000823e601f3d908101601f19168201604052610390919081019061156a565b92509250925060036000836001815181106103ad576103ad61164a565b6020908102919091018101516001600160a01b031682528101919091526040016000205460ff166104195760405162461bcd60e51b815260206004820152601160248201527027232a20b2323932b9b9901022b93937b960791b60448201526064015b60405180910390fd5b336001600160a01b0316826002815181106104365761043661164a565b60200260200101516001600160a01b0316146104815760405162461bcd60e51b815260206004820152600a6024820152692ab9b2b91022b93937b960b11b6044820152606401610410565b61048a83610a39565b6104ca5760405162461bcd60e51b815260206004820152601160248201527031b0b9321033b930b232b99032b93937b960791b6044820152606401610410565b60006105076103e8610501600854876002815181106104eb576104eb61164a565b602002602001015161108890919063ffffffff16565b90611113565b905060006001600160a01b0316836000815181106105275761052761164a565b60200260200101516001600160a01b03160361061157836002815181106105505761055061164a565b602002602001015134101561056457600080fd5b6006546040516001600160a01b039091169082156108fc029083906000818181858888f1935050505015801561059e573d6000803e3d6000fd5b5060075484516001600160a01b03909116906108fc906105e3908490889060029081106105cd576105cd61164a565b602002602001015161115590919063ffffffff16565b6040518115909202916000818181858888f1935050505015801561060b573d6000803e3d6000fd5b506107bf565b826000815181106106245761062461164a565b60200260200101516001600160a01b03166323b872dd8460028151811061064d5761064d61164a565b602090810291909101015160065460405160e084901b6001600160e01b03191681526001600160a01b03928316600482015291166024820152604481018490526064016020604051808303816000875af11580156106af573d6000803e3d6000fd5b505050506040513d601f19601f820116820180604052508101906106d39190611660565b50826000815181106106e7576106e761164a565b60200260200101516001600160a01b03166323b872dd846002815181106107105761071061164a565b6020026020010151600760009054906101000a90046001600160a01b031661074585896002815181106105cd576105cd61164a565b6040516001600160e01b031960e086901b1681526001600160a01b03938416600482015292909116602483015260448201526064016020604051808303816000875af1158015610799573d6000803e3d6000fd5b505050506040513d601f19601f820116820180604052508101906107bd9190611660565b505b60055483516000916001600160a01b031690636395a39390869060029081106107ea576107ea61164a565b6020026020010151876000815181106108055761080561164a565b6020026020010151886001815181106108205761082061164a565b6020026020010151876040518563ffffffff1660e01b8152600401610848949392919061167d565b6020604051808303816000875af1158015610867573d6000803e3d6000fd5b505050506040513d601f19601f8201168201806040525081019061088b91906116b4565b905060035b85518114610a305760055486516001600160a01b0390911690632890e0d7908890849081106108c1576108c161164a565b60200260200101516040518263ffffffff1660e01b81526004016108e791815260200190565b600060405180830381600087803b15801561090157600080fd5b505af1158015610915573d6000803e3d6000fd5b505050507f53c33ff17b460238b9102f94c243ef90673509286e54bb94222765e7a0868cdc828760028151811061094e5761094e61164a565b6020026020010151876000815181106109695761096961164a565b6020026020010151886002815181106109845761098461164a565b60200260200101518a868151811061099e5761099e61164a565b60200260200101518b6000815181106109b9576109b961164a565b60200260200101518c6001815181106109d4576109d461164a565b60209081029190910181015160408051988952918801969096526001600160a01b0394851690870152929091166060850152608084015260a083015260c082015260e00160405180910390a1610a29816116e3565b9050610890565b50505050505050565b600554815160009182916001600160a01b039091169063970129be9085906003908110610a6857610a6861164a565b60200260200101516040518263ffffffff1660e01b8152600401610a8e91815260200190565b6040805180830381865afa158015610aaa573d6000803e3d6000fd5b505050506040513d601f19601f82011682018060405250810190610ace91906116fc565b50905060045b83518114610b925760055484516000916001600160a01b03169063970129be90879085908110610b0657610b0661164a565b60200260200101516040518263ffffffff1660e01b8152600401610b2c91815260200190565b6040805180830381865afa158015610b48573d6000803e3d6000fd5b505050506040513d601f19601f82011682018060405250810190610b6c91906116fc565b509050808314610b8157506000949350505050565b50610b8b816116e3565b9050610ad4565b5060019392505050565b6040805180820182526006815265436f6e66696760d01b60208201526000549151637dd13a9560e01b815290916001600160a01b031690637dd13a9590610be99033908590600401611720565b602060405180830381865afa158015610c06573d6000803e3d6000fd5b505050506040513d601f19601f82011682018060405250810190610c2a9190611660565b610c465760405162461bcd60e51b815260040161041090611744565b50600680546001600160a01b0319166001600160a01b039390931692909217909155600855565b6040805180820182526006815265436f6e66696760d01b60208201526000549151637dd13a9560e01b815290916001600160a01b031690637dd13a9590610cba9033908590600401611720565b602060405180830381865afa158015610cd7573d6000803e3d6000fd5b505050506040513d601f19601f82011682018060405250810190610cfb9190611660565b610d175760405162461bcd60e51b815260040161041090611744565b506001600160a01b03919091166000818152600360205260409020805460ff191692151592909217909155600580546001600160a01b0319169091179055565b6040805180820182526006815265436f6e66696760d01b60208201526000549151637dd13a9560e01b815290916001600160a01b031690637dd13a9590610da49033908590600401611720565b602060405180830381865afa158015610dc1573d6000803e3d6000fd5b505050506040513d601f19601f82011682018060405250810190610de59190611660565b610e015760405162461bcd60e51b815260040161041090611744565b50600480546001600160a01b0319166001600160a01b0392909216919091179055565b6001546001600160a01b03163314610e745760405162461bcd60e51b8152602060048201526013602482015272636f6e7472616374206f776e6572206f6e6c7960681b6044820152606401610410565b6001546001600160a01b03163314610ec25760405162461bcd60e51b81526020600482015260116024820152703cb7ba9030b932903737ba1030b236b4b760791b6044820152606401610410565b600280546001600160a01b0319166001600160a01b0392909216919091179055565b6002546001600160a01b03163314610f355760405162461bcd60e51b81526020600482015260146024820152733cb7ba9030b932903737ba103732bba0b236b4b760611b6044820152606401610410565b600180546001600160a01b03191633179055565b6040805180820182526006815265436f6e66696760d01b60208201526000549151637dd13a9560e01b815290916001600160a01b031690637dd13a9590610f969033908590600401611720565b602060405180830381865afa158015610fb3573d6000803e3d6000fd5b505050506040513d601f19601f82011682018060405250810190610fd79190611660565b610ff35760405162461bcd60e51b815260040161041090611744565b50600780546001600160a01b0319166001600160a01b0392909216919091179055565b6001546001600160a01b031633146110665760405162461bcd60e51b8152602060048201526013602482015272636f6e7472616374206f776e6572206f6e6c7960681b6044820152606401610410565b600080546001600160a01b0319166001600160a01b0392909216919091179055565b60008260000361109a5750600061110d565b60006110a68385611767565b9050826110b3858361177e565b1461110a5760405162461bcd60e51b815260206004820152602160248201527f536166654d6174683a206d756c7469706c69636174696f6e206f766572666c6f6044820152607760f81b6064820152608401610410565b90505b92915050565b600061110a83836040518060400160405280601a81526020017f536166654d6174683a206469766973696f6e206279207a65726f000000000000815250611197565b600061110a83836040518060400160405280601e81526020017f536166654d6174683a207375627472616374696f6e206f766572666c6f7700008152506111ce565b600081836111b85760405162461bcd60e51b8152600401610410919061149b565b5060006111c5848661177e565b95945050505050565b600081848411156111f25760405162461bcd60e51b8152600401610410919061149b565b5060006111c584866117a0565b634e487b7160e01b600052604160045260246000fd5b604051601f8201601f1916810167ffffffffffffffff8111828210171561123e5761123e6111ff565b604052919050565b600067ffffffffffffffff821115611260576112606111ff565b50601f01601f191660200190565b60006020828403121561128057600080fd5b813567ffffffffffffffff81111561129757600080fd5b8201601f810184136112a857600080fd5b80356112bb6112b682611246565b611215565b8181528560208385010111156112d057600080fd5b81602084016020830137600091810160200191909152949350505050565b600067ffffffffffffffff821115611308576113086111ff565b5060051b60200190565b6000602080838503121561132557600080fd5b823567ffffffffffffffff81111561133c57600080fd5b8301601f8101851361134d57600080fd5b803561135b6112b6826112ee565b81815260059190911b8201830190838101908783111561137a57600080fd5b928401925b828410156113985783358252928401929084019061137f565b979650505050505050565b6001600160a01b03811681146113b857600080fd5b50565b600080604083850312156113ce57600080fd5b82356113d9816113a3565b946020939093013593505050565b80151581146113b857600080fd5b6000806040838503121561140857600080fd5b8235611413816113a3565b91506020830135611423816113e7565b809150509250929050565b60006020828403121561144057600080fd5b813561110a816113a3565b60005b8381101561146657818101518382015260200161144e565b50506000910152565b6000815180845261148781602086016020860161144b565b601f01601f19169290920160200192915050565b60208152600061110a602083018461146f565b600082601f8301126114bf57600080fd5b815160206114cf6112b6836112ee565b82815260059290921b840181019181810190868411156114ee57600080fd5b8286015b84811015611512578051611505816113a3565b83529183019183016114f2565b509695505050505050565b600082601f83011261152e57600080fd5b815161153c6112b682611246565b81815284602083860101111561155157600080fd5b61156282602083016020870161144b565b949350505050565b60008060006060848603121561157f57600080fd5b835167ffffffffffffffff8082111561159757600080fd5b818601915086601f8301126115ab57600080fd5b815160206115bb6112b6836112ee565b82815260059290921b8401810191818101908a8411156115da57600080fd5b948201945b838610156115f8578551825294820194908201906115df565b9189015191975090935050508082111561161157600080fd5b61161d878388016114ae565b9350604086015191508082111561163357600080fd5b506116408682870161151d565b9150509250925092565b634e487b7160e01b600052603260045260246000fd5b60006020828403121561167257600080fd5b815161110a816113e7565b60018060a01b03851681528360208201528260408201526080606082015260006116aa608083018461146f565b9695505050505050565b6000602082840312156116c657600080fd5b5051919050565b634e487b7160e01b600052601160045260246000fd5b6000600182016116f5576116f56116cd565b5060010190565b6000806040838503121561170f57600080fd5b505080516020909101519092909150565b6001600160a01b03831681526040602082018190526000906115629083018461146f565b6020808252600990820152681b9bc81c195c9b5a5d60ba1b604082015260600190565b808202811582820484141761110d5761110d6116cd565b60008261179b57634e487b7160e01b600052601260045260246000fd5b500490565b8181038181111561110d5761110d6116cd56fea26469706673582212205734f2a5526befe60d61b0c4905b45d9dde6a769f29bda40f409326b41b3ad7e64736f6c63430008110033",
  "linkReferences": {},
  "deployedLinkReferences": {}
}