{
  "_format": "hh-sol-artifact-1",
  "contractName": "InvitationDistribute",
  "sourceName": "contracts/InvitationDistribute.sol",
  "abi": [
    {
      "inputs": [
        {
          "internalType": "address",
          "name": "_signer",
          "type": "address"
        }
      ],
      "stateMutability": "nonpayable",
      "type": "constructor"
    },
    {
      "anonymous": false,
      "inputs": [
        {
          "indexed": true,
          "internalType": "bytes32",
          "name": "role",
          "type": "bytes32"
        },
        {
          "indexed": true,
          "internalType": "bytes32",
          "name": "previousAdminRole",
          "type": "bytes32"
        },
        {
          "indexed": true,
          "internalType": "bytes32",
          "name": "newAdminRole",
          "type": "bytes32"
        }
      ],
      "name": "RoleAdminChanged",
      "type": "event"
    },
    {
      "anonymous": false,
      "inputs": [
        {
          "indexed": true,
          "internalType": "bytes32",
          "name": "role",
          "type": "bytes32"
        },
        {
          "indexed": true,
          "internalType": "address",
          "name": "account",
          "type": "address"
        },
        {
          "indexed": true,
          "internalType": "address",
          "name": "sender",
          "type": "address"
        }
      ],
      "name": "RoleGranted",
      "type": "event"
    },
    {
      "anonymous": false,
      "inputs": [
        {
          "indexed": true,
          "internalType": "bytes32",
          "name": "role",
          "type": "bytes32"
        },
        {
          "indexed": true,
          "internalType": "address",
          "name": "account",
          "type": "address"
        },
        {
          "indexed": true,
          "internalType": "address",
          "name": "sender",
          "type": "address"
        }
      ],
      "name": "RoleRevoked",
      "type": "event"
    },
    {
      "anonymous": false,
      "inputs": [
        {
          "indexed": true,
          "internalType": "address",
          "name": "caller",
          "type": "address"
        },
        {
          "indexed": true,
          "internalType": "address",
          "name": "token",
          "type": "address"
        },
        {
          "indexed": false,
          "internalType": "uint256",
          "name": "amount",
          "type": "uint256"
        },
        {
          "indexed": false,
          "internalType": "uint256",
          "name": "timestamp",
          "type": "uint256"
        },
        {
          "indexed": false,
          "internalType": "uint256",
          "name": "order",
          "type": "uint256"
        }
      ],
      "name": "WithdrawReward",
      "type": "event"
    },
    {
      "inputs": [],
      "name": "DEFAULT_ADMIN_ROLE",
      "outputs": [
        {
          "internalType": "bytes32",
          "name": "",
          "type": "bytes32"
        }
      ],
      "stateMutability": "view",
      "type": "function"
    },
    {
      "inputs": [],
      "name": "DOMAIN_SEPARATOR",
      "outputs": [
        {
          "internalType": "bytes32",
          "name": "",
          "type": "bytes32"
        }
      ],
      "stateMutability": "view",
      "type": "function"
    },
    {
      "inputs": [],
      "name": "MANAGE_ROLE",
      "outputs": [
        {
          "internalType": "bytes32",
          "name": "",
          "type": "bytes32"
        }
      ],
      "stateMutability": "view",
      "type": "function"
    },
    {
      "inputs": [
        {
          "internalType": "address",
          "name": "token",
          "type": "address"
        }
      ],
      "name": "balance",
      "outputs": [
        {
          "internalType": "uint256",
          "name": "",
          "type": "uint256"
        }
      ],
      "stateMutability": "view",
      "type": "function"
    },
    {
      "inputs": [
        {
          "internalType": "bytes32",
          "name": "role",
          "type": "bytes32"
        }
      ],
      "name": "getRoleAdmin",
      "outputs": [
        {
          "internalType": "bytes32",
          "name": "",
          "type": "bytes32"
        }
      ],
      "stateMutability": "view",
      "type": "function"
    },
    {
      "inputs": [
        {
          "internalType": "bytes32",
          "name": "role",
          "type": "bytes32"
        },
        {
          "internalType": "address",
          "name": "account",
          "type": "address"
        }
      ],
      "name": "grantRole",
      "outputs": [],
      "stateMutability": "nonpayable",
      "type": "function"
    },
    {
      "inputs": [
        {
          "internalType": "bytes32",
          "name": "role",
          "type": "bytes32"
        },
        {
          "internalType": "address",
          "name": "account",
          "type": "address"
        }
      ],
      "name": "hasRole",
      "outputs": [
        {
          "internalType": "bool",
          "name": "",
          "type": "bool"
        }
      ],
      "stateMutability": "view",
      "type": "function"
    },
    {
      "inputs": [
        {
          "internalType": "address",
          "name": "",
          "type": "address"
        }
      ],
      "name": "nonces",
      "outputs": [
        {
          "internalType": "uint256",
          "name": "",
          "type": "uint256"
        }
      ],
      "stateMutability": "view",
      "type": "function"
    },
    {
      "inputs": [
        {
          "internalType": "bytes32",
          "name": "role",
          "type": "bytes32"
        },
        {
          "internalType": "address",
          "name": "account",
          "type": "address"
        }
      ],
      "name": "renounceRole",
      "outputs": [],
      "stateMutability": "nonpayable",
      "type": "function"
    },
    {
      "inputs": [
        {
          "internalType": "bytes32",
          "name": "role",
          "type": "bytes32"
        },
        {
          "internalType": "address",
          "name": "account",
          "type": "address"
        }
      ],
      "name": "revokeRole",
      "outputs": [],
      "stateMutability": "nonpayable",
      "type": "function"
    },
    {
      "inputs": [],
      "name": "signer",
      "outputs": [
        {
          "internalType": "address",
          "name": "",
          "type": "address"
        }
      ],
      "stateMutability": "view",
      "type": "function"
    },
    {
      "inputs": [
        {
          "internalType": "bytes4",
          "name": "interfaceId",
          "type": "bytes4"
        }
      ],
      "name": "supportsInterface",
      "outputs": [
        {
          "internalType": "bool",
          "name": "",
          "type": "bool"
        }
      ],
      "stateMutability": "view",
      "type": "function"
    },
    {
      "inputs": [
        {
          "internalType": "address",
          "name": "token",
          "type": "address"
        },
        {
          "internalType": "uint256",
          "name": "amount",
          "type": "uint256"
        }
      ],
      "name": "withdrawErc20",
      "outputs": [],
      "stateMutability": "nonpayable",
      "type": "function"
    },
    {
      "inputs": [
        {
          "internalType": "bytes",
          "name": "data",
          "type": "bytes"
        }
      ],
      "name": "withdrawReward",
      "outputs": [],
      "stateMutability": "nonpayable",
      "type": "function"
    }
  ],
  "bytecode": "0x608060405234801561001057600080fd5b5060405161135238038061135283398101604081905261002f91610212565b600280546001600160a01b0319166001600160a01b038316179055604080518082018252601481527f496e7669746174696f6e446973747269627574650000000000000000000000006020918201528151808301835260018152603160f81b9082015281517f8b73c3c69bb8fe3d512ecc4cf759cc79239f7b179b0ffacaa9a75d522b39400f918101919091527f7810597939fac7cb19a9f0f34c4980c378b1e49c11d902117144465a68345395918101919091527fc89efdaa54c0f20c7adf612882df0950f5a951637e0307cdcb4c672f298b8bc6606082015246608082018190523060a08301529060c00160408051601f198184030181529190528051602090910120600155610142600033610173565b61016c7fa076a07f65bcd51bcb15a0f01a65bc18f2d922acb81bcfd8af4caf5adb55709133610173565b5050610242565b6000828152602081815260408083206001600160a01b038516845290915290205460ff1661020e576000828152602081815260408083206001600160a01b03851684529091529020805460ff191660011790556101cd3390565b6001600160a01b0316816001600160a01b0316837f2f8788117e7eff1d82e926ec794901d17c78024a50270940304540a733656f0d60405160405180910390a45b5050565b60006020828403121561022457600080fd5b81516001600160a01b038116811461023b57600080fd5b9392505050565b611101806102516000396000f3fe608060405234801561001057600080fd5b50600436106100ea5760003560e01c80636763ccbd1161008c578063a217fddf11610066578063a217fddf14610211578063bd1f4b5214610219578063d547741f1461022c578063e3d670d71461023f57600080fd5b80636763ccbd146101cb5780637ecebe00146101de57806391d14854146101fe57600080fd5b80632f2ff15d116100c85780632f2ff15d146101735780633644e5151461018857806336568abe1461019157806360a4b76a146101a457600080fd5b806301ffc9a7146100ef578063238ac93314610117578063248a9ca314610142575b600080fd5b6101026100fd366004610cb6565b610252565b60405190151581526020015b60405180910390f35b60025461012a906001600160a01b031681565b6040516001600160a01b03909116815260200161010e565b610165610150366004610ce0565b60009081526020819052604090206001015490565b60405190815260200161010e565b610186610181366004610d0e565b610289565b005b61016560015481565b61018661019f366004610d0e565b6102b3565b6101657fa076a07f65bcd51bcb15a0f01a65bc18f2d922acb81bcfd8af4caf5adb55709181565b6101866101d9366004610dad565b610336565b6101656101ec366004610e2d565b60036020526000908152604090205481565b61010261020c366004610d0e565b610733565b610165600081565b610186610227366004610e4a565b61075c565b61018661023a366004610d0e565b6108b0565b61016561024d366004610e2d565b6108d5565b60006001600160e01b03198216637965db0b60e01b148061028357506301ffc9a760e01b6001600160e01b03198316145b92915050565b6000828152602081905260409020600101546102a481610940565b6102ae838361094d565b505050565b6001600160a01b03811633146103285760405162461bcd60e51b815260206004820152602f60248201527f416363657373436f6e74726f6c3a2063616e206f6e6c792072656e6f756e636560448201526e103937b632b9903337b91039b2b63360891b60648201526084015b60405180910390fd5b61033282826109d1565b5050565b6000806000806000806000878060200190518101906103559190610e9a565b9650965096509650965096509650336001600160a01b0316876001600160a01b0316146103b95760405162461bcd60e51b815260206004820152601260248201527122a92927a91d24a72b20a624a22faaa9a2a960711b604482015260640161031f565b33600090815260036020526040902054831461040d5760405162461bcd60e51b81526020600482015260136024820152724552524f523a494e56414c49445f4e4f4e434560681b604482015260640161031f565b600080600061041b84610a36565b60015460405193965091945092506000916104a8906020017f5065726d6974286164647265737320757365722c6164647265737320746f6b6581527f6e2c75696e74323536206f726465722c75696e7432353620616d6f756e742c7560208201527f696e74323536206e6f6e63652c75696e7432353620646561646c696e652900006040820152605e0190565b60408051808303601f190181528282528051602091820120818401526001600160a01b038f8116848401528e166060840152608083018d905260a083018c905260c083018b905260e08084018b9052825180850390910181526101008401909252815191012061190160f01b6101208301526101228201929092526101428101919091526101620160408051601f1981840301815282825280516020918201206000845290830180835281905260ff8716918301919091526060820185905260808201849052915060019060a0016020604051602081039080840390855afa158015610598573d6000803e3d6000fd5b5050604051601f1901516002546001600160a01b0390811691161490506105f95760405162461bcd60e51b815260206004820152601560248201527411549493d48e9253959053125117d49154555154d5605a1b604482015260640161031f565b33600090815260036020526040812080549161061483610f78565b9190505550876106238b6108d5565b10156106665760405162461bcd60e51b815260206004820152601260248201527111549493d48e925394d551919250d251539560721b604482015260640161031f565b60405163a9059cbb60e01b8152336004820152602481018990526001600160a01b038b169063a9059cbb906044016020604051808303816000875af11580156106b3573d6000803e3d6000fd5b505050506040513d601f19601f820116820180604052508101906106d79190610f91565b50604080518981524260208201529081018a90526001600160a01b038b169033907fbb873e1f721a078dc6666b560c8f8a58540d7f2482138c9ecb84a8f7fa7cf73b9060600160405180910390a3505050505050505050505050565b6000918252602082815260408084206001600160a01b0393909316845291905290205460ff1690565b7fa076a07f65bcd51bcb15a0f01a65bc18f2d922acb81bcfd8af4caf5adb55709161078681610940565b6040516370a0823160e01b81523060048201526000906001600160a01b038516906370a0823190602401602060405180830381865afa1580156107cd573d6000803e3d6000fd5b505050506040513d601f19601f820116820180604052508101906107f19190610fb3565b9050828110156108385760405162461bcd60e51b815260206004820152601260248201527111549493d48e925394d551919250d251539560721b604482015260640161031f565b60405163a9059cbb60e01b8152336004820152602481018490526001600160a01b0385169063a9059cbb906044016020604051808303816000875af1158015610885573d6000803e3d6000fd5b505050506040513d601f19601f820116820180604052508101906108a99190610f91565b5050505050565b6000828152602081905260409020600101546108cb81610940565b6102ae83836109d1565b6040516370a0823160e01b81523060048201526000906001600160a01b038316906370a0823190602401602060405180830381865afa15801561091c573d6000803e3d6000fd5b505050506040513d601f19601f820116820180604052508101906102839190610fb3565b61094a8133610aa8565b50565b6109578282610733565b610332576000828152602081815260408083206001600160a01b03851684529091529020805460ff1916600117905561098d3390565b6001600160a01b0316816001600160a01b0316837f2f8788117e7eff1d82e926ec794901d17c78024a50270940304540a733656f0d60405160405180910390a45050565b6109db8282610733565b15610332576000828152602081815260408083206001600160a01b0385168085529252808320805460ff1916905551339285917ff6391f5c32d9c69d2a47ea670b442974b53935d1edc7fd64eb21e047a839171b9190a45050565b60008060008351604114610a8c5760405162461bcd60e51b815260206004820152601a60248201527f4e6f7420496e76616c6964205369676e61747572652044617461000000000000604482015260640161031f565b5050506020810151604082015160609092015160001a92909190565b610ab28282610733565b61033257610abf81610b01565b610aca836020610b13565b604051602001610adb929190610fcc565b60408051601f198184030181529082905262461bcd60e51b825261031f91600401611041565b60606102836001600160a01b03831660145b60606000610b22836002611074565b610b2d90600261108b565b67ffffffffffffffff811115610b4557610b45610d3e565b6040519080825280601f01601f191660200182016040528015610b6f576020820181803683370190505b509050600360fc1b81600081518110610b8a57610b8a61109e565b60200101906001600160f81b031916908160001a905350600f60fb1b81600181518110610bb957610bb961109e565b60200101906001600160f81b031916908160001a9053506000610bdd846002611074565b610be890600161108b565b90505b6001811115610c60576f181899199a1a9b1b9c1cb0b131b232b360811b85600f1660108110610c1c57610c1c61109e565b1a60f81b828281518110610c3257610c3261109e565b60200101906001600160f81b031916908160001a90535060049490941c93610c59816110b4565b9050610beb565b508315610caf5760405162461bcd60e51b815260206004820181905260248201527f537472696e67733a20686578206c656e67746820696e73756666696369656e74604482015260640161031f565b9392505050565b600060208284031215610cc857600080fd5b81356001600160e01b031981168114610caf57600080fd5b600060208284031215610cf257600080fd5b5035919050565b6001600160a01b038116811461094a57600080fd5b60008060408385031215610d2157600080fd5b823591506020830135610d3381610cf9565b809150509250929050565b634e487b7160e01b600052604160045260246000fd5b604051601f8201601f1916810167ffffffffffffffff81118282101715610d7d57610d7d610d3e565b604052919050565b600067ffffffffffffffff821115610d9f57610d9f610d3e565b50601f01601f191660200190565b600060208284031215610dbf57600080fd5b813567ffffffffffffffff811115610dd657600080fd5b8201601f81018413610de757600080fd5b8035610dfa610df582610d85565b610d54565b818152856020838501011115610e0f57600080fd5b81602084016020830137600091810160200191909152949350505050565b600060208284031215610e3f57600080fd5b8135610caf81610cf9565b60008060408385031215610e5d57600080fd5b8235610e6881610cf9565b946020939093013593505050565b60005b83811015610e91578181015183820152602001610e79565b50506000910152565b600080600080600080600060e0888a031215610eb557600080fd5b8751610ec081610cf9565b6020890151909750610ed181610cf9565b8096505060408801519450606088015193506080880151925060a0880151915060c088015167ffffffffffffffff811115610f0b57600080fd5b8801601f81018a13610f1c57600080fd5b8051610f2a610df582610d85565b8181528b6020838501011115610f3f57600080fd5b610f50826020830160208601610e76565b80935050505092959891949750929550565b634e487b7160e01b600052601160045260246000fd5b600060018201610f8a57610f8a610f62565b5060010190565b600060208284031215610fa357600080fd5b81518015158114610caf57600080fd5b600060208284031215610fc557600080fd5b5051919050565b7f416363657373436f6e74726f6c3a206163636f756e7420000000000000000000815260008351611004816017850160208801610e76565b7001034b99036b4b9b9b4b733903937b6329607d1b6017918401918201528351611035816028840160208801610e76565b01602801949350505050565b6020815260008251806020840152611060816040850160208701610e76565b601f01601f19169190910160400192915050565b808202811582820484141761028357610283610f62565b8082018082111561028357610283610f62565b634e487b7160e01b600052603260045260246000fd5b6000816110c3576110c3610f62565b50600019019056fea2646970667358221220d11164897f1e995bfc0272c4ca489cf7195e09508a72254767a419145d3bff8e64736f6c63430008110033",
  "linkReferences": {},
  "deployedLinkReferences": {}
}