{
  "_format": "hh-sol-artifact-1",
  "contractName": "SBL",
  "sourceName": "contracts/SBL.sol",
  "abi": [
    {
      "inputs": [
        {
          "internalType": "uint256",
          "name": "_maxSupply",
          "type": "uint256"
        },
        {
          "internalType": "address",
          "name": "_lpAddress",
          "type": "address"
        },
        {
          "internalType": "address",
          "name": "_burnFundAdd",
          "type": "address"
        },
        {
          "internalType": "address",
          "name": "_usdtAddress",
          "type": "address"
        },
        {
          "internalType": "address",
          "name": "_iUniswapV2Router02Add",
          "type": "address"
        }
      ],
      "stateMutability": "nonpayable",
      "type": "constructor"
    },
    {
      "anonymous": false,
      "inputs": [
        {
          "indexed": true,
          "internalType": "address",
          "name": "owner",
          "type": "address"
        },
        {
          "indexed": true,
          "internalType": "address",
          "name": "spender",
          "type": "address"
        },
        {
          "indexed": false,
          "internalType": "uint256",
          "name": "value",
          "type": "uint256"
        }
      ],
      "name": "Approval",
      "type": "event"
    },
    {
      "anonymous": false,
      "inputs": [
        {
          "indexed": true,
          "internalType": "bytes32",
          "name": "role",
          "type": "bytes32"
        },
        {
          "indexed": true,
          "internalType": "bytes32",
          "name": "previousAdminRole",
          "type": "bytes32"
        },
        {
          "indexed": true,
          "internalType": "bytes32",
          "name": "newAdminRole",
          "type": "bytes32"
        }
      ],
      "name": "RoleAdminChanged",
      "type": "event"
    },
    {
      "anonymous": false,
      "inputs": [
        {
          "indexed": true,
          "internalType": "bytes32",
          "name": "role",
          "type": "bytes32"
        },
        {
          "indexed": true,
          "internalType": "address",
          "name": "account",
          "type": "address"
        },
        {
          "indexed": true,
          "internalType": "address",
          "name": "sender",
          "type": "address"
        }
      ],
      "name": "RoleGranted",
      "type": "event"
    },
    {
      "anonymous": false,
      "inputs": [
        {
          "indexed": true,
          "internalType": "bytes32",
          "name": "role",
          "type": "bytes32"
        },
        {
          "indexed": true,
          "internalType": "address",
          "name": "account",
          "type": "address"
        },
        {
          "indexed": true,
          "internalType": "address",
          "name": "sender",
          "type": "address"
        }
      ],
      "name": "RoleRevoked",
      "type": "event"
    },
    {
      "anonymous": false,
      "inputs": [
        {
          "indexed": true,
          "internalType": "address",
          "name": "from",
          "type": "address"
        },
        {
          "indexed": true,
          "internalType": "address",
          "name": "to",
          "type": "address"
        },
        {
          "indexed": false,
          "internalType": "uint256",
          "name": "value",
          "type": "uint256"
        }
      ],
      "name": "Transfer",
      "type": "event"
    },
    {
      "inputs": [],
      "name": "DEFAULT_ADMIN_ROLE",
      "outputs": [
        {
          "internalType": "bytes32",
          "name": "",
          "type": "bytes32"
        }
      ],
      "stateMutability": "view",
      "type": "function"
    },
    {
      "inputs": [],
      "name": "MANAGE_ROLE",
      "outputs": [
        {
          "internalType": "bytes32",
          "name": "",
          "type": "bytes32"
        }
      ],
      "stateMutability": "view",
      "type": "function"
    },
    {
      "inputs": [
        {
          "internalType": "address",
          "name": "owner",
          "type": "address"
        },
        {
          "internalType": "address",
          "name": "spender",
          "type": "address"
        }
      ],
      "name": "allowance",
      "outputs": [
        {
          "internalType": "uint256",
          "name": "",
          "type": "uint256"
        }
      ],
      "stateMutability": "view",
      "type": "function"
    },
    {
      "inputs": [
        {
          "internalType": "address",
          "name": "spender",
          "type": "address"
        },
        {
          "internalType": "uint256",
          "name": "amount",
          "type": "uint256"
        }
      ],
      "name": "approve",
      "outputs": [
        {
          "internalType": "bool",
          "name": "",
          "type": "bool"
        }
      ],
      "stateMutability": "nonpayable",
      "type": "function"
    },
    {
      "inputs": [
        {
          "internalType": "address",
          "name": "account",
          "type": "address"
        }
      ],
      "name": "balanceOf",
      "outputs": [
        {
          "internalType": "uint256",
          "name": "",
          "type": "uint256"
        }
      ],
      "stateMutability": "view",
      "type": "function"
    },
    {
      "inputs": [],
      "name": "brunFundFee",
      "outputs": [
        {
          "internalType": "uint256",
          "name": "",
          "type": "uint256"
        }
      ],
      "stateMutability": "view",
      "type": "function"
    },
    {
      "inputs": [
        {
          "internalType": "uint256",
          "name": "amount",
          "type": "uint256"
        }
      ],
      "name": "burn",
      "outputs": [],
      "stateMutability": "nonpayable",
      "type": "function"
    },
    {
      "inputs": [
        {
          "internalType": "address",
          "name": "account",
          "type": "address"
        },
        {
          "internalType": "uint256",
          "name": "amount",
          "type": "uint256"
        }
      ],
      "name": "burnFrom",
      "outputs": [],
      "stateMutability": "nonpayable",
      "type": "function"
    },
    {
      "inputs": [],
      "name": "burnFundAdd",
      "outputs": [
        {
          "internalType": "address",
          "name": "",
          "type": "address"
        }
      ],
      "stateMutability": "view",
      "type": "function"
    },
    {
      "inputs": [],
      "name": "decimals",
      "outputs": [
        {
          "internalType": "uint8",
          "name": "",
          "type": "uint8"
        }
      ],
      "stateMutability": "view",
      "type": "function"
    },
    {
      "inputs": [
        {
          "internalType": "address",
          "name": "spender",
          "type": "address"
        },
        {
          "internalType": "uint256",
          "name": "subtractedValue",
          "type": "uint256"
        }
      ],
      "name": "decreaseAllowance",
      "outputs": [
        {
          "internalType": "bool",
          "name": "",
          "type": "bool"
        }
      ],
      "stateMutability": "nonpayable",
      "type": "function"
    },
    {
      "inputs": [
        {
          "internalType": "address",
          "name": "",
          "type": "address"
        }
      ],
      "name": "excludeFee",
      "outputs": [
        {
          "internalType": "bool",
          "name": "",
          "type": "bool"
        }
      ],
      "stateMutability": "view",
      "type": "function"
    },
    {
      "inputs": [
        {
          "internalType": "bytes32",
          "name": "role",
          "type": "bytes32"
        }
      ],
      "name": "getRoleAdmin",
      "outputs": [
        {
          "internalType": "bytes32",
          "name": "",
          "type": "bytes32"
        }
      ],
      "stateMutability": "view",
      "type": "function"
    },
    {
      "inputs": [
        {
          "internalType": "bytes32",
          "name": "role",
          "type": "bytes32"
        },
        {
          "internalType": "address",
          "name": "account",
          "type": "address"
        }
      ],
      "name": "grantRole",
      "outputs": [],
      "stateMutability": "nonpayable",
      "type": "function"
    },
    {
      "inputs": [
        {
          "internalType": "bytes32",
          "name": "role",
          "type": "bytes32"
        },
        {
          "internalType": "address",
          "name": "account",
          "type": "address"
        }
      ],
      "name": "hasRole",
      "outputs": [
        {
          "internalType": "bool",
          "name": "",
          "type": "bool"
        }
      ],
      "stateMutability": "view",
      "type": "function"
    },
    {
      "inputs": [
        {
          "internalType": "address",
          "name": "spender",
          "type": "address"
        },
        {
          "internalType": "uint256",
          "name": "addedValue",
          "type": "uint256"
        }
      ],
      "name": "increaseAllowance",
      "outputs": [
        {
          "internalType": "bool",
          "name": "",
          "type": "bool"
        }
      ],
      "stateMutability": "nonpayable",
      "type": "function"
    },
    {
      "inputs": [],
      "name": "lpAddress",
      "outputs": [
        {
          "internalType": "address",
          "name": "",
          "type": "address"
        }
      ],
      "stateMutability": "view",
      "type": "function"
    },
    {
      "inputs": [],
      "name": "lpFee",
      "outputs": [
        {
          "internalType": "uint256",
          "name": "",
          "type": "uint256"
        }
      ],
      "stateMutability": "view",
      "type": "function"
    },
    {
      "inputs": [],
      "name": "name",
      "outputs": [
        {
          "internalType": "string",
          "name": "",
          "type": "string"
        }
      ],
      "stateMutability": "view",
      "type": "function"
    },
    {
      "inputs": [
        {
          "internalType": "address",
          "name": "",
          "type": "address"
        }
      ],
      "name": "pairs",
      "outputs": [
        {
          "internalType": "bool",
          "name": "",
          "type": "bool"
        }
      ],
      "stateMutability": "view",
      "type": "function"
    },
    {
      "inputs": [
        {
          "internalType": "bytes32",
          "name": "role",
          "type": "bytes32"
        },
        {
          "internalType": "address",
          "name": "account",
          "type": "address"
        }
      ],
      "name": "renounceRole",
      "outputs": [],
      "stateMutability": "nonpayable",
      "type": "function"
    },
    {
      "inputs": [
        {
          "internalType": "bytes32",
          "name": "role",
          "type": "bytes32"
        },
        {
          "internalType": "address",
          "name": "account",
          "type": "address"
        }
      ],
      "name": "revokeRole",
      "outputs": [],
      "stateMutability": "nonpayable",
      "type": "function"
    },
    {
      "inputs": [
        {
          "internalType": "address",
          "name": "_burnFundAdd",
          "type": "address"
        }
      ],
      "name": "setBurnFundAdd",
      "outputs": [],
      "stateMutability": "nonpayable",
      "type": "function"
    },
    {
      "inputs": [
        {
          "internalType": "address",
          "name": "_address",
          "type": "address"
        },
        {
          "internalType": "bool",
          "name": "_state",
          "type": "bool"
        }
      ],
      "name": "setExcludeFee",
      "outputs": [],
      "stateMutability": "nonpayable",
      "type": "function"
    },
    {
      "inputs": [
        {
          "internalType": "address",
          "name": "_address",
          "type": "address"
        }
      ],
      "name": "setLpAddress",
      "outputs": [],
      "stateMutability": "nonpayable",
      "type": "function"
    },
    {
      "inputs": [
        {
          "internalType": "address",
          "name": "_pair",
          "type": "address"
        },
        {
          "internalType": "bool",
          "name": "_state",
          "type": "bool"
        }
      ],
      "name": "setPair",
      "outputs": [],
      "stateMutability": "nonpayable",
      "type": "function"
    },
    {
      "inputs": [
        {
          "internalType": "bytes4",
          "name": "interfaceId",
          "type": "bytes4"
        }
      ],
      "name": "supportsInterface",
      "outputs": [
        {
          "internalType": "bool",
          "name": "",
          "type": "bool"
        }
      ],
      "stateMutability": "view",
      "type": "function"
    },
    {
      "inputs": [],
      "name": "symbol",
      "outputs": [
        {
          "internalType": "string",
          "name": "",
          "type": "string"
        }
      ],
      "stateMutability": "view",
      "type": "function"
    },
    {
      "inputs": [],
      "name": "totalFee",
      "outputs": [
        {
          "internalType": "uint256",
          "name": "",
          "type": "uint256"
        }
      ],
      "stateMutability": "view",
      "type": "function"
    },
    {
      "inputs": [],
      "name": "totalSupply",
      "outputs": [
        {
          "internalType": "uint256",
          "name": "",
          "type": "uint256"
        }
      ],
      "stateMutability": "view",
      "type": "function"
    },
    {
      "inputs": [
        {
          "internalType": "address",
          "name": "to",
          "type": "address"
        },
        {
          "internalType": "uint256",
          "name": "amount",
          "type": "uint256"
        }
      ],
      "name": "transfer",
      "outputs": [
        {
          "internalType": "bool",
          "name": "",
          "type": "bool"
        }
      ],
      "stateMutability": "nonpayable",
      "type": "function"
    },
    {
      "inputs": [
        {
          "internalType": "address",
          "name": "from",
          "type": "address"
        },
        {
          "internalType": "address",
          "name": "to",
          "type": "address"
        },
        {
          "internalType": "uint256",
          "name": "amount",
          "type": "uint256"
        }
      ],
      "name": "transferFrom",
      "outputs": [
        {
          "internalType": "bool",
          "name": "",
          "type": "bool"
        }
      ],
      "stateMutability": "nonpayable",
      "type": "function"
    }
  ],
  "bytecode": "0x60c0604052600a60809081526914dc1858d94810985b1b60b21b60a0526004906200002b9082620005d0565b5060408051808201909152600381526214d09360ea1b6020820152600590620000559082620005d0565b506001600a556005600b553480156200006d57600080fd5b50604051620020c4380380620020c48339810160408190526200009091620006b9565b600880546001600160a01b038087166001600160a01b0319928316179092556009805486841692169190911790556040805163c45a015560e01b8152905183926000929084169163c45a0155916004808201926020929091908290030181865afa15801562000103573d6000803e3d6000fd5b505050506040513d601f19601f8201168201806040525081019062000129919062000720565b90506000816001600160a01b031663c9c6539630856001600160a01b031663ad5c46486040518163ffffffff1660e01b8152600401602060405180830381865afa1580156200017c573d6000803e3d6000fd5b505050506040513d601f19601f82011682018060405250810190620001a2919062000720565b6040516001600160e01b031960e085901b1681526001600160a01b039283166004820152911660248201526044016020604051808303816000875af1158015620001f0573d6000803e3d6000fd5b505050506040513d601f19601f8201168201806040525081019062000216919062000720565b6040516364e329cb60e11b81523060048201526001600160a01b03878116602483015291925060009184169063c9c65396906044016020604051808303816000875af11580156200026b573d6000803e3d6000fd5b505050506040513d601f19601f8201168201806040525081019062000291919062000720565b6001600160a01b038381166000908152600660205260408082208054600160ff19918216811790925593851683529082208054909316811790925591925090600790620002db3390565b6001600160a01b03908116825260208083019390935260409182016000908120805495151560ff1996871617905560085482168152600790935281832080548516600190811790915560095490911683529082208054909316179091556200034b90620003453390565b620003ab565b620003777fa076a07f65bcd51bcb15a0f01a65bc18f2d922acb81bcfd8af4caf5adb55709133620003ab565b6200039c336200038a6012600a62000858565b62000396908c62000869565b62000434565b50505050505050505062000899565b620003b78282620004fc565b62000430576000828152602081815260408083206001600160a01b03851684529091529020805460ff19166001179055620003ef3390565b6001600160a01b0316816001600160a01b0316837f2f8788117e7eff1d82e926ec794901d17c78024a50270940304540a733656f0d60405160405180910390a45b5050565b6001600160a01b0382166200048f5760405162461bcd60e51b815260206004820152601f60248201527f45524332303a206d696e7420746f20746865207a65726f206164647265737300604482015260640160405180910390fd5b8060036000828254620004a3919062000883565b90915550506001600160a01b0382166000818152600160209081526040808320805486019055518481527fddf252ad1be2c89b69c2b068fc378daa952ba7f163c4a11628f55a4df523b3ef910160405180910390a35050565b6000828152602081815260408083206001600160a01b038516845290915290205460ff165b92915050565b505050565b634e487b7160e01b600052604160045260246000fd5b600181811c908216806200055757607f821691505b6020821081036200057857634e487b7160e01b600052602260045260246000fd5b50919050565b601f8211156200052757600081815260208120601f850160051c81016020861015620005a75750805b601f850160051c820191505b81811015620005c857828155600101620005b3565b505050505050565b81516001600160401b03811115620005ec57620005ec6200052c565b6200060481620005fd845462000542565b846200057e565b602080601f8311600181146200063c5760008415620006235750858301515b600019600386901b1c1916600185901b178555620005c8565b600085815260208120601f198616915b828110156200066d578886015182559484019460019091019084016200064c565b50858210156200068c5787850151600019600388901b60f8161c191681555b5050505050600190811b01905550565b80516001600160a01b0381168114620006b457600080fd5b919050565b600080600080600060a08688031215620006d257600080fd5b85519450620006e4602087016200069c565b9350620006f4604087016200069c565b925062000704606087016200069c565b915062000714608087016200069c565b90509295509295909350565b6000602082840312156200073357600080fd5b6200073e826200069c565b9392505050565b634e487b7160e01b600052601160045260246000fd5b600181815b808511156200079c57816000190482111562000780576200078062000745565b808516156200078e57918102915b93841c939080029062000760565b509250929050565b600082620007b55750600162000521565b81620007c45750600062000521565b8160018114620007dd5760028114620007e85762000808565b600191505062000521565b60ff841115620007fc57620007fc62000745565b50506001821b62000521565b5060208310610133831016604e8410600b84101617156200082d575081810a62000521565b6200083983836200075b565b806000190482111562000850576200085062000745565b029392505050565b60006200073e60ff841683620007a4565b808202811582820484141762000521576200052162000745565b8082018082111562000521576200052162000745565b61181b80620008a96000396000f3fe608060405234801561001057600080fd5b50600436106101f05760003560e01c806370a082311161010f5780639b4dc8cc116100a2578063b1c947f311610071578063b1c947f314610439578063d547741f1461044c578063dd62ed3e1461045f578063fe33b3021461047257600080fd5b80639b4dc8cc146103f8578063a217fddf1461040b578063a457c2d714610413578063a9059cbb1461042657600080fd5b80638aeb4477116100de5780638aeb4477146103c157806391d14854146103d457806395d89b41146103e757806397115326146103ef57600080fd5b806370a082311461034f5780637967d26d1461037857806379cc67901461039b57806386a22eff146103ae57600080fd5b80632f2ff15d1161018757806342966c681161015657806342966c681461030b57806360a4b76a1461031e5780636f5e021214610333578063704ce43e1461034657600080fd5b80632f2ff15d146102c1578063313ce567146102d657806336568abe146102e557806339509351146102f857600080fd5b806318160ddd116101c357806318160ddd146102705780631df4ccfc1461028257806323b872dd1461028b578063248a9ca31461029e57600080fd5b806301ffc9a7146101f557806306fdde031461021d578063095ea7b3146102325780630ea4b28f14610245575b600080fd5b610208610203366004611449565b610495565b60405190151581526020015b60405180910390f35b6102256104cc565b6040516102149190611497565b6102086102403660046114e6565b61055e565b600954610258906001600160a01b031681565b6040516001600160a01b039091168152602001610214565b6003545b604051908152602001610214565b610274600c5481565b610208610299366004611510565b610576565b6102746102ac36600461154c565b60009081526020819052604090206001015490565b6102d46102cf366004611565565b61059a565b005b60405160128152602001610214565b6102d46102f3366004611565565b6105c4565b6102086103063660046114e6565b610647565b6102d461031936600461154c565b610669565b6102746000805160206117c683398151915281565b6102d4610341366004611591565b610676565b610274600a5481565b61027461035d366004611591565b6001600160a01b031660009081526001602052604090205490565b610208610386366004611591565b60076020526000908152604090205460ff1681565b6102d46103a93660046114e6565b6106d7565b6102d46103bc3660046115ac565b6106ec565b6102d46103cf366004611591565b610756565b6102086103e2366004611565565b6107b7565b6102256107e0565b610274600b5481565b600854610258906001600160a01b031681565b610274600081565b6102086104213660046114e6565b6107ef565b6102086104343660046114e6565b61086a565b6102d46104473660046115ac565b610878565b6102d461045a366004611565565b6108e2565b61027461046d3660046115e8565b610907565b610208610480366004611591565b60066020526000908152604090205460ff1681565b60006001600160e01b03198216637965db0b60e01b14806104c657506301ffc9a760e01b6001600160e01b03198316145b92915050565b6060600480546104db90611612565b80601f016020809104026020016040519081016040528092919081815260200182805461050790611612565b80156105545780601f1061052957610100808354040283529160200191610554565b820191906000526020600020905b81548152906001019060200180831161053757829003601f168201915b5050505050905090565b60003361056c818585610932565b5060019392505050565b600033610584858285610a57565b61058f858585610ad1565b506001949350505050565b6000828152602081905260409020600101546105b581610cc7565b6105bf8383610cd1565b505050565b6001600160a01b03811633146106395760405162461bcd60e51b815260206004820152602f60248201527f416363657373436f6e74726f6c3a2063616e206f6e6c792072656e6f756e636560448201526e103937b632b9903337b91039b2b63360891b60648201526084015b60405180910390fd5b6106438282610d55565b5050565b60003361056c81858561065a8383610907565b6106649190611662565b610932565b6106733382610dba565b50565b6000805160206117c683398151915261068e81610cc7565b6001600160a01b0382166106b45760405162461bcd60e51b815260040161063090611675565b50600880546001600160a01b0319166001600160a01b0392909216919091179055565b6106e2823383610a57565b6106438282610dba565b6000805160206117c683398151915261070481610cc7565b6001600160a01b03831661072a5760405162461bcd60e51b815260040161063090611675565b506001600160a01b03919091166000908152600660205260409020805460ff1916911515919091179055565b6000805160206117c683398151915261076e81610cc7565b6001600160a01b0382166107945760405162461bcd60e51b815260040161063090611675565b50600980546001600160a01b0319166001600160a01b0392909216919091179055565b6000918252602082815260408084206001600160a01b0393909316845291905290205460ff1690565b6060600580546104db90611612565b600033816107fd8286610907565b90508381101561085d5760405162461bcd60e51b815260206004820152602560248201527f45524332303a2064656372656173656420616c6c6f77616e63652062656c6f77604482015264207a65726f60d81b6064820152608401610630565b61058f8286868403610932565b60003361056c818585610ad1565b6000805160206117c683398151915261089081610cc7565b6001600160a01b0383166108b65760405162461bcd60e51b815260040161063090611675565b506001600160a01b03919091166000908152600760205260409020805460ff1916911515919091179055565b6000828152602081905260409020600101546108fd81610cc7565b6105bf8383610d55565b6001600160a01b03918216600090815260026020908152604080832093909416825291909152205490565b6001600160a01b0383166109945760405162461bcd60e51b8152602060048201526024808201527f45524332303a20617070726f76652066726f6d20746865207a65726f206164646044820152637265737360e01b6064820152608401610630565b6001600160a01b0382166109f55760405162461bcd60e51b815260206004820152602260248201527f45524332303a20617070726f766520746f20746865207a65726f206164647265604482015261737360f01b6064820152608401610630565b6001600160a01b0383811660008181526002602090815260408083209487168084529482529182902085905590518481527f8c5be1e5ebec7d5bd14f71427d1e84f3dd0314c0f7b2291e5b200ac8c7c3b92591015b60405180910390a3505050565b6000610a638484610907565b90506000198114610acb5781811015610abe5760405162461bcd60e51b815260206004820152601d60248201527f45524332303a20696e73756666696369656e7420616c6c6f77616e63650000006044820152606401610630565b610acb8484848403610932565b50505050565b6001600160a01b038316610b355760405162461bcd60e51b815260206004820152602560248201527f45524332303a207472616e736665722066726f6d20746865207a65726f206164604482015264647265737360d81b6064820152608401610630565b6001600160a01b038216610b975760405162461bcd60e51b815260206004820152602360248201527f45524332303a207472616e7366657220746f20746865207a65726f206164647260448201526265737360e81b6064820152608401610630565b6001600160a01b03831660009081526001602052604090205481811015610c0f5760405162461bcd60e51b815260206004820152602660248201527f45524332303a207472616e7366657220616d6f756e7420657863656564732062604482015265616c616e636560d01b6064820152608401610630565b6001600160a01b03841660009081526006602052604081205460ff1680610c4e57506001600160a01b03841660009081526006602052604090205460ff165b90508015610cb5576001600160a01b03851660009081526007602052604090205460ff1680610c9557506001600160a01b03841660009081526007602052604090205460ff165b15610caa57610ca5858585610edc565b610cc0565b610ca5858585610f6b565b610cc0858585610edc565b5050505050565b6106738133611217565b610cdb82826107b7565b610643576000828152602081815260408083206001600160a01b03851684529091529020805460ff19166001179055610d113390565b6001600160a01b0316816001600160a01b0316837f2f8788117e7eff1d82e926ec794901d17c78024a50270940304540a733656f0d60405160405180910390a45050565b610d5f82826107b7565b15610643576000828152602081815260408083206001600160a01b0385168085529252808320805460ff1916905551339285917ff6391f5c32d9c69d2a47ea670b442974b53935d1edc7fd64eb21e047a839171b9190a45050565b6001600160a01b038216610e1a5760405162461bcd60e51b815260206004820152602160248201527f45524332303a206275726e2066726f6d20746865207a65726f206164647265736044820152607360f81b6064820152608401610630565b6001600160a01b03821660009081526001602052604090205481811015610e8e5760405162461bcd60e51b815260206004820152602260248201527f45524332303a206275726e20616d6f756e7420657863656564732062616c616e604482015261636560f01b6064820152608401610630565b6001600160a01b03831660008181526001602090815260408083208686039055600380548790039055518581529192916000805160206117a6833981519152910160405180910390a3505050565b6001600160a01b03831660009081526001602052604081208054839290610f049084906116a1565b90915550506001600160a01b03821660009081526001602052604081208054839290610f31908490611662565b92505081905550816001600160a01b0316836001600160a01b03166000805160206117a683398151915283604051610a4a91815260200190565b6001600160a01b03831660009081526006602052604090205460ff16156110da576000610fae6064610fa8600a548561127090919063ffffffff16565b90611283565b905080600c6000828254610fc29190611662565b9091555060009050610fd4838361128f565b6001600160a01b0386166000908152600160205260408120805492935085929091906110019084906116a1565b90915550506001600160a01b0384166000908152600160205260408120805483929061102e908490611662565b92505081905550836001600160a01b0316856001600160a01b03166000805160206117a68339815191528360405161106891815260200190565b60405180910390a36008546001600160a01b03166000908152600160205260408120805484929061109a908490611662565b90915550506008546040518381526001600160a01b03918216918716906000805160206117a6833981519152906020015b60405180910390a35050505050565b60006110f66064610fa8600b548561127090919063ffffffff16565b905080600c600082825461110a9190611662565b909155506000905061111c838361128f565b6001600160a01b0386166000908152600160205260408120805492935085929091906111499084906116a1565b90915550506001600160a01b03841660009081526001602052604081208054839290611176908490611662565b92505081905550836001600160a01b0316856001600160a01b03166000805160206117a6833981519152836040516111b091815260200190565b60405180910390a36009546001600160a01b0316600090815260016020526040812080548492906111e2908490611662565b90915550506009546040518381526001600160a01b03918216918716906000805160206117a6833981519152906020016110cb565b61122182826107b7565b6106435761122e8161129b565b6112398360206112ad565b60405160200161124a9291906116b4565b60408051601f198184030181529082905262461bcd60e51b825261063091600401611497565b600061127c8284611729565b9392505050565b600061127c8284611740565b600061127c82846116a1565b60606104c66001600160a01b03831660145b606060006112bc836002611729565b6112c7906002611662565b67ffffffffffffffff8111156112df576112df611762565b6040519080825280601f01601f191660200182016040528015611309576020820181803683370190505b509050600360fc1b8160008151811061132457611324611778565b60200101906001600160f81b031916908160001a905350600f60fb1b8160018151811061135357611353611778565b60200101906001600160f81b031916908160001a9053506000611377846002611729565b611382906001611662565b90505b60018111156113fa576f181899199a1a9b1b9c1cb0b131b232b360811b85600f16601081106113b6576113b6611778565b1a60f81b8282815181106113cc576113cc611778565b60200101906001600160f81b031916908160001a90535060049490941c936113f38161178e565b9050611385565b50831561127c5760405162461bcd60e51b815260206004820181905260248201527f537472696e67733a20686578206c656e67746820696e73756666696369656e746044820152606401610630565b60006020828403121561145b57600080fd5b81356001600160e01b03198116811461127c57600080fd5b60005b8381101561148e578181015183820152602001611476565b50506000910152565b60208152600082518060208401526114b6816040850160208701611473565b601f01601f19169190910160400192915050565b80356001600160a01b03811681146114e157600080fd5b919050565b600080604083850312156114f957600080fd5b611502836114ca565b946020939093013593505050565b60008060006060848603121561152557600080fd5b61152e846114ca565b925061153c602085016114ca565b9150604084013590509250925092565b60006020828403121561155e57600080fd5b5035919050565b6000806040838503121561157857600080fd5b82359150611588602084016114ca565b90509250929050565b6000602082840312156115a357600080fd5b61127c826114ca565b600080604083850312156115bf57600080fd5b6115c8836114ca565b9150602083013580151581146115dd57600080fd5b809150509250929050565b600080604083850312156115fb57600080fd5b611604836114ca565b9150611588602084016114ca565b600181811c9082168061162657607f821691505b60208210810361164657634e487b7160e01b600052602260045260246000fd5b50919050565b634e487b7160e01b600052601160045260246000fd5b808201808211156104c6576104c661164c565b6020808252601290820152714552524f523a5a45524f5f4144445245535360701b604082015260600190565b818103818111156104c6576104c661164c565b7f416363657373436f6e74726f6c3a206163636f756e74200000000000000000008152600083516116ec816017850160208801611473565b7001034b99036b4b9b9b4b733903937b6329607d1b601791840191820152835161171d816028840160208801611473565b01602801949350505050565b80820281158282048414176104c6576104c661164c565b60008261175d57634e487b7160e01b600052601260045260246000fd5b500490565b634e487b7160e01b600052604160045260246000fd5b634e487b7160e01b600052603260045260246000fd5b60008161179d5761179d61164c565b50600019019056feddf252ad1be2c89b69c2b068fc378daa952ba7f163c4a11628f55a4df523b3efa076a07f65bcd51bcb15a0f01a65bc18f2d922acb81bcfd8af4caf5adb557091a2646970667358221220454a6b399d4611763e97eaeda72228649fd71dfe80a6cdc51c6a82c53cd74a6864736f6c63430008110033",
  "linkReferences": {},
  "deployedLinkReferences": {}
}