{
  "_format": "hh-sol-artifact-1",
  "contractName": "Allocation",
  "sourceName": "contracts/Allocation.sol",
  "abi": [
    {
      "inputs": [
        {
          "internalType": "address",
          "name": "_SBLTokenAdd",
          "type": "address"
        },
        {
          "internalType": "address",
          "name": "_routerAdd",
          "type": "address"
        },
        {
          "internalType": "address",
          "name": "_manageAdd",
          "type": "address"
        },
        {
          "internalType": "address",
          "name": "_rewardAdd",
          "type": "address"
        }
      ],
      "stateMutability": "nonpayable",
      "type": "constructor"
    },
    {
      "anonymous": false,
      "inputs": [
        {
          "indexed": true,
          "internalType": "address",
          "name": "caller",
          "type": "address"
        },
        {
          "indexed": false,
          "internalType": "uint256",
          "name": "amountToDeadHole",
          "type": "uint256"
        },
        {
          "indexed": false,
          "internalType": "uint256",
          "name": "amountToSwap",
          "type": "uint256"
        },
        {
          "indexed": false,
          "internalType": "uint256",
          "name": "ETHAmount",
          "type": "uint256"
        }
      ],
      "name": "AllocationEvent",
      "type": "event"
    },
    {
      "anonymous": false,
      "inputs": [
        {
          "indexed": true,
          "internalType": "bytes32",
          "name": "role",
          "type": "bytes32"
        },
        {
          "indexed": true,
          "internalType": "bytes32",
          "name": "previousAdminRole",
          "type": "bytes32"
        },
        {
          "indexed": true,
          "internalType": "bytes32",
          "name": "newAdminRole",
          "type": "bytes32"
        }
      ],
      "name": "RoleAdminChanged",
      "type": "event"
    },
    {
      "anonymous": false,
      "inputs": [
        {
          "indexed": true,
          "internalType": "bytes32",
          "name": "role",
          "type": "bytes32"
        },
        {
          "indexed": true,
          "internalType": "address",
          "name": "account",
          "type": "address"
        },
        {
          "indexed": true,
          "internalType": "address",
          "name": "sender",
          "type": "address"
        }
      ],
      "name": "RoleGranted",
      "type": "event"
    },
    {
      "anonymous": false,
      "inputs": [
        {
          "indexed": true,
          "internalType": "bytes32",
          "name": "role",
          "type": "bytes32"
        },
        {
          "indexed": true,
          "internalType": "address",
          "name": "account",
          "type": "address"
        },
        {
          "indexed": true,
          "internalType": "address",
          "name": "sender",
          "type": "address"
        }
      ],
      "name": "RoleRevoked",
      "type": "event"
    },
    {
      "anonymous": false,
      "inputs": [
        {
          "indexed": true,
          "internalType": "address",
          "name": "caller",
          "type": "address"
        },
        {
          "indexed": false,
          "internalType": "uint256",
          "name": "ehtAmount",
          "type": "uint256"
        }
      ],
      "name": "Swap",
      "type": "event"
    },
    {
      "inputs": [],
      "name": "DEFAULT_ADMIN_ROLE",
      "outputs": [
        {
          "internalType": "bytes32",
          "name": "",
          "type": "bytes32"
        }
      ],
      "stateMutability": "view",
      "type": "function"
    },
    {
      "inputs": [],
      "name": "MANAGE_ROLE",
      "outputs": [
        {
          "internalType": "bytes32",
          "name": "",
          "type": "bytes32"
        }
      ],
      "stateMutability": "view",
      "type": "function"
    },
    {
      "inputs": [],
      "name": "SBLAmountToAllocation",
      "outputs": [
        {
          "internalType": "uint256",
          "name": "",
          "type": "uint256"
        }
      ],
      "stateMutability": "view",
      "type": "function"
    },
    {
      "inputs": [],
      "name": "SBLTokenAdd",
      "outputs": [
        {
          "internalType": "address",
          "name": "",
          "type": "address"
        }
      ],
      "stateMutability": "view",
      "type": "function"
    },
    {
      "inputs": [],
      "name": "allocation",
      "outputs": [],
      "stateMutability": "nonpayable",
      "type": "function"
    },
    {
      "inputs": [
        {
          "internalType": "address",
          "name": "token",
          "type": "address"
        }
      ],
      "name": "balance",
      "outputs": [
        {
          "internalType": "uint256",
          "name": "",
          "type": "uint256"
        }
      ],
      "stateMutability": "view",
      "type": "function"
    },
    {
      "inputs": [],
      "name": "deadHoleRatio",
      "outputs": [
        {
          "internalType": "uint256",
          "name": "",
          "type": "uint256"
        }
      ],
      "stateMutability": "view",
      "type": "function"
    },
    {
      "inputs": [
        {
          "internalType": "bytes32",
          "name": "role",
          "type": "bytes32"
        }
      ],
      "name": "getRoleAdmin",
      "outputs": [
        {
          "internalType": "bytes32",
          "name": "",
          "type": "bytes32"
        }
      ],
      "stateMutability": "view",
      "type": "function"
    },
    {
      "inputs": [
        {
          "internalType": "bytes32",
          "name": "role",
          "type": "bytes32"
        },
        {
          "internalType": "address",
          "name": "account",
          "type": "address"
        }
      ],
      "name": "grantRole",
      "outputs": [],
      "stateMutability": "nonpayable",
      "type": "function"
    },
    {
      "inputs": [
        {
          "internalType": "bytes32",
          "name": "role",
          "type": "bytes32"
        },
        {
          "internalType": "address",
          "name": "account",
          "type": "address"
        }
      ],
      "name": "hasRole",
      "outputs": [
        {
          "internalType": "bool",
          "name": "",
          "type": "bool"
        }
      ],
      "stateMutability": "view",
      "type": "function"
    },
    {
      "inputs": [],
      "name": "manageAdd",
      "outputs": [
        {
          "internalType": "address",
          "name": "",
          "type": "address"
        }
      ],
      "stateMutability": "view",
      "type": "function"
    },
    {
      "inputs": [],
      "name": "manageAddRatio",
      "outputs": [
        {
          "internalType": "uint256",
          "name": "",
          "type": "uint256"
        }
      ],
      "stateMutability": "view",
      "type": "function"
    },
    {
      "inputs": [
        {
          "internalType": "bytes32",
          "name": "role",
          "type": "bytes32"
        },
        {
          "internalType": "address",
          "name": "account",
          "type": "address"
        }
      ],
      "name": "renounceRole",
      "outputs": [],
      "stateMutability": "nonpayable",
      "type": "function"
    },
    {
      "inputs": [
        {
          "internalType": "bytes32",
          "name": "role",
          "type": "bytes32"
        },
        {
          "internalType": "address",
          "name": "account",
          "type": "address"
        }
      ],
      "name": "revokeRole",
      "outputs": [],
      "stateMutability": "nonpayable",
      "type": "function"
    },
    {
      "inputs": [],
      "name": "rewardAdd",
      "outputs": [
        {
          "internalType": "address",
          "name": "",
          "type": "address"
        }
      ],
      "stateMutability": "view",
      "type": "function"
    },
    {
      "inputs": [],
      "name": "rewardRatio",
      "outputs": [
        {
          "internalType": "uint256",
          "name": "",
          "type": "uint256"
        }
      ],
      "stateMutability": "view",
      "type": "function"
    },
    {
      "inputs": [],
      "name": "routerAdd",
      "outputs": [
        {
          "internalType": "address",
          "name": "",
          "type": "address"
        }
      ],
      "stateMutability": "view",
      "type": "function"
    },
    {
      "inputs": [
        {
          "internalType": "bytes4",
          "name": "interfaceId",
          "type": "bytes4"
        }
      ],
      "name": "supportsInterface",
      "outputs": [
        {
          "internalType": "bool",
          "name": "",
          "type": "bool"
        }
      ],
      "stateMutability": "view",
      "type": "function"
    },
    {
      "inputs": [],
      "name": "swap",
      "outputs": [],
      "stateMutability": "nonpayable",
      "type": "function"
    },
    {
      "inputs": [
        {
          "internalType": "uint256",
          "name": "ratio",
          "type": "uint256"
        }
      ],
      "name": "updateDeadHoleRatio",
      "outputs": [],
      "stateMutability": "nonpayable",
      "type": "function"
    },
    {
      "inputs": [
        {
          "internalType": "address",
          "name": "_manageAdd",
          "type": "address"
        }
      ],
      "name": "updateManageAdd",
      "outputs": [],
      "stateMutability": "nonpayable",
      "type": "function"
    },
    {
      "inputs": [
        {
          "internalType": "uint256",
          "name": "ratio",
          "type": "uint256"
        }
      ],
      "name": "updateManageRatio",
      "outputs": [],
      "stateMutability": "nonpayable",
      "type": "function"
    },
    {
      "inputs": [
        {
          "internalType": "address",
          "name": "_rewardAdd",
          "type": "address"
        }
      ],
      "name": "updateRewardAdd",
      "outputs": [],
      "stateMutability": "nonpayable",
      "type": "function"
    },
    {
      "inputs": [
        {
          "internalType": "uint256",
          "name": "ratio",
          "type": "uint256"
        }
      ],
      "name": "updateRewardRatio",
      "outputs": [],
      "stateMutability": "nonpayable",
      "type": "function"
    },
    {
      "inputs": [
        {
          "internalType": "address",
          "name": "_routerAdd",
          "type": "address"
        }
      ],
      "name": "updateRouterAdd",
      "outputs": [],
      "stateMutability": "nonpayable",
      "type": "function"
    },
    {
      "inputs": [
        {
          "internalType": "address",
          "name": "_SBLTokenAdd",
          "type": "address"
        }
      ],
      "name": "updateSBLAdd",
      "outputs": [],
      "stateMutability": "nonpayable",
      "type": "function"
    },
    {
      "inputs": [
        {
          "internalType": "uint256",
          "name": "amount",
          "type": "uint256"
        }
      ],
      "name": "updateSBLAmountToAllo",
      "outputs": [],
      "stateMutability": "nonpayable",
      "type": "function"
    },
    {
      "stateMutability": "payable",
      "type": "receive"
    }
  ],
  "bytecode": "0x60806040526802b5e3af16b188000060025561026760035561018160045560016005553480156200002f57600080fd5b5060405162001851380380620018518339810160408190526200005291620001a1565b60018055600680546001600160a01b03199081166001600160a01b038781169190911790925560078054821686841617905560088054821685841617905560098054909116918316919091179055620000ad600033620000e3565b620000d97fa076a07f65bcd51bcb15a0f01a65bc18f2d922acb81bcfd8af4caf5adb55709133620000e3565b50505050620001fe565b6000828152602081815260408083206001600160a01b038516845290915290205460ff1662000180576000828152602081815260408083206001600160a01b03851684529091529020805460ff191660011790556200013f3390565b6001600160a01b0316816001600160a01b0316837f2f8788117e7eff1d82e926ec794901d17c78024a50270940304540a733656f0d60405160405180910390a45b5050565b80516001600160a01b03811681146200019c57600080fd5b919050565b60008060008060808587031215620001b857600080fd5b620001c38562000184565b9350620001d36020860162000184565b9250620001e36040860162000184565b9150620001f36060860162000184565b905092959194509250565b611643806200020e6000396000f3fe6080604052600436106101a05760003560e01c80636c8d174e116100ec57806391d148541161008a578063a217fddf11610064578063a217fddf1461049d578063ae5ade83146104b2578063d547741f146104d2578063e3d670d7146104f257600080fd5b806391d148541461043d57806397f0ebb61461045d5780639f1297071461047d57600080fd5b80638119c065116100c65780638119c065146103d357806388a17bde146103e85780638e8b8112146103fd5780639006b7441461041d57600080fd5b80636c8d174e1461037357806374d174141461039357806377555129146103b357600080fd5b806355ed84df116101595780635ab54dcb116101335780635ab54dcb146102e35780635b22c3a31461031b57806360a4b76a1461033b578063646033bc1461035d57600080fd5b806355ed84df146102975780635614c3af146102b7578063599379a0146102cd57600080fd5b806301ffc9a7146101ac578063248a9ca3146101e157806326485ec31461021f5780632f2ff15d1461024157806336568abe146102615780635346c03b1461028157600080fd5b366101a757005b600080fd5b3480156101b857600080fd5b506101cc6101c7366004611250565b610512565b60405190151581526020015b60405180910390f35b3480156101ed57600080fd5b506102116101fc36600461127a565b60009081526020819052604090206001015490565b6040519081526020016101d8565b34801561022b57600080fd5b5061023f61023a36600461127a565b610549565b005b34801561024d57600080fd5b5061023f61025c3660046112a8565b610590565b34801561026d57600080fd5b5061023f61027c3660046112a8565b6105ba565b34801561028d57600080fd5b5061021160035481565b3480156102a357600080fd5b5061023f6102b236600461127a565b610638565b3480156102c357600080fd5b5061021160025481565b3480156102d957600080fd5b5061021160055481565b3480156102ef57600080fd5b50600954610303906001600160a01b031681565b6040516001600160a01b0390911681526020016101d8565b34801561032757600080fd5b5061023f61033636600461127a565b610676565b34801561034757600080fd5b506102116000805160206115ee83398151915281565b34801561036957600080fd5b5061021160045481565b34801561037f57600080fd5b5061023f61038e3660046112d8565b6106b4565b34801561039f57600080fd5b5061023f6103ae36600461127a565b610715565b3480156103bf57600080fd5b5061023f6103ce3660046112d8565b610753565b3480156103df57600080fd5b5061023f6107b4565b3480156103f457600080fd5b5061023f61099f565b34801561040957600080fd5b5061023f6104183660046112d8565b610d99565b34801561042957600080fd5b50600654610303906001600160a01b031681565b34801561044957600080fd5b506101cc6104583660046112a8565b610dfa565b34801561046957600080fd5b5061023f6104783660046112d8565b610e23565b34801561048957600080fd5b50600854610303906001600160a01b031681565b3480156104a957600080fd5b50610211600081565b3480156104be57600080fd5b50600754610303906001600160a01b031681565b3480156104de57600080fd5b5061023f6104ed3660046112a8565b610e84565b3480156104fe57600080fd5b5061021161050d3660046112d8565b610ea9565b60006001600160e01b03198216637965db0b60e01b148061054357506301ffc9a760e01b6001600160e01b03198316145b92915050565b6000805160206115ee83398151915261056181610f28565b6000821161058a5760405162461bcd60e51b8152600401610581906112f5565b60405180910390fd5b50600355565b6000828152602081905260409020600101546105ab81610f28565b6105b58383610f35565b505050565b6001600160a01b038116331461062a5760405162461bcd60e51b815260206004820152602f60248201527f416363657373436f6e74726f6c3a2063616e206f6e6c792072656e6f756e636560448201526e103937b632b9903337b91039b2b63360891b6064820152608401610581565b6106348282610fb9565b5050565b6000805160206115ee83398151915261065081610f28565b600082116106705760405162461bcd60e51b8152600401610581906112f5565b50600255565b6000805160206115ee83398151915261068e81610f28565b600082116106ae5760405162461bcd60e51b8152600401610581906112f5565b50600555565b6000805160206115ee8339815191526106cc81610f28565b6001600160a01b0382166106f25760405162461bcd60e51b815260040161058190611325565b50600880546001600160a01b0319166001600160a01b0392909216919091179055565b6000805160206115ee83398151915261072d81610f28565b6000821161074d5760405162461bcd60e51b8152600401610581906112f5565b50600455565b6000805160206115ee83398151915261076b81610f28565b6001600160a01b0382166107915760405162461bcd60e51b815260040161058190611325565b50600780546001600160a01b0319166001600160a01b0392909216919091179055565b6000805160206115ee8339815191526107cc81610f28565b60006107d86000610ea9565b116107f55760405162461bcd60e51b8152600401610581906112f5565b60006108016000610ea9565b6007546040805160028082526060820183529394506001600160a01b039092169260009291602083019080368337019050509050816001600160a01b031663ad5c46486040518163ffffffff1660e01b8152600401602060405180830381865afa158015610873573d6000803e3d6000fd5b505050506040513d601f19601f820116820180604052508101906108979190611372565b816000815181106108aa576108aa61138f565b6001600160a01b0392831660209182029290920101526006548251911690829060019081106108db576108db61138f565b6001600160a01b0392831660209182029290920101526009548382169163b6f9de95918691600091869116610912426102586113bb565b6040518663ffffffff1660e01b81526004016109319493929190611412565b6000604051808303818588803b15801561094a57600080fd5b505af115801561095e573d6000803e3d6000fd5b50506040518681523393507f562c219552544ec4c9d7a8eb850f80ea152973e315372bf4999fe7c953ea004f9250602001905060405180910390a250505050565b6000805160206115ee8339815191526109b781610f28565b6002546006546109cf906001600160a01b0316610ea9565b1015610a2c5760405162461bcd60e51b815260206004820152602660248201527f416c6c6f636174696f6e3a204c4553535f5448414e5f414c4c4f4354494f4e5f604482015265105353d5539560d21b6064820152608401610581565b600654600090610a44906001600160a01b0316610ea9565b90506000610a696103e8610a636003548561101e90919063ffffffff16565b90611031565b90506000610a77838361103d565b60065460405163a9059cbb60e01b815261dead6004820152602481018590529192506001600160a01b03169063a9059cbb906044016020604051808303816000875af1158015610acb573d6000803e3d6000fd5b505050506040513d601f19601f82011682018060405250810190610aef9190611447565b506000610afc6000610ea9565b6007546040805160028082526060820183529394506001600160a01b039092169260009291602083019080368337505060065482519293506001600160a01b031691839150600090610b5057610b5061138f565b60200260200101906001600160a01b031690816001600160a01b031681525050816001600160a01b031663ad5c46486040518163ffffffff1660e01b8152600401602060405180830381865afa158015610bae573d6000803e3d6000fd5b505050506040513d601f19601f82011682018060405250810190610bd29190611372565b81600181518110610be557610be561138f565b6001600160a01b03928316602091820292909201015260065460075460405163095ea7b360e01b815290831660048201526024810187905291169063095ea7b3906044016020604051808303816000875af1158015610c48573d6000803e3d6000fd5b505050506040513d601f19601f82011682018060405250810190610c6c9190611447565b506001600160a01b03821663791ac9478560008430610c8d426102586113bb565b6040518663ffffffff1660e01b8152600401610cad959493929190611469565b600060405180830381600087803b158015610cc757600080fd5b505af1158015610cdb573d6000803e3d6000fd5b505050506000610ceb6000610ea9565b90506000610cf9828661103d565b6008546005549192506001600160a01b0316906108fc90610d2290606490610a6390869061101e565b6040518115909202916000818181858888f19350505050158015610d4a573d6000803e3d6000fd5b50604080518881526020810188905290810182905233907f1e9fbca6f973c68d9e9f67db9ba55bad45b40d9595d6a169aab383474ca9aa9a9060600160405180910390a2505050505050505050565b6000805160206115ee833981519152610db181610f28565b6001600160a01b038216610dd75760405162461bcd60e51b815260040161058190611325565b50600980546001600160a01b0319166001600160a01b0392909216919091179055565b6000918252602082815260408084206001600160a01b0393909316845291905290205460ff1690565b6000805160206115ee833981519152610e3b81610f28565b6001600160a01b038216610e615760405162461bcd60e51b815260040161058190611325565b50600680546001600160a01b0319166001600160a01b0392909216919091179055565b600082815260208190526040902060010154610e9f81610f28565b6105b58383610fb9565b60006001600160a01b038216610ec0575047919050565b6040516370a0823160e01b81523060048201526001600160a01b038316906370a0823190602401602060405180830381865afa158015610f04573d6000803e3d6000fd5b505050506040513d601f19601f8201168201806040525081019061054391906114a5565b610f328133611049565b50565b610f3f8282610dfa565b610634576000828152602081815260408083206001600160a01b03851684529091529020805460ff19166001179055610f753390565b6001600160a01b0316816001600160a01b0316837f2f8788117e7eff1d82e926ec794901d17c78024a50270940304540a733656f0d60405160405180910390a45050565b610fc38282610dfa565b15610634576000828152602081815260408083206001600160a01b0385168085529252808320805460ff1916905551339285917ff6391f5c32d9c69d2a47ea670b442974b53935d1edc7fd64eb21e047a839171b9190a45050565b600061102a82846114be565b9392505050565b600061102a82846114d5565b600061102a82846114f7565b6110538282610dfa565b61063457611060816110a2565b61106b8360206110b4565b60405160200161107c92919061152e565b60408051601f198184030181529082905262461bcd60e51b8252610581916004016115a3565b60606105436001600160a01b03831660145b606060006110c38360026114be565b6110ce9060026113bb565b67ffffffffffffffff8111156110e6576110e661135c565b6040519080825280601f01601f191660200182016040528015611110576020820181803683370190505b509050600360fc1b8160008151811061112b5761112b61138f565b60200101906001600160f81b031916908160001a905350600f60fb1b8160018151811061115a5761115a61138f565b60200101906001600160f81b031916908160001a905350600061117e8460026114be565b6111899060016113bb565b90505b6001811115611201576f181899199a1a9b1b9c1cb0b131b232b360811b85600f16601081106111bd576111bd61138f565b1a60f81b8282815181106111d3576111d361138f565b60200101906001600160f81b031916908160001a90535060049490941c936111fa816115d6565b905061118c565b50831561102a5760405162461bcd60e51b815260206004820181905260248201527f537472696e67733a20686578206c656e67746820696e73756666696369656e746044820152606401610581565b60006020828403121561126257600080fd5b81356001600160e01b03198116811461102a57600080fd5b60006020828403121561128c57600080fd5b5035919050565b6001600160a01b0381168114610f3257600080fd5b600080604083850312156112bb57600080fd5b8235915060208301356112cd81611293565b809150509250929050565b6000602082840312156112ea57600080fd5b813561102a81611293565b602080825260169082015275416c6c6f636174696f6e3a205a45524f5f56414c554560501b604082015260600190565b60208082526018908201527f416c6c6f636174696f6e3a205a45524f5f414444524553530000000000000000604082015260600190565b634e487b7160e01b600052604160045260246000fd5b60006020828403121561138457600080fd5b815161102a81611293565b634e487b7160e01b600052603260045260246000fd5b634e487b7160e01b600052601160045260246000fd5b80820180821115610543576105436113a5565b600081518084526020808501945080840160005b838110156114075781516001600160a01b0316875295820195908201906001016113e2565b509495945050505050565b84815260806020820152600061142b60808301866113ce565b6001600160a01b03949094166040830152506060015292915050565b60006020828403121561145957600080fd5b8151801515811461102a57600080fd5b85815284602082015260a06040820152600061148860a08301866113ce565b6001600160a01b0394909416606083015250608001529392505050565b6000602082840312156114b757600080fd5b5051919050565b8082028115828204841417610543576105436113a5565b6000826114f257634e487b7160e01b600052601260045260246000fd5b500490565b81810381811115610543576105436113a5565b60005b8381101561152557818101518382015260200161150d565b50506000910152565b7f416363657373436f6e74726f6c3a206163636f756e742000000000000000000081526000835161156681601785016020880161150a565b7001034b99036b4b9b9b4b733903937b6329607d1b601791840191820152835161159781602884016020880161150a565b01602801949350505050565b60208152600082518060208401526115c281604085016020870161150a565b601f01601f19169190910160400192915050565b6000816115e5576115e56113a5565b50600019019056fea076a07f65bcd51bcb15a0f01a65bc18f2d922acb81bcfd8af4caf5adb557091a26469706673582212203d3d6f2c1ca354deacf417122185389f3e9c357c518242db3d329bc2a41cc01664736f6c63430008110033",
  "linkReferences": {},
  "deployedLinkReferences": {}
}