{
  "_format": "hh-sol-artifact-1",
  "contractName": "MBAS",
  "sourceName": "contracts/MBAS.sol",
  "abi": [
    {
      "inputs": [
        {
          "internalType": "uint256",
          "name": "_maxSupply",
          "type": "uint256"
        },
        {
          "internalType": "address",
          "name": "_operationAddress",
          "type": "address"
        },
        {
          "internalType": "address",
          "name": "_burnFundAdd",
          "type": "address"
        },
        {
          "internalType": "address",
          "name": "_usdtAddress",
          "type": "address"
        },
        {
          "internalType": "address",
          "name": "_iUniswapV2Router02Add",
          "type": "address"
        }
      ],
      "stateMutability": "nonpayable",
      "type": "constructor"
    },
    {
      "anonymous": false,
      "inputs": [
        {
          "indexed": true,
          "internalType": "address",
          "name": "owner",
          "type": "address"
        },
        {
          "indexed": true,
          "internalType": "address",
          "name": "spender",
          "type": "address"
        },
        {
          "indexed": false,
          "internalType": "uint256",
          "name": "value",
          "type": "uint256"
        }
      ],
      "name": "Approval",
      "type": "event"
    },
    {
      "anonymous": false,
      "inputs": [
        {
          "indexed": true,
          "internalType": "address",
          "name": "previousOwner",
          "type": "address"
        },
        {
          "indexed": true,
          "internalType": "address",
          "name": "newOwner",
          "type": "address"
        }
      ],
      "name": "OwnershipTransferred",
      "type": "event"
    },
    {
      "anonymous": false,
      "inputs": [
        {
          "indexed": true,
          "internalType": "address",
          "name": "from",
          "type": "address"
        },
        {
          "indexed": true,
          "internalType": "address",
          "name": "to",
          "type": "address"
        },
        {
          "indexed": false,
          "internalType": "uint256",
          "name": "value",
          "type": "uint256"
        }
      ],
      "name": "Transfer",
      "type": "event"
    },
    {
      "inputs": [
        {
          "internalType": "address",
          "name": "owner",
          "type": "address"
        },
        {
          "internalType": "address",
          "name": "spender",
          "type": "address"
        }
      ],
      "name": "allowance",
      "outputs": [
        {
          "internalType": "uint256",
          "name": "",
          "type": "uint256"
        }
      ],
      "stateMutability": "view",
      "type": "function"
    },
    {
      "inputs": [
        {
          "internalType": "address",
          "name": "spender",
          "type": "address"
        },
        {
          "internalType": "uint256",
          "name": "amount",
          "type": "uint256"
        }
      ],
      "name": "approve",
      "outputs": [
        {
          "internalType": "bool",
          "name": "",
          "type": "bool"
        }
      ],
      "stateMutability": "nonpayable",
      "type": "function"
    },
    {
      "inputs": [
        {
          "internalType": "address",
          "name": "account",
          "type": "address"
        }
      ],
      "name": "balanceOf",
      "outputs": [
        {
          "internalType": "uint256",
          "name": "",
          "type": "uint256"
        }
      ],
      "stateMutability": "view",
      "type": "function"
    },
    {
      "inputs": [],
      "name": "brunFundFee",
      "outputs": [
        {
          "internalType": "uint256",
          "name": "",
          "type": "uint256"
        }
      ],
      "stateMutability": "view",
      "type": "function"
    },
    {
      "inputs": [
        {
          "internalType": "uint256",
          "name": "amount",
          "type": "uint256"
        }
      ],
      "name": "burn",
      "outputs": [],
      "stateMutability": "nonpayable",
      "type": "function"
    },
    {
      "inputs": [
        {
          "internalType": "address",
          "name": "account",
          "type": "address"
        },
        {
          "internalType": "uint256",
          "name": "amount",
          "type": "uint256"
        }
      ],
      "name": "burnFrom",
      "outputs": [],
      "stateMutability": "nonpayable",
      "type": "function"
    },
    {
      "inputs": [],
      "name": "burnFundAdd",
      "outputs": [
        {
          "internalType": "address",
          "name": "",
          "type": "address"
        }
      ],
      "stateMutability": "view",
      "type": "function"
    },
    {
      "inputs": [],
      "name": "decimals",
      "outputs": [
        {
          "internalType": "uint8",
          "name": "",
          "type": "uint8"
        }
      ],
      "stateMutability": "view",
      "type": "function"
    },
    {
      "inputs": [
        {
          "internalType": "address",
          "name": "spender",
          "type": "address"
        },
        {
          "internalType": "uint256",
          "name": "subtractedValue",
          "type": "uint256"
        }
      ],
      "name": "decreaseAllowance",
      "outputs": [
        {
          "internalType": "bool",
          "name": "",
          "type": "bool"
        }
      ],
      "stateMutability": "nonpayable",
      "type": "function"
    },
    {
      "inputs": [
        {
          "internalType": "address",
          "name": "",
          "type": "address"
        }
      ],
      "name": "excludeFee",
      "outputs": [
        {
          "internalType": "bool",
          "name": "",
          "type": "bool"
        }
      ],
      "stateMutability": "view",
      "type": "function"
    },
    {
      "inputs": [
        {
          "internalType": "address",
          "name": "spender",
          "type": "address"
        },
        {
          "internalType": "uint256",
          "name": "addedValue",
          "type": "uint256"
        }
      ],
      "name": "increaseAllowance",
      "outputs": [
        {
          "internalType": "bool",
          "name": "",
          "type": "bool"
        }
      ],
      "stateMutability": "nonpayable",
      "type": "function"
    },
    {
      "inputs": [],
      "name": "lpFee",
      "outputs": [
        {
          "internalType": "uint256",
          "name": "",
          "type": "uint256"
        }
      ],
      "stateMutability": "view",
      "type": "function"
    },
    {
      "inputs": [],
      "name": "mainPair",
      "outputs": [
        {
          "internalType": "address",
          "name": "",
          "type": "address"
        }
      ],
      "stateMutability": "view",
      "type": "function"
    },
    {
      "inputs": [],
      "name": "name",
      "outputs": [
        {
          "internalType": "string",
          "name": "",
          "type": "string"
        }
      ],
      "stateMutability": "view",
      "type": "function"
    },
    {
      "inputs": [],
      "name": "operationAddress",
      "outputs": [
        {
          "internalType": "address",
          "name": "",
          "type": "address"
        }
      ],
      "stateMutability": "view",
      "type": "function"
    },
    {
      "inputs": [],
      "name": "otherTokenAddress",
      "outputs": [
        {
          "internalType": "address",
          "name": "",
          "type": "address"
        }
      ],
      "stateMutability": "view",
      "type": "function"
    },
    {
      "inputs": [],
      "name": "owner",
      "outputs": [
        {
          "internalType": "address",
          "name": "",
          "type": "address"
        }
      ],
      "stateMutability": "view",
      "type": "function"
    },
    {
      "inputs": [
        {
          "internalType": "address",
          "name": "",
          "type": "address"
        }
      ],
      "name": "pairs",
      "outputs": [
        {
          "internalType": "bool",
          "name": "",
          "type": "bool"
        }
      ],
      "stateMutability": "view",
      "type": "function"
    },
    {
      "inputs": [],
      "name": "renounceOwnership",
      "outputs": [],
      "stateMutability": "nonpayable",
      "type": "function"
    },
    {
      "inputs": [
        {
          "internalType": "address",
          "name": "_burnFundAdd",
          "type": "address"
        }
      ],
      "name": "setBurnFundAdd",
      "outputs": [],
      "stateMutability": "nonpayable",
      "type": "function"
    },
    {
      "inputs": [
        {
          "internalType": "address",
          "name": "_address",
          "type": "address"
        },
        {
          "internalType": "bool",
          "name": "_state",
          "type": "bool"
        }
      ],
      "name": "setExcludeFee",
      "outputs": [],
      "stateMutability": "nonpayable",
      "type": "function"
    },
    {
      "inputs": [
        {
          "internalType": "address",
          "name": "_address",
          "type": "address"
        }
      ],
      "name": "setOperationAddress",
      "outputs": [],
      "stateMutability": "nonpayable",
      "type": "function"
    },
    {
      "inputs": [
        {
          "internalType": "address",
          "name": "_pair",
          "type": "address"
        },
        {
          "internalType": "bool",
          "name": "_state",
          "type": "bool"
        }
      ],
      "name": "setPair",
      "outputs": [],
      "stateMutability": "nonpayable",
      "type": "function"
    },
    {
      "inputs": [],
      "name": "symbol",
      "outputs": [
        {
          "internalType": "string",
          "name": "",
          "type": "string"
        }
      ],
      "stateMutability": "view",
      "type": "function"
    },
    {
      "inputs": [],
      "name": "totalFee",
      "outputs": [
        {
          "internalType": "uint256",
          "name": "",
          "type": "uint256"
        }
      ],
      "stateMutability": "view",
      "type": "function"
    },
    {
      "inputs": [],
      "name": "totalSupply",
      "outputs": [
        {
          "internalType": "uint256",
          "name": "",
          "type": "uint256"
        }
      ],
      "stateMutability": "view",
      "type": "function"
    },
    {
      "inputs": [
        {
          "internalType": "address",
          "name": "to",
          "type": "address"
        },
        {
          "internalType": "uint256",
          "name": "amount",
          "type": "uint256"
        }
      ],
      "name": "transfer",
      "outputs": [
        {
          "internalType": "bool",
          "name": "",
          "type": "bool"
        }
      ],
      "stateMutability": "nonpayable",
      "type": "function"
    },
    {
      "inputs": [
        {
          "internalType": "address",
          "name": "from",
          "type": "address"
        },
        {
          "internalType": "address",
          "name": "to",
          "type": "address"
        },
        {
          "internalType": "uint256",
          "name": "amount",
          "type": "uint256"
        }
      ],
      "name": "transferFrom",
      "outputs": [
        {
          "internalType": "bool",
          "name": "",
          "type": "bool"
        }
      ],
      "stateMutability": "nonpayable",
      "type": "function"
    },
    {
      "inputs": [
        {
          "internalType": "address",
          "name": "newOwner",
          "type": "address"
        }
      ],
      "name": "transferOwnership",
      "outputs": [],
      "stateMutability": "nonpayable",
      "type": "function"
    }
  ],
  "bytecode": "0x60c060405260096080908152684d657461204261736560b81b60a0526004906200002a9082620005dd565b506040805180820190915260048152634d42415360e01b6020820152600590620000559082620005dd565b506001600c556005600d553480156200006d57600080fd5b5060405162001f4238038062001f428339810160408190526200009091620006c6565b6200009b336200041c565b600a80546001600160a01b038087166001600160a01b031992831617909255600b805486841692169190911790556040805163c45a015560e01b8152905183926000929084169163c45a0155916004808201926020929091908290030181865afa1580156200010e573d6000803e3d6000fd5b505050506040513d601f19601f820116820180604052508101906200013491906200072d565b90506000816001600160a01b031663c9c6539630856001600160a01b031663ad5c46486040518163ffffffff1660e01b8152600401602060405180830381865afa15801562000187573d6000803e3d6000fd5b505050506040513d601f19601f82011682018060405250810190620001ad91906200072d565b6040516001600160e01b031960e085901b1681526001600160a01b039283166004820152911660248201526044016020604051808303816000875af1158015620001fb573d6000803e3d6000fd5b505050506040513d601f19601f820116820180604052508101906200022191906200072d565b6040516364e329cb60e11b81523060048201526001600160a01b03878116602483015291925060009184169063c9c65396906044016020604051808303816000875af115801562000276573d6000803e3d6000fd5b505050506040513d601f19601f820116820180604052508101906200029c91906200072d565b905081600860006101000a8154816001600160a01b0302191690836001600160a01b03160217905550836001600160a01b031663ad5c46486040518163ffffffff1660e01b8152600401602060405180830381865afa15801562000304573d6000803e3d6000fd5b505050506040513d601f19601f820116820180604052508101906200032a91906200072d565b600980546001600160a01b0319166001600160a01b03928316179055828116600090815260066020526040808220805460ff199081166001908117909255938516835290822080549093168117909255600790620003853390565b6001600160a01b03908116825260208083019390935260409182016000908120805495151560ff19968716179055600a54821681526007909352818320805485166001908117909155600b549091168352912080549092161790556200040d33620003ee601290565b620003fb90600a62000867565b62000407908c62000878565b6200046c565b505050505050505050620008a8565b600080546001600160a01b038381166001600160a01b0319831681178455604051919092169283917f8be0079c531659141344cd1fd0a4f28419497f9722a3daafe3b4186f6b6457e09190a35050565b6001600160a01b038216620004c75760405162461bcd60e51b815260206004820152601f60248201527f45524332303a206d696e7420746f20746865207a65726f206164647265737300604482015260640160405180910390fd5b8060036000828254620004db919062000892565b90915550506001600160a01b0382166000818152600160209081526040808320805486019055518481527fddf252ad1be2c89b69c2b068fc378daa952ba7f163c4a11628f55a4df523b3ef910160405180910390a35050565b505050565b634e487b7160e01b600052604160045260246000fd5b600181811c908216806200056457607f821691505b6020821081036200058557634e487b7160e01b600052602260045260246000fd5b50919050565b601f8211156200053457600081815260208120601f850160051c81016020861015620005b45750805b601f850160051c820191505b81811015620005d557828155600101620005c0565b505050505050565b81516001600160401b03811115620005f957620005f962000539565b62000611816200060a84546200054f565b846200058b565b602080601f831160018114620006495760008415620006305750858301515b600019600386901b1c1916600185901b178555620005d5565b600085815260208120601f198616915b828110156200067a5788860151825594840194600190910190840162000659565b5085821015620006995787850151600019600388901b60f8161c191681555b5050505050600190811b01905550565b80516001600160a01b0381168114620006c157600080fd5b919050565b600080600080600060a08688031215620006df57600080fd5b85519450620006f160208701620006a9565b93506200070160408701620006a9565b92506200071160608701620006a9565b91506200072160808701620006a9565b90509295509295909350565b6000602082840312156200074057600080fd5b6200074b82620006a9565b9392505050565b634e487b7160e01b600052601160045260246000fd5b600181815b80851115620007a95781600019048211156200078d576200078d62000752565b808516156200079b57918102915b93841c93908002906200076d565b509250929050565b600082620007c25750600162000861565b81620007d15750600062000861565b8160018114620007ea5760028114620007f55762000815565b600191505062000861565b60ff84111562000809576200080962000752565b50506001821b62000861565b5060208310610133831016604e8410600b84101617156200083a575081810a62000861565b62000846838362000768565b80600019048211156200085d576200085d62000752565b0290505b92915050565b60006200074b60ff841683620007b1565b808202811582820484141762000861576200086162000752565b8082018082111562000861576200086162000752565b61168a80620008b86000396000f3fe608060405234801561001057600080fd5b50600436106101cf5760003560e01c806385af30c511610104578063a457c2d7116100a2578063d53ce95611610071578063d53ce956146103cf578063dd62ed3e146103e2578063f2fde38b146103f5578063fe33b3021461040857600080fd5b8063a457c2d714610383578063a9059cbb14610396578063b1c947f3146103a9578063bca0cf1c146103bc57600080fd5b80638da5cb5b116100de5780638da5cb5b1461034e57806395d89b411461035f5780639711532614610367578063a441c3021461037057600080fd5b806385af30c51461031557806386a22eff146103285780638aeb44771461033b57600080fd5b8063395093511161017157806370a082311161014b57806370a08231146102ae578063715018a6146102d75780637967d26d146102df57806379cc67901461030257600080fd5b8063395093511461027d57806342966c6814610290578063704ce43e146102a557600080fd5b806318160ddd116101ad57806318160ddd146102405780631df4ccfc1461025257806323b872dd1461025b578063313ce5671461026e57600080fd5b806306fdde03146101d4578063095ea7b3146101f25780630ea4b28f14610215575b600080fd5b6101dc61042b565b6040516101e99190611366565b60405180910390f35b6102056102003660046113d0565b6104bd565b60405190151581526020016101e9565b600b54610228906001600160a01b031681565b6040516001600160a01b0390911681526020016101e9565b6003545b6040519081526020016101e9565b610244600e5481565b6102056102693660046113fa565b6104d7565b604051601281526020016101e9565b61020561028b3660046113d0565b6104fb565b6102a361029e366004611436565b61051d565b005b610244600c5481565b6102446102bc36600461144f565b6001600160a01b031660009081526001602052604090205490565b6102a361052a565b6102056102ed36600461144f565b60076020526000908152604090205460ff1681565b6102a36103103660046113d0565b61053e565b600854610228906001600160a01b031681565b6102a361033636600461146a565b610557565b6102a361034936600461144f565b6105b9565b6000546001600160a01b0316610228565b6101dc610609565b610244600d5481565b600a54610228906001600160a01b031681565b6102056103913660046113d0565b610618565b6102056103a43660046113d0565b610693565b6102a36103b736600461146a565b6106a1565b600954610228906001600160a01b031681565b6102a36103dd36600461144f565b6106fa565b6102446103f03660046114a6565b61074a565b6102a361040336600461144f565b610775565b61020561041636600461144f565b60066020526000908152604090205460ff1681565b60606004805461043a906114d9565b80601f0160208091040260200160405190810160405280929190818152602001828054610466906114d9565b80156104b35780601f10610488576101008083540402835291602001916104b3565b820191906000526020600020905b81548152906001019060200180831161049657829003601f168201915b5050505050905090565b6000336104cb8185856107eb565b60019150505b92915050565b6000336104e5858285610910565b6104f085858561098a565b506001949350505050565b6000336104cb81858561050e838361074a565b6105189190611529565b6107eb565b6105273382610bf2565b50565b610532610d0c565b61053c6000610d66565b565b610549823383610910565b6105538282610bf2565b5050565b61055f610d0c565b6001600160a01b03821661058e5760405162461bcd60e51b81526004016105859061153c565b60405180910390fd5b6001600160a01b03919091166000908152600660205260409020805460ff1916911515919091179055565b6105c1610d0c565b6001600160a01b0381166105e75760405162461bcd60e51b81526004016105859061153c565b600b80546001600160a01b0319166001600160a01b0392909216919091179055565b60606005805461043a906114d9565b60003381610626828661074a565b9050838110156106865760405162461bcd60e51b815260206004820152602560248201527f45524332303a2064656372656173656420616c6c6f77616e63652062656c6f77604482015264207a65726f60d81b6064820152608401610585565b6104f082868684036107eb565b6000336104cb81858561098a565b6106a9610d0c565b6001600160a01b0382166106cf5760405162461bcd60e51b81526004016105859061153c565b6001600160a01b03919091166000908152600760205260409020805460ff1916911515919091179055565b610702610d0c565b6001600160a01b0381166107285760405162461bcd60e51b81526004016105859061153c565b600a80546001600160a01b0319166001600160a01b0392909216919091179055565b6001600160a01b03918216600090815260026020908152604080832093909416825291909152205490565b61077d610d0c565b6001600160a01b0381166107e25760405162461bcd60e51b815260206004820152602660248201527f4f776e61626c653a206e6577206f776e657220697320746865207a65726f206160448201526564647265737360d01b6064820152608401610585565b61052781610d66565b6001600160a01b03831661084d5760405162461bcd60e51b8152602060048201526024808201527f45524332303a20617070726f76652066726f6d20746865207a65726f206164646044820152637265737360e01b6064820152608401610585565b6001600160a01b0382166108ae5760405162461bcd60e51b815260206004820152602260248201527f45524332303a20617070726f766520746f20746865207a65726f206164647265604482015261737360f01b6064820152608401610585565b6001600160a01b0383811660008181526002602090815260408083209487168084529482529182902085905590518481527f8c5be1e5ebec7d5bd14f71427d1e84f3dd0314c0f7b2291e5b200ac8c7c3b92591015b60405180910390a3505050565b600061091c848461074a565b9050600019811461098457818110156109775760405162461bcd60e51b815260206004820152601d60248201527f45524332303a20696e73756666696369656e7420616c6c6f77616e63650000006044820152606401610585565b61098484848484036107eb565b50505050565b6001600160a01b0383166109ee5760405162461bcd60e51b815260206004820152602560248201527f45524332303a207472616e736665722066726f6d20746865207a65726f206164604482015264647265737360d81b6064820152608401610585565b6001600160a01b038216610a505760405162461bcd60e51b815260206004820152602360248201527f45524332303a207472616e7366657220746f20746865207a65726f206164647260448201526265737360e81b6064820152608401610585565b6001600160a01b03831660009081526001602052604090205481811015610ac85760405162461bcd60e51b815260206004820152602660248201527f45524332303a207472616e7366657220616d6f756e7420657863656564732062604482015265616c616e636560d01b6064820152608401610585565b6001600160a01b03841660009081526006602052604081205460ff1680610b0757506001600160a01b03841660009081526006602052604090205460ff165b90508015610be7576001600160a01b03851660009081526006602052604090205460ff1615610b4f57610b38610db6565b15610b4f57610b48858585610edb565b5050505050565b6001600160a01b03841660009081526006602052604090205460ff1615610b8857610b78610f6a565b15610b8857610b48858585610edb565b6001600160a01b03851660009081526007602052604090205460ff1680610bc757506001600160a01b03841660009081526007602052604090205460ff165b15610bdc57610bd7858585610edb565b610b48565b610bd785858561108f565b610b48858585610edb565b6001600160a01b038216610c525760405162461bcd60e51b815260206004820152602160248201527f45524332303a206275726e2066726f6d20746865207a65726f206164647265736044820152607360f81b6064820152608401610585565b6001600160a01b03821660009081526001602052604090205481811015610cc65760405162461bcd60e51b815260206004820152602260248201527f45524332303a206275726e20616d6f756e7420657863656564732062616c616e604482015261636560f01b6064820152608401610585565b6001600160a01b03831660008181526001602090815260408083208686039055600380548790039055518581529192916000805160206116358339815191529101610903565b6000546001600160a01b0316331461053c5760405162461bcd60e51b815260206004820181905260248201527f4f776e61626c653a2063616c6c6572206973206e6f7420746865206f776e65726044820152606401610585565b600080546001600160a01b038381166001600160a01b0319831681178455604051919092169283917f8be0079c531659141344cd1fd0a4f28419497f9722a3daafe3b4186f6b6457e09190a35050565b60085460408051630240bc6b60e21b815290516000926001600160a01b031691839182918491630902f1ac916004808201926060929091908290030181865afa158015610e07573d6000803e3d6000fd5b505050506040513d601f19601f82011682018060405250810190610e2b919061157f565b506009546001600160701b039283169450911691506001600160a01b0316600030821015610e5a575082610e5d565b50815b6008546040516370a0823160e01b81526001600160a01b0391821660048201526000918416906370a0823190602401602060405180830381865afa158015610ea9573d6000803e3d6000fd5b505050506040513d601f19601f82011682018060405250810190610ecd91906115cf565b909110159695505050505050565b6001600160a01b03831660009081526001602052604081208054839290610f039084906115e8565b90915550506001600160a01b03821660009081526001602052604081208054839290610f30908490611529565b92505081905550816001600160a01b0316836001600160a01b03166000805160206116358339815191528360405161090391815260200190565b60085460408051630240bc6b60e21b815290516000926001600160a01b031691839182918491630902f1ac916004808201926060929091908290030181865afa158015610fbb573d6000803e3d6000fd5b505050506040513d601f19601f82011682018060405250810190610fdf919061157f565b506009546001600160701b039283169450911691506001600160a01b031660003082101561100e575082611011565b50815b6008546040516370a0823160e01b81526001600160a01b0391821660048201526000918416906370a0823190602401602060405180830381865afa15801561105d573d6000803e3d6000fd5b505050506040513d601f19601f8201168201806040525081019061108191906115cf565b919091119695505050505050565b6001600160a01b03831660009081526006602052604090205460ff16156111fe5760006110d260646110cc600c548561133b90919063ffffffff16565b9061134e565b905080600e60008282546110e69190611529565b90915550600090506110f8838361135a565b6001600160a01b0386166000908152600160205260408120805492935085929091906111259084906115e8565b90915550506001600160a01b03841660009081526001602052604081208054839290611152908490611529565b92505081905550836001600160a01b0316856001600160a01b03166000805160206116358339815191528360405161118c91815260200190565b60405180910390a3600a546001600160a01b0316600090815260016020526040812080548492906111be908490611529565b9091555050600a546040518381526001600160a01b0391821691871690600080516020611635833981519152906020015b60405180910390a35050505050565b600061121a60646110cc600d548561133b90919063ffffffff16565b905080600e600082825461122e9190611529565b9091555060009050611240838361135a565b6001600160a01b03861660009081526001602052604081208054929350859290919061126d9084906115e8565b90915550506001600160a01b0384166000908152600160205260408120805483929061129a908490611529565b92505081905550836001600160a01b0316856001600160a01b0316600080516020611635833981519152836040516112d491815260200190565b60405180910390a3600b546001600160a01b031660009081526001602052604081208054849290611306908490611529565b9091555050600b546040518381526001600160a01b0391821691871690600080516020611635833981519152906020016111ef565b600061134782846115fb565b9392505050565b60006113478284611612565b600061134782846115e8565b600060208083528351808285015260005b8181101561139357858101830151858201604001528201611377565b506000604082860101526040601f19601f8301168501019250505092915050565b80356001600160a01b03811681146113cb57600080fd5b919050565b600080604083850312156113e357600080fd5b6113ec836113b4565b946020939093013593505050565b60008060006060848603121561140f57600080fd5b611418846113b4565b9250611426602085016113b4565b9150604084013590509250925092565b60006020828403121561144857600080fd5b5035919050565b60006020828403121561146157600080fd5b611347826113b4565b6000806040838503121561147d57600080fd5b611486836113b4565b91506020830135801515811461149b57600080fd5b809150509250929050565b600080604083850312156114b957600080fd5b6114c2836113b4565b91506114d0602084016113b4565b90509250929050565b600181811c908216806114ed57607f821691505b60208210810361150d57634e487b7160e01b600052602260045260246000fd5b50919050565b634e487b7160e01b600052601160045260246000fd5b808201808211156104d1576104d1611513565b6020808252601290820152714552524f523a5a45524f5f4144445245535360701b604082015260600190565b80516001600160701b03811681146113cb57600080fd5b60008060006060848603121561159457600080fd5b61159d84611568565b92506115ab60208501611568565b9150604084015163ffffffff811681146115c457600080fd5b809150509250925092565b6000602082840312156115e157600080fd5b5051919050565b818103818111156104d1576104d1611513565b80820281158282048414176104d1576104d1611513565b60008261162f57634e487b7160e01b600052601260045260246000fd5b50049056feddf252ad1be2c89b69c2b068fc378daa952ba7f163c4a11628f55a4df523b3efa2646970667358221220e317e610934bd6ffc35434e777fe951baf101c241b6cf0144d47b880668a902c64736f6c63430008110033",
  "linkReferences": {},
  "deployedLinkReferences": {}
}