{
  "_format": "hh-sol-artifact-1",
  "contractName": "BuyNode",
  "sourceName": "contracts/BuyNode.sol",
  "abi": [
    {
      "inputs": [
        {
          "internalType": "address",
          "name": "_verify",
          "type": "address"
        },
        {
          "internalType": "address",
          "name": "_mainAddress",
          "type": "address"
        }
      ],
      "stateMutability": "nonpayable",
      "type": "constructor"
    },
    {
      "anonymous": false,
      "inputs": [
        {
          "indexed": false,
          "internalType": "address",
          "name": "",
          "type": "address"
        },
        {
          "indexed": false,
          "internalType": "uint256",
          "name": "",
          "type": "uint256"
        },
        {
          "indexed": false,
          "internalType": "uint256",
          "name": "",
          "type": "uint256"
        },
        {
          "indexed": false,
          "internalType": "uint256",
          "name": "",
          "type": "uint256"
        }
      ],
      "name": "Award",
      "type": "event"
    },
    {
      "anonymous": false,
      "inputs": [
        {
          "indexed": false,
          "internalType": "address",
          "name": "user",
          "type": "address"
        },
        {
          "indexed": false,
          "internalType": "uint256",
          "name": "amount",
          "type": "uint256"
        },
        {
          "indexed": false,
          "internalType": "uint256",
          "name": "no",
          "type": "uint256"
        },
        {
          "indexed": false,
          "internalType": "address",
          "name": "payToken",
          "type": "address"
        }
      ],
      "name": "BuyNodeEven",
      "type": "event"
    },
    {
      "anonymous": false,
      "inputs": [
        {
          "indexed": false,
          "internalType": "address",
          "name": "",
          "type": "address"
        },
        {
          "indexed": false,
          "internalType": "uint256",
          "name": "",
          "type": "uint256"
        }
      ],
      "name": "GetAllFee",
      "type": "event"
    },
    {
      "anonymous": false,
      "inputs": [
        {
          "indexed": false,
          "internalType": "address",
          "name": "user",
          "type": "address"
        },
        {
          "indexed": false,
          "internalType": "uint256",
          "name": "outAmount",
          "type": "uint256"
        },
        {
          "indexed": false,
          "internalType": "uint256",
          "name": "no",
          "type": "uint256"
        }
      ],
      "name": "QuitNodeven",
      "type": "event"
    },
    {
      "anonymous": false,
      "inputs": [
        {
          "indexed": true,
          "internalType": "address",
          "name": "sender",
          "type": "address"
        },
        {
          "indexed": false,
          "internalType": "uint256",
          "name": "amount",
          "type": "uint256"
        }
      ],
      "name": "ReceivedEther",
      "type": "event"
    },
    {
      "stateMutability": "payable",
      "type": "fallback"
    },
    {
      "inputs": [],
      "name": "admin",
      "outputs": [
        {
          "internalType": "address",
          "name": "",
          "type": "address"
        }
      ],
      "stateMutability": "view",
      "type": "function"
    },
    {
      "inputs": [],
      "name": "balanceReceived",
      "outputs": [
        {
          "internalType": "uint256",
          "name": "",
          "type": "uint256"
        }
      ],
      "stateMutability": "view",
      "type": "function"
    },
    {
      "inputs": [
        {
          "internalType": "bytes",
          "name": "data",
          "type": "bytes"
        }
      ],
      "name": "buyNode",
      "outputs": [],
      "stateMutability": "payable",
      "type": "function"
    },
    {
      "inputs": [],
      "name": "fee",
      "outputs": [
        {
          "internalType": "uint256",
          "name": "",
          "type": "uint256"
        }
      ],
      "stateMutability": "view",
      "type": "function"
    },
    {
      "inputs": [
        {
          "internalType": "address",
          "name": "_addr",
          "type": "address"
        }
      ],
      "name": "getAllFees",
      "outputs": [],
      "stateMutability": "nonpayable",
      "type": "function"
    },
    {
      "inputs": [
        {
          "internalType": "bytes",
          "name": "data",
          "type": "bytes"
        },
        {
          "internalType": "uint256",
          "name": "_logeType",
          "type": "uint256"
        }
      ],
      "name": "getAward",
      "outputs": [],
      "stateMutability": "nonpayable",
      "type": "function"
    },
    {
      "inputs": [],
      "name": "getBalance",
      "outputs": [
        {
          "internalType": "uint256",
          "name": "",
          "type": "uint256"
        }
      ],
      "stateMutability": "view",
      "type": "function"
    },
    {
      "inputs": [],
      "name": "getNewAdmin",
      "outputs": [],
      "stateMutability": "nonpayable",
      "type": "function"
    },
    {
      "inputs": [],
      "name": "getTokenAddr",
      "outputs": [
        {
          "internalType": "address",
          "name": "",
          "type": "address"
        }
      ],
      "stateMutability": "view",
      "type": "function"
    },
    {
      "inputs": [],
      "name": "intervalBlock",
      "outputs": [
        {
          "internalType": "uint256",
          "name": "",
          "type": "uint256"
        }
      ],
      "stateMutability": "view",
      "type": "function"
    },
    {
      "inputs": [],
      "name": "mainAddress",
      "outputs": [
        {
          "internalType": "address",
          "name": "",
          "type": "address"
        }
      ],
      "stateMutability": "view",
      "type": "function"
    },
    {
      "inputs": [],
      "name": "manager",
      "outputs": [
        {
          "internalType": "contract Manager",
          "name": "",
          "type": "address"
        }
      ],
      "stateMutability": "view",
      "type": "function"
    },
    {
      "inputs": [],
      "name": "newAdmin",
      "outputs": [
        {
          "internalType": "address",
          "name": "",
          "type": "address"
        }
      ],
      "stateMutability": "view",
      "type": "function"
    },
    {
      "inputs": [
        {
          "internalType": "bytes",
          "name": "data",
          "type": "bytes"
        }
      ],
      "name": "quitNode",
      "outputs": [],
      "stateMutability": "nonpayable",
      "type": "function"
    },
    {
      "inputs": [
        {
          "internalType": "address",
          "name": "_addr",
          "type": "address"
        },
        {
          "internalType": "address",
          "name": "mainAddr",
          "type": "address"
        }
      ],
      "name": "setGetTolenAddr",
      "outputs": [],
      "stateMutability": "nonpayable",
      "type": "function"
    },
    {
      "inputs": [
        {
          "internalType": "uint256",
          "name": "_intervalBlock",
          "type": "uint256"
        }
      ],
      "name": "setIntervalBlock",
      "outputs": [],
      "stateMutability": "nonpayable",
      "type": "function"
    },
    {
      "inputs": [
        {
          "internalType": "address",
          "name": "addr",
          "type": "address"
        }
      ],
      "name": "setManager",
      "outputs": [],
      "stateMutability": "nonpayable",
      "type": "function"
    },
    {
      "inputs": [
        {
          "internalType": "address",
          "name": "_newAdmin",
          "type": "address"
        }
      ],
      "name": "setNewAdmin",
      "outputs": [],
      "stateMutability": "nonpayable",
      "type": "function"
    },
    {
      "inputs": [
        {
          "internalType": "uint256",
          "name": "_node",
          "type": "uint256"
        },
        {
          "internalType": "bool",
          "name": "_isOpen",
          "type": "bool"
        }
      ],
      "name": "setNodeInfo",
      "outputs": [],
      "stateMutability": "nonpayable",
      "type": "function"
    },
    {
      "inputs": [
        {
          "internalType": "address",
          "name": "_verify",
          "type": "address"
        }
      ],
      "name": "setVerifyAddr",
      "outputs": [],
      "stateMutability": "nonpayable",
      "type": "function"
    },
    {
      "inputs": [],
      "name": "toSaveBnb",
      "outputs": [],
      "stateMutability": "payable",
      "type": "function"
    },
    {
      "stateMutability": "payable",
      "type": "receive"
    }
  ],
  "bytecode": "0x608060405234801561001057600080fd5b506040516200172638038062001726833981016040819052610031916100ce565b600180546001600160a01b031990811633178255600580546001600160a01b03958616908316179055600082905260066020527f3e5fec24aa4dc4e5aee2e025e51e1392c72a2500577559fae9665c6d52bd6a31805460ff191690921790915560078054821630179055600880549290931691161790556064600a55610101565b80516001600160a01b03811681146100c957600080fd5b919050565b600080604083850312156100e157600080fd5b6100ea836100b2565b91506100f8602084016100b2565b90509250929050565b61161580620001116000396000f3fe60806040526004361061012e5760003560e01c8063704edaad116100ab578063ab7748c81161006f578063ab7748c814610349578063bcb86eea14610351578063d0ebdbe714610371578063ddca3f4314610391578063ebfa7ade146103a7578063f851a440146103ba57610135565b8063704edaad146102be578063718963cd146102de5780638eec99c8146102fe5780638f54be0e1461031e5780639ddd49741461033457610135565b80633ea26384116100f25780633ea2638414610228578063481c6a75146102485780634c3cbeac1461026857806352a90c4214610288578063582b27201461029e57610135565b80630cdd42341461016c57806312065fe0146101a957806314931783146101c65780631c7ba5c1146101e8578063234586711461020857610135565b3661013557005b60405134815233907fa419615bc8fda4c87663805ee2a3597a6d71c1d476911d9892f340d965bc7bf19060200160405180910390a2005b34801561017857600080fd5b5060085461018c906001600160a01b031681565b6040516001600160a01b0390911681526020015b60405180910390f35b3480156101b557600080fd5b50475b6040519081526020016101a0565b3480156101d257600080fd5b506101e66101e136600461121b565b6103da565b005b3480156101f457600080fd5b506101e661020336600461124c565b610493565b34801561021457600080fd5b506101e661022336600461130c565b6106a2565b34801561023457600080fd5b5060025461018c906001600160a01b031681565b34801561025457600080fd5b5060005461018c906001600160a01b031681565b34801561027457600080fd5b506101e6610283366004611357565b6108a9565b34801561029457600080fd5b506101b8600c5481565b3480156102aa57600080fd5b5060075461018c906001600160a01b031681565b3480156102ca57600080fd5b506101e66102d9366004611387565b610974565b3480156102ea57600080fd5b506101e66102f93660046113b5565b610a4d565b34801561030a57600080fd5b506101e661031936600461124c565b610c34565b34801561032a57600080fd5b506101b8600a5481565b34801561034057600080fd5b506101e6610cf4565b6101e6610d59565b34801561035d57600080fd5b506101e661036c36600461124c565b610dba565b34801561037d57600080fd5b506101e661038c36600461124c565b610e87565b34801561039d57600080fd5b506101b860095481565b6101e66103b536600461130c565b610ef9565b3480156103c657600080fd5b5060015461018c906001600160a01b031681565b6040805180820182526006815265436f6e66696760d01b60208201526000549151637dd13a9560e01b815290916001600160a01b031690637dd13a95906104279033908590600401611440565b602060405180830381865afa158015610444573d6000803e3d6000fd5b505050506040513d601f19601f820116820180604052508101906104689190611464565b61048d5760405162461bcd60e51b815260040161048490611481565b60405180910390fd5b50600a55565b604080518082018252600581526420b236b4b760d91b60208201526000549151637dd13a9560e01b815290916001600160a01b031690637dd13a95906104df9033908590600401611440565b602060405180830381865afa1580156104fc573d6000803e3d6000fd5b505050506040513d601f19601f820116820180604052508101906105209190611464565b61053c5760405162461bcd60e51b815260040161048490611481565b6001600160a01b038216610584576040516001600160a01b038316904780156108fc02916000818181858888f1935050505015801561057f573d6000803e3d6000fd5b505050565b6040516370a0823160e01b81523060048201526000906001600160a01b038416906370a0823190602401602060405180830381865afa1580156105cb573d6000803e3d6000fd5b505050506040513d601f19601f820116820180604052508101906105ef91906114a4565b60405163a9059cbb60e01b8152336004820152602481018290529091506001600160a01b0384169063a9059cbb906044016020604051808303816000875af115801561063f573d6000803e3d6000fd5b505050506040513d601f19601f820116820180604052508101906106639190611464565b5060408051338152602081018390527f940b21371a562b5228300b24512d3abc564e456a0deddfb5f32b4fe63b72eb46910160405180910390a1505050565b60055460405163f8d5123b60e01b8152600091829182916001600160a01b03169063f8d5123b906106d79087906004016114bd565b6060604051808303816000875af11580156106f6573d6000803e3d6000fd5b505050506040513d601f19601f8201168201806040525081019061071a91906114d7565b6001600160a01b0383166000908152600b60209081526040808320848452909152902060040154929550909350915060ff1661078d5760405162461bcd60e51b815260206004820152601260248201527175736572206e6f646520697320636c6f736560701b6044820152606401610484565b6001600160a01b0383166000908152600b6020908152604080832084845290915290206002015482106107fa5760405162461bcd60e51b81526020600482015260156024820152743ab9b2b9102130b630b731b29034b99032b93937b960591b6044820152606401610484565b6001600160a01b0383166000818152600b6020908152604080832085845290915280822060028101839055600401805460ff19169055516108fc85150291859190818181858888f19350505050158015610858573d6000803e3d6000fd5b50604080516001600160a01b0385168152602081018490529081018290527ff7579ac8b9a2877f8d366779d77af4a2d9e02ba9dbd487d0d687141676a785a09060600160405180910390a150505050565b6040805180820182526006815265436f6e66696760d01b60208201526000549151637dd13a9560e01b815290916001600160a01b031690637dd13a95906108f69033908590600401611440565b602060405180830381865afa158015610913573d6000803e3d6000fd5b505050506040513d601f19601f820116820180604052508101906109379190611464565b6109535760405162461bcd60e51b815260040161048490611481565b50600091825260066020526040909120805460ff1916911515919091179055565b6040805180820182526006815265436f6e66696760d01b60208201526000549151637dd13a9560e01b815290916001600160a01b031690637dd13a95906109c19033908590600401611440565b602060405180830381865afa1580156109de573d6000803e3d6000fd5b505050506040513d601f19601f82011682018060405250810190610a029190611464565b610a1e5760405162461bcd60e51b815260040161048490611481565b50600780546001600160a01b039384166001600160a01b03199182161790915560088054929093169116179055565b6005546040516342093ccf60e01b81526000918291829182916001600160a01b03909116906342093ccf90610a869089906004016114bd565b6080604051808303816000875af1158015610aa5573d6000803e3d6000fd5b505050506040513d601f19601f82011682018060405250810190610ac9919061150e565b9350935093509350336001600160a01b0316846001600160a01b031614610b275760405162461bcd60e51b81526020600482015260126024820152713ab9b2b91030b2323932b9b99032b93937b960711b6044820152606401610484565b6001600160a01b038216610b71576040516001600160a01b0385169084156108fc029085906000818181858888f19350505050158015610b6b573d6000803e3d6000fd5b50610be4565b60405163a9059cbb60e01b8152336004820152602481018490526001600160a01b0383169063a9059cbb906044016020604051808303816000875af1158015610bbe573d6000803e3d6000fd5b505050506040513d601f19601f82011682018060405250810190610be29190611464565b505b6040805133815260208101859052908101829052606081018690527fc5d0aba04b7cd5dd8a59ed0b989a6adaba9d0674b4783192e5904d65bc15d66f9060800160405180910390a1505050505050565b6001546001600160a01b03163314610c845760405162461bcd60e51b8152602060048201526013602482015272636f6e7472616374206f776e6572206f6e6c7960681b6044820152606401610484565b6001546001600160a01b03163314610cd25760405162461bcd60e51b81526020600482015260116024820152703cb7ba9030b932903737ba1030b236b4b760791b6044820152606401610484565b600280546001600160a01b0319166001600160a01b0392909216919091179055565b6002546001600160a01b03163314610d455760405162461bcd60e51b81526020600482015260146024820152733cb7ba9030b932903737ba103732bba0b236b4b760611b6044820152606401610484565b600180546001600160a01b03191633179055565b6007546040516001600160a01b03909116903480156108fc02916000818181858888f19350505050158015610d92573d6000803e3d6000fd5b50600754306001600160a01b0390911603610db857600c54610db490346111b3565b600c555b565b6040805180820182526006815265436f6e66696760d01b60208201526000549151637dd13a9560e01b815290916001600160a01b031690637dd13a9590610e079033908590600401611440565b602060405180830381865afa158015610e24573d6000803e3d6000fd5b505050506040513d601f19601f82011682018060405250810190610e489190611464565b610e645760405162461bcd60e51b815260040161048490611481565b50600580546001600160a01b0319166001600160a01b0392909216919091179055565b6001546001600160a01b03163314610ed75760405162461bcd60e51b8152602060048201526013602482015272636f6e7472616374206f776e6572206f6e6c7960681b6044820152606401610484565b600080546001600160a01b0319166001600160a01b0392909216919091179055565b600554604051634c0f0abb60e01b81526000918291829182916001600160a01b0390911690634c0f0abb90610f329088906004016114bd565b6080604051808303816000875af1158015610f51573d6000803e3d6000fd5b505050506040513d601f19601f82011682018060405250810190610f759190611557565b9350935093509350600a5443610f8b91906115b9565b6001600160a01b0385166000908152600b6020908152604080832086845290915290206003015411156110005760405162461bcd60e51b815260206004820152601860248201527f596f75206861766520707572636861736564206e6f64657300000000000000006044820152606401610484565b6001600160a01b03811615611094576008546040516323b872dd60e01b81526001600160a01b038681166004830152918216602482015260448101859052908216906323b872dd906064016020604051808303816000875af115801561106a573d6000803e3d6000fd5b505050506040513d601f19601f8201168201806040525081019061108e9190611464565b506110dd565b823410156110a157600080fd5b6008546040516001600160a01b039091169084156108fc029085906000818181858888f193505050501580156110db573d6000803e3d6000fd5b505b6040805160a0810182526001600160a01b03868116808352602080840187815284860189815243606080880191825260016080808a018281526000988952600b88528b89208e8a528852978b902099518a546001600160a01b031916908a16178a559451908901559151600288015551600387015592516004909501805460ff1916951515959095179094558451338152908101889052938401869052908416908301527f3c0df247152863416acc3fe8044954afd7b78057bf6ce0decc3cea9637dea6c3910160405180910390a15050505050565b6000806111c083856115cc565b9050838110156112125760405162461bcd60e51b815260206004820152601b60248201527f536166654d6174683a206164646974696f6e206f766572666c6f7700000000006044820152606401610484565b90505b92915050565b60006020828403121561122d57600080fd5b5035919050565b6001600160a01b038116811461124957600080fd5b50565b60006020828403121561125e57600080fd5b813561121281611234565b634e487b7160e01b600052604160045260246000fd5b600082601f83011261129057600080fd5b813567ffffffffffffffff808211156112ab576112ab611269565b604051601f8301601f19908116603f011681019082821181831017156112d3576112d3611269565b816040528381528660208588010111156112ec57600080fd5b836020870160208301376000602085830101528094505050505092915050565b60006020828403121561131e57600080fd5b813567ffffffffffffffff81111561133557600080fd5b6113418482850161127f565b949350505050565b801515811461124957600080fd5b6000806040838503121561136a57600080fd5b82359150602083013561137c81611349565b809150509250929050565b6000806040838503121561139a57600080fd5b82356113a581611234565b9150602083013561137c81611234565b600080604083850312156113c857600080fd5b823567ffffffffffffffff8111156113df57600080fd5b6113eb8582860161127f565b95602094909401359450505050565b6000815180845260005b8181101561142057602081850181015186830182015201611404565b506000602082860101526020601f19601f83011685010191505092915050565b6001600160a01b0383168152604060208201819052600090611341908301846113fa565b60006020828403121561147657600080fd5b815161121281611349565b6020808252600990820152681b9bc81c195c9b5a5d60ba1b604082015260600190565b6000602082840312156114b657600080fd5b5051919050565b6020815260006114d060208301846113fa565b9392505050565b6000806000606084860312156114ec57600080fd5b83516114f781611234565b602085015160409095015190969495509392505050565b6000806000806080858703121561152457600080fd5b845161152f81611234565b60208601516040870151919550935061154781611234565b6060959095015193969295505050565b6000806000806080858703121561156d57600080fd5b845161157881611234565b809450506020850151925060408501519150606085015161159881611234565b939692955090935050565b634e487b7160e01b600052601160045260246000fd5b81810381811115611215576112156115a3565b80820180821115611215576112156115a356fea2646970667358221220a764607017421fcc8ef9bd5da8b7bce424bdb6ebf9c3f1b6f322b2f801a1300464736f6c63430008110033",
  "linkReferences": {},
  "deployedLinkReferences": {}
}