{
  "_format": "hh-sol-artifact-1",
  "contractName": "Liquidity",
  "sourceName": "contracts/Liquidity.sol",
  "abi": [
    {
      "inputs": [
        {
          "internalType": "address",
          "name": "_routerAdd",
          "type": "address"
        },
        {
          "internalType": "address",
          "name": "_SBLTokenAdd",
          "type": "address"
        }
      ],
      "stateMutability": "nonpayable",
      "type": "constructor"
    },
    {
      "anonymous": false,
      "inputs": [
        {
          "indexed": true,
          "internalType": "address",
          "name": "caller",
          "type": "address"
        },
        {
          "indexed": false,
          "internalType": "uint256",
          "name": "typeNum",
          "type": "uint256"
        },
        {
          "indexed": false,
          "internalType": "uint256",
          "name": "times",
          "type": "uint256"
        },
        {
          "indexed": false,
          "internalType": "uint256",
          "name": "lpTokenAmount",
          "type": "uint256"
        }
      ],
      "name": "AddLiquidity",
      "type": "event"
    },
    {
      "anonymous": false,
      "inputs": [
        {
          "indexed": true,
          "internalType": "address",
          "name": "caller",
          "type": "address"
        },
        {
          "indexed": false,
          "internalType": "uint256",
          "name": "typeNum",
          "type": "uint256"
        },
        {
          "indexed": false,
          "internalType": "uint256",
          "name": "times",
          "type": "uint256"
        },
        {
          "indexed": false,
          "internalType": "uint256",
          "name": "lpTokenAmount",
          "type": "uint256"
        }
      ],
      "name": "RemoveLiquidity",
      "type": "event"
    },
    {
      "anonymous": false,
      "inputs": [
        {
          "indexed": true,
          "internalType": "bytes32",
          "name": "role",
          "type": "bytes32"
        },
        {
          "indexed": true,
          "internalType": "bytes32",
          "name": "previousAdminRole",
          "type": "bytes32"
        },
        {
          "indexed": true,
          "internalType": "bytes32",
          "name": "newAdminRole",
          "type": "bytes32"
        }
      ],
      "name": "RoleAdminChanged",
      "type": "event"
    },
    {
      "anonymous": false,
      "inputs": [
        {
          "indexed": true,
          "internalType": "bytes32",
          "name": "role",
          "type": "bytes32"
        },
        {
          "indexed": true,
          "internalType": "address",
          "name": "account",
          "type": "address"
        },
        {
          "indexed": true,
          "internalType": "address",
          "name": "sender",
          "type": "address"
        }
      ],
      "name": "RoleGranted",
      "type": "event"
    },
    {
      "anonymous": false,
      "inputs": [
        {
          "indexed": true,
          "internalType": "bytes32",
          "name": "role",
          "type": "bytes32"
        },
        {
          "indexed": true,
          "internalType": "address",
          "name": "account",
          "type": "address"
        },
        {
          "indexed": true,
          "internalType": "address",
          "name": "sender",
          "type": "address"
        }
      ],
      "name": "RoleRevoked",
      "type": "event"
    },
    {
      "inputs": [],
      "name": "DEFAULT_ADMIN_ROLE",
      "outputs": [
        {
          "internalType": "bytes32",
          "name": "",
          "type": "bytes32"
        }
      ],
      "stateMutability": "view",
      "type": "function"
    },
    {
      "inputs": [],
      "name": "MANAGE_ROLE",
      "outputs": [
        {
          "internalType": "bytes32",
          "name": "",
          "type": "bytes32"
        }
      ],
      "stateMutability": "view",
      "type": "function"
    },
    {
      "inputs": [],
      "name": "SBLTokenAdd",
      "outputs": [
        {
          "internalType": "address",
          "name": "",
          "type": "address"
        }
      ],
      "stateMutability": "view",
      "type": "function"
    },
    {
      "inputs": [
        {
          "internalType": "uint256",
          "name": "typeNum",
          "type": "uint256"
        }
      ],
      "name": "addLiquidity",
      "outputs": [],
      "stateMutability": "payable",
      "type": "function"
    },
    {
      "inputs": [
        {
          "internalType": "uint256",
          "name": "",
          "type": "uint256"
        },
        {
          "internalType": "address",
          "name": "",
          "type": "address"
        }
      ],
      "name": "addLiquidityTimes",
      "outputs": [
        {
          "internalType": "uint256",
          "name": "",
          "type": "uint256"
        }
      ],
      "stateMutability": "view",
      "type": "function"
    },
    {
      "inputs": [
        {
          "internalType": "address",
          "name": "token",
          "type": "address"
        }
      ],
      "name": "balance",
      "outputs": [
        {
          "internalType": "uint256",
          "name": "",
          "type": "uint256"
        }
      ],
      "stateMutability": "view",
      "type": "function"
    },
    {
      "inputs": [
        {
          "internalType": "bytes32",
          "name": "role",
          "type": "bytes32"
        }
      ],
      "name": "getRoleAdmin",
      "outputs": [
        {
          "internalType": "bytes32",
          "name": "",
          "type": "bytes32"
        }
      ],
      "stateMutability": "view",
      "type": "function"
    },
    {
      "inputs": [
        {
          "internalType": "bytes32",
          "name": "role",
          "type": "bytes32"
        },
        {
          "internalType": "address",
          "name": "account",
          "type": "address"
        }
      ],
      "name": "grantRole",
      "outputs": [],
      "stateMutability": "nonpayable",
      "type": "function"
    },
    {
      "inputs": [
        {
          "internalType": "bytes32",
          "name": "role",
          "type": "bytes32"
        },
        {
          "internalType": "address",
          "name": "account",
          "type": "address"
        }
      ],
      "name": "hasRole",
      "outputs": [
        {
          "internalType": "bool",
          "name": "",
          "type": "bool"
        }
      ],
      "stateMutability": "view",
      "type": "function"
    },
    {
      "inputs": [
        {
          "internalType": "uint256",
          "name": "",
          "type": "uint256"
        },
        {
          "internalType": "address",
          "name": "",
          "type": "address"
        },
        {
          "internalType": "uint256",
          "name": "",
          "type": "uint256"
        }
      ],
      "name": "lpAmount",
      "outputs": [
        {
          "internalType": "uint256",
          "name": "",
          "type": "uint256"
        }
      ],
      "stateMutability": "view",
      "type": "function"
    },
    {
      "inputs": [],
      "name": "pairAdd",
      "outputs": [
        {
          "internalType": "address",
          "name": "",
          "type": "address"
        }
      ],
      "stateMutability": "view",
      "type": "function"
    },
    {
      "inputs": [
        {
          "internalType": "uint256",
          "name": "amountIn",
          "type": "uint256"
        }
      ],
      "name": "queryAmountOut",
      "outputs": [
        {
          "internalType": "uint256",
          "name": "",
          "type": "uint256"
        }
      ],
      "stateMutability": "view",
      "type": "function"
    },
    {
      "inputs": [
        {
          "internalType": "uint256",
          "name": "typeNum",
          "type": "uint256"
        },
        {
          "internalType": "uint256",
          "name": "times",
          "type": "uint256"
        }
      ],
      "name": "removeLiquidity",
      "outputs": [],
      "stateMutability": "nonpayable",
      "type": "function"
    },
    {
      "inputs": [
        {
          "internalType": "bytes32",
          "name": "role",
          "type": "bytes32"
        },
        {
          "internalType": "address",
          "name": "account",
          "type": "address"
        }
      ],
      "name": "renounceRole",
      "outputs": [],
      "stateMutability": "nonpayable",
      "type": "function"
    },
    {
      "inputs": [
        {
          "internalType": "bytes32",
          "name": "role",
          "type": "bytes32"
        },
        {
          "internalType": "address",
          "name": "account",
          "type": "address"
        }
      ],
      "name": "revokeRole",
      "outputs": [],
      "stateMutability": "nonpayable",
      "type": "function"
    },
    {
      "inputs": [],
      "name": "routerAdd",
      "outputs": [
        {
          "internalType": "address",
          "name": "",
          "type": "address"
        }
      ],
      "stateMutability": "view",
      "type": "function"
    },
    {
      "inputs": [
        {
          "internalType": "bytes4",
          "name": "interfaceId",
          "type": "bytes4"
        }
      ],
      "name": "supportsInterface",
      "outputs": [
        {
          "internalType": "bool",
          "name": "",
          "type": "bool"
        }
      ],
      "stateMutability": "view",
      "type": "function"
    },
    {
      "inputs": [
        {
          "internalType": "uint256",
          "name": "",
          "type": "uint256"
        }
      ],
      "name": "typeValue",
      "outputs": [
        {
          "internalType": "uint256",
          "name": "",
          "type": "uint256"
        }
      ],
      "stateMutability": "view",
      "type": "function"
    },
    {
      "inputs": [
        {
          "internalType": "address",
          "name": "_SBLTokenAdd",
          "type": "address"
        }
      ],
      "name": "updateSBLTokenAdd",
      "outputs": [],
      "stateMutability": "nonpayable",
      "type": "function"
    },
    {
      "inputs": [
        {
          "internalType": "uint256",
          "name": "typeNum",
          "type": "uint256"
        },
        {
          "internalType": "uint256",
          "name": "value",
          "type": "uint256"
        }
      ],
      "name": "updateTypeValue",
      "outputs": [],
      "stateMutability": "nonpayable",
      "type": "function"
    },
    {
      "stateMutability": "payable",
      "type": "receive"
    }
  ],
  "bytecode": "0x60806040523480156200001157600080fd5b5060405162001a1838038062001a188339810160408190526200003491620003bc565b600180556002602090815267058d15e1762800007fe90b7bceb6e7df5418fb78d8ee546e97c83a08bbccc01a0644d599ccd2a7c2e055670de0b6b3a76400007f679795a0195a1b76cdebb7c51d74e058aee92919b8c3389af86ef24535e8a28c55671bc16d674ec800007f88601476d11616a71c5be67555bd1dff4b1cbf21533d2669b768b61518cfe1c355674563918244f400007fee60d0579bcffd98e668647d59fec1ff86a7fb340ce572e844f234ae73a6918f556005600081815267de0b6b3a764000007fb98b78633099fa36ed8b8680c4f8092689e1e04080eb9cbb077ca38a14d7e3845581546001600160a01b038087166001600160a01b0319928316811790945560068054918716919092161790556040805163c45a015560e01b81529051869492939263c45a015592600481810193918290030181865afa15801562000185573d6000803e3d6000fd5b505050506040513d601f19601f82011682018060405250810190620001ab9190620003f4565b9050806001600160a01b031663e6a4390584846001600160a01b031663ad5c46486040518163ffffffff1660e01b8152600401602060405180830381865afa158015620001fc573d6000803e3d6000fd5b505050506040513d601f19601f82011682018060405250810190620002229190620003f4565b6040516001600160e01b031960e085901b1681526001600160a01b03928316600482015291166024820152604401602060405180830381865afa1580156200026e573d6000803e3d6000fd5b505050506040513d601f19601f82011682018060405250810190620002949190620003f4565b600780546001600160a01b0319166001600160a01b0392909216919091179055620002c86000620002c23390565b620002fe565b620002f47fa076a07f65bcd51bcb15a0f01a65bc18f2d922acb81bcfd8af4caf5adb55709133620002fe565b5050505062000419565b6000828152602081815260408083206001600160a01b038516845290915290205460ff166200039b576000828152602081815260408083206001600160a01b03851684529091529020805460ff191660011790556200035a3390565b6001600160a01b0316816001600160a01b0316837f2f8788117e7eff1d82e926ec794901d17c78024a50270940304540a733656f0d60405160405180910390a45b5050565b80516001600160a01b0381168114620003b757600080fd5b919050565b60008060408385031215620003d057600080fd5b620003db836200039f565b9150620003eb602084016200039f565b90509250929050565b6000602082840312156200040757600080fd5b62000412826200039f565b9392505050565b6115ef80620004296000396000f3fe6080604052600436106101235760003560e01c80639006b744116100a0578063a79260d211610064578063a79260d21461038e578063ae5ade83146103ae578063d547741f146103ce578063dbb4349f146103ee578063e3d670d71461041b57600080fd5b80639006b744146102e157806391d14854146103195780639d7de6b314610339578063a217fddf14610359578063a29dddcd1461036e57600080fd5b806332eb4b17116100e757806332eb4b171461021c57806336568abe1461023c5780633d81df901461025c57806351c6590a1461029a57806360a4b76a146102ad57600080fd5b806301ffc9a71461012f578063107328961461016457806316c5358d14610192578063248a9ca3146101ca5780632f2ff15d146101fa57600080fd5b3661012a57005b600080fd5b34801561013b57600080fd5b5061014f61014a366004611169565b61043b565b60405190151581526020015b60405180910390f35b34801561017057600080fd5b5061018461017f366004611193565b610472565b60405190815260200161015b565b34801561019e57600080fd5b506101846101ad3660046111c1565b600360209081526000928352604080842090915290825290205481565b3480156101d657600080fd5b506101846101e5366004611193565b60009081526020819052604090206001015490565b34801561020657600080fd5b5061021a6102153660046111c1565b61064b565b005b34801561022857600080fd5b5061021a6102373660046111f1565b610675565b34801561024857600080fd5b5061021a6102573660046111c1565b6106b2565b34801561026857600080fd5b50610184610277366004611213565b600460209081526000938452604080852082529284528284209052825290205481565b61021a6102a8366004611193565b610730565b3480156102b957600080fd5b506101847fa076a07f65bcd51bcb15a0f01a65bc18f2d922acb81bcfd8af4caf5adb55709181565b3480156102ed57600080fd5b50600654610301906001600160a01b031681565b6040516001600160a01b03909116815260200161015b565b34801561032557600080fd5b5061014f6103343660046111c1565b610aa5565b34801561034557600080fd5b5061021a6103543660046111f1565b610ace565b34801561036557600080fd5b50610184600081565b34801561037a57600080fd5b50600754610301906001600160a01b031681565b34801561039a57600080fd5b5061021a6103a936600461124b565b610cc3565b3480156103ba57600080fd5b50600554610301906001600160a01b031681565b3480156103da57600080fd5b5061021a6103e93660046111c1565b610d5f565b3480156103fa57600080fd5b50610184610409366004611193565b60026020526000908152604090205481565b34801561042757600080fd5b5061018461043636600461124b565b610d84565b60006001600160e01b03198216637965db0b60e01b148061046c57506301ffc9a760e01b6001600160e01b03198316145b92915050565b6005546040805160028082526060820183526000936001600160a01b03169284929190602083019080368337019050509050816001600160a01b031663ad5c46486040518163ffffffff1660e01b8152600401602060405180830381865afa1580156104e2573d6000803e3d6000fd5b505050506040513d601f19601f82011682018060405250810190610506919061127e565b816000815181106105195761051961129b565b6001600160a01b03928316602091820292909201015260065482519116908290600190811061054a5761054a61129b565b6001600160a01b03928316602091820292909201015260405163d06ca61f60e01b815260009184169063d06ca61f9061058990889086906004016112b1565b600060405180830381865afa1580156105a6573d6000803e3d6000fd5b505050506040513d6000823e601f3d908101601f191682016040526105ce9190810190611308565b905060018151116106265760405162461bcd60e51b815260206004820152601e60248201527f4275726e46756e643a204745545f414d4f554e545f4f55545f4552524f52000060448201526064015b60405180910390fd5b806001815181106106395761063961129b565b60200260200101519350505050919050565b60008281526020819052604090206001015461066681610e03565b6106708383610e0d565b505050565b7fa076a07f65bcd51bcb15a0f01a65bc18f2d922acb81bcfd8af4caf5adb55709161069f81610e03565b5060009182526002602052604090912055565b6001600160a01b03811633146107225760405162461bcd60e51b815260206004820152602f60248201527f416363657373436f6e74726f6c3a2063616e206f6e6c792072656e6f756e636560448201526e103937b632b9903337b91039b2b63360891b606482015260840161061d565b61072c8282610e91565b5050565b610738610ef6565b6001811015801561074a575060058111155b6107965760405162461bcd60e51b815260206004820152601b60248201527f4c69717569646974793a20545950455f56414c55455f4552524f520000000000604482015260640161061d565b6000818152600260205260409020543410156107f45760405162461bcd60e51b815260206004820152601b60248201527f4c69717569646974793a20424e425f494e53554646494349454e540000000000604482015260640161061d565b60008181526002602052604081205461080c90610472565b6006546040516323b872dd60e01b8152336004820152306024820152604481018390529192506001600160a01b0316906323b872dd906064016020604051808303816000875af1158015610864573d6000803e3d6000fd5b505050506040513d601f19601f8201168201806040525081019061088891906113c6565b506007546000906108a1906001600160a01b0316610d84565b60065460055460405163095ea7b360e01b81526001600160a01b03918216600482015260248101869052929350169063095ea7b3906044016020604051808303816000875af11580156108f8573d6000803e3d6000fd5b505050506040513d601f19601f8201168201806040525081019061091c91906113c6565b506005546000848152600260205260408120546006546001600160a01b0393841693849363f305d7199392909116908790803061095b426117706113fe565b6040518863ffffffff1660e01b815260040161097c96959493929190611411565b60606040518083038185885af115801561099a573d6000803e3d6000fd5b50505050506040513d601f19601f820116820180604052508101906109bf919061144c565b5050600754600091506109da906001600160a01b0316610d84565b905060006109e88285610f4f565b60008781526003602090815260408083203384529091528120805492935090610a108361147a565b90915550506000868152600460209081526040808320338085529083528184208a8552600384528285208286528085528386208054875291855283862087905594829052938352925481518a81529283015281018390527fbeb3885786d637a474cbc287c0a44587231633a077f0bd30354d5a4b18996fce9060600160405180910390a25050505050610aa260018055565b50565b6000918252602082815260408084206001600160a01b0393909316845291905290205460ff1690565b610ad6610ef6565b60008281526004602090815260408083203384528252808320848452909152902054610b445760405162461bcd60e51b815260206004820152601f60248201527f4c69717569646974793a205a45524f5f4c505f544f4b454e5f414d4f554e5400604482015260640161061d565b600082815260046020818152604080842033855282528084208585529091529182902054600754600554935163095ea7b360e01b81526001600160a01b0394851693810193909352602483018290529092169063095ea7b3906044016020604051808303816000875af1158015610bbf573d6000803e3d6000fd5b505050506040513d601f19601f82011682018060405250810190610be391906113c6565b506005546006546001600160a01b0391821691829163af2979eb91168460008033610c10426117706113fe565b6040518763ffffffff1660e01b8152600401610c3196959493929190611411565b6020604051808303816000875af1158015610c50573d6000803e3d6000fd5b505050506040513d601f19601f82011682018060405250810190610c749190611493565b50604080518581526020810185905290810183905233907f59c3a0b60c6ab7deb62e1440c9e72441db6db7dfe514dba8cb18e60c0d896efa9060600160405180910390a2505061072c60018055565b7fa076a07f65bcd51bcb15a0f01a65bc18f2d922acb81bcfd8af4caf5adb557091610ced81610e03565b6001600160a01b038216610d3c5760405162461bcd60e51b81526020600482015260166024820152754275726e46756e643a205a45524f5f4144445245535360501b604482015260640161061d565b50600680546001600160a01b0319166001600160a01b0392909216919091179055565b600082815260208190526040902060010154610d7a81610e03565b6106708383610e91565b60006001600160a01b038216610d9b575047919050565b6040516370a0823160e01b81523060048201526001600160a01b038316906370a0823190602401602060405180830381865afa158015610ddf573d6000803e3d6000fd5b505050506040513d601f19601f8201168201806040525081019061046c9190611493565b610aa28133610f62565b610e178282610aa5565b61072c576000828152602081815260408083206001600160a01b03851684529091529020805460ff19166001179055610e4d3390565b6001600160a01b0316816001600160a01b0316837f2f8788117e7eff1d82e926ec794901d17c78024a50270940304540a733656f0d60405160405180910390a45050565b610e9b8282610aa5565b1561072c576000828152602081815260408083206001600160a01b0385168085529252808320805460ff1916905551339285917ff6391f5c32d9c69d2a47ea670b442974b53935d1edc7fd64eb21e047a839171b9190a45050565b600260015403610f485760405162461bcd60e51b815260206004820152601f60248201527f5265656e7472616e637947756172643a207265656e7472616e742063616c6c00604482015260640161061d565b6002600155565b6000610f5b82846114ac565b9392505050565b610f6c8282610aa5565b61072c57610f7981610fbb565b610f84836020610fcd565b604051602001610f959291906114e3565b60408051601f198184030181529082905262461bcd60e51b825261061d91600401611558565b606061046c6001600160a01b03831660145b60606000610fdc83600261158b565b610fe79060026113fe565b67ffffffffffffffff811115610fff57610fff611268565b6040519080825280601f01601f191660200182016040528015611029576020820181803683370190505b509050600360fc1b816000815181106110445761104461129b565b60200101906001600160f81b031916908160001a905350600f60fb1b816001815181106110735761107361129b565b60200101906001600160f81b031916908160001a905350600061109784600261158b565b6110a29060016113fe565b90505b600181111561111a576f181899199a1a9b1b9c1cb0b131b232b360811b85600f16601081106110d6576110d661129b565b1a60f81b8282815181106110ec576110ec61129b565b60200101906001600160f81b031916908160001a90535060049490941c93611113816115a2565b90506110a5565b508315610f5b5760405162461bcd60e51b815260206004820181905260248201527f537472696e67733a20686578206c656e67746820696e73756666696369656e74604482015260640161061d565b60006020828403121561117b57600080fd5b81356001600160e01b031981168114610f5b57600080fd5b6000602082840312156111a557600080fd5b5035919050565b6001600160a01b0381168114610aa257600080fd5b600080604083850312156111d457600080fd5b8235915060208301356111e6816111ac565b809150509250929050565b6000806040838503121561120457600080fd5b50508035926020909101359150565b60008060006060848603121561122857600080fd5b83359250602084013561123a816111ac565b929592945050506040919091013590565b60006020828403121561125d57600080fd5b8135610f5b816111ac565b634e487b7160e01b600052604160045260246000fd5b60006020828403121561129057600080fd5b8151610f5b816111ac565b634e487b7160e01b600052603260045260246000fd5b6000604082018483526020604081850152818551808452606086019150828701935060005b818110156112fb5784516001600160a01b0316835293830193918301916001016112d6565b5090979650505050505050565b6000602080838503121561131b57600080fd5b825167ffffffffffffffff8082111561133357600080fd5b818501915085601f83011261134757600080fd5b81518181111561135957611359611268565b8060051b604051601f19603f8301168101818110858211171561137e5761137e611268565b60405291825284820192508381018501918883111561139c57600080fd5b938501935b828510156113ba578451845293850193928501926113a1565b98975050505050505050565b6000602082840312156113d857600080fd5b81518015158114610f5b57600080fd5b634e487b7160e01b600052601160045260246000fd5b8082018082111561046c5761046c6113e8565b6001600160a01b039687168152602081019590955260408501939093526060840191909152909216608082015260a081019190915260c00190565b60008060006060848603121561146157600080fd5b8351925060208401519150604084015190509250925092565b60006001820161148c5761148c6113e8565b5060010190565b6000602082840312156114a557600080fd5b5051919050565b8181038181111561046c5761046c6113e8565b60005b838110156114da5781810151838201526020016114c2565b50506000910152565b7f416363657373436f6e74726f6c3a206163636f756e742000000000000000000081526000835161151b8160178501602088016114bf565b7001034b99036b4b9b9b4b733903937b6329607d1b601791840191820152835161154c8160288401602088016114bf565b01602801949350505050565b60208152600082518060208401526115778160408501602087016114bf565b601f01601f19169190910160400192915050565b808202811582820484141761046c5761046c6113e8565b6000816115b1576115b16113e8565b50600019019056fea2646970667358221220eb855a5303dfb6d96e1f7560fb81fafd63a0c1c413c5878922d5e2be4b56b0fb64736f6c63430008110033",
  "linkReferences": {},
  "deployedLinkReferences": {}
}