{
  "_format": "hh-sol-artifact-1",
  "contractName": "BlindBox",
  "sourceName": "contracts/BlindBox.sol",
  "abi": [
    {
      "inputs": [
        {
          "internalType": "address",
          "name": "_invitationAdd",
          "type": "address"
        },
        {
          "internalType": "address",
          "name": "_manageAdd",
          "type": "address"
        },
        {
          "internalType": "address",
          "name": "_LandDividentAdd",
          "type": "address"
        },
        {
          "internalType": "address",
          "name": "_nodeDividentAdd",
          "type": "address"
        },
        {
          "internalType": "address",
          "name": "_MBASAdd",
          "type": "address"
        },
        {
          "internalType": "address",
          "name": "_router",
          "type": "address"
        },
        {
          "internalType": "address",
          "name": "_badgeNFTAdd",
          "type": "address"
        },
        {
          "internalType": "address",
          "name": "_landNFTAdd",
          "type": "address"
        }
      ],
      "stateMutability": "nonpayable",
      "type": "constructor"
    },
    {
      "anonymous": false,
      "inputs": [
        {
          "indexed": false,
          "internalType": "address",
          "name": "caller",
          "type": "address"
        },
        {
          "indexed": false,
          "internalType": "uint256",
          "name": "payAmount",
          "type": "uint256"
        },
        {
          "indexed": false,
          "internalType": "uint256",
          "name": "invitataionAmount",
          "type": "uint256"
        },
        {
          "indexed": false,
          "internalType": "uint256",
          "name": "rewardBnbAmount",
          "type": "uint256"
        },
        {
          "indexed": false,
          "internalType": "uint256",
          "name": "landAndNodeBnbAmount",
          "type": "uint256"
        },
        {
          "indexed": false,
          "internalType": "uint256",
          "name": "manageBnbAmount",
          "type": "uint256"
        },
        {
          "indexed": false,
          "internalType": "uint256",
          "name": "boxType",
          "type": "uint256"
        },
        {
          "indexed": false,
          "internalType": "uint256",
          "name": "amount",
          "type": "uint256"
        }
      ],
      "name": "OpenBox",
      "type": "event"
    },
    {
      "anonymous": false,
      "inputs": [
        {
          "indexed": true,
          "internalType": "bytes32",
          "name": "role",
          "type": "bytes32"
        },
        {
          "indexed": true,
          "internalType": "bytes32",
          "name": "previousAdminRole",
          "type": "bytes32"
        },
        {
          "indexed": true,
          "internalType": "bytes32",
          "name": "newAdminRole",
          "type": "bytes32"
        }
      ],
      "name": "RoleAdminChanged",
      "type": "event"
    },
    {
      "anonymous": false,
      "inputs": [
        {
          "indexed": true,
          "internalType": "bytes32",
          "name": "role",
          "type": "bytes32"
        },
        {
          "indexed": true,
          "internalType": "address",
          "name": "account",
          "type": "address"
        },
        {
          "indexed": true,
          "internalType": "address",
          "name": "sender",
          "type": "address"
        }
      ],
      "name": "RoleGranted",
      "type": "event"
    },
    {
      "anonymous": false,
      "inputs": [
        {
          "indexed": true,
          "internalType": "bytes32",
          "name": "role",
          "type": "bytes32"
        },
        {
          "indexed": true,
          "internalType": "address",
          "name": "account",
          "type": "address"
        },
        {
          "indexed": true,
          "internalType": "address",
          "name": "sender",
          "type": "address"
        }
      ],
      "name": "RoleRevoked",
      "type": "event"
    },
    {
      "anonymous": false,
      "inputs": [
        {
          "indexed": false,
          "internalType": "address",
          "name": "caller",
          "type": "address"
        },
        {
          "indexed": false,
          "internalType": "uint256",
          "name": "bnbAmount",
          "type": "uint256"
        },
        {
          "indexed": false,
          "internalType": "uint256",
          "name": "amountToLand",
          "type": "uint256"
        },
        {
          "indexed": false,
          "internalType": "uint256",
          "name": "amountToNode",
          "type": "uint256"
        }
      ],
      "name": "SwapBNBToMBAS",
      "type": "event"
    },
    {
      "inputs": [],
      "name": "DEFAULT_ADMIN_ROLE",
      "outputs": [
        {
          "internalType": "bytes32",
          "name": "",
          "type": "bytes32"
        }
      ],
      "stateMutability": "view",
      "type": "function"
    },
    {
      "inputs": [],
      "name": "DOMAIN_SEPARATOR",
      "outputs": [
        {
          "internalType": "bytes32",
          "name": "",
          "type": "bytes32"
        }
      ],
      "stateMutability": "view",
      "type": "function"
    },
    {
      "inputs": [],
      "name": "MANAGE_ROLE",
      "outputs": [
        {
          "internalType": "bytes32",
          "name": "",
          "type": "bytes32"
        }
      ],
      "stateMutability": "view",
      "type": "function"
    },
    {
      "inputs": [],
      "name": "MBASAdd",
      "outputs": [
        {
          "internalType": "address",
          "name": "",
          "type": "address"
        }
      ],
      "stateMutability": "view",
      "type": "function"
    },
    {
      "inputs": [],
      "name": "badgeNFTAdd",
      "outputs": [
        {
          "internalType": "address",
          "name": "",
          "type": "address"
        }
      ],
      "stateMutability": "view",
      "type": "function"
    },
    {
      "inputs": [],
      "name": "blindBoxRatio",
      "outputs": [
        {
          "internalType": "uint256",
          "name": "",
          "type": "uint256"
        }
      ],
      "stateMutability": "view",
      "type": "function"
    },
    {
      "inputs": [],
      "name": "destroyRatio",
      "outputs": [
        {
          "internalType": "uint256",
          "name": "",
          "type": "uint256"
        }
      ],
      "stateMutability": "view",
      "type": "function"
    },
    {
      "inputs": [
        {
          "internalType": "bytes32",
          "name": "role",
          "type": "bytes32"
        }
      ],
      "name": "getRoleAdmin",
      "outputs": [
        {
          "internalType": "bytes32",
          "name": "",
          "type": "bytes32"
        }
      ],
      "stateMutability": "view",
      "type": "function"
    },
    {
      "inputs": [
        {
          "internalType": "bytes32",
          "name": "role",
          "type": "bytes32"
        },
        {
          "internalType": "address",
          "name": "account",
          "type": "address"
        }
      ],
      "name": "grantRole",
      "outputs": [],
      "stateMutability": "nonpayable",
      "type": "function"
    },
    {
      "inputs": [
        {
          "internalType": "bytes32",
          "name": "role",
          "type": "bytes32"
        },
        {
          "internalType": "address",
          "name": "account",
          "type": "address"
        }
      ],
      "name": "hasRole",
      "outputs": [
        {
          "internalType": "bool",
          "name": "",
          "type": "bool"
        }
      ],
      "stateMutability": "view",
      "type": "function"
    },
    {
      "inputs": [],
      "name": "invitationAdd",
      "outputs": [
        {
          "internalType": "address",
          "name": "",
          "type": "address"
        }
      ],
      "stateMutability": "view",
      "type": "function"
    },
    {
      "inputs": [],
      "name": "invitationRatio",
      "outputs": [
        {
          "internalType": "uint256",
          "name": "",
          "type": "uint256"
        }
      ],
      "stateMutability": "view",
      "type": "function"
    },
    {
      "inputs": [],
      "name": "landAndNodeBnbAmount",
      "outputs": [
        {
          "internalType": "uint256",
          "name": "",
          "type": "uint256"
        }
      ],
      "stateMutability": "view",
      "type": "function"
    },
    {
      "inputs": [],
      "name": "landAndNodeRatio",
      "outputs": [
        {
          "internalType": "uint256",
          "name": "",
          "type": "uint256"
        }
      ],
      "stateMutability": "view",
      "type": "function"
    },
    {
      "inputs": [],
      "name": "landDividentAdd",
      "outputs": [
        {
          "internalType": "address",
          "name": "",
          "type": "address"
        }
      ],
      "stateMutability": "view",
      "type": "function"
    },
    {
      "inputs": [],
      "name": "landDividentRatio",
      "outputs": [
        {
          "internalType": "uint256",
          "name": "",
          "type": "uint256"
        }
      ],
      "stateMutability": "view",
      "type": "function"
    },
    {
      "inputs": [],
      "name": "landNFTAdd",
      "outputs": [
        {
          "internalType": "address",
          "name": "",
          "type": "address"
        }
      ],
      "stateMutability": "view",
      "type": "function"
    },
    {
      "inputs": [],
      "name": "manageAdd",
      "outputs": [
        {
          "internalType": "address",
          "name": "",
          "type": "address"
        }
      ],
      "stateMutability": "view",
      "type": "function"
    },
    {
      "inputs": [],
      "name": "manageAddRatio",
      "outputs": [
        {
          "internalType": "uint256",
          "name": "",
          "type": "uint256"
        }
      ],
      "stateMutability": "view",
      "type": "function"
    },
    {
      "inputs": [],
      "name": "nodeDividentAdd",
      "outputs": [
        {
          "internalType": "address",
          "name": "",
          "type": "address"
        }
      ],
      "stateMutability": "view",
      "type": "function"
    },
    {
      "inputs": [],
      "name": "nodeDividentRatio",
      "outputs": [
        {
          "internalType": "uint256",
          "name": "",
          "type": "uint256"
        }
      ],
      "stateMutability": "view",
      "type": "function"
    },
    {
      "inputs": [
        {
          "internalType": "address",
          "name": "",
          "type": "address"
        }
      ],
      "name": "nonces",
      "outputs": [
        {
          "internalType": "uint256",
          "name": "",
          "type": "uint256"
        }
      ],
      "stateMutability": "view",
      "type": "function"
    },
    {
      "inputs": [
        {
          "internalType": "bytes",
          "name": "data",
          "type": "bytes"
        }
      ],
      "name": "openBox",
      "outputs": [],
      "stateMutability": "nonpayable",
      "type": "function"
    },
    {
      "inputs": [
        {
          "internalType": "uint256",
          "name": "amountIn",
          "type": "uint256"
        }
      ],
      "name": "queryBNBAmountOut",
      "outputs": [
        {
          "internalType": "uint256",
          "name": "",
          "type": "uint256"
        }
      ],
      "stateMutability": "view",
      "type": "function"
    },
    {
      "inputs": [
        {
          "internalType": "uint256",
          "name": "amountIn",
          "type": "uint256"
        }
      ],
      "name": "queryMBASAmountOut",
      "outputs": [
        {
          "internalType": "uint256",
          "name": "",
          "type": "uint256"
        }
      ],
      "stateMutability": "view",
      "type": "function"
    },
    {
      "inputs": [
        {
          "internalType": "bytes32",
          "name": "role",
          "type": "bytes32"
        },
        {
          "internalType": "address",
          "name": "account",
          "type": "address"
        }
      ],
      "name": "renounceRole",
      "outputs": [],
      "stateMutability": "nonpayable",
      "type": "function"
    },
    {
      "inputs": [
        {
          "internalType": "bytes32",
          "name": "role",
          "type": "bytes32"
        },
        {
          "internalType": "address",
          "name": "account",
          "type": "address"
        }
      ],
      "name": "revokeRole",
      "outputs": [],
      "stateMutability": "nonpayable",
      "type": "function"
    },
    {
      "inputs": [],
      "name": "router",
      "outputs": [
        {
          "internalType": "address",
          "name": "",
          "type": "address"
        }
      ],
      "stateMutability": "view",
      "type": "function"
    },
    {
      "inputs": [],
      "name": "signer",
      "outputs": [
        {
          "internalType": "address",
          "name": "",
          "type": "address"
        }
      ],
      "stateMutability": "view",
      "type": "function"
    },
    {
      "inputs": [
        {
          "internalType": "bytes4",
          "name": "interfaceId",
          "type": "bytes4"
        }
      ],
      "name": "supportsInterface",
      "outputs": [
        {
          "internalType": "bool",
          "name": "",
          "type": "bool"
        }
      ],
      "stateMutability": "view",
      "type": "function"
    },
    {
      "inputs": [],
      "name": "swapMBASToBNBTask",
      "outputs": [],
      "stateMutability": "nonpayable",
      "type": "function"
    },
    {
      "inputs": [
        {
          "internalType": "uint256",
          "name": "amount",
          "type": "uint256"
        }
      ],
      "name": "swapMBASToBnb",
      "outputs": [
        {
          "internalType": "uint256",
          "name": "",
          "type": "uint256"
        }
      ],
      "stateMutability": "nonpayable",
      "type": "function"
    },
    {
      "inputs": [],
      "name": "swapToBnbRatio",
      "outputs": [
        {
          "internalType": "uint256",
          "name": "",
          "type": "uint256"
        }
      ],
      "stateMutability": "view",
      "type": "function"
    },
    {
      "inputs": [
        {
          "internalType": "address",
          "name": "_badgeNFTAdd",
          "type": "address"
        }
      ],
      "name": "updateBadgeNFTAdd",
      "outputs": [],
      "stateMutability": "nonpayable",
      "type": "function"
    },
    {
      "inputs": [
        {
          "internalType": "uint256",
          "name": "_blindBoxRatio",
          "type": "uint256"
        }
      ],
      "name": "updateBlindBoxRatio",
      "outputs": [],
      "stateMutability": "nonpayable",
      "type": "function"
    },
    {
      "inputs": [
        {
          "internalType": "uint256",
          "name": "_destroyRatio",
          "type": "uint256"
        }
      ],
      "name": "updateDestroyRatio",
      "outputs": [],
      "stateMutability": "nonpayable",
      "type": "function"
    },
    {
      "inputs": [
        {
          "internalType": "address",
          "name": "_invitationAdd",
          "type": "address"
        }
      ],
      "name": "updateInvitatioAdd",
      "outputs": [],
      "stateMutability": "nonpayable",
      "type": "function"
    },
    {
      "inputs": [
        {
          "internalType": "uint256",
          "name": "_invitationRatio",
          "type": "uint256"
        }
      ],
      "name": "updateInvitationRatio",
      "outputs": [],
      "stateMutability": "nonpayable",
      "type": "function"
    },
    {
      "inputs": [
        {
          "internalType": "uint256",
          "name": "_landAndNodeRatio",
          "type": "uint256"
        }
      ],
      "name": "updateLandAndNodeRatio",
      "outputs": [],
      "stateMutability": "nonpayable",
      "type": "function"
    },
    {
      "inputs": [
        {
          "internalType": "address",
          "name": "_landDividentAdd",
          "type": "address"
        }
      ],
      "name": "updateLandDividentAdd",
      "outputs": [],
      "stateMutability": "nonpayable",
      "type": "function"
    },
    {
      "inputs": [
        {
          "internalType": "uint256",
          "name": "_landDividentRatio",
          "type": "uint256"
        }
      ],
      "name": "updateLandDividentRatio",
      "outputs": [],
      "stateMutability": "nonpayable",
      "type": "function"
    },
    {
      "inputs": [
        {
          "internalType": "address",
          "name": "_landNFTAdd",
          "type": "address"
        }
      ],
      "name": "updateLandNFTAdd",
      "outputs": [],
      "stateMutability": "nonpayable",
      "type": "function"
    },
    {
      "inputs": [
        {
          "internalType": "address",
          "name": "_MBASAdd",
          "type": "address"
        }
      ],
      "name": "updateMBASAdd",
      "outputs": [],
      "stateMutability": "nonpayable",
      "type": "function"
    },
    {
      "inputs": [
        {
          "internalType": "address",
          "name": "_manageAdd",
          "type": "address"
        }
      ],
      "name": "updateManageAdd",
      "outputs": [],
      "stateMutability": "nonpayable",
      "type": "function"
    },
    {
      "inputs": [
        {
          "internalType": "uint256",
          "name": "_manageRatio",
          "type": "uint256"
        }
      ],
      "name": "updateManageRatio",
      "outputs": [],
      "stateMutability": "nonpayable",
      "type": "function"
    },
    {
      "inputs": [
        {
          "internalType": "address",
          "name": "_nodeDividentAdd",
          "type": "address"
        }
      ],
      "name": "updateNodeDividentAdd",
      "outputs": [],
      "stateMutability": "nonpayable",
      "type": "function"
    },
    {
      "inputs": [
        {
          "internalType": "uint256",
          "name": "_nodeDividentRatio",
          "type": "uint256"
        }
      ],
      "name": "updateNodeDividentRatio",
      "outputs": [],
      "stateMutability": "nonpayable",
      "type": "function"
    },
    {
      "inputs": [
        {
          "internalType": "uint256",
          "name": "_swaToBnbRatio",
          "type": "uint256"
        }
      ],
      "name": "updateRatio",
      "outputs": [],
      "stateMutability": "nonpayable",
      "type": "function"
    },
    {
      "inputs": [
        {
          "internalType": "address",
          "name": "_router",
          "type": "address"
        }
      ],
      "name": "updateRouter",
      "outputs": [],
      "stateMutability": "nonpayable",
      "type": "function"
    },
    {
      "inputs": [
        {
          "internalType": "address",
          "name": "to",
          "type": "address"
        },
        {
          "internalType": "uint256",
          "name": "amount",
          "type": "uint256"
        }
      ],
      "name": "withdrawBNB",
      "outputs": [],
      "stateMutability": "nonpayable",
      "type": "function"
    },
    {
      "inputs": [
        {
          "internalType": "address",
          "name": "token",
          "type": "address"
        },
        {
          "internalType": "address",
          "name": "to",
          "type": "address"
        },
        {
          "internalType": "uint256",
          "name": "amount",
          "type": "uint256"
        }
      ],
      "name": "withdrawErc20",
      "outputs": [],
      "stateMutability": "nonpayable",
      "type": "function"
    },
    {
      "stateMutability": "payable",
      "type": "receive"
    }
  ],
  "bytecode": "0x6080604052601e600255602360035560236004556039600655602a60075560016008556043600b556021600c553480156200003957600080fd5b5060405162002efc38038062002efc8339810160408190526200005c91620002c1565b60018055600580546001600160a01b03199081166001600160a01b038b8116919091179092556009805482168a8416179055600d80548216898416179055600e80548216888416179055600f8054821687841617905560108054821686841617905560118054821685841617905560128054909116918316919091179055620000e760003362000203565b620001137fa076a07f65bcd51bcb15a0f01a65bc18f2d922acb81bcfd8af4caf5adb5570913362000203565b5050601580546001600160a01b0319163317905550506040805180820182526008815267084d8d2dcc884def60c31b6020918201528151808301835260018152603160f81b9082015281517f8b73c3c69bb8fe3d512ecc4cf759cc79239f7b179b0ffacaa9a75d522b39400f818301527f0c4a476dd4dc521f5cdd812b63846d763a0c7e6669f6e2744d3f1b8b1b43556d818401527fc89efdaa54c0f20c7adf612882df0950f5a951637e0307cdcb4c672f298b8bc660608201524660808201523060a0808301919091528351808303909101815260c09091019092528151910120601355506200036992505050565b6000828152602081815260408083206001600160a01b038516845290915290205460ff16620002a0576000828152602081815260408083206001600160a01b03851684529091529020805460ff191660011790556200025f3390565b6001600160a01b0316816001600160a01b0316837f2f8788117e7eff1d82e926ec794901d17c78024a50270940304540a733656f0d60405160405180910390a45b5050565b80516001600160a01b0381168114620002bc57600080fd5b919050565b600080600080600080600080610100898b031215620002df57600080fd5b620002ea89620002a4565b9750620002fa60208a01620002a4565b96506200030a60408a01620002a4565b95506200031a60608a01620002a4565b94506200032a60808a01620002a4565b93506200033a60a08a01620002a4565b92506200034a60c08a01620002a4565b91506200035a60e08a01620002a4565b90509295985092959890939650565b612b8380620003796000396000f3fe6080604052600436106102e85760003560e01c80637ecebe0011610190578063c4d6a91b116100dc578063d547741f11610095578063ecda57a51161006f578063ecda57a5146108c0578063f6612104146108e0578063f887ea4014610900578063febeeccb1461092057600080fd5b8063d547741f1461086b578063dc4d5e5c1461088b578063dc647e29146108a057600080fd5b8063c4d6a91b146107bf578063c4ed1a95146107d5578063c851cc32146107f5578063cc7bddd414610815578063d077502f1461082b578063d15002911461084b57600080fd5b80639acc560311610149578063a217fddf11610123578063a217fddf1461074a578063a576b1891461075f578063a97af1f21461077f578063ab6d02481461079f57600080fd5b80639acc5603146106ea5780639e2e1c3d1461070a5780639f1297071461072a57600080fd5b80637ecebe0014610627578063829b603814610654578063869afe431461067457806391d148541461068a578063925dc808146106aa57806399c175ef146106ca57600080fd5b8063292a69c91161024f5780634832bc2d116102085780635b22c3a3116101e25780635b22c3a3146105a557806360a4b76a146105c55780636c8d174e146105e7578063727353b41461060757600080fd5b80634832bc2d1461054f578063552552de1461056f578063599379a01461058f57600080fd5b8063292a69c9146104a35780632f2ff15d146104c35780633644e515146104e357806336568abe146104f957806338bea694146105195780634258e87b1461052f57600080fd5b80631454df98116102a15780631454df98146103dd5780631593dee1146103fd578063169cbeda1461041d578063238ac93314610433578063248a9ca314610453578063284b4da61461048357600080fd5b806301ffc9a7146102f4578063067ce03414610329578063079243331461034d5780630b753d7b1461036f5780630bf5cd78146103a7578063107bdd24146103bd57600080fd5b366102ef57005b600080fd5b34801561030057600080fd5b5061031461030f3660046124ca565b610936565b60405190151581526020015b60405180910390f35b34801561033557600080fd5b5061033f60065481565b604051908152602001610320565b34801561035957600080fd5b5061036d6103683660046124f4565b61096d565b005b34801561037b57600080fd5b50600d5461038f906001600160a01b031681565b6040516001600160a01b039091168152602001610320565b3480156103b357600080fd5b5061033f60035481565b3480156103c957600080fd5b5061036d6103d8366004612522565b61098b565b3480156103e957600080fd5b5060125461038f906001600160a01b031681565b34801561040957600080fd5b5061036d61041836600461253f565b6109c6565b34801561042957600080fd5b5061033f60045481565b34801561043f57600080fd5b5060155461038f906001600160a01b031681565b34801561045f57600080fd5b5061033f61046e3660046124f4565b60009081526020819052604090206001015490565b34801561048f57600080fd5b5061036d61049e3660046124f4565b610b10565b3480156104af57600080fd5b5061033f6104be3660046124f4565b610b2e565b3480156104cf57600080fd5b5061036d6104de366004612580565b610cb1565b3480156104ef57600080fd5b5061033f60135481565b34801561050557600080fd5b5061036d610514366004612580565b610cdb565b34801561052557600080fd5b5061033f600c5481565b34801561053b57600080fd5b5061036d61054a366004612522565b610d59565b34801561055b57600080fd5b5061036d61056a366004612522565b610d94565b34801561057b57600080fd5b5060115461038f906001600160a01b031681565b34801561059b57600080fd5b5061033f60085481565b3480156105b157600080fd5b5061036d6105c03660046124f4565b610dcf565b3480156105d157600080fd5b5061033f600080516020612b2e83398151915281565b3480156105f357600080fd5b5061036d610602366004612522565b610ded565b34801561061357600080fd5b5061036d6106223660046125b0565b610e28565b34801561063357600080fd5b5061033f610642366004612522565b60146020526000908152604090205481565b34801561066057600080fd5b5061036d61066f3660046124f4565b6113da565b34801561068057600080fd5b5061033f600a5481565b34801561069657600080fd5b506103146106a5366004612580565b6113f8565b3480156106b657600080fd5b50600f5461038f906001600160a01b031681565b3480156106d657600080fd5b5061036d6106e53660046124f4565b611421565b3480156106f657600080fd5b5061036d610705366004612522565b61143f565b34801561071657600080fd5b5061036d610725366004612522565b61147a565b34801561073657600080fd5b5060095461038f906001600160a01b031681565b34801561075657600080fd5b5061033f600081565b34801561076b57600080fd5b5061036d61077a3660046124f4565b6114b5565b34801561078b57600080fd5b5061036d61079a366004612622565b6114d3565b3480156107ab57600080fd5b50600e5461038f906001600160a01b031681565b3480156107cb57600080fd5b5061033f60025481565b3480156107e157600080fd5b5060055461038f906001600160a01b031681565b34801561080157600080fd5b5061036d610810366004612522565b61156f565b34801561082157600080fd5b5061033f60075481565b34801561083757600080fd5b5061033f6108463660046124f4565b6115aa565b34801561085757600080fd5b5061036d6108663660046124f4565b611691565b34801561087757600080fd5b5061036d610886366004612580565b6116af565b34801561089757600080fd5b5061036d6116d4565b3480156108ac57600080fd5b5061036d6108bb3660046124f4565b611b62565b3480156108cc57600080fd5b5061036d6108db366004612522565b611b80565b3480156108ec57600080fd5b5061033f6108fb3660046124f4565b611bbb565b34801561090c57600080fd5b5060105461038f906001600160a01b031681565b34801561092c57600080fd5b5061033f600b5481565b60006001600160e01b03198216637965db0b60e01b148061096757506301ffc9a760e01b6001600160e01b03198316145b92915050565b600080516020612b2e83398151915261098581611db8565b50600b55565b600080516020612b2e8339815191526109a381611db8565b50600580546001600160a01b0319166001600160a01b0392909216919091179055565b600080516020612b2e8339815191526109de81611db8565b6040516370a0823160e01b81523060048201526000906001600160a01b038616906370a0823190602401602060405180830381865afa158015610a25573d6000803e3d6000fd5b505050506040513d601f19601f82011682018060405250810190610a49919061264e565b905082811015610a955760405162461bcd60e51b815260206004820152601260248201527111549493d48e925394d551919250d251539560721b60448201526064015b60405180910390fd5b60405163a9059cbb60e01b81526001600160a01b0385811660048301526024820185905286169063a9059cbb906044016020604051808303816000875af1158015610ae4573d6000803e3d6000fd5b505050506040513d601f19601f82011682018060405250810190610b089190612667565b505050505050565b600080516020612b2e833981519152610b2881611db8565b50600355565b6010546040805160028082526060820183526000936001600160a01b03169284929190602083019080368337019050509050816001600160a01b031663ad5c46486040518163ffffffff1660e01b8152600401602060405180830381865afa158015610b9e573d6000803e3d6000fd5b505050506040513d601f19601f82011682018060405250810190610bc2919061269f565b81600081518110610bd557610bd56126bc565b6001600160a01b039283166020918202929092010152600f54825191169082906001908110610c0657610c066126bc565b6001600160a01b03928316602091820292909201015260405163d06ca61f60e01b815260009184169063d06ca61f90610c459088908690600401612716565b600060405180830381865afa158015610c62573d6000803e3d6000fd5b505050506040513d6000823e601f3d908101601f19168201604052610c8a9190810190612768565b905080600181518110610c9f57610c9f6126bc565b60200260200101519350505050919050565b600082815260208190526040902060010154610ccc81611db8565b610cd68383611dc2565b505050565b6001600160a01b0381163314610d4b5760405162461bcd60e51b815260206004820152602f60248201527f416363657373436f6e74726f6c3a2063616e206f6e6c792072656e6f756e636560448201526e103937b632b9903337b91039b2b63360891b6064820152608401610a8c565b610d558282611e46565b5050565b600080516020612b2e833981519152610d7181611db8565b50600e80546001600160a01b0319166001600160a01b0392909216919091179055565b600080516020612b2e833981519152610dac81611db8565b50601280546001600160a01b0319166001600160a01b0392909216919091179055565b600080516020612b2e833981519152610de781611db8565b50600855565b600080516020612b2e833981519152610e0581611db8565b50600980546001600160a01b0319166001600160a01b0392909216919091179055565b610e30611eab565b6000610e436706f05b59d3b20000610b2e565b600f546002549192506000916001600160a01b03909116903390610e7590606490610e6f908790611f04565b90611f17565b6040516001600160a01b039092166024830152604482015260640160408051601f198184030181529181526020820180516001600160e01b031663079cc67960e41b17905251610ec59190612832565b6000604051808303816000865af19150503d8060008114610f02576040519150601f19603f3d011682016040523d82523d6000602084013e610f07565b606091505b5050905080610f4e5760405162461bcd60e51b8152602060048201526013602482015272109b1a5b99109bde0e881095539497d1905253606a1b6044820152606401610a8c565b600f546005546003546001600160a01b03928316926323b872dd923392911690610f8090606490610e6f908990611f04565b6040516001600160e01b031960e086901b1681526001600160a01b03938416600482015292909116602483015260448201526064016020604051808303816000875af1158015610fd4573d6000803e3d6000fd5b505050506040513d601f19601f82011682018060405250810190610ff89190612667565b50600f546004546001600160a01b03909116906323b872dd903390309061102790606490610e6f908990611f04565b6040516001600160e01b031960e086901b1681526001600160a01b03938416600482015292909116602483015260448201526064016020604051808303816000875af115801561107b573d6000803e3d6000fd5b505050506040513d601f19601f8201168201806040525081019061109f9190612667565b5060006110bf6108fb6064610e6f60045487611f0490919063ffffffff16565b90506110db6064610e6f60075484611f0490919063ffffffff16565b600a60008282546110ec9190612864565b90915550506009546008546001600160a01b03909116906108fc9061111990606490610e6f908690611f04565b6040518115909202916000818181858888f19350505050158015611141573d6000803e3d6000fd5b5060008061114f8787611f23565b91509150816000036112c9576040805160038082526080820190925260009160208201606080368337019050509050600081600081518110611193576111936126bc565b6020026020010181815250506000816001815181106111b4576111b46126bc565b6020026020010181815250506000816002815181106111d5576111d56126bc565b6020026020010181815250508160010361120b576001816000815181106111fe576111fe6126bc565b6020026020010181815250505b8160020361123557600181600181518110611228576112286126bc565b6020026020010181815250505b8160030361125f57600181600281518110611252576112526126bc565b6020026020010181815250505b6011546040516394d8314160e01b81526001600160a01b03909116906394d83141906112919084903390600401612877565b600060405180830381600087803b1580156112ab57600080fd5b505af11580156112bf573d6000803e3d6000fd5b50505050506112f8565b604051339082156108fc029083906000818181858888f193505050501580156112f6573d6000803e3d6000fd5b505b7fa62889f41308c49b201ed4dfe31477a396a4f11e680b8f1e2ead3296f99020e633866113356064610e6f6003548b611f0490919063ffffffff16565b61134f6064610e6f6006548a611f0490919063ffffffff16565b6113696064610e6f6007548b611f0490919063ffffffff16565b6113836064610e6f6008548c611f0490919063ffffffff16565b604080516001600160a01b0390971687526020870195909552938501929092526060840152608083015260a082015260c0810184905260e081018390526101000160405180910390a15050505050610d5560018055565b600080516020612b2e8339815191526113f281611db8565b50600755565b6000918252602082815260408084206001600160a01b0393909316845291905290205460ff1690565b600080516020612b2e83398151915261143981611db8565b50600655565b600080516020612b2e83398151915261145781611db8565b50600d80546001600160a01b0319166001600160a01b0392909216919091179055565b600080516020612b2e83398151915261149281611db8565b50601180546001600160a01b0319166001600160a01b0392909216919091179055565b600080516020612b2e8339815191526114cd81611db8565b50600255565b600080516020612b2e8339815191526114eb81611db8565b3031828110156115325760405162461bcd60e51b815260206004820152601260248201527111549493d48e925394d551919250d251539560721b6044820152606401610a8c565b6040516001600160a01b0385169084156108fc029085906000818181858888f19350505050158015611568573d6000803e3d6000fd5b5050505050565b600080516020612b2e83398151915261158781611db8565b50601080546001600160a01b0319166001600160a01b0392909216919091179055565b6010546040805160028082526060820183526000936001600160a01b031692849291906020830190803683375050600f5482519293506001600160a01b0316918391506000906115fc576115fc6126bc565b60200260200101906001600160a01b031690816001600160a01b031681525050816001600160a01b031663ad5c46486040518163ffffffff1660e01b8152600401602060405180830381865afa15801561165a573d6000803e3d6000fd5b505050506040513d601f19601f8201168201806040525081019061167e919061269f565b81600181518110610c0657610c066126bc565b600080516020612b2e8339815191526116a981611db8565b50600c55565b6000828152602081905260409020600101546116ca81611db8565b610cd68383611e46565b600080516020612b2e8339815191526116ec81611db8565b6116f4611eab565b6000600a541161173c5760405162461bcd60e51b8152602060048201526013602482015272195c9c9bdc8e881a5b9cdd59999a58da595b9d606a1b6044820152606401610a8c565b600f546040516370a0823160e01b81523060048201526000916001600160a01b0316906370a0823190602401602060405180830381865afa158015611785573d6000803e3d6000fd5b505050506040513d601f19601f820116820180604052508101906117a9919061264e565b6010546040805160028082526060820183529394506001600160a01b039092169260009291602083019080368337019050509050816001600160a01b031663ad5c46486040518163ffffffff1660e01b8152600401602060405180830381865afa15801561181b573d6000803e3d6000fd5b505050506040513d601f19601f8201168201806040525081019061183f919061269f565b81600081518110611852576118526126bc565b6001600160a01b039283166020918202929092010152600f54825191169082906001908110611883576118836126bc565b6001600160a01b039283166020918202929092010152600a549083169063b6f9de9590600084306118b642610258612864565b6040518663ffffffff1660e01b81526004016118d594939291906128cb565b6000604051808303818588803b1580156118ee57600080fd5b505af1158015611902573d6000803e3d6000fd5b50506000600a819055600f546040516370a0823160e01b81523060048201529194506001600160a01b031692506370a082319150602401602060405180830381865afa158015611956573d6000803e3d6000fd5b505050506040513d601f19601f8201168201806040525081019061197a919061264e565b905060006119888583612900565b600f54600d54600b549293506001600160a01b039182169263a9059cbb92909116906119bc90606490610e6f908790611f04565b6040516001600160e01b031960e085901b1681526001600160a01b03909216600483015260248201526044016020604051808303816000875af1158015611a07573d6000803e3d6000fd5b505050506040513d601f19601f82011682018060405250810190611a2b9190612667565b50600f54600e54600c546001600160a01b039283169263a9059cbb921690611a5b90606490610e6f908790611f04565b6040516001600160e01b031960e085901b1681526001600160a01b03909216600483015260248201526044016020604051808303816000875af1158015611aa6573d6000803e3d6000fd5b505050506040513d601f19601f82011682018060405250810190611aca9190612667565b507ff467fc048fc5867ff6454cc1f1324226a78599436a0c0d957c3ad25dfe1de1f033600a54611b0a6064610e6f600b5487611f0490919063ffffffff16565b611b246064610e6f600c5488611f0490919063ffffffff16565b604080516001600160a01b039095168552602085019390935291830152606082015260800160405180910390a15050505050611b5f60018055565b50565b600080516020612b2e833981519152611b7a81611db8565b50600455565b600080516020612b2e833981519152611b9881611db8565b50600f80546001600160a01b0319166001600160a01b0392909216919091179055565b60105460408051600280825260608201835260009347936001600160a01b0390911692859290916020830190803683375050600f5482519293506001600160a01b031691839150600090611c1157611c116126bc565b60200260200101906001600160a01b031690816001600160a01b031681525050816001600160a01b031663ad5c46486040518163ffffffff1660e01b8152600401602060405180830381865afa158015611c6f573d6000803e3d6000fd5b505050506040513d601f19601f82011682018060405250810190611c93919061269f565b81600181518110611ca657611ca66126bc565b6001600160a01b039283166020918202929092010152600f5460105460405163095ea7b360e01b815290831660048201526024810188905291169063095ea7b3906044016020604051808303816000875af1158015611d09573d6000803e3d6000fd5b505050506040513d601f19601f82011682018060405250810190611d2d9190612667565b506001600160a01b03821663791ac9478660008430611d4e42610258612864565b6040518663ffffffff1660e01b8152600401611d6e959493929190612913565b600060405180830381600087803b158015611d8857600080fd5b505af1158015611d9c573d6000803e3d6000fd5b50479250611dae915085905082612900565b9695505050505050565b611b5f8133612251565b611dcc82826113f8565b610d55576000828152602081815260408083206001600160a01b03851684529091529020805460ff19166001179055611e023390565b6001600160a01b0316816001600160a01b0316837f2f8788117e7eff1d82e926ec794901d17c78024a50270940304540a733656f0d60405160405180910390a45050565b611e5082826113f8565b15610d55576000828152602081815260408083206001600160a01b0385168085529252808320805460ff1916905551339285917ff6391f5c32d9c69d2a47ea670b442974b53935d1edc7fd64eb21e047a839171b9190a45050565b600260015403611efd5760405162461bcd60e51b815260206004820152601f60248201527f5265656e7472616e637947756172643a207265656e7472616e742063616c6c006044820152606401610a8c565b6002600155565b6000611f10828461294f565b9392505050565b6000611f108284612966565b600080808080808080611f38898b018b612988565b955095509550955095509550336001600160a01b0316866001600160a01b031614611f9e5760405162461bcd60e51b815260206004820152601660248201527521393ab7233ab7321d1024a72b20a624a22faaa9a2a960511b6044820152606401610a8c565b336000908152601460205260409020548314611ffc5760405162461bcd60e51b815260206004820152601760248201527f4272756e46756e643a20494e56414c49445f4e4f4e43450000000000000000006044820152606401610a8c565b814211156120405760405162461bcd60e51b8152602060048201526011602482015270109c9d5b919d5b990e881512535153d555607a1b6044820152606401610a8c565b600080600061204e846122aa565b92509250925060006013546040516020016120cd907f5065726d6974286164647265737320757365722c75696e7432353620626f785481527f7970652c75696e7432353620616d6f756e742c75696e74323536206e6f6e63656020820152712c75696e7432353620646561646c696e652960701b604082015260520190565b60408051808303601f190181528282528051602091820120818401526001600160a01b038e1683830152606083018d9052608083018c905260a083018b905260c08084018b90528251808503909101815260e08401909252815191012061190160f01b6101008301526101028201929092526101228101919091526101420160408051601f1981840301815282825280516020918201206000845290830180835281905260ff8716918301919091526060820185905260808201849052915060019060a0016020604051602081039080840390855afa1580156121b4573d6000803e3d6000fd5b5050604051601f1901516015546001600160a01b03908116911614905061221d5760405162461bcd60e51b815260206004820152601860248201527f4272756e46756e643a20494e56414c49445f53494e47455200000000000000006044820152606401610a8c565b33600090815260146020526040812080549161223883612a55565b90915550989e979d50969b505050505050505050505050565b61225b82826113f8565b610d55576122688161231c565b61227383602061232e565b604051602001612284929190612a6e565b60408051601f198184030181529082905262461bcd60e51b8252610a8c91600401612ae3565b600080600083516041146123005760405162461bcd60e51b815260206004820152601a60248201527f4e6f7420496e76616c6964205369676e617475726520446174610000000000006044820152606401610a8c565b5050506020810151604082015160609092015160001a92909190565b60606109676001600160a01b03831660145b6060600061233d83600261294f565b612348906002612864565b67ffffffffffffffff81111561236057612360612689565b6040519080825280601f01601f19166020018201604052801561238a576020820181803683370190505b509050600360fc1b816000815181106123a5576123a56126bc565b60200101906001600160f81b031916908160001a905350600f60fb1b816001815181106123d4576123d46126bc565b60200101906001600160f81b031916908160001a90535060006123f884600261294f565b612403906001612864565b90505b600181111561247b576f181899199a1a9b1b9c1cb0b131b232b360811b85600f1660108110612437576124376126bc565b1a60f81b82828151811061244d5761244d6126bc565b60200101906001600160f81b031916908160001a90535060049490941c9361247481612b16565b9050612406565b508315611f105760405162461bcd60e51b815260206004820181905260248201527f537472696e67733a20686578206c656e67746820696e73756666696369656e746044820152606401610a8c565b6000602082840312156124dc57600080fd5b81356001600160e01b031981168114611f1057600080fd5b60006020828403121561250657600080fd5b5035919050565b6001600160a01b0381168114611b5f57600080fd5b60006020828403121561253457600080fd5b8135611f108161250d565b60008060006060848603121561255457600080fd5b833561255f8161250d565b9250602084013561256f8161250d565b929592945050506040919091013590565b6000806040838503121561259357600080fd5b8235915060208301356125a58161250d565b809150509250929050565b600080602083850312156125c357600080fd5b823567ffffffffffffffff808211156125db57600080fd5b818501915085601f8301126125ef57600080fd5b8135818111156125fe57600080fd5b86602082850101111561261057600080fd5b60209290920196919550909350505050565b6000806040838503121561263557600080fd5b82356126408161250d565b946020939093013593505050565b60006020828403121561266057600080fd5b5051919050565b60006020828403121561267957600080fd5b81518015158114611f1057600080fd5b634e487b7160e01b600052604160045260246000fd5b6000602082840312156126b157600080fd5b8151611f108161250d565b634e487b7160e01b600052603260045260246000fd5b600081518084526020808501945080840160005b8381101561270b5781516001600160a01b0316875295820195908201906001016126e6565b509495945050505050565b82815260406020820152600061272f60408301846126d2565b949350505050565b604051601f8201601f1916810167ffffffffffffffff8111828210171561276057612760612689565b604052919050565b6000602080838503121561277b57600080fd5b825167ffffffffffffffff8082111561279357600080fd5b818501915085601f8301126127a757600080fd5b8151818111156127b9576127b9612689565b8060051b91506127ca848301612737565b81815291830184019184810190888411156127e457600080fd5b938501935b83851015612802578451825293850193908501906127e9565b98975050505050505050565b60005b83811015612829578181015183820152602001612811565b50506000910152565b6000825161284481846020870161280e565b9190910192915050565b634e487b7160e01b600052601160045260246000fd5b808201808211156109675761096761284e565b604080825283519082018190526000906020906060840190828701845b828110156128b057815184529284019290840190600101612894565b5050506001600160a01b039490941692019190915250919050565b8481526080602082015260006128e460808301866126d2565b6001600160a01b03949094166040830152506060015292915050565b818103818111156109675761096761284e565b85815284602082015260a06040820152600061293260a08301866126d2565b6001600160a01b0394909416606083015250608001529392505050565b80820281158282048414176109675761096761284e565b60008261298357634e487b7160e01b600052601260045260246000fd5b500490565b60008060008060008060c087890312156129a157600080fd5b86356129ac8161250d565b9550602087810135955060408801359450606088013593506080880135925060a088013567ffffffffffffffff808211156129e657600080fd5b818a0191508a601f8301126129fa57600080fd5b813581811115612a0c57612a0c612689565b612a1e601f8201601f19168501612737565b91508082528b84828501011115612a3457600080fd5b80848401858401376000848284010152508093505050509295509295509295565b600060018201612a6757612a6761284e565b5060010190565b7f416363657373436f6e74726f6c3a206163636f756e7420000000000000000000815260008351612aa681601785016020880161280e565b7001034b99036b4b9b9b4b733903937b6329607d1b6017918401918201528351612ad781602884016020880161280e565b01602801949350505050565b6020815260008251806020840152612b0281604085016020870161280e565b601f01601f19169190910160400192915050565b600081612b2557612b2561284e565b50600019019056fea076a07f65bcd51bcb15a0f01a65bc18f2d922acb81bcfd8af4caf5adb557091a26469706673582212202d58d62e5fe2ee45c46e182ee3db357f8b16bb18d9e185e5a714db3438fabe5364736f6c63430008110033",
  "linkReferences": {},
  "deployedLinkReferences": {}
}