{
  "_format": "hh-sol-artifact-1",
  "contractName": "FundNode",
  "sourceName": "contracts/FundNode.sol",
  "abi": [
    {
      "inputs": [
        {
          "internalType": "uint256",
          "name": "_beginTime",
          "type": "uint256"
        },
        {
          "internalType": "uint256",
          "name": "_endTime",
          "type": "uint256"
        },
        {
          "internalType": "address",
          "name": "_MBAS",
          "type": "address"
        },
        {
          "internalType": "uint256",
          "name": "_distributedMBASAmount",
          "type": "uint256"
        },
        {
          "internalType": "uint256",
          "name": "_MBASPrice",
          "type": "uint256"
        },
        {
          "internalType": "address",
          "name": "_router",
          "type": "address"
        },
        {
          "internalType": "address",
          "name": "_usdt",
          "type": "address"
        }
      ],
      "stateMutability": "nonpayable",
      "type": "constructor"
    },
    {
      "anonymous": false,
      "inputs": [
        {
          "indexed": false,
          "internalType": "address",
          "name": "caller",
          "type": "address"
        },
        {
          "indexed": false,
          "internalType": "address",
          "name": "relevanceAdd",
          "type": "address"
        },
        {
          "indexed": false,
          "internalType": "uint256",
          "name": "value",
          "type": "uint256"
        }
      ],
      "name": "BuyNode",
      "type": "event"
    },
    {
      "anonymous": false,
      "inputs": [
        {
          "indexed": false,
          "internalType": "address",
          "name": "caller",
          "type": "address"
        },
        {
          "indexed": false,
          "internalType": "uint256",
          "name": "receiveMBASAmount",
          "type": "uint256"
        },
        {
          "indexed": false,
          "internalType": "uint256",
          "name": "returnBnbAmount",
          "type": "uint256"
        }
      ],
      "name": "Claim",
      "type": "event"
    },
    {
      "anonymous": false,
      "inputs": [
        {
          "indexed": false,
          "internalType": "address",
          "name": "caller",
          "type": "address"
        },
        {
          "indexed": false,
          "internalType": "uint256",
          "name": "rank",
          "type": "uint256"
        },
        {
          "indexed": false,
          "internalType": "uint256",
          "name": "bnbAmount",
          "type": "uint256"
        },
        {
          "indexed": false,
          "internalType": "uint256",
          "name": "receiveMBASAmount",
          "type": "uint256"
        }
      ],
      "name": "ClaimExtra",
      "type": "event"
    },
    {
      "anonymous": false,
      "inputs": [
        {
          "indexed": true,
          "internalType": "address",
          "name": "previousOwner",
          "type": "address"
        },
        {
          "indexed": true,
          "internalType": "address",
          "name": "newOwner",
          "type": "address"
        }
      ],
      "name": "OwnershipTransferred",
      "type": "event"
    },
    {
      "inputs": [],
      "name": "DOMAIN_SEPARATOR",
      "outputs": [
        {
          "internalType": "bytes32",
          "name": "",
          "type": "bytes32"
        }
      ],
      "stateMutability": "view",
      "type": "function"
    },
    {
      "inputs": [],
      "name": "MBAS",
      "outputs": [
        {
          "internalType": "address",
          "name": "",
          "type": "address"
        }
      ],
      "stateMutability": "view",
      "type": "function"
    },
    {
      "inputs": [],
      "name": "MBASPrice",
      "outputs": [
        {
          "internalType": "uint256",
          "name": "",
          "type": "uint256"
        }
      ],
      "stateMutability": "view",
      "type": "function"
    },
    {
      "inputs": [],
      "name": "beginTime",
      "outputs": [
        {
          "internalType": "uint256",
          "name": "",
          "type": "uint256"
        }
      ],
      "stateMutability": "view",
      "type": "function"
    },
    {
      "inputs": [
        {
          "internalType": "address",
          "name": "relevanceAdd",
          "type": "address"
        }
      ],
      "name": "buyNode",
      "outputs": [],
      "stateMutability": "payable",
      "type": "function"
    },
    {
      "inputs": [
        {
          "internalType": "bytes",
          "name": "data",
          "type": "bytes"
        }
      ],
      "name": "claimExtraMBAS",
      "outputs": [],
      "stateMutability": "payable",
      "type": "function"
    },
    {
      "inputs": [],
      "name": "claimMBAS",
      "outputs": [],
      "stateMutability": "nonpayable",
      "type": "function"
    },
    {
      "inputs": [
        {
          "internalType": "address",
          "name": "",
          "type": "address"
        }
      ],
      "name": "claimedNode",
      "outputs": [
        {
          "internalType": "bool",
          "name": "",
          "type": "bool"
        }
      ],
      "stateMutability": "view",
      "type": "function"
    },
    {
      "inputs": [],
      "name": "distributedMBASAmount",
      "outputs": [
        {
          "internalType": "uint256",
          "name": "",
          "type": "uint256"
        }
      ],
      "stateMutability": "view",
      "type": "function"
    },
    {
      "inputs": [],
      "name": "endTime",
      "outputs": [
        {
          "internalType": "uint256",
          "name": "",
          "type": "uint256"
        }
      ],
      "stateMutability": "view",
      "type": "function"
    },
    {
      "inputs": [],
      "name": "nodeNum",
      "outputs": [
        {
          "internalType": "uint256",
          "name": "",
          "type": "uint256"
        }
      ],
      "stateMutability": "view",
      "type": "function"
    },
    {
      "inputs": [
        {
          "internalType": "address",
          "name": "",
          "type": "address"
        }
      ],
      "name": "nodeReward",
      "outputs": [
        {
          "internalType": "bool",
          "name": "",
          "type": "bool"
        }
      ],
      "stateMutability": "view",
      "type": "function"
    },
    {
      "inputs": [
        {
          "internalType": "address",
          "name": "",
          "type": "address"
        }
      ],
      "name": "nodes",
      "outputs": [
        {
          "internalType": "bool",
          "name": "",
          "type": "bool"
        }
      ],
      "stateMutability": "view",
      "type": "function"
    },
    {
      "inputs": [
        {
          "internalType": "address",
          "name": "",
          "type": "address"
        }
      ],
      "name": "nonces",
      "outputs": [
        {
          "internalType": "uint256",
          "name": "",
          "type": "uint256"
        }
      ],
      "stateMutability": "view",
      "type": "function"
    },
    {
      "inputs": [],
      "name": "owner",
      "outputs": [
        {
          "internalType": "address",
          "name": "",
          "type": "address"
        }
      ],
      "stateMutability": "view",
      "type": "function"
    },
    {
      "inputs": [],
      "name": "price1",
      "outputs": [
        {
          "internalType": "uint256",
          "name": "",
          "type": "uint256"
        }
      ],
      "stateMutability": "view",
      "type": "function"
    },
    {
      "inputs": [],
      "name": "price2",
      "outputs": [
        {
          "internalType": "uint256",
          "name": "",
          "type": "uint256"
        }
      ],
      "stateMutability": "view",
      "type": "function"
    },
    {
      "inputs": [],
      "name": "price3",
      "outputs": [
        {
          "internalType": "uint256",
          "name": "",
          "type": "uint256"
        }
      ],
      "stateMutability": "view",
      "type": "function"
    },
    {
      "inputs": [],
      "name": "price4",
      "outputs": [
        {
          "internalType": "uint256",
          "name": "",
          "type": "uint256"
        }
      ],
      "stateMutability": "view",
      "type": "function"
    },
    {
      "inputs": [
        {
          "internalType": "uint256",
          "name": "amountIn",
          "type": "uint256"
        }
      ],
      "name": "queryBNBAmountOut",
      "outputs": [
        {
          "internalType": "uint256",
          "name": "",
          "type": "uint256"
        }
      ],
      "stateMutability": "view",
      "type": "function"
    },
    {
      "inputs": [
        {
          "internalType": "uint256",
          "name": "amountIn",
          "type": "uint256"
        }
      ],
      "name": "queryUSDTAmountOut",
      "outputs": [
        {
          "internalType": "uint256",
          "name": "",
          "type": "uint256"
        }
      ],
      "stateMutability": "view",
      "type": "function"
    },
    {
      "inputs": [
        {
          "internalType": "address",
          "name": "",
          "type": "address"
        }
      ],
      "name": "relevanceAdds",
      "outputs": [
        {
          "internalType": "address",
          "name": "",
          "type": "address"
        }
      ],
      "stateMutability": "view",
      "type": "function"
    },
    {
      "inputs": [],
      "name": "renounceOwnership",
      "outputs": [],
      "stateMutability": "nonpayable",
      "type": "function"
    },
    {
      "inputs": [],
      "name": "router",
      "outputs": [
        {
          "internalType": "address",
          "name": "",
          "type": "address"
        }
      ],
      "stateMutability": "view",
      "type": "function"
    },
    {
      "inputs": [
        {
          "internalType": "uint256",
          "name": "_beginTime",
          "type": "uint256"
        }
      ],
      "name": "setBeginTime",
      "outputs": [],
      "stateMutability": "nonpayable",
      "type": "function"
    },
    {
      "inputs": [
        {
          "internalType": "uint256",
          "name": "_distributedMBASAmount",
          "type": "uint256"
        }
      ],
      "name": "setDistributedMBASAmount",
      "outputs": [],
      "stateMutability": "nonpayable",
      "type": "function"
    },
    {
      "inputs": [
        {
          "internalType": "uint256",
          "name": "_endTime",
          "type": "uint256"
        }
      ],
      "name": "setEndTime",
      "outputs": [],
      "stateMutability": "nonpayable",
      "type": "function"
    },
    {
      "inputs": [
        {
          "internalType": "address",
          "name": "_MBAS",
          "type": "address"
        }
      ],
      "name": "setMBAS",
      "outputs": [],
      "stateMutability": "nonpayable",
      "type": "function"
    },
    {
      "inputs": [
        {
          "internalType": "uint256",
          "name": "_MBASPrice",
          "type": "uint256"
        }
      ],
      "name": "setMBASPrice",
      "outputs": [],
      "stateMutability": "nonpayable",
      "type": "function"
    },
    {
      "inputs": [
        {
          "internalType": "uint256",
          "name": "_price1",
          "type": "uint256"
        },
        {
          "internalType": "uint256",
          "name": "_price2",
          "type": "uint256"
        },
        {
          "internalType": "uint256",
          "name": "_price3",
          "type": "uint256"
        },
        {
          "internalType": "uint256",
          "name": "_price4",
          "type": "uint256"
        }
      ],
      "name": "setPrice",
      "outputs": [],
      "stateMutability": "nonpayable",
      "type": "function"
    },
    {
      "inputs": [
        {
          "internalType": "address",
          "name": "_router",
          "type": "address"
        }
      ],
      "name": "setRouter",
      "outputs": [],
      "stateMutability": "nonpayable",
      "type": "function"
    },
    {
      "inputs": [
        {
          "internalType": "address",
          "name": "_signer",
          "type": "address"
        }
      ],
      "name": "setSinger",
      "outputs": [],
      "stateMutability": "nonpayable",
      "type": "function"
    },
    {
      "inputs": [
        {
          "internalType": "address",
          "name": "_usdt",
          "type": "address"
        }
      ],
      "name": "setUSDT",
      "outputs": [],
      "stateMutability": "nonpayable",
      "type": "function"
    },
    {
      "inputs": [],
      "name": "signer",
      "outputs": [
        {
          "internalType": "address",
          "name": "",
          "type": "address"
        }
      ],
      "stateMutability": "view",
      "type": "function"
    },
    {
      "inputs": [
        {
          "internalType": "address",
          "name": "newOwner",
          "type": "address"
        }
      ],
      "name": "transferOwnership",
      "outputs": [],
      "stateMutability": "nonpayable",
      "type": "function"
    },
    {
      "inputs": [],
      "name": "usdt",
      "outputs": [
        {
          "internalType": "address",
          "name": "",
          "type": "address"
        }
      ],
      "stateMutability": "view",
      "type": "function"
    },
    {
      "inputs": [
        {
          "internalType": "address",
          "name": "to",
          "type": "address"
        },
        {
          "internalType": "uint256",
          "name": "amount",
          "type": "uint256"
        }
      ],
      "name": "withdrawBNB",
      "outputs": [],
      "stateMutability": "nonpayable",
      "type": "function"
    },
    {
      "inputs": [
        {
          "internalType": "address",
          "name": "token",
          "type": "address"
        },
        {
          "internalType": "address",
          "name": "to",
          "type": "address"
        },
        {
          "internalType": "uint256",
          "name": "amount",
          "type": "uint256"
        }
      ],
      "name": "withdrawErc20",
      "outputs": [],
      "stateMutability": "nonpayable",
      "type": "function"
    },
    {
      "stateMutability": "payable",
      "type": "receive"
    }
  ],
  "bytecode": "0x60806040526702c68af0bb140000600e55670de0b6b3a7640000600f55670853a0d2313c0000601055670429d069189e00006011553480156200004157600080fd5b50604051620021bd380380620021bd83398101604081905262000064916200021a565b6200006f33620001ad565b6001808055600297909755600395909555600880546001600160a01b03199081166001600160a01b03968716178255600994909455600a92909255600b80548416918516919091179055600c805483169490931693909317909155601380543392169190911790556040805180820182529182526746756e644e6f646560c01b60209283015280518082018252928352603160f81b9282019290925281517f8b73c3c69bb8fe3d512ecc4cf759cc79239f7b179b0ffacaa9a75d522b39400f818301527f6bb80b7a789c0c10066355a95382a01270f4b0943f8e3513c119e4f3befcbb3d818401527fc89efdaa54c0f20c7adf612882df0950f5a951637e0307cdcb4c672f298b8bc660608201524660808201523060a0808301919091528351808303909101815260c090910190925281519101206012556200028b565b600080546001600160a01b038381166001600160a01b0319831681178455604051919092169283917f8be0079c531659141344cd1fd0a4f28419497f9722a3daafe3b4186f6b6457e09190a35050565b80516001600160a01b03811681146200021557600080fd5b919050565b600080600080600080600060e0888a0312156200023657600080fd5b87519650602088015195506200024f60408901620001fd565b945060608801519350608088015192506200026d60a08901620001fd565b91506200027d60c08901620001fd565b905092959891949750929550565b611f22806200029b6000396000f3fe6080604052600436106102295760003560e01c806388149fb911610123578063c0d78655116100ab578063d778c9111161006f578063d778c91114610659578063f25259f61461066f578063f2fde38b1461068f578063f887ea40146106af578063fe3922e1146106cf57600080fd5b8063c0d78655146105b9578063ccb98ffc146105d9578063ceea64a0146105f9578063d077502f14610619578063d176dd451461063957600080fd5b8063a5172aaa116100f2578063a5172aaa14610514578063a97af1f214610544578063aab0b77614610564578063af6ba21a14610579578063b0ac317d1461059957600080fd5b806388149fb91461049d5780638a0673ce146104b35780638da5cb5b146104c65780639c12f2eb146104e457600080fd5b80633197cbb6116101b15780635eb17cdb116101755780635eb17cdb146104125780636caf25ce14610432578063715018a61461044857806374bc4d381461045d5780637ecebe001461047057600080fd5b80633197cbb61461037a578063356b9bc3146103905780633644e515146103c65780634d08f0f7146103dc57806350c1b923146103f257600080fd5b806324a3890b116101f857806324a3890b146102f8578063273786841461030e57806327a3181d146103245780632e54228f1461033a5780632f48ab7d1461035a57600080fd5b806308e922c3146102355780631593dee11461025e578063189a5a1714610280578063238ac933146102c057600080fd5b3661023057005b600080fd5b34801561024157600080fd5b5061024b600a5481565b6040519081526020015b60405180910390f35b34801561026a57600080fd5b5061027e610279366004611a7c565b6106ef565b005b34801561028c57600080fd5b506102b061029b366004611abd565b60046020526000908152604090205460ff1681565b6040519015158152602001610255565b3480156102cc57600080fd5b506013546102e0906001600160a01b031681565b6040516001600160a01b039091168152602001610255565b34801561030457600080fd5b5061024b60095481565b34801561031a57600080fd5b5061024b60115481565b34801561033057600080fd5b5061024b600f5481565b34801561034657600080fd5b506008546102e0906001600160a01b031681565b34801561036657600080fd5b50600c546102e0906001600160a01b031681565b34801561038657600080fd5b5061024b60035481565b34801561039c57600080fd5b506102e06103ab366004611abd565b6006602052600090815260409020546001600160a01b031681565b3480156103d257600080fd5b5061024b60125481565b3480156103e857600080fd5b5061024b60055481565b3480156103fe57600080fd5b5061027e61040d366004611abd565b610828565b34801561041e57600080fd5b5061027e61042d366004611ada565b610852565b34801561043e57600080fd5b5061024b600e5481565b34801561045457600080fd5b5061027e61085f565b61027e61046b366004611af3565b610873565b34801561047c57600080fd5b5061024b61048b366004611abd565b60146020526000908152604090205481565b3480156104a957600080fd5b5061024b60025481565b61027e6104c1366004611abd565b610b57565b3480156104d257600080fd5b506000546001600160a01b03166102e0565b3480156104f057600080fd5b506102b06104ff366004611abd565b60076020526000908152604090205460ff1681565b34801561052057600080fd5b506102b061052f366004611abd565b600d6020526000908152604090205460ff1681565b34801561055057600080fd5b5061027e61055f366004611b65565b610dc4565b34801561057057600080fd5b5061027e610e4f565b34801561058557600080fd5b5061027e610594366004611ada565b61122e565b3480156105a557600080fd5b5061024b6105b4366004611ada565b61123b565b3480156105c557600080fd5b5061027e6105d4366004611abd565b6113be565b3480156105e557600080fd5b5061027e6105f4366004611ada565b6113e8565b34801561060557600080fd5b5061027e610614366004611ada565b6113f5565b34801561062557600080fd5b5061024b610634366004611ada565b611402565b34801561064557600080fd5b5061027e610654366004611b91565b6114e9565b34801561066557600080fd5b5061024b60105481565b34801561067b57600080fd5b5061027e61068a366004611abd565b611505565b34801561069b57600080fd5b5061027e6106aa366004611abd565b61152f565b3480156106bb57600080fd5b50600b546102e0906001600160a01b031681565b3480156106db57600080fd5b5061027e6106ea366004611abd565b6115a5565b6106f76115cf565b6040516370a0823160e01b81523060048201526000906001600160a01b038516906370a0823190602401602060405180830381865afa15801561073e573d6000803e3d6000fd5b505050506040513d601f19601f820116820180604052508101906107629190611bc3565b9050818110156107ae5760405162461bcd60e51b815260206004820152601260248201527111549493d48e925394d551919250d251539560721b60448201526064015b60405180910390fd5b60405163a9059cbb60e01b81526001600160a01b0384811660048301526024820184905285169063a9059cbb906044016020604051808303816000875af11580156107fd573d6000803e3d6000fd5b505050506040513d601f19601f820116820180604052508101906108219190611bdc565b5050505050565b6108306115cf565b600c80546001600160a01b0319166001600160a01b0392909216919091179055565b61085a6115cf565b600255565b6108676115cf565b6108716000611629565b565b61087b611679565b336000908152600d602052604090205460ff16156108ed5760405162461bcd60e51b815260206004820152602960248201527f6572726f723a2054686520616464726573732068616420636c61696d6564206560448201526878747261204d42415360b81b60648201526084016107a5565b60006108f983836116d2565b905060968111156109725760405162461bcd60e51b815260206004820152603860248201527f6572726f723a2054686520616464726573732061726520206e6f7420656c696760448201527f61626c6520746f20636c61696d206578747261204d424153000000000000000060648201526084016107a5565b60008082118015610984575060328211155b156109b057600f543410156109ab5760405162461bcd60e51b81526004016107a590611bfe565b50600f545b6032821180156109c1575060648211155b156109ed576010543410156109e85760405162461bcd60e51b81526004016107a590611bfe565b506010545b6064821180156109fe575060968211155b15610a2a57601154341015610a255760405162461bcd60e51b81526004016107a590611bfe565b506011545b6000610a358261123b565b600854600a549192506001600160a01b03169063a9059cbb903390610a5b9085906119d6565b6040516001600160e01b031960e085901b1681526001600160a01b03909216600483015260248201526044016020604051808303816000875af1158015610aa6573d6000803e3d6000fd5b505050506040513d601f19601f82011682018060405250810190610aca9190611bdc565b50336000818152600d60205260409020805460ff19166001179055600a547f4e50d627cdc979ee0447c9997b5b16ada6017fe8500aa7ecb6b9125c36ead6cd919085908590610b1a9086906119d6565b604080516001600160a01b039095168552602085019390935291830152606082015260800160405180910390a1505050610b5360018055565b5050565b610b5f611679565b6002544210158015610b7357506003544211155b610be55760405162461bcd60e51b815260206004820152603860248201527f6572726f723a20546865206576656e74206861736e277420737461727465642060448201527f796574204f7220546865206576656e74206973206f766572000000000000000060648201526084016107a5565b3360009081526004602052604090205460ff1615610c3e5760405162461bcd60e51b81526020600482015260166024820152756572726f723a20616c7265616479206973206e6f646560501b60448201526064016107a5565b6001600160a01b03811615610cc1576001600160a01b03811660009081526004602052604090205460ff16610cc15760405162461bcd60e51b8152602060048201526024808201527f6572726f723a2072656c6576616e63652061646472657373206973206e6f74206044820152636e6f646560e01b60648201526084016107a5565b6702c68af0bb140000341015610d195760405162461bcd60e51b815260206004820152601960248201527f6572726f723a20696e73756666696369656e742076616c75650000000000000060448201526064016107a5565b336000908152600460205260408120805460ff191660011790556005805491610d4183611c4b565b90915550503360008181526006602090815260409182902080546001600160a01b0319166001600160a01b0386169081179091558251938452908301526702c68af0bb140000908201527f0344bc8f5c1709fd609d606b4d73a9dd2b84cab5e596cc899a728a73c9d3be889060600160405180910390a1610dc160018055565b50565b610dcc6115cf565b303181811015610e135760405162461bcd60e51b815260206004820152601260248201527111549493d48e925394d551919250d251539560721b60448201526064016107a5565b6040516001600160a01b0384169083156108fc029084906000818181858888f19350505050158015610e49573d6000803e3d6000fd5b50505050565b610e57611679565b6003544211610eb45760405162461bcd60e51b8152602060048201526024808201527f6572726f723a20546865206576656e74206861736e277420737461727465642060448201526303cb2ba160e51b60648201526084016107a5565b3360009081526004602052604090205460ff16610f275760405162461bcd60e51b815260206004820152602b60248201527f6572726f723a205468652061646472657373206973206e6f7420656c6967616260448201526a6c6520746f20636c61696d60a81b60648201526084016107a5565b3360009081526007602052604090205460ff1615610f925760405162461bcd60e51b815260206004820152602260248201527f6572726f723a54686520416464726573732068616420636c61696d6564204d42604482015261415360f01b60648201526084016107a5565b6000610fb7600a54610fb16005546009546119d690919063ffffffff16565b906119e9565b90506000610fc482611402565b9050600e54811161111d576008546005546009546001600160a01b039092169163a9059cbb913391610ff5916119d6565b6040516001600160e01b031960e085901b1681526001600160a01b03909216600483015260248201526044016020604051808303816000875af1158015611040573d6000803e3d6000fd5b505050506040513d601f19601f820116820180604052508101906110649190611bdc565b50336001600160a01b03166108fc82600e546110809190611c64565b6040518115909202916000818181858888f193505050501580156110a8573d6000803e3d6000fd5b507f34fcbac0073d7c3d388e51312faf357774904998eeb8fca628b9e6f65ee1cbf7336110e26005546009546119d690919063ffffffff16565b83600e546110f09190611c64565b604080516001600160a01b03909416845260208401929092529082015260600160405180910390a1611223565b600061112a600e5461123b565b600854600a549192506001600160a01b03169063a9059cbb9033906111509085906119d6565b6040516001600160e01b031960e085901b1681526001600160a01b03909216600483015260248201526044016020604051808303816000875af115801561119b573d6000803e3d6000fd5b505050506040513d601f19601f820116820180604052508101906111bf9190611bdc565b507f34fcbac0073d7c3d388e51312faf357774904998eeb8fca628b9e6f65ee1cbf7336111f7600a54846119d690919063ffffffff16565b604080516001600160a01b039093168352602083019190915260009082015260600160405180910390a1505b505061087160018055565b6112366115cf565b600a55565b600b546040805160028082526060820183526000936001600160a01b03169284929190602083019080368337019050509050816001600160a01b031663ad5c46486040518163ffffffff1660e01b8152600401602060405180830381865afa1580156112ab573d6000803e3d6000fd5b505050506040513d601f19601f820116820180604052508101906112cf9190611c8d565b816000815181106112e2576112e2611caa565b6001600160a01b039283166020918202929092010152600c5482519116908290600190811061131357611313611caa565b6001600160a01b03928316602091820292909201015260405163d06ca61f60e01b815260009184169063d06ca61f906113529088908690600401611cc0565b600060405180830381865afa15801561136f573d6000803e3d6000fd5b505050506040513d6000823e601f3d908101601f191682016040526113979190810190611d48565b9050806001815181106113ac576113ac611caa565b60200260200101519350505050919050565b6113c66115cf565b600b80546001600160a01b0319166001600160a01b0392909216919091179055565b6113f06115cf565b600355565b6113fd6115cf565b600955565b600b546040805160028082526060820183526000936001600160a01b031692849291906020830190803683375050600c5482519293506001600160a01b03169183915060009061145457611454611caa565b60200260200101906001600160a01b031690816001600160a01b031681525050816001600160a01b031663ad5c46486040518163ffffffff1660e01b8152600401602060405180830381865afa1580156114b2573d6000803e3d6000fd5b505050506040513d601f19601f820116820180604052508101906114d69190611c8d565b8160018151811061131357611313611caa565b6114f16115cf565b600e93909355600f91909155601055601155565b61150d6115cf565b601380546001600160a01b0319166001600160a01b0392909216919091179055565b6115376115cf565b6001600160a01b03811661159c5760405162461bcd60e51b815260206004820152602660248201527f4f776e61626c653a206e6577206f776e657220697320746865207a65726f206160448201526564647265737360d01b60648201526084016107a5565b610dc181611629565b6115ad6115cf565b600880546001600160a01b0319166001600160a01b0392909216919091179055565b6000546001600160a01b031633146108715760405162461bcd60e51b815260206004820181905260248201527f4f776e61626c653a2063616c6c6572206973206e6f7420746865206f776e657260448201526064016107a5565b600080546001600160a01b038381166001600160a01b0319831681178455604051919092169283917f8be0079c531659141344cd1fd0a4f28419497f9722a3daafe3b4186f6b6457e09190a35050565b6002600154036116cb5760405162461bcd60e51b815260206004820152601f60248201527f5265656e7472616e637947756172643a207265656e7472616e742063616c6c0060448201526064016107a5565b6002600155565b600080808080806116e587890189611dee565b94509450945094509450336001600160a01b0316856001600160a01b0316146117495760405162461bcd60e51b815260206004820152601660248201527521393ab7233ab7321d1024a72b20a624a22faaa9a2a960511b60448201526064016107a5565b3360009081526014602052604090205483146117a75760405162461bcd60e51b815260206004820152601760248201527f4272756e46756e643a20494e56414c49445f4e4f4e434500000000000000000060448201526064016107a5565b814211156117eb5760405162461bcd60e51b8152602060048201526011602482015270109c9d5b919d5b990e881512535153d555607a1b60448201526064016107a5565b60008060006117f9846119f5565b925092509250600060125460405160200161185d907f5065726d6974286164647265737320757365722c75696e743235362072616e6b81527f2c75696e74323536206e6f6e63652c75696e7432353620646561646c696e6529602082015260400190565b60408051808303601f190181528282528051602091820120818401526001600160a01b038d1683830152606083018c9052608083018b905260a08084018b90528251808503909101815260c08401909252815191012061190160f01b60e083015260e28201929092526101028101919091526101220160408051601f1981840301815282825280516020918201206000845290830180835281905260ff8716918301919091526060820185905260808201849052915060019060a0016020604051602081039080840390855afa15801561193b573d6000803e3d6000fd5b5050604051601f1901516013546001600160a01b0390811691161490506119a45760405162461bcd60e51b815260206004820152601860248201527f4272756e46756e643a20494e56414c49445f53494e474552000000000000000060448201526064016107a5565b3360009081526014602052604081208054916119bf83611c4b565b909155509799505050505050505050505b92915050565b60006119e28284611eb3565b9392505050565b60006119e28284611ed5565b60008060008351604114611a4b5760405162461bcd60e51b815260206004820152601a60248201527f4e6f7420496e76616c6964205369676e6174757265204461746100000000000060448201526064016107a5565b5050506020810151604082015160609092015160001a92909190565b6001600160a01b0381168114610dc157600080fd5b600080600060608486031215611a9157600080fd5b8335611a9c81611a67565b92506020840135611aac81611a67565b929592945050506040919091013590565b600060208284031215611acf57600080fd5b81356119e281611a67565b600060208284031215611aec57600080fd5b5035919050565b60008060208385031215611b0657600080fd5b823567ffffffffffffffff80821115611b1e57600080fd5b818501915085601f830112611b3257600080fd5b813581811115611b4157600080fd5b866020828501011115611b5357600080fd5b60209290920196919550909350505050565b60008060408385031215611b7857600080fd5b8235611b8381611a67565b946020939093013593505050565b60008060008060808587031215611ba757600080fd5b5050823594602084013594506040840135936060013592509050565b600060208284031215611bd557600080fd5b5051919050565b600060208284031215611bee57600080fd5b815180151581146119e257600080fd5b6020808252601a908201527f6572726f723a20696e73756666696369656e742076616c756520000000000000604082015260600190565b634e487b7160e01b600052601160045260246000fd5b600060018201611c5d57611c5d611c35565b5060010190565b818103818111156119d0576119d0611c35565b634e487b7160e01b600052604160045260246000fd5b600060208284031215611c9f57600080fd5b81516119e281611a67565b634e487b7160e01b600052603260045260246000fd5b6000604082018483526020604081850152818551808452606086019150828701935060005b81811015611d0a5784516001600160a01b031683529383019391830191600101611ce5565b5090979650505050505050565b604051601f8201601f1916810167ffffffffffffffff81118282101715611d4057611d40611c77565b604052919050565b60006020808385031215611d5b57600080fd5b825167ffffffffffffffff80821115611d7357600080fd5b818501915085601f830112611d8757600080fd5b815181811115611d9957611d99611c77565b8060051b9150611daa848301611d17565b8181529183018401918481019088841115611dc457600080fd5b938501935b83851015611de257845182529385019390850190611dc9565b98975050505050505050565b600080600080600060a08688031215611e0657600080fd5b8535611e1181611a67565b945060208681013594506040870135935060608701359250608087013567ffffffffffffffff80821115611e4457600080fd5b818901915089601f830112611e5857600080fd5b813581811115611e6a57611e6a611c77565b611e7c601f8201601f19168501611d17565b91508082528a84828501011115611e9257600080fd5b80848401858401376000848284010152508093505050509295509295909350565b600082611ed057634e487b7160e01b600052601260045260246000fd5b500490565b80820281158282048414176119d0576119d0611c3556fea2646970667358221220956703cd29ded14818a329c33154ce6906d8626359a2333b4daa41f65ab9e75c64736f6c63430008110033",
  "linkReferences": {},
  "deployedLinkReferences": {}
}