{
  "_format": "hh-sol-artifact-1",
  "contractName": "Stake",
  "sourceName": "contracts/Stake.sol",
  "abi": [
    {
      "inputs": [
        {
          "internalType": "address",
          "name": "_nftAddress",
          "type": "address"
        },
        {
          "internalType": "address",
          "name": "_singer",
          "type": "address"
        }
      ],
      "stateMutability": "nonpayable",
      "type": "constructor"
    },
    {
      "anonymous": false,
      "inputs": [
        {
          "indexed": true,
          "internalType": "address",
          "name": "caller",
          "type": "address"
        },
        {
          "indexed": false,
          "internalType": "uint256",
          "name": "tokenId",
          "type": "uint256"
        }
      ],
      "name": "CancleStake",
      "type": "event"
    },
    {
      "anonymous": false,
      "inputs": [
        {
          "indexed": true,
          "internalType": "address",
          "name": "caller",
          "type": "address"
        },
        {
          "indexed": false,
          "internalType": "uint256",
          "name": "amount",
          "type": "uint256"
        }
      ],
      "name": "ImproveHashRate",
      "type": "event"
    },
    {
      "anonymous": false,
      "inputs": [
        {
          "indexed": true,
          "internalType": "bytes32",
          "name": "role",
          "type": "bytes32"
        },
        {
          "indexed": true,
          "internalType": "bytes32",
          "name": "previousAdminRole",
          "type": "bytes32"
        },
        {
          "indexed": true,
          "internalType": "bytes32",
          "name": "newAdminRole",
          "type": "bytes32"
        }
      ],
      "name": "RoleAdminChanged",
      "type": "event"
    },
    {
      "anonymous": false,
      "inputs": [
        {
          "indexed": true,
          "internalType": "bytes32",
          "name": "role",
          "type": "bytes32"
        },
        {
          "indexed": true,
          "internalType": "address",
          "name": "account",
          "type": "address"
        },
        {
          "indexed": true,
          "internalType": "address",
          "name": "sender",
          "type": "address"
        }
      ],
      "name": "RoleGranted",
      "type": "event"
    },
    {
      "anonymous": false,
      "inputs": [
        {
          "indexed": true,
          "internalType": "bytes32",
          "name": "role",
          "type": "bytes32"
        },
        {
          "indexed": true,
          "internalType": "address",
          "name": "account",
          "type": "address"
        },
        {
          "indexed": true,
          "internalType": "address",
          "name": "sender",
          "type": "address"
        }
      ],
      "name": "RoleRevoked",
      "type": "event"
    },
    {
      "anonymous": false,
      "inputs": [
        {
          "indexed": true,
          "internalType": "address",
          "name": "caller",
          "type": "address"
        },
        {
          "indexed": false,
          "internalType": "uint256",
          "name": "tokenId",
          "type": "uint256"
        }
      ],
      "name": "StakeEvent",
      "type": "event"
    },
    {
      "anonymous": false,
      "inputs": [
        {
          "indexed": true,
          "internalType": "address",
          "name": "caller",
          "type": "address"
        },
        {
          "indexed": true,
          "internalType": "address",
          "name": "token",
          "type": "address"
        },
        {
          "indexed": false,
          "internalType": "uint256",
          "name": "amount",
          "type": "uint256"
        },
        {
          "indexed": false,
          "internalType": "uint256",
          "name": "timestamp",
          "type": "uint256"
        },
        {
          "indexed": false,
          "internalType": "uint256",
          "name": "order",
          "type": "uint256"
        }
      ],
      "name": "WithdrawReward",
      "type": "event"
    },
    {
      "inputs": [],
      "name": "DEFAULT_ADMIN_ROLE",
      "outputs": [
        {
          "internalType": "bytes32",
          "name": "",
          "type": "bytes32"
        }
      ],
      "stateMutability": "view",
      "type": "function"
    },
    {
      "inputs": [],
      "name": "DOMAIN_SEPARATOR",
      "outputs": [
        {
          "internalType": "bytes32",
          "name": "",
          "type": "bytes32"
        }
      ],
      "stateMutability": "view",
      "type": "function"
    },
    {
      "inputs": [],
      "name": "MANAGE_ROLE",
      "outputs": [
        {
          "internalType": "bytes32",
          "name": "",
          "type": "bytes32"
        }
      ],
      "stateMutability": "view",
      "type": "function"
    },
    {
      "inputs": [
        {
          "internalType": "address",
          "name": "token",
          "type": "address"
        }
      ],
      "name": "balance",
      "outputs": [
        {
          "internalType": "uint256",
          "name": "",
          "type": "uint256"
        }
      ],
      "stateMutability": "view",
      "type": "function"
    },
    {
      "inputs": [
        {
          "internalType": "bytes32",
          "name": "role",
          "type": "bytes32"
        }
      ],
      "name": "getRoleAdmin",
      "outputs": [
        {
          "internalType": "bytes32",
          "name": "",
          "type": "bytes32"
        }
      ],
      "stateMutability": "view",
      "type": "function"
    },
    {
      "inputs": [
        {
          "internalType": "bytes32",
          "name": "role",
          "type": "bytes32"
        },
        {
          "internalType": "address",
          "name": "account",
          "type": "address"
        }
      ],
      "name": "grantRole",
      "outputs": [],
      "stateMutability": "nonpayable",
      "type": "function"
    },
    {
      "inputs": [
        {
          "internalType": "bytes32",
          "name": "role",
          "type": "bytes32"
        },
        {
          "internalType": "address",
          "name": "account",
          "type": "address"
        }
      ],
      "name": "hasRole",
      "outputs": [
        {
          "internalType": "bool",
          "name": "",
          "type": "bool"
        }
      ],
      "stateMutability": "view",
      "type": "function"
    },
    {
      "inputs": [
        {
          "internalType": "address",
          "name": "",
          "type": "address"
        }
      ],
      "name": "nonces",
      "outputs": [
        {
          "internalType": "uint256",
          "name": "",
          "type": "uint256"
        }
      ],
      "stateMutability": "view",
      "type": "function"
    },
    {
      "inputs": [
        {
          "internalType": "address",
          "name": "",
          "type": "address"
        },
        {
          "internalType": "address",
          "name": "",
          "type": "address"
        },
        {
          "internalType": "uint256",
          "name": "",
          "type": "uint256"
        },
        {
          "internalType": "bytes",
          "name": "",
          "type": "bytes"
        }
      ],
      "name": "onERC721Received",
      "outputs": [
        {
          "internalType": "bytes4",
          "name": "",
          "type": "bytes4"
        }
      ],
      "stateMutability": "nonpayable",
      "type": "function"
    },
    {
      "inputs": [
        {
          "internalType": "bytes32",
          "name": "role",
          "type": "bytes32"
        },
        {
          "internalType": "address",
          "name": "account",
          "type": "address"
        }
      ],
      "name": "renounceRole",
      "outputs": [],
      "stateMutability": "nonpayable",
      "type": "function"
    },
    {
      "inputs": [
        {
          "internalType": "bytes32",
          "name": "role",
          "type": "bytes32"
        },
        {
          "internalType": "address",
          "name": "account",
          "type": "address"
        }
      ],
      "name": "revokeRole",
      "outputs": [],
      "stateMutability": "nonpayable",
      "type": "function"
    },
    {
      "inputs": [
        {
          "internalType": "address",
          "name": "_nftAddress",
          "type": "address"
        }
      ],
      "name": "setSupportedNftAddress",
      "outputs": [],
      "stateMutability": "nonpayable",
      "type": "function"
    },
    {
      "inputs": [],
      "name": "signer",
      "outputs": [
        {
          "internalType": "address",
          "name": "",
          "type": "address"
        }
      ],
      "stateMutability": "view",
      "type": "function"
    },
    {
      "inputs": [
        {
          "internalType": "address",
          "name": "nftAddress",
          "type": "address"
        },
        {
          "internalType": "uint256",
          "name": "tokenId",
          "type": "uint256"
        }
      ],
      "name": "stake",
      "outputs": [],
      "stateMutability": "nonpayable",
      "type": "function"
    },
    {
      "inputs": [
        {
          "internalType": "uint256",
          "name": "",
          "type": "uint256"
        }
      ],
      "name": "stakeAddress",
      "outputs": [
        {
          "internalType": "address",
          "name": "",
          "type": "address"
        }
      ],
      "stateMutability": "view",
      "type": "function"
    },
    {
      "inputs": [
        {
          "internalType": "uint256",
          "name": "",
          "type": "uint256"
        }
      ],
      "name": "stakeState",
      "outputs": [
        {
          "internalType": "bool",
          "name": "",
          "type": "bool"
        }
      ],
      "stateMutability": "view",
      "type": "function"
    },
    {
      "inputs": [
        {
          "internalType": "address",
          "name": "",
          "type": "address"
        }
      ],
      "name": "supportedNftAddress",
      "outputs": [
        {
          "internalType": "bool",
          "name": "",
          "type": "bool"
        }
      ],
      "stateMutability": "view",
      "type": "function"
    },
    {
      "inputs": [
        {
          "internalType": "bytes4",
          "name": "interfaceId",
          "type": "bytes4"
        }
      ],
      "name": "supportsInterface",
      "outputs": [
        {
          "internalType": "bool",
          "name": "",
          "type": "bool"
        }
      ],
      "stateMutability": "view",
      "type": "function"
    },
    {
      "inputs": [
        {
          "internalType": "address",
          "name": "nftAddress",
          "type": "address"
        },
        {
          "internalType": "uint256",
          "name": "tokenId",
          "type": "uint256"
        }
      ],
      "name": "unstake",
      "outputs": [],
      "stateMutability": "nonpayable",
      "type": "function"
    },
    {
      "inputs": [
        {
          "internalType": "bytes",
          "name": "data",
          "type": "bytes"
        }
      ],
      "name": "withdrawReward",
      "outputs": [],
      "stateMutability": "nonpayable",
      "type": "function"
    }
  ],
  "bytecode": "0x60806040523480156200001157600080fd5b506040516200178c3803806200178c833981016040819052620000349162000243565b6001600160a01b0382811660009081526001602081905260408220805460ff19169091179055600580546001600160a01b0319169284169290921790915562000085906200007f3390565b62000185565b620000b17fa076a07f65bcd51bcb15a0f01a65bc18f2d922acb81bcfd8af4caf5adb5570913362000185565b505060408051808201825260058152645374616b6560d81b6020918201528151808301835260018152603160f81b9082015281517f8b73c3c69bb8fe3d512ecc4cf759cc79239f7b179b0ffacaa9a75d522b39400f818301527f46e0152631724883515adf5183d0ad68b0f3fdb4ea59b5bb258492ab0edd5ec7818401527fc89efdaa54c0f20c7adf612882df0950f5a951637e0307cdcb4c672f298b8bc660608201524660808201523060a0808301919091528351808303909101815260c090910190925281519101206004556200027b565b6000828152602081815260408083206001600160a01b038516845290915290205460ff1662000222576000828152602081815260408083206001600160a01b03851684529091529020805460ff19166001179055620001e13390565b6001600160a01b0316816001600160a01b0316837f2f8788117e7eff1d82e926ec794901d17c78024a50270940304540a733656f0d60405160405180910390a45b5050565b80516001600160a01b03811681146200023e57600080fd5b919050565b600080604083850312156200025757600080fd5b620002628362000226565b9150620002726020840162000226565b90509250929050565b611501806200028b6000396000f3fe608060405234801561001057600080fd5b506004361061012c5760003560e01c80636e13d418116100ad578063adc9772e11610071578063adc9772e146102f1578063be8c250314610304578063c2a672e014610327578063d547741f1461033a578063e3d670d71461034d57600080fd5b80636e13d4181461026a5780636ea3b5a8146102935780637ecebe00146102b657806391d14854146102d6578063a217fddf146102e957600080fd5b80632f2ff15d116100f45780632f2ff15d146102015780633644e5151461021457806336568abe1461021d57806360a4b76a146102305780636763ccbd1461025757600080fd5b806301ffc9a71461013157806309d950f914610159578063150b7a021461016e578063238ac933146101a5578063248a9ca3146101d0575b600080fd5b61014461013f366004611037565b610360565b60405190151581526020015b60405180910390f35b61016c610167366004611076565b610397565b005b61018c61017c366004611158565b630a85bd0160e11b949350505050565b6040516001600160e01b03199091168152602001610150565b6005546101b8906001600160a01b031681565b6040516001600160a01b039091168152602001610150565b6101f36101de3660046111c4565b60009081526020819052604090206001015490565b604051908152602001610150565b61016c61020f3660046111dd565b61043a565b6101f360045481565b61016c61022b3660046111dd565b610464565b6101f37fa076a07f65bcd51bcb15a0f01a65bc18f2d922acb81bcfd8af4caf5adb55709181565b61016c61026536600461120d565b6104e2565b6101b86102783660046111c4565b6003602052600090815260409020546001600160a01b031681565b6101446102a13660046111c4565b60026020526000908152604090205460ff1681565b6101f36102c4366004611076565b60066020526000908152604090205481565b6101446102e43660046111dd565b6108df565b6101f3600081565b61016c6102ff36600461124a565b610908565b610144610312366004611076565b60016020526000908152604090205460ff1681565b61016c61033536600461124a565b610a3f565b61016c6103483660046111dd565b610c1d565b6101f361035b366004611076565b610c42565b60006001600160e01b03198216637965db0b60e01b148061039157506301ffc9a760e01b6001600160e01b03198316145b92915050565b7fa076a07f65bcd51bcb15a0f01a65bc18f2d922acb81bcfd8af4caf5adb5570916103c181610cc1565b6001600160a01b0382166104125760405162461bcd60e51b81526020600482015260136024820152725374616b653a205a45524f5f4144445245535360681b60448201526064015b60405180910390fd5b506001600160a01b03166000908152600160208190526040909120805460ff19169091179055565b60008281526020819052604090206001015461045581610cc1565b61045f8383610cce565b505050565b6001600160a01b03811633146104d45760405162461bcd60e51b815260206004820152602f60248201527f416363657373436f6e74726f6c3a2063616e206f6e6c792072656e6f756e636560448201526e103937b632b9903337b91039b2b63360891b6064820152608401610409565b6104de8282610d52565b5050565b600080600080600080600087806020019051810190610501919061129a565b9650965096509650965096509650336001600160a01b0316876001600160a01b0316146105655760405162461bcd60e51b815260206004820152601260248201527129ba30b5b29d24a72b20a624a22faaa9a2a960711b6044820152606401610409565b3360009081526006602052604090205483146105b95760405162461bcd60e51b81526020600482015260136024820152725374616b653a494e56414c49445f4e4f4e434560681b6044820152606401610409565b60008060006105c784610db7565b6004546040519396509194509250600091610654906020017f5065726d6974286164647265737320757365722c6164647265737320746f6b6581527f6e2c75696e74323536206f726465722c75696e7432353620616d6f756e742c7560208201527f696e74323536206e6f6e63652c75696e7432353620646561646c696e652900006040820152605e0190565b60408051808303601f190181528282528051602091820120818401526001600160a01b038f8116848401528e166060840152608083018d905260a083018c905260c083018b905260e08084018b9052825180850390910181526101008401909252815191012061190160f01b6101208301526101228201929092526101428101919091526101620160408051601f1981840301815282825280516020918201206000845290830180835281905260ff8716918301919091526060820185905260808201849052915060019060a0016020604051602081039080840390855afa158015610744573d6000803e3d6000fd5b5050604051601f1901516005546001600160a01b0390811691161490506107a55760405162461bcd60e51b815260206004820152601560248201527411549493d48e9253959053125117d49154555154d5605a1b6044820152606401610409565b3360009081526006602052604081208054916107c083611378565b9190505550876107cf8b610c42565b10156108125760405162461bcd60e51b815260206004820152601260248201527114dd185ad94e925394d551919250d251539560721b6044820152606401610409565b60405163a9059cbb60e01b8152336004820152602481018990526001600160a01b038b169063a9059cbb906044016020604051808303816000875af115801561085f573d6000803e3d6000fd5b505050506040513d601f19601f820116820180604052508101906108839190611391565b50604080518981524260208201529081018a90526001600160a01b038b169033907fbb873e1f721a078dc6666b560c8f8a58540d7f2482138c9ecb84a8f7fa7cf73b9060600160405180910390a3505050505050505050505050565b6000918252602082815260408084206001600160a01b0393909316845291905290205460ff1690565b6001600160a01b03821660009081526001602052604090205460ff1661096b5760405162461bcd60e51b8152602060048201526018602482015277195c9c9bdc8e881b9bdd081cdd5c1c1bdc9d1959081b999d60421b6044820152606401610409565b604051632142170760e11b8152336004820152306024820152604481018290526001600160a01b038316906342842e0e90606401600060405180830381600087803b1580156109b957600080fd5b505af11580156109cd573d6000803e3d6000fd5b5050506000828152600260209081526040808320805460ff19166001179055600382529182902080546001600160a01b0319163390811790915591518481529192507fb58845b0a64f92dd8d1ba04f905319d6be2021b57783b3d10155e7e36a84e12891015b60405180910390a25050565b6001600160a01b03821660009081526001602052604090205460ff16610aa25760405162461bcd60e51b8152602060048201526018602482015277195c9c9bdc8e881b9bdd081cdd5c1c1bdc9d1959081b999d60421b6044820152606401610409565b6000818152600360205260409020546001600160a01b03163314610b085760405162461bcd60e51b815260206004820152601860248201527f5374616b653a204e4f545f5354414b455f4144445245535300000000000000006044820152606401610409565b60008181526002602052604090205460ff16610b595760405162461bcd60e51b815260206004820152601060248201526f5374616b653a204e4f545f5354414b4560801b6044820152606401610409565b604051632142170760e11b8152306004820152336024820152604481018290526001600160a01b038316906342842e0e90606401600060405180830381600087803b158015610ba757600080fd5b505af1158015610bbb573d6000803e3d6000fd5b5050506000828152600260209081526040808320805460ff19169055600382529182902080546001600160a01b031916905590518381523392507f7b1dc03267ac7888666a44f4b18181d2f89e340a6e58b5979696bc733346a0049101610a33565b600082815260208190526040902060010154610c3881610cc1565b61045f8383610d52565b60006001600160a01b038216610c59575047919050565b6040516370a0823160e01b81523060048201526001600160a01b038316906370a0823190602401602060405180830381865afa158015610c9d573d6000803e3d6000fd5b505050506040513d601f19601f8201168201806040525081019061039191906113b3565b610ccb8133610e29565b50565b610cd882826108df565b6104de576000828152602081815260408083206001600160a01b03851684529091529020805460ff19166001179055610d0e3390565b6001600160a01b0316816001600160a01b0316837f2f8788117e7eff1d82e926ec794901d17c78024a50270940304540a733656f0d60405160405180910390a45050565b610d5c82826108df565b156104de576000828152602081815260408083206001600160a01b0385168085529252808320805460ff1916905551339285917ff6391f5c32d9c69d2a47ea670b442974b53935d1edc7fd64eb21e047a839171b9190a45050565b60008060008351604114610e0d5760405162461bcd60e51b815260206004820152601a60248201527f4e6f7420496e76616c6964205369676e617475726520446174610000000000006044820152606401610409565b5050506020810151604082015160609092015160001a92909190565b610e3382826108df565b6104de57610e4081610e82565b610e4b836020610e94565b604051602001610e5c9291906113cc565b60408051601f198184030181529082905262461bcd60e51b825261040991600401611441565b60606103916001600160a01b03831660145b60606000610ea3836002611474565b610eae90600261148b565b67ffffffffffffffff811115610ec657610ec6611093565b6040519080825280601f01601f191660200182016040528015610ef0576020820181803683370190505b509050600360fc1b81600081518110610f0b57610f0b61149e565b60200101906001600160f81b031916908160001a905350600f60fb1b81600181518110610f3a57610f3a61149e565b60200101906001600160f81b031916908160001a9053506000610f5e846002611474565b610f6990600161148b565b90505b6001811115610fe1576f181899199a1a9b1b9c1cb0b131b232b360811b85600f1660108110610f9d57610f9d61149e565b1a60f81b828281518110610fb357610fb361149e565b60200101906001600160f81b031916908160001a90535060049490941c93610fda816114b4565b9050610f6c565b5083156110305760405162461bcd60e51b815260206004820181905260248201527f537472696e67733a20686578206c656e67746820696e73756666696369656e746044820152606401610409565b9392505050565b60006020828403121561104957600080fd5b81356001600160e01b03198116811461103057600080fd5b6001600160a01b0381168114610ccb57600080fd5b60006020828403121561108857600080fd5b813561103081611061565b634e487b7160e01b600052604160045260246000fd5b604051601f8201601f1916810167ffffffffffffffff811182821017156110d2576110d2611093565b604052919050565b600067ffffffffffffffff8211156110f4576110f4611093565b50601f01601f191660200190565b600082601f83011261111357600080fd5b8135611126611121826110da565b6110a9565b81815284602083860101111561113b57600080fd5b816020850160208301376000918101602001919091529392505050565b6000806000806080858703121561116e57600080fd5b843561117981611061565b9350602085013561118981611061565b925060408501359150606085013567ffffffffffffffff8111156111ac57600080fd5b6111b887828801611102565b91505092959194509250565b6000602082840312156111d657600080fd5b5035919050565b600080604083850312156111f057600080fd5b82359150602083013561120281611061565b809150509250929050565b60006020828403121561121f57600080fd5b813567ffffffffffffffff81111561123657600080fd5b61124284828501611102565b949350505050565b6000806040838503121561125d57600080fd5b823561126881611061565b946020939093013593505050565b60005b83811015611291578181015183820152602001611279565b50506000910152565b600080600080600080600060e0888a0312156112b557600080fd5b87516112c081611061565b60208901519097506112d181611061565b8096505060408801519450606088015193506080880151925060a0880151915060c088015167ffffffffffffffff81111561130b57600080fd5b8801601f81018a1361131c57600080fd5b805161132a611121826110da565b8181528b602083850101111561133f57600080fd5b611350826020830160208601611276565b80935050505092959891949750929550565b634e487b7160e01b600052601160045260246000fd5b60006001820161138a5761138a611362565b5060010190565b6000602082840312156113a357600080fd5b8151801515811461103057600080fd5b6000602082840312156113c557600080fd5b5051919050565b7f416363657373436f6e74726f6c3a206163636f756e7420000000000000000000815260008351611404816017850160208801611276565b7001034b99036b4b9b9b4b733903937b6329607d1b6017918401918201528351611435816028840160208801611276565b01602801949350505050565b6020815260008251806020840152611460816040850160208701611276565b601f01601f19169190910160400192915050565b808202811582820484141761039157610391611362565b8082018082111561039157610391611362565b634e487b7160e01b600052603260045260246000fd5b6000816114c3576114c3611362565b50600019019056fea26469706673582212209a606a086e1c26ec508c6d074418af00d631c06618cbdc9874802df59f8b974164736f6c63430008110033",
  "linkReferences": {},
  "deployedLinkReferences": {}
}