{
  "_format": "hh-sol-artifact-1",
  "contractName": "VerifySignature",
  "sourceName": "contracts/utils/VerifySignature.sol",
  "abi": [
    {
      "inputs": [],
      "stateMutability": "nonpayable",
      "type": "constructor"
    },
    {
      "inputs": [],
      "name": "a",
      "outputs": [
        {
          "internalType": "address",
          "name": "",
          "type": "address"
        }
      ],
      "stateMutability": "view",
      "type": "function"
    },
    {
      "inputs": [],
      "name": "ab",
      "outputs": [
        {
          "internalType": "address",
          "name": "",
          "type": "address"
        }
      ],
      "stateMutability": "view",
      "type": "function"
    },
    {
      "inputs": [],
      "name": "ac",
      "outputs": [
        {
          "internalType": "address",
          "name": "",
          "type": "address"
        }
      ],
      "stateMutability": "view",
      "type": "function"
    },
    {
      "inputs": [],
      "name": "b",
      "outputs": [
        {
          "internalType": "uint256",
          "name": "",
          "type": "uint256"
        }
      ],
      "stateMutability": "view",
      "type": "function"
    },
    {
      "inputs": [
        {
          "internalType": "uint256",
          "name": "",
          "type": "uint256"
        }
      ],
      "name": "c",
      "outputs": [
        {
          "internalType": "uint256",
          "name": "",
          "type": "uint256"
        }
      ],
      "stateMutability": "view",
      "type": "function"
    },
    {
      "inputs": [
        {
          "internalType": "uint256",
          "name": "",
          "type": "uint256"
        }
      ],
      "name": "d",
      "outputs": [
        {
          "internalType": "uint256",
          "name": "",
          "type": "uint256"
        }
      ],
      "stateMutability": "view",
      "type": "function"
    },
    {
      "inputs": [],
      "name": "f",
      "outputs": [
        {
          "internalType": "bytes",
          "name": "",
          "type": "bytes"
        }
      ],
      "stateMutability": "view",
      "type": "function"
    },
    {
      "inputs": [
        {
          "internalType": "bytes",
          "name": "data",
          "type": "bytes"
        }
      ],
      "name": "verifyBuyBox",
      "outputs": [
        {
          "internalType": "uint256",
          "name": "",
          "type": "uint256"
        },
        {
          "internalType": "uint256",
          "name": "",
          "type": "uint256"
        },
        {
          "internalType": "string",
          "name": "",
          "type": "string"
        },
        {
          "internalType": "address",
          "name": "",
          "type": "address"
        },
        {
          "internalType": "address",
          "name": "",
          "type": "address"
        }
      ],
      "stateMutability": "nonpayable",
      "type": "function"
    },
    {
      "inputs": [
        {
          "internalType": "bytes",
          "name": "data",
          "type": "bytes"
        }
      ],
      "name": "verifyBuyNode",
      "outputs": [
        {
          "internalType": "address",
          "name": "",
          "type": "address"
        },
        {
          "internalType": "uint256",
          "name": "",
          "type": "uint256"
        },
        {
          "internalType": "uint256",
          "name": "",
          "type": "uint256"
        },
        {
          "internalType": "address",
          "name": "",
          "type": "address"
        }
      ],
      "stateMutability": "nonpayable",
      "type": "function"
    },
    {
      "inputs": [
        {
          "internalType": "bytes",
          "name": "data",
          "type": "bytes"
        }
      ],
      "name": "verifyOpenBox",
      "outputs": [
        {
          "internalType": "uint256[]",
          "name": "",
          "type": "uint256[]"
        },
        {
          "internalType": "address",
          "name": "",
          "type": "address"
        },
        {
          "internalType": "uint256",
          "name": "",
          "type": "uint256"
        },
        {
          "internalType": "uint256[]",
          "name": "",
          "type": "uint256[]"
        },
        {
          "internalType": "uint256[]",
          "name": "",
          "type": "uint256[]"
        }
      ],
      "stateMutability": "nonpayable",
      "type": "function"
    },
    {
      "inputs": [
        {
          "internalType": "bytes",
          "name": "data",
          "type": "bytes"
        }
      ],
      "name": "verifyQuitNode",
      "outputs": [
        {
          "internalType": "address",
          "name": "",
          "type": "address"
        },
        {
          "internalType": "uint256",
          "name": "",
          "type": "uint256"
        },
        {
          "internalType": "uint256",
          "name": "",
          "type": "uint256"
        }
      ],
      "stateMutability": "nonpayable",
      "type": "function"
    },
    {
      "inputs": [
        {
          "internalType": "uint256",
          "name": "",
          "type": "uint256"
        }
      ],
      "name": "verifyRecord",
      "outputs": [
        {
          "internalType": "bool",
          "name": "",
          "type": "bool"
        }
      ],
      "stateMutability": "view",
      "type": "function"
    },
    {
      "inputs": [
        {
          "internalType": "bytes",
          "name": "data",
          "type": "bytes"
        }
      ],
      "name": "verifySetNFTUrl",
      "outputs": [
        {
          "internalType": "string[]",
          "name": "",
          "type": "string[]"
        }
      ],
      "stateMutability": "nonpayable",
      "type": "function"
    },
    {
      "inputs": [
        {
          "internalType": "bytes",
          "name": "data",
          "type": "bytes"
        }
      ],
      "name": "verifySynthesis",
      "outputs": [
        {
          "internalType": "uint256[]",
          "name": "ids",
          "type": "uint256[]"
        },
        {
          "internalType": "address[]",
          "name": "addressList",
          "type": "address[]"
        },
        {
          "internalType": "string",
          "name": "tokenUrl",
          "type": "string"
        }
      ],
      "stateMutability": "nonpayable",
      "type": "function"
    },
    {
      "inputs": [
        {
          "internalType": "bytes",
          "name": "data",
          "type": "bytes"
        }
      ],
      "name": "verifyWithdraw",
      "outputs": [
        {
          "internalType": "address",
          "name": "",
          "type": "address"
        },
        {
          "internalType": "uint256",
          "name": "",
          "type": "uint256"
        },
        {
          "internalType": "address",
          "name": "",
          "type": "address"
        },
        {
          "internalType": "uint256",
          "name": "",
          "type": "uint256"
        }
      ],
      "stateMutability": "nonpayable",
      "type": "function"
    }
  ],
  "bytecode": "0x608060405234801561001057600080fd5b50600080546001600160a01b031916301790556040805160808101909152605f808252469190620020bd602083013960405160200161004f919061011b565b60408051808303601f190181528282528051602091820120600054918401527f6551f9d3dc46baaf3a8bc187aaafcb85ec62c06195c627ab97ba902f7f0b734c918301919091527fe6bbd6277e1bf288eed5e8d1780f9a50b239e86b153736bceebccf4ea79d90b36060830152608082018390526001600160a01b031660a08201527f24671349f61b9f588e658201d3c954256b4c3fea0f1f42b3e0afd58a3daa971160c082015260e00160408051601f1981840301815291905280516020909101206001555061014a565b6000825160005b8181101561013c5760208186018101518583015201610122565b506000920191825250919050565b611f63806200015a6000396000f3fe608060405234801561001057600080fd5b50600436106100f55760003560e01c80634df7e3d011610097578063eec49d4211610066578063eec49d421461027f578063f873c656146102a1578063f8d5123b146102c5578063fdf8d94a146102e757600080fd5b80634df7e3d01461022f5780634f8dd50d1461024657806354b7c39b146102595780637f6b590c1461026c57600080fd5b80633af4d950116100d35780633af4d9501461015257806342093ccf1461018557806342095cf5146101cd5780634c0f0abb146101ed57600080fd5b80630dbe671f146100fa5780631fe5d6e31461012a57806326121ff01461013d575b600080fd5b60065461010d906001600160a01b031681565b6040516001600160a01b0390911681526020015b60405180910390f35b60045461010d906001600160a01b031681565b61014561030b565b60405161012191906112b2565b6101756101603660046112cc565b60026020526000908152604090205460ff1681565b6040519015158152602001610121565b610198610193366004611354565b610399565b60405161012194939291906001600160a01b039485168152602081019390935292166040820152606081019190915260800190565b6101e06101db366004611354565b610616565b6040516101219190611426565b6102006101fb366004611354565b61078c565b604080516001600160a01b03958616815260208101949094528301919091529091166060820152608001610121565b61023860075481565b604051908152602001610121565b6102386102543660046112cc565b6108f7565b60055461010d906001600160a01b031681565b61023861027a3660046112cc565b610918565b61029261028d366004611354565b610928565b604051610121939291906114ad565b6102b46102af366004611354565b610b2b565b6040516101219594939291906114f0565b6102d86102d3366004611354565b610d79565b60405161012193929190611531565b6102fa6102f5366004611354565b610fd0565b604051610121959493929190611552565b600a8054610318906115ad565b80601f0160208091040260200160405190810160405280929190818152602001828054610344906115ad565b80156103915780601f1061036657610100808354040283529160200191610391565b820191906000526020600020905b81548152906001019060200180831161037457829003601f168201915b505050505081565b6000806000806000806000806000808a8060200190518101906103bc919061165c565b600680546001600160a01b0319166001600160a01b0388161790556007859055949a50929850909650945092509050428210156104145760405162461bcd60e51b815260040161040b906116dd565b60405180910390fd5b600086868460405160200161042b93929190611531565b60408051601f1981840301815291815281516020928301206000818152600390935291205490915060ff16156104735760405162461bcd60e51b815260040161040b90611706565b6000806000610481856111f0565b80935081945082955050505060006001546040518060a0016040528060628152602001611ecc606291396040516020016104bb919061172c565b60408051601f198184030181528282528051602091820120908301526001600160a01b03808f1691830191909152606082018d90528b16608082015260a081018a905260c0810189905260e0015b60405160208183030381529060405280519060200120604051602001610530929190611748565b60408051601f1981840301815282825280516020918201206000845290830180835281905260ff8716918301919091526060820185905260808201849052915060019060a0016020604051602081039080840390855afa158015610598573d6000803e3d6000fd5b505050602060405103516001600160a01b031673cb75c706a45feff971359f53df7dd6df47a410136001600160a01b0316146105e65760405162461bcd60e51b815260040161040b90611763565b505050600091825250600360205260409020805460ff191660011790555093975091955093509150509193509193565b60606000808380602001905181019061062f91906117b1565b915091506000806000610641846111f0565b80935081945082955050505060006001546040518060800160405280605d8152602001611e6f605d913960405160200161067b919061172c565b60405160208183030381529060405280519060200120876040516020016106a3929190611888565b604051602081830303815290604052805190602001206040516020016106ca929190611748565b60408051601f1981840301815282825280516020918201206000845290830180835281905260ff8716918301919091526060820185905260808201849052915060019060a0016020604051602081039080840390855afa158015610732573d6000803e3d6000fd5b505050602060405103516001600160a01b031673cb75c706a45feff971359f53df7dd6df47a410136001600160a01b0316146107805760405162461bcd60e51b815260040161040b90611763565b50939695505050505050565b6000806000806000806000806000808a8060200190518101906107af91906118a1565b600680546001600160a01b0319166001600160a01b0388161790556007859055949a50929850909650945092509050428210156107fe5760405162461bcd60e51b815260040161040b906116dd565b600086868460405160200161081593929190611531565b60408051601f1981840301815291815281516020928301206000818152600390935291205490915060ff161561085d5760405162461bcd60e51b815260040161040b90611706565b600080600061086b856111f0565b8093508194508295505050506000600154604051806080016040528060518152602001611dbb605191396040516020016108a5919061172c565b60408051601f198184030181528282528051602091820120908301526001600160a01b03808f1691830191909152606082018d9052608082018c90528a1660a082015260c0810189905260e001610509565b6008818154811061090757600080fd5b600091825260209091200154905081565b6009818154811061090757600080fd5b606080606060008060008087806020019051810190610947919061196f565b93509350935093506000848484604051602001610966939291906114ad565b60408051601f1981840301815291815281516020928301206000818152600390935291205490915060ff16156109ae5760405162461bcd60e51b815260040161040b90611706565b60008060006109bc856111f0565b8093508194508295505050506000600154604051806060016040528060368152602001611d42603691396040516020016109f6919061172c565b604051602081830303815290604052805190602001208a8a8a604051602001610a229493929190611a7a565b60405160208183030381529060405280519060200120604051602001610a49929190611748565b60408051601f1981840301815282825280516020918201206000845290830180835281905260ff8716918301919091526060820185905260808201849052915060019060a0016020604051602081039080840390855afa158015610ab1573d6000803e3d6000fd5b505050602060405103516001600160a01b031673cb75c706a45feff971359f53df7dd6df47a410136001600160a01b031614610aff5760405162461bcd60e51b815260040161040b90611763565b505050600091825250600360205260409020805460ff1916600117905550919450925090509193909250565b600080606060008060008060008060008060008c806020019051810190610b529190611ac4565b965096509650965096509650965081421115610b805760405162461bcd60e51b815260040161040b906116dd565b6040805160208082018a90526001600160a01b03878116838501528616606083015260808083018690528351808403909101815260a09092018352815191810191909120600081815260039092529190205460ff1615610bf25760405162461bcd60e51b815260040161040b90611706565b6000806000610c00856111f0565b80935081945082955050505060006001546040518060a0016040528060638152602001611e0c60639139604051602001610c3a919061172c565b604051602081830303815290604052805190602001208d8d8d8d8d8d604051602001610c6c9796959493929190611b6c565b60405160208183030381529060405280519060200120604051602001610c93929190611748565b60408051601f1981840301815282825280516020918201206000845290830180835281905260ff8716918301919091526060820185905260808201849052915060019060a0016020604051602081039080840390855afa158015610cfb573d6000803e3d6000fd5b505050602060405103516001600160a01b031673cb75c706a45feff971359f53df7dd6df47a410136001600160a01b031614610d495760405162461bcd60e51b815260040161040b90611763565b505050600091825250600360205260409020805460ff1916600117905550949b939a509198509650945092505050565b60008060008060008060008088806020019051810190610d999190611bb7565b600680546001600160a01b0319166001600160a01b038716179055600784905593985091965094509250905042821015610de55760405162461bcd60e51b815260040161040b906116dd565b6000858584604051602001610dfc93929190611531565b60408051601f1981840301815291815281516020928301206000818152600390935291205490915060ff1615610e445760405162461bcd60e51b815260040161040b90611706565b6000806000610e52856111f0565b8093508194508295505050506000600154604051806080016040528060438152602001611d7860439139604051602001610e8c919061172c565b60408051808303601f190181528282528051602091820120818401526001600160a01b038e1683830152606083018d9052608083018c905260a08084018c90528251808503909101815260c084019092528151910120610eef929160e001611748565b60408051601f1981840301815282825280516020918201206000845290830180835281905260ff8716918301919091526060820185905260808201849052915060019060a0016020604051602081039080840390855afa158015610f57573d6000803e3d6000fd5b505050602060405103516001600160a01b031673cb75c706a45feff971359f53df7dd6df47a410136001600160a01b031614610fa55760405162461bcd60e51b815260040161040b90611763565b505050600091825250600360205260409020805460ff19166001179055509297919650945092505050565b60606000806060806000806000806000808b806020019051810190610ff59190611c26565b604080516001600160a01b0387166020820152908101839052959b5093995091975095509350915060009060600160408051601f1981840301815291815281516020928301206000818152600390935291205490915060ff161561106b5760405162461bcd60e51b815260040161040b90611706565b6000806000611079856111f0565b80935081945082955050505060006001546040518060800160405280605d8152602001611e6f605d91396040516020016110b3919061172c565b604051602081830303815290604052805190602001208c8c8c8c8c6040516020016110e396959493929190611cdf565b6040516020818303038152906040528051906020012060405160200161110a929190611748565b60408051601f1981840301815282825280516020918201206000845290830180835281905260ff8716918301919091526060820185905260808201849052915060019060a0016020604051602081039080840390855afa158015611172573d6000803e3d6000fd5b505050602060405103516001600160a01b031673cb75c706a45feff971359f53df7dd6df47a410136001600160a01b0316146111c05760405162461bcd60e51b815260040161040b90611763565b505050600091825250600360205260409020805460ff1916600117905550939a9299509297509550909350915050565b600080600083516041146112465760405162461bcd60e51b815260206004820152601a60248201527f4e6f7420496e76616c6964205369676e61747572652044617461000000000000604482015260640161040b565b5050506020810151604082015160609092015160001a92909190565b60005b8381101561127d578181015183820152602001611265565b50506000910152565b6000815180845261129e816020860160208601611262565b601f01601f19169290920160200192915050565b6020815260006112c56020830184611286565b9392505050565b6000602082840312156112de57600080fd5b5035919050565b634e487b7160e01b600052604160045260246000fd5b604051601f8201601f1916810167ffffffffffffffff81118282101715611324576113246112e5565b604052919050565b600067ffffffffffffffff821115611346576113466112e5565b50601f01601f191660200190565b60006020828403121561136657600080fd5b813567ffffffffffffffff81111561137d57600080fd5b8201601f8101841361138e57600080fd5b80356113a161139c8261132c565b6112fb565b8181528560208385010111156113b657600080fd5b81602084016020830137600091810160200191909152949350505050565b6000815180845260208085019450848260051b860182860160005b85811015611419578383038952611407838351611286565b988501989250908401906001016113ef565b5090979650505050505050565b6020815260006112c560208301846113d4565b600081518084526020808501945080840160005b838110156114695781518752958201959082019060010161144d565b509495945050505050565b600081518084526020808501945080840160005b838110156114695781516001600160a01b031687529582019590820190600101611488565b6060815260006114c06060830186611439565b82810360208401526114d28186611474565b905082810360408401526114e68185611286565b9695505050505050565b85815284602082015260a06040820152600061150f60a0830186611286565b6001600160a01b03948516606084015292909316608090910152949350505050565b6001600160a01b039390931683526020830191909152604082015260600190565b60a08152600061156560a0830188611439565b6001600160a01b038716602084015260408301869052828103606084015261158d8186611439565b905082810360808401526115a18185611439565b98975050505050505050565b600181811c908216806115c157607f821691505b6020821081036115e157634e487b7160e01b600052602260045260246000fd5b50919050565b6001600160a01b03811681146115fc57600080fd5b50565b805161160a816115e7565b919050565b600082601f83011261162057600080fd5b815161162e61139c8261132c565b81815284602083860101111561164357600080fd5b611654826020830160208701611262565b949350505050565b60008060008060008060c0878903121561167557600080fd5b8651611680816115e7565b602088015160408901519197509550611698816115e7565b80945050606087015192506080870151915060a087015167ffffffffffffffff8111156116c457600080fd5b6116d089828a0161160f565b9150509295509295509295565b6020808252600f908201526e14995c5d595cdd08151a5b595bdd5d608a1b604082015260600190565b6020808252600c908201526b496e76616c6964204461746160a01b604082015260600190565b6000825161173e818460208701611262565b9190910192915050565b61190160f01b81526002810192909252602282015260420190565b60208082526010908201526f496e76616c696420526571756573742160801b604082015260600190565b600067ffffffffffffffff8211156117a7576117a76112e5565b5060051b60200190565b600080604083850312156117c457600080fd5b825167ffffffffffffffff808211156117dc57600080fd5b818501915085601f8301126117f057600080fd5b8151602061180061139c8361178d565b82815260059290921b8401810191818101908984111561181f57600080fd5b8286015b848110156118575780518681111561183b5760008081fd5b6118498c86838b010161160f565b845250918301918301611823565b509188015191965090935050508082111561187157600080fd5b5061187e8582860161160f565b9150509250929050565b82815260406020820152600061165460408301846113d4565b60008060008060008060c087890312156118ba57600080fd5b86516118c5816115e7565b80965050602087015194506040870151935060608701516118e5816115e7565b608088015160a0890151919450925067ffffffffffffffff8111156116c457600080fd5b600082601f83011261191a57600080fd5b8151602061192a61139c8361178d565b82815260059290921b8401810191818101908684111561194957600080fd5b8286015b84811015611964578051835291830191830161194d565b509695505050505050565b6000806000806080858703121561198557600080fd5b845167ffffffffffffffff8082111561199d57600080fd5b6119a988838901611909565b95506020915081870151818111156119c057600080fd5b8701601f810189136119d157600080fd5b80516119df61139c8261178d565b81815260059190911b8201840190848101908b8311156119fe57600080fd5b928501925b82841015611a25578351611a16816115e7565b82529285019290850190611a03565b60408b0151909850945050505080821115611a3f57600080fd5b611a4b8883890161160f565b93506060870151915080821115611a6157600080fd5b50611a6e8782880161160f565b91505092959194509250565b848152608060208201526000611a936080830186611439565b8281036040840152611aa58186611474565b90508281036060840152611ab98185611286565b979650505050505050565b600080600080600080600060e0888a031215611adf57600080fd5b8751965060208801519550604088015167ffffffffffffffff80821115611b0557600080fd5b611b118b838c0161160f565b965060608a01519150611b23826115e7565b60808a0151919550611b34826115e7565b60a08a015160c08b0151929550935080821115611b5057600080fd5b50611b5d8a828b0161160f565b91505092959891949750929550565b87815286602082015285604082015260e060608201526000611b9160e0830187611286565b6001600160a01b0395861660808401529390941660a082015260c0015295945050505050565b600080600080600060a08688031215611bcf57600080fd5b8551611bda816115e7565b80955050602086015193506040860151925060608601519150608086015167ffffffffffffffff811115611c0d57600080fd5b611c198882890161160f565b9150509295509295909350565b60008060008060008060c08789031215611c3f57600080fd5b865167ffffffffffffffff80821115611c5757600080fd5b611c638a838b01611909565b9750611c7160208a016115ff565b96506040890151915080821115611c8757600080fd5b611c938a838b01611909565b95506060890151915080821115611ca957600080fd5b611cb58a838b01611909565b94506080890151935060a0890151915080821115611cd257600080fd5b506116d089828a0161160f565b86815260c060208201526000611cf860c0830188611439565b6001600160a01b03871660408401528281036060840152611d198187611439565b90508281036080840152611d2d8186611439565b9150508260a083015297965050505050505056fe53796e746865736973436172642875696e743235365b5d206964732c616464726573735b5d2c737472696e6720746f6b656e55726c29517569744e6f6465286164647265737320757365722c75696e74323536206f7574546f6b656e2c75696e74323536206e6f2c75696e7432353620646561644c696e65294275794e6f6465286164647265737320757365722c75696e7432353620616d6f756e742c75696e74323536206e6f2c6164647265737320706179546f6b656e2c75696e7432353620646561644c696e6529427579426f782875696e7432353620616d6f756e742c2075696e7432353620636f6e742c737472696e6720746f6b656e55726c2c6164647265737320706179546f6b656e2c6164647265737320757365722c75696e7432353620646561644c696e65294f70656e426f7828737472696e675b5d20746f6b656e55726c2c6164647265737320757365722c75696e743235365b5d2063617264547970652c75696e743235365b5d206361726447726164652c75696e74323536206275726e4964295065726d69745769746864726177286164647265737320757365722c75696e7432353620616d6f756e742c6164647265737320746f6b656e416464726573732c75696e74323536206c6f6765547970652c75696e7432353620646561644c696e6529a26469706673582212206271d9bdc0ed63581073cc35c10986bb3412dee84dbf7499ee1e1923a9a2a06464736f6c63430008110033454950373132446f6d61696e28737472696e67206e616d652c737472696e672076657273696f6e2c75696e7432353620636861696e49642c6164647265737320766572696679696e67436f6e74726163742c627974657333322073616c7429",
  "linkReferences": {},
  "deployedLinkReferences": {}
}