{
  "_format": "hh-sol-artifact-1",
  "contractName": "LandNFT",
  "sourceName": "contracts/LandNFT.sol",
  "abi": [
    {
      "inputs": [
        {
          "internalType": "address",
          "name": "_singer",
          "type": "address"
        }
      ],
      "stateMutability": "nonpayable",
      "type": "constructor"
    },
    {
      "anonymous": false,
      "inputs": [
        {
          "indexed": true,
          "internalType": "address",
          "name": "owner",
          "type": "address"
        },
        {
          "indexed": true,
          "internalType": "address",
          "name": "approved",
          "type": "address"
        },
        {
          "indexed": true,
          "internalType": "uint256",
          "name": "tokenId",
          "type": "uint256"
        }
      ],
      "name": "Approval",
      "type": "event"
    },
    {
      "anonymous": false,
      "inputs": [
        {
          "indexed": true,
          "internalType": "address",
          "name": "owner",
          "type": "address"
        },
        {
          "indexed": true,
          "internalType": "address",
          "name": "operator",
          "type": "address"
        },
        {
          "indexed": false,
          "internalType": "bool",
          "name": "approved",
          "type": "bool"
        }
      ],
      "name": "ApprovalForAll",
      "type": "event"
    },
    {
      "anonymous": false,
      "inputs": [
        {
          "indexed": true,
          "internalType": "address",
          "name": "caller",
          "type": "address"
        },
        {
          "indexed": false,
          "internalType": "uint256",
          "name": "tokenId",
          "type": "uint256"
        },
        {
          "indexed": false,
          "internalType": "uint256",
          "name": "nftType",
          "type": "uint256"
        }
      ],
      "name": "Mint",
      "type": "event"
    },
    {
      "anonymous": false,
      "inputs": [
        {
          "indexed": true,
          "internalType": "bytes32",
          "name": "role",
          "type": "bytes32"
        },
        {
          "indexed": true,
          "internalType": "bytes32",
          "name": "previousAdminRole",
          "type": "bytes32"
        },
        {
          "indexed": true,
          "internalType": "bytes32",
          "name": "newAdminRole",
          "type": "bytes32"
        }
      ],
      "name": "RoleAdminChanged",
      "type": "event"
    },
    {
      "anonymous": false,
      "inputs": [
        {
          "indexed": true,
          "internalType": "bytes32",
          "name": "role",
          "type": "bytes32"
        },
        {
          "indexed": true,
          "internalType": "address",
          "name": "account",
          "type": "address"
        },
        {
          "indexed": true,
          "internalType": "address",
          "name": "sender",
          "type": "address"
        }
      ],
      "name": "RoleGranted",
      "type": "event"
    },
    {
      "anonymous": false,
      "inputs": [
        {
          "indexed": true,
          "internalType": "bytes32",
          "name": "role",
          "type": "bytes32"
        },
        {
          "indexed": true,
          "internalType": "address",
          "name": "account",
          "type": "address"
        },
        {
          "indexed": true,
          "internalType": "address",
          "name": "sender",
          "type": "address"
        }
      ],
      "name": "RoleRevoked",
      "type": "event"
    },
    {
      "anonymous": false,
      "inputs": [
        {
          "indexed": true,
          "internalType": "address",
          "name": "from",
          "type": "address"
        },
        {
          "indexed": true,
          "internalType": "address",
          "name": "to",
          "type": "address"
        },
        {
          "indexed": true,
          "internalType": "uint256",
          "name": "tokenId",
          "type": "uint256"
        }
      ],
      "name": "Transfer",
      "type": "event"
    },
    {
      "inputs": [],
      "name": "DEFAULT_ADMIN_ROLE",
      "outputs": [
        {
          "internalType": "bytes32",
          "name": "",
          "type": "bytes32"
        }
      ],
      "stateMutability": "view",
      "type": "function"
    },
    {
      "inputs": [],
      "name": "DOMAIN_SEPARATOR",
      "outputs": [
        {
          "internalType": "bytes32",
          "name": "",
          "type": "bytes32"
        }
      ],
      "stateMutability": "view",
      "type": "function"
    },
    {
      "inputs": [],
      "name": "MANAGE_ROLE",
      "outputs": [
        {
          "internalType": "bytes32",
          "name": "",
          "type": "bytes32"
        }
      ],
      "stateMutability": "view",
      "type": "function"
    },
    {
      "inputs": [
        {
          "internalType": "address",
          "name": "to",
          "type": "address"
        },
        {
          "internalType": "uint256",
          "name": "tokenId",
          "type": "uint256"
        }
      ],
      "name": "approve",
      "outputs": [],
      "stateMutability": "nonpayable",
      "type": "function"
    },
    {
      "inputs": [
        {
          "internalType": "address",
          "name": "owner",
          "type": "address"
        }
      ],
      "name": "balanceOf",
      "outputs": [
        {
          "internalType": "uint256",
          "name": "",
          "type": "uint256"
        }
      ],
      "stateMutability": "view",
      "type": "function"
    },
    {
      "inputs": [],
      "name": "baseUri",
      "outputs": [
        {
          "internalType": "string",
          "name": "",
          "type": "string"
        }
      ],
      "stateMutability": "view",
      "type": "function"
    },
    {
      "inputs": [
        {
          "internalType": "uint256",
          "name": "tokenId",
          "type": "uint256"
        }
      ],
      "name": "getApproved",
      "outputs": [
        {
          "internalType": "address",
          "name": "",
          "type": "address"
        }
      ],
      "stateMutability": "view",
      "type": "function"
    },
    {
      "inputs": [
        {
          "internalType": "bytes32",
          "name": "role",
          "type": "bytes32"
        }
      ],
      "name": "getRoleAdmin",
      "outputs": [
        {
          "internalType": "bytes32",
          "name": "",
          "type": "bytes32"
        }
      ],
      "stateMutability": "view",
      "type": "function"
    },
    {
      "inputs": [
        {
          "internalType": "bytes32",
          "name": "role",
          "type": "bytes32"
        },
        {
          "internalType": "address",
          "name": "account",
          "type": "address"
        }
      ],
      "name": "grantRole",
      "outputs": [],
      "stateMutability": "nonpayable",
      "type": "function"
    },
    {
      "inputs": [
        {
          "internalType": "bytes32",
          "name": "role",
          "type": "bytes32"
        },
        {
          "internalType": "address",
          "name": "account",
          "type": "address"
        }
      ],
      "name": "hasRole",
      "outputs": [
        {
          "internalType": "bool",
          "name": "",
          "type": "bool"
        }
      ],
      "stateMutability": "view",
      "type": "function"
    },
    {
      "inputs": [
        {
          "internalType": "address",
          "name": "owner",
          "type": "address"
        },
        {
          "internalType": "address",
          "name": "operator",
          "type": "address"
        }
      ],
      "name": "isApprovedForAll",
      "outputs": [
        {
          "internalType": "bool",
          "name": "",
          "type": "bool"
        }
      ],
      "stateMutability": "view",
      "type": "function"
    },
    {
      "inputs": [
        {
          "internalType": "uint256",
          "name": "",
          "type": "uint256"
        }
      ],
      "name": "landType",
      "outputs": [
        {
          "internalType": "uint256",
          "name": "",
          "type": "uint256"
        }
      ],
      "stateMutability": "view",
      "type": "function"
    },
    {
      "inputs": [
        {
          "internalType": "bytes",
          "name": "data",
          "type": "bytes"
        }
      ],
      "name": "mint",
      "outputs": [],
      "stateMutability": "nonpayable",
      "type": "function"
    },
    {
      "inputs": [],
      "name": "name",
      "outputs": [
        {
          "internalType": "string",
          "name": "",
          "type": "string"
        }
      ],
      "stateMutability": "view",
      "type": "function"
    },
    {
      "inputs": [
        {
          "internalType": "address",
          "name": "",
          "type": "address"
        }
      ],
      "name": "nonces",
      "outputs": [
        {
          "internalType": "uint256",
          "name": "",
          "type": "uint256"
        }
      ],
      "stateMutability": "view",
      "type": "function"
    },
    {
      "inputs": [
        {
          "internalType": "address",
          "name": "",
          "type": "address"
        },
        {
          "internalType": "address",
          "name": "",
          "type": "address"
        },
        {
          "internalType": "uint256",
          "name": "",
          "type": "uint256"
        },
        {
          "internalType": "bytes",
          "name": "",
          "type": "bytes"
        }
      ],
      "name": "onERC721Received",
      "outputs": [
        {
          "internalType": "bytes4",
          "name": "",
          "type": "bytes4"
        }
      ],
      "stateMutability": "nonpayable",
      "type": "function"
    },
    {
      "inputs": [
        {
          "internalType": "uint256",
          "name": "tokenId",
          "type": "uint256"
        }
      ],
      "name": "ownerOf",
      "outputs": [
        {
          "internalType": "address",
          "name": "",
          "type": "address"
        }
      ],
      "stateMutability": "view",
      "type": "function"
    },
    {
      "inputs": [
        {
          "internalType": "bytes32",
          "name": "role",
          "type": "bytes32"
        },
        {
          "internalType": "address",
          "name": "account",
          "type": "address"
        }
      ],
      "name": "renounceRole",
      "outputs": [],
      "stateMutability": "nonpayable",
      "type": "function"
    },
    {
      "inputs": [
        {
          "internalType": "bytes32",
          "name": "role",
          "type": "bytes32"
        },
        {
          "internalType": "address",
          "name": "account",
          "type": "address"
        }
      ],
      "name": "revokeRole",
      "outputs": [],
      "stateMutability": "nonpayable",
      "type": "function"
    },
    {
      "inputs": [
        {
          "internalType": "address",
          "name": "from",
          "type": "address"
        },
        {
          "internalType": "address",
          "name": "to",
          "type": "address"
        },
        {
          "internalType": "uint256",
          "name": "tokenId",
          "type": "uint256"
        }
      ],
      "name": "safeTransferFrom",
      "outputs": [],
      "stateMutability": "nonpayable",
      "type": "function"
    },
    {
      "inputs": [
        {
          "internalType": "address",
          "name": "from",
          "type": "address"
        },
        {
          "internalType": "address",
          "name": "to",
          "type": "address"
        },
        {
          "internalType": "uint256",
          "name": "tokenId",
          "type": "uint256"
        },
        {
          "internalType": "bytes",
          "name": "data",
          "type": "bytes"
        }
      ],
      "name": "safeTransferFrom",
      "outputs": [],
      "stateMutability": "nonpayable",
      "type": "function"
    },
    {
      "inputs": [
        {
          "internalType": "address",
          "name": "operator",
          "type": "address"
        },
        {
          "internalType": "bool",
          "name": "approved",
          "type": "bool"
        }
      ],
      "name": "setApprovalForAll",
      "outputs": [],
      "stateMutability": "nonpayable",
      "type": "function"
    },
    {
      "inputs": [],
      "name": "signer",
      "outputs": [
        {
          "internalType": "address",
          "name": "",
          "type": "address"
        }
      ],
      "stateMutability": "view",
      "type": "function"
    },
    {
      "inputs": [
        {
          "internalType": "bytes4",
          "name": "interfaceId",
          "type": "bytes4"
        }
      ],
      "name": "supportsInterface",
      "outputs": [
        {
          "internalType": "bool",
          "name": "",
          "type": "bool"
        }
      ],
      "stateMutability": "view",
      "type": "function"
    },
    {
      "inputs": [],
      "name": "symbol",
      "outputs": [
        {
          "internalType": "string",
          "name": "",
          "type": "string"
        }
      ],
      "stateMutability": "view",
      "type": "function"
    },
    {
      "inputs": [
        {
          "internalType": "uint256",
          "name": "index",
          "type": "uint256"
        }
      ],
      "name": "tokenByIndex",
      "outputs": [
        {
          "internalType": "uint256",
          "name": "",
          "type": "uint256"
        }
      ],
      "stateMutability": "view",
      "type": "function"
    },
    {
      "inputs": [
        {
          "internalType": "address",
          "name": "owner",
          "type": "address"
        },
        {
          "internalType": "uint256",
          "name": "index",
          "type": "uint256"
        }
      ],
      "name": "tokenOfOwnerByIndex",
      "outputs": [
        {
          "internalType": "uint256",
          "name": "",
          "type": "uint256"
        }
      ],
      "stateMutability": "view",
      "type": "function"
    },
    {
      "inputs": [
        {
          "internalType": "uint256",
          "name": "tokenId",
          "type": "uint256"
        }
      ],
      "name": "tokenURI",
      "outputs": [
        {
          "internalType": "string",
          "name": "",
          "type": "string"
        }
      ],
      "stateMutability": "view",
      "type": "function"
    },
    {
      "inputs": [],
      "name": "totalSupply",
      "outputs": [
        {
          "internalType": "uint256",
          "name": "",
          "type": "uint256"
        }
      ],
      "stateMutability": "view",
      "type": "function"
    },
    {
      "inputs": [
        {
          "internalType": "address",
          "name": "from",
          "type": "address"
        },
        {
          "internalType": "address",
          "name": "to",
          "type": "address"
        },
        {
          "internalType": "uint256",
          "name": "tokenId",
          "type": "uint256"
        }
      ],
      "name": "transferFrom",
      "outputs": [],
      "stateMutability": "nonpayable",
      "type": "function"
    },
    {
      "inputs": [
        {
          "internalType": "string",
          "name": "_baseUri",
          "type": "string"
        }
      ],
      "name": "updateBaseUri",
      "outputs": [],
      "stateMutability": "nonpayable",
      "type": "function"
    }
  ],
  "bytecode": "0x608060405260016011553480156200001657600080fd5b5060405162002cb438038062002cb4833981016040819052620000399162000295565b6040518060400160405280601281526020017114dc1bdc9d1cc810d95b9d195c8813185b9960721b8152506040518060400160405280600381526020016214d0d360ea1b81525081600090816200009191906200036c565b506001620000a082826200036c565b505050620000bf6001600c620001ec60201b62000ff41790919060201c565b620000cc600033620001f0565b620000f87fa076a07f65bcd51bcb15a0f01a65bc18f2d922acb81bcfd8af4caf5adb55709133620001f0565b601080546001600160a01b0319166001600160a01b0392909216919091179055604080518082018252600781526613185b9913919560ca1b6020918201528151808301835260018152603160f81b9082015281517f8b73c3c69bb8fe3d512ecc4cf759cc79239f7b179b0ffacaa9a75d522b39400f818301527f5b33b75e34ccfe8f1b3b7f2c8c8002f0f73c82abbc35af927ce247353281cde2818401527fc89efdaa54c0f20c7adf612882df0950f5a951637e0307cdcb4c672f298b8bc660608201524660808201523060a0808301919091528351808303909101815260c09091019092528151910120600e5562000438565b9055565b6000828152600a602090815260408083206001600160a01b038516845290915290205460ff1662000291576000828152600a602090815260408083206001600160a01b03851684529091529020805460ff19166001179055620002503390565b6001600160a01b0316816001600160a01b0316837f2f8788117e7eff1d82e926ec794901d17c78024a50270940304540a733656f0d60405160405180910390a45b5050565b600060208284031215620002a857600080fd5b81516001600160a01b0381168114620002c057600080fd5b9392505050565b634e487b7160e01b600052604160045260246000fd5b600181811c90821680620002f257607f821691505b6020821081036200031357634e487b7160e01b600052602260045260246000fd5b50919050565b601f8211156200036757600081815260208120601f850160051c81016020861015620003425750805b601f850160051c820191505b8181101562000363578281556001016200034e565b5050505b505050565b81516001600160401b03811115620003885762000388620002c7565b620003a081620003998454620002dd565b8462000319565b602080601f831160018114620003d85760008415620003bf5750858301515b600019600386901b1c1916600185901b17855562000363565b600085815260208120601f198616915b828110156200040957888601518255948401946001909101908401620003e8565b5085821015620004285787850151600019600388901b60f8161c191681555b5050505050600190811b01905550565b61286c80620004486000396000f3fe608060405234801561001057600080fd5b50600436106101e55760003560e01c80634f6ccce71161010f5780639abc8320116100a2578063c87b56dd11610071578063c87b56dd1461043a578063d547741f1461044d578063d82b40a914610460578063e985e9c51461048057600080fd5b80639abc832014610404578063a217fddf1461040c578063a22cb46514610414578063b88d4fde1461042757600080fd5b80637ba0e2e7116100de5780637ba0e2e7146103b65780637ecebe00146103c957806391d14854146103e957806395d89b41146103fc57600080fd5b80634f6ccce71461035657806360a4b76a146103695780636352211e1461039057806370a08231146103a357600080fd5b806323b872dd116101875780633644e515116101565780633644e5151461031457806336568abe1461031d57806339f7e37f1461033057806342842e0e1461034357600080fd5b806323b872dd146102b8578063248a9ca3146102cb5780632f2ff15d146102ee5780632f745c591461030157600080fd5b8063095ea7b3116101c3578063095ea7b314610252578063150b7a021461026757806318160ddd14610293578063238ac933146102a557600080fd5b806301ffc9a7146101ea57806306fdde0314610212578063081812fc14610227575b600080fd5b6101fd6101f8366004612029565b6104bc565b60405190151581526020015b60405180910390f35b61021a6104cd565b6040516102099190612096565b61023a6102353660046120a9565b61055f565b6040516001600160a01b039091168152602001610209565b6102656102603660046120d7565b610586565b005b61027a6102753660046121d0565b6106a0565b6040516001600160e01b03199091168152602001610209565b6008545b604051908152602001610209565b60105461023a906001600160a01b031681565b6102656102c636600461223c565b6106b1565b6102976102d93660046120a9565b6000908152600a602052604090206001015490565b6102656102fc36600461227d565b6106e2565b61029761030f3660046120d7565b610707565b610297600e5481565b61026561032b36600461227d565b61079d565b61026561033e3660046122ad565b61081b565b61026561035136600461223c565b610896565b6102976103643660046120a9565b6108b1565b6102977fa076a07f65bcd51bcb15a0f01a65bc18f2d922acb81bcfd8af4caf5adb55709181565b61023a61039e3660046120a9565b610944565b6102976103b13660046122f6565b6109a4565b6102656103c4366004612313565b610a2a565b6102976103d73660046122f6565b600f6020526000908152604090205481565b6101fd6103f736600461227d565b610e5d565b61021a610e88565b61021a610e97565b610297600081565b610265610422366004612348565b610f25565b6102656104353660046121d0565b610f30565b61021a6104483660046120a9565b610f68565b61026561045b36600461227d565b610fcf565b61029761046e3660046120a9565b600d6020526000908152604090205481565b6101fd61048e36600461237b565b6001600160a01b03918216600090815260056020908152604080832093909416825291909152205460ff1690565b60006104c782610ff8565b92915050565b6060600080546104dc906123a9565b80601f0160208091040260200160405190810160405280929190818152602001828054610508906123a9565b80156105555780601f1061052a57610100808354040283529160200191610555565b820191906000526020600020905b81548152906001019060200180831161053857829003601f168201915b5050505050905090565b600061056a8261101d565b506000908152600460205260409020546001600160a01b031690565b600061059182610944565b9050806001600160a01b0316836001600160a01b0316036106035760405162461bcd60e51b815260206004820152602160248201527f4552433732313a20617070726f76616c20746f2063757272656e74206f776e656044820152603960f91b60648201526084015b60405180910390fd5b336001600160a01b038216148061061f575061061f813361048e565b6106915760405162461bcd60e51b815260206004820152603d60248201527f4552433732313a20617070726f76652063616c6c6572206973206e6f7420746f60448201527f6b656e206f776e6572206f7220617070726f76656420666f7220616c6c00000060648201526084016105fa565b61069b838361107f565b505050565b630a85bd0160e11b5b949350505050565b6106bb33826110ed565b6106d75760405162461bcd60e51b81526004016105fa906123e3565b61069b83838361116b565b6000828152600a60205260409020600101546106fd816112dc565b61069b83836112e6565b6000610712836109a4565b82106107745760405162461bcd60e51b815260206004820152602b60248201527f455243373231456e756d657261626c653a206f776e657220696e646578206f7560448201526a74206f6620626f756e647360a81b60648201526084016105fa565b506001600160a01b03919091166000908152600660209081526040808320938352929052205490565b6001600160a01b038116331461080d5760405162461bcd60e51b815260206004820152602f60248201527f416363657373436f6e74726f6c3a2063616e206f6e6c792072656e6f756e636560448201526e103937b632b9903337b91039b2b63360891b60648201526084016105fa565b610817828261136c565b5050565b7fa076a07f65bcd51bcb15a0f01a65bc18f2d922acb81bcfd8af4caf5adb557091610845816112dc565b600082511161088a5760405162461bcd60e51b815260206004820152601160248201527008aa4a49ea474b48aa49ebe988a9c8ea89607b1b60448201526064016105fa565b600b61069b838261247f565b61069b83838360405180602001604052806000815250610f30565b60006108bc60085490565b821061091f5760405162461bcd60e51b815260206004820152602c60248201527f455243373231456e756d657261626c653a20676c6f62616c20696e646578206f60448201526b7574206f6620626f756e647360a01b60648201526084016105fa565b600882815481106109325761093261253f565b90600052602060002001549050919050565b6000818152600260205260408120546001600160a01b0316806104c75760405162461bcd60e51b8152602060048201526018602482015277115490cdcc8c4e881a5b9d985b1a59081d1bdad95b88125160421b60448201526064016105fa565b60006001600160a01b038216610a0e5760405162461bcd60e51b815260206004820152602960248201527f4552433732313a2061646472657373207a65726f206973206e6f7420612076616044820152683634b21037bbb732b960b91b60648201526084016105fa565b506001600160a01b031660009081526003602052604090205490565b601154600114610a6e5760405162461bcd60e51b815260206004820152600f60248201526e13185b991391950e881313d0d2d151608a1b60448201526064016105fa565b600060118190555060008060008060008086806020019051810190610a939190612555565b955095509550955095509550336001600160a01b0316866001600160a01b031614610b005760405162461bcd60e51b815260206004820152601760248201527f5261626269744e46543a20494e56414c49445f5553455200000000000000000060448201526064016105fa565b6004851115610b515760405162461bcd60e51b815260206004820152601760248201527f5261626269744e46543a204e4f545f4e46545f5459504500000000000000000060448201526064016105fa565b60008411610ba15760405162461bcd60e51b815260206004820152601c60248201527f5261626269744e46543a20414d4f554e545f5a45524f5f56414c55450000000060448201526064016105fa565b336000908152600f60205260409020548314610bff5760405162461bcd60e51b815260206004820152601860248201527f5261626269744e46543a20494e56414c49445f4e4f4e4345000000000000000060448201526064016105fa565b81421115610c445760405162461bcd60e51b8152602060048201526012602482015271149858989a5d1391950e881512535153d55560721b60448201526064016105fa565b6000806000610c52846113d3565b9250925092506000600e54604051602001610cd1907f5065726d6974286164647265737320757365722c75696e74323536206e66745481527f7970652c75696e7432353620616d6f756e742c75696e74323536206e6f6e63656020820152712c75696e7432353620646561646c696e652960701b604082015260520190565b60408051808303601f190181528282528051602091820120818401526001600160a01b038e1683830152606083018d9052608083018c905260a083018b905260c08084018b90528251808503909101815260e08401909252815191012061190160f01b6101008301526101028201929092526101228101919091526101420160408051601f1981840301815282825280516020918201206000845290830180835281905260ff8716918301919091526060820185905260808201849052915060019060a0016020604051602081039080840390855afa158015610db8573d6000803e3d6000fd5b5050604051601f1901516010546001600160a01b039081169116149050610e215760405162461bcd60e51b815260206004820152601a60248201527f5261626269744e46543a20494e56414c49445f5245515545535400000000000060448201526064016105fa565b336000908152600f60205260408120805491610e3c8361261e565b9190505550610e4b8989611445565b50506001601155505050505050505050565b6000918252600a602090815260408084206001600160a01b0393909316845291905290205460ff1690565b6060600180546104dc906123a9565b600b8054610ea4906123a9565b80601f0160208091040260200160405190810160405280929190818152602001828054610ed0906123a9565b8015610f1d5780601f10610ef257610100808354040283529160200191610f1d565b820191906000526020600020905b815481529060010190602001808311610f0057829003601f168201915b505050505081565b6108173383836114d4565b610f3a33836110ed565b610f565760405162461bcd60e51b81526004016105fa906123e3565b610f62848484846115a2565b50505050565b6060610f738261101d565b6000610f7d6115d5565b90506000815111610f9d5760405180602001604052806000815250610fc8565b80610fa7846115e4565b604051602001610fb8929190612637565b6040516020818303038152906040525b9392505050565b6000828152600a6020526040902060010154610fea816112dc565b61069b838361136c565b9055565b60006001600160e01b03198216637965db0b60e01b14806104c757506104c782611677565b6000818152600260205260409020546001600160a01b031661107c5760405162461bcd60e51b8152602060048201526018602482015277115490cdcc8c4e881a5b9d985b1a59081d1bdad95b88125160421b60448201526064016105fa565b50565b600081815260046020526040902080546001600160a01b0319166001600160a01b03841690811790915581906110b482610944565b6001600160a01b03167f8c5be1e5ebec7d5bd14f71427d1e84f3dd0314c0f7b2291e5b200ac8c7c3b92560405160405180910390a45050565b6000806110f983610944565b9050806001600160a01b0316846001600160a01b0316148061114057506001600160a01b0380821660009081526005602090815260408083209388168352929052205460ff165b806106a95750836001600160a01b03166111598461055f565b6001600160a01b031614949350505050565b826001600160a01b031661117e82610944565b6001600160a01b0316146111a45760405162461bcd60e51b81526004016105fa90612666565b6001600160a01b0382166112065760405162461bcd60e51b8152602060048201526024808201527f4552433732313a207472616e7366657220746f20746865207a65726f206164646044820152637265737360e01b60648201526084016105fa565b611213838383600161169c565b826001600160a01b031661122682610944565b6001600160a01b03161461124c5760405162461bcd60e51b81526004016105fa90612666565b600081815260046020908152604080832080546001600160a01b03199081169091556001600160a01b0387811680865260038552838620805460001901905590871680865283862080546001019055868652600290945282852080549092168417909155905184937fddf252ad1be2c89b69c2b068fc378daa952ba7f163c4a11628f55a4df523b3ef91a4505050565b61107c81336116a8565b6112f08282610e5d565b610817576000828152600a602090815260408083206001600160a01b03851684529091529020805460ff191660011790556113283390565b6001600160a01b0316816001600160a01b0316837f2f8788117e7eff1d82e926ec794901d17c78024a50270940304540a733656f0d60405160405180910390a45050565b6113768282610e5d565b15610817576000828152600a602090815260408083206001600160a01b0385168085529252808320805460ff1916905551339285917ff6391f5c32d9c69d2a47ea670b442974b53935d1edc7fd64eb21e047a839171b9190a45050565b600080600083516041146114295760405162461bcd60e51b815260206004820152601a60248201527f4e6f7420496e76616c6964205369676e6174757265204461746100000000000060448201526064016105fa565b5050506020810151604082015160609092015160001a92909190565b60005b8181101561069b57600061145b600c5490565b905061146b600c80546001019055565b6000818152600d602052604090208490556114863382611701565b604080518281526020810186905233917f4c209b5fc8ad50758f13e2e1088ba56a560dff690a1c6fef26394f4c03821c4f910160405180910390a250806114cc8161261e565b915050611448565b816001600160a01b0316836001600160a01b0316036115355760405162461bcd60e51b815260206004820152601960248201527f4552433732313a20617070726f766520746f2063616c6c65720000000000000060448201526064016105fa565b6001600160a01b03838116600081815260056020908152604080832094871680845294825291829020805460ff191686151590811790915591519182527f17307eab39ab6107e8899845ad3d59bd9653f200f220920489ca2b5937696c31910160405180910390a3505050565b6115ad84848461116b565b6115b98484848461171b565b610f625760405162461bcd60e51b81526004016105fa906126ab565b6060600b80546104dc906123a9565b606060006115f183611819565b600101905060008167ffffffffffffffff81111561161157611611612103565b6040519080825280601f01601f19166020018201604052801561163b576020820181803683370190505b5090508181016020015b600019016f181899199a1a9b1b9c1cb0b131b232b360811b600a86061a8153600a850494508461164557509392505050565b60006001600160e01b0319821663780e9d6360e01b14806104c757506104c7826118f1565b610f6284848484611941565b6116b28282610e5d565b610817576116bf81611a81565b6116ca836020611a93565b6040516020016116db9291906126fd565b60408051601f198184030181529082905262461bcd60e51b82526105fa91600401612096565b610817828260405180602001604052806000815250611c2f565b60006001600160a01b0384163b1561181157604051630a85bd0160e11b81526001600160a01b0385169063150b7a029061175f903390899088908890600401612772565b6020604051808303816000875af192505050801561179a575060408051601f3d908101601f19168201909252611797918101906127af565b60015b6117f7573d8080156117c8576040519150601f19603f3d011682016040523d82523d6000602084013e6117cd565b606091505b5080516000036117ef5760405162461bcd60e51b81526004016105fa906126ab565b805181602001fd5b6001600160e01b031916630a85bd0160e11b1490506106a9565b5060016106a9565b60008072184f03e93ff9f4daa797ed6e38ed64bf6a1f0160401b83106118585772184f03e93ff9f4daa797ed6e38ed64bf6a1f0160401b830492506040015b6d04ee2d6d415b85acef81000000008310611884576d04ee2d6d415b85acef8100000000830492506020015b662386f26fc1000083106118a257662386f26fc10000830492506010015b6305f5e10083106118ba576305f5e100830492506008015b61271083106118ce57612710830492506004015b606483106118e0576064830492506002015b600a83106104c75760010192915050565b60006001600160e01b031982166380ac58cd60e01b148061192257506001600160e01b03198216635b5e139f60e01b145b806104c757506301ffc9a760e01b6001600160e01b03198316146104c7565b61194d84848484611c62565b60018111156119bc5760405162461bcd60e51b815260206004820152603560248201527f455243373231456e756d657261626c653a20636f6e7365637574697665207472604482015274185b9cd9995c9cc81b9bdd081cdd5c1c1bdc9d1959605a1b60648201526084016105fa565b816001600160a01b038516611a1857611a1381600880546000838152600960205260408120829055600182018355919091527ff3f7a9fe364faab93b216da50a3214154f22a0a2b415b23a84c8169e8b636ee30155565b611a3b565b836001600160a01b0316856001600160a01b031614611a3b57611a3b8582611cea565b6001600160a01b038416611a5757611a5281611d87565b611a7a565b846001600160a01b0316846001600160a01b031614611a7a57611a7a8482611e36565b5050505050565b60606104c76001600160a01b03831660145b60606000611aa28360026127cc565b611aad9060026127e3565b67ffffffffffffffff811115611ac557611ac5612103565b6040519080825280601f01601f191660200182016040528015611aef576020820181803683370190505b509050600360fc1b81600081518110611b0a57611b0a61253f565b60200101906001600160f81b031916908160001a905350600f60fb1b81600181518110611b3957611b3961253f565b60200101906001600160f81b031916908160001a9053506000611b5d8460026127cc565b611b689060016127e3565b90505b6001811115611be0576f181899199a1a9b1b9c1cb0b131b232b360811b85600f1660108110611b9c57611b9c61253f565b1a60f81b828281518110611bb257611bb261253f565b60200101906001600160f81b031916908160001a90535060049490941c93611bd9816127f6565b9050611b6b565b508315610fc85760405162461bcd60e51b815260206004820181905260248201527f537472696e67733a20686578206c656e67746820696e73756666696369656e7460448201526064016105fa565b611c398383611e7a565b611c46600084848461171b565b61069b5760405162461bcd60e51b81526004016105fa906126ab565b6001811115610f62576001600160a01b03841615611ca8576001600160a01b03841660009081526003602052604081208054839290611ca290849061280d565b90915550505b6001600160a01b03831615610f62576001600160a01b03831660009081526003602052604081208054839290611cdf9084906127e3565b909155505050505050565b60006001611cf7846109a4565b611d01919061280d565b600083815260076020526040902054909150808214611d54576001600160a01b03841660009081526006602090815260408083208584528252808320548484528184208190558352600790915290208190555b5060009182526007602090815260408084208490556001600160a01b039094168352600681528383209183525290812055565b600854600090611d999060019061280d565b60008381526009602052604081205460088054939450909284908110611dc157611dc161253f565b906000526020600020015490508060088381548110611de257611de261253f565b6000918252602080832090910192909255828152600990915260408082208490558582528120556008805480611e1a57611e1a612820565b6001900381819060005260206000200160009055905550505050565b6000611e41836109a4565b6001600160a01b039093166000908152600660209081526040808320868452825280832085905593825260079052919091209190915550565b6001600160a01b038216611ed05760405162461bcd60e51b815260206004820181905260248201527f4552433732313a206d696e7420746f20746865207a65726f206164647265737360448201526064016105fa565b6000818152600260205260409020546001600160a01b031615611f355760405162461bcd60e51b815260206004820152601c60248201527f4552433732313a20746f6b656e20616c7265616479206d696e7465640000000060448201526064016105fa565b611f4360008383600161169c565b6000818152600260205260409020546001600160a01b031615611fa85760405162461bcd60e51b815260206004820152601c60248201527f4552433732313a20746f6b656e20616c7265616479206d696e7465640000000060448201526064016105fa565b6001600160a01b038216600081815260036020908152604080832080546001019055848352600290915280822080546001600160a01b0319168417905551839291907fddf252ad1be2c89b69c2b068fc378daa952ba7f163c4a11628f55a4df523b3ef908290a45050565b6001600160e01b03198116811461107c57600080fd5b60006020828403121561203b57600080fd5b8135610fc881612013565b60005b83811015612061578181015183820152602001612049565b50506000910152565b60008151808452612082816020860160208601612046565b601f01601f19169290920160200192915050565b602081526000610fc8602083018461206a565b6000602082840312156120bb57600080fd5b5035919050565b6001600160a01b038116811461107c57600080fd5b600080604083850312156120ea57600080fd5b82356120f5816120c2565b946020939093013593505050565b634e487b7160e01b600052604160045260246000fd5b604051601f8201601f1916810167ffffffffffffffff8111828210171561214257612142612103565b604052919050565b600067ffffffffffffffff82111561216457612164612103565b50601f01601f191660200190565b60006121856121808461214a565b612119565b905082815283838301111561219957600080fd5b828260208301376000602084830101529392505050565b600082601f8301126121c157600080fd5b610fc883833560208501612172565b600080600080608085870312156121e657600080fd5b84356121f1816120c2565b93506020850135612201816120c2565b925060408501359150606085013567ffffffffffffffff81111561222457600080fd5b612230878288016121b0565b91505092959194509250565b60008060006060848603121561225157600080fd5b833561225c816120c2565b9250602084013561226c816120c2565b929592945050506040919091013590565b6000806040838503121561229057600080fd5b8235915060208301356122a2816120c2565b809150509250929050565b6000602082840312156122bf57600080fd5b813567ffffffffffffffff8111156122d657600080fd5b8201601f810184136122e757600080fd5b6106a984823560208401612172565b60006020828403121561230857600080fd5b8135610fc8816120c2565b60006020828403121561232557600080fd5b813567ffffffffffffffff81111561233c57600080fd5b6106a9848285016121b0565b6000806040838503121561235b57600080fd5b8235612366816120c2565b9150602083013580151581146122a257600080fd5b6000806040838503121561238e57600080fd5b8235612399816120c2565b915060208301356122a2816120c2565b600181811c908216806123bd57607f821691505b6020821081036123dd57634e487b7160e01b600052602260045260246000fd5b50919050565b6020808252602e908201527f4552433732313a2063616c6c6572206973206e6f7420746f6b656e206f776e6560408201526d1c881b9bdc88185c1c1c9bdd995960921b606082015260800190565b601f82111561069b57600081815260208120601f850160051c810160208610156124585750805b601f850160051c820191505b8181101561247757828155600101612464565b505050505050565b815167ffffffffffffffff81111561249957612499612103565b6124ad816124a784546123a9565b84612431565b602080601f8311600181146124e257600084156124ca5750858301515b600019600386901b1c1916600185901b178555612477565b600085815260208120601f198616915b82811015612511578886015182559484019460019091019084016124f2565b508582101561252f5787850151600019600388901b60f8161c191681555b5050505050600190811b01905550565b634e487b7160e01b600052603260045260246000fd5b60008060008060008060c0878903121561256e57600080fd5b8651612579816120c2565b809650506020870151945060408701519350606087015192506080870151915060a087015167ffffffffffffffff8111156125b357600080fd5b8701601f810189136125c457600080fd5b80516125d26121808261214a565b8181528a60208385010111156125e757600080fd5b6125f8826020830160208601612046565b8093505050509295509295509295565b634e487b7160e01b600052601160045260246000fd5b60006001820161263057612630612608565b5060010190565b60008351612649818460208801612046565b83519083019061265d818360208801612046565b01949350505050565b60208082526025908201527f4552433732313a207472616e736665722066726f6d20696e636f72726563742060408201526437bbb732b960d91b606082015260800190565b60208082526032908201527f4552433732313a207472616e7366657220746f206e6f6e20455243373231526560408201527131b2b4bb32b91034b6b83632b6b2b73a32b960711b606082015260800190565b7f416363657373436f6e74726f6c3a206163636f756e7420000000000000000000815260008351612735816017850160208801612046565b7001034b99036b4b9b9b4b733903937b6329607d1b6017918401918201528351612766816028840160208801612046565b01602801949350505050565b6001600160a01b03858116825284166020820152604081018390526080606082018190526000906127a59083018461206a565b9695505050505050565b6000602082840312156127c157600080fd5b8151610fc881612013565b80820281158282048414176104c7576104c7612608565b808201808211156104c7576104c7612608565b60008161280557612805612608565b506000190190565b818103818111156104c7576104c7612608565b634e487b7160e01b600052603160045260246000fdfea264697066735822122001d9ed82a6e9a4a71dfa95d1f025f32e64bf11d2d956841d80f9fc83a1ecf01064736f6c63430008110033",
  "linkReferences": {},
  "deployedLinkReferences": {}
}