{
  "_format": "hh-sol-artifact-1",
  "contractName": "BurnFund",
  "sourceName": "contracts/BurnFund.sol",
  "abi": [
    {
      "inputs": [
        {
          "internalType": "address",
          "name": "_SBLTokenAdd",
          "type": "address"
        },
        {
          "internalType": "address",
          "name": "_routerAdd",
          "type": "address"
        },
        {
          "internalType": "address",
          "name": "_signer",
          "type": "address"
        }
      ],
      "stateMutability": "nonpayable",
      "type": "constructor"
    },
    {
      "anonymous": false,
      "inputs": [
        {
          "indexed": true,
          "internalType": "address",
          "name": "caller",
          "type": "address"
        },
        {
          "indexed": false,
          "internalType": "uint256",
          "name": "SBLAmount",
          "type": "uint256"
        },
        {
          "indexed": false,
          "internalType": "uint256",
          "name": "ETHAmount",
          "type": "uint256"
        }
      ],
      "name": "BurnToEarn",
      "type": "event"
    },
    {
      "anonymous": false,
      "inputs": [
        {
          "indexed": true,
          "internalType": "bytes32",
          "name": "role",
          "type": "bytes32"
        },
        {
          "indexed": true,
          "internalType": "bytes32",
          "name": "previousAdminRole",
          "type": "bytes32"
        },
        {
          "indexed": true,
          "internalType": "bytes32",
          "name": "newAdminRole",
          "type": "bytes32"
        }
      ],
      "name": "RoleAdminChanged",
      "type": "event"
    },
    {
      "anonymous": false,
      "inputs": [
        {
          "indexed": true,
          "internalType": "bytes32",
          "name": "role",
          "type": "bytes32"
        },
        {
          "indexed": true,
          "internalType": "address",
          "name": "account",
          "type": "address"
        },
        {
          "indexed": true,
          "internalType": "address",
          "name": "sender",
          "type": "address"
        }
      ],
      "name": "RoleGranted",
      "type": "event"
    },
    {
      "anonymous": false,
      "inputs": [
        {
          "indexed": true,
          "internalType": "bytes32",
          "name": "role",
          "type": "bytes32"
        },
        {
          "indexed": true,
          "internalType": "address",
          "name": "account",
          "type": "address"
        },
        {
          "indexed": true,
          "internalType": "address",
          "name": "sender",
          "type": "address"
        }
      ],
      "name": "RoleRevoked",
      "type": "event"
    },
    {
      "anonymous": false,
      "inputs": [
        {
          "indexed": true,
          "internalType": "address",
          "name": "caller",
          "type": "address"
        },
        {
          "indexed": false,
          "internalType": "uint256",
          "name": "SBLAmount",
          "type": "uint256"
        },
        {
          "indexed": false,
          "internalType": "uint256",
          "name": "ETHAmount",
          "type": "uint256"
        }
      ],
      "name": "SwapSBLToETH",
      "type": "event"
    },
    {
      "anonymous": false,
      "inputs": [
        {
          "indexed": true,
          "internalType": "address",
          "name": "caller",
          "type": "address"
        },
        {
          "indexed": false,
          "internalType": "uint256",
          "name": "amount",
          "type": "uint256"
        },
        {
          "indexed": false,
          "internalType": "uint256",
          "name": "order",
          "type": "uint256"
        },
        {
          "indexed": false,
          "internalType": "address",
          "name": "token",
          "type": "address"
        }
      ],
      "name": "WithdrawReward",
      "type": "event"
    },
    {
      "inputs": [],
      "name": "DEFAULT_ADMIN_ROLE",
      "outputs": [
        {
          "internalType": "bytes32",
          "name": "",
          "type": "bytes32"
        }
      ],
      "stateMutability": "view",
      "type": "function"
    },
    {
      "inputs": [],
      "name": "DOMAIN_SEPARATOR",
      "outputs": [
        {
          "internalType": "bytes32",
          "name": "",
          "type": "bytes32"
        }
      ],
      "stateMutability": "view",
      "type": "function"
    },
    {
      "inputs": [],
      "name": "ETHAmount",
      "outputs": [
        {
          "internalType": "uint256",
          "name": "",
          "type": "uint256"
        }
      ],
      "stateMutability": "view",
      "type": "function"
    },
    {
      "inputs": [],
      "name": "MANAGE_ROLE",
      "outputs": [
        {
          "internalType": "bytes32",
          "name": "",
          "type": "bytes32"
        }
      ],
      "stateMutability": "view",
      "type": "function"
    },
    {
      "inputs": [],
      "name": "SBLTokenAdd",
      "outputs": [
        {
          "internalType": "address",
          "name": "",
          "type": "address"
        }
      ],
      "stateMutability": "view",
      "type": "function"
    },
    {
      "inputs": [],
      "name": "allSubscribed",
      "outputs": [
        {
          "internalType": "uint256",
          "name": "",
          "type": "uint256"
        }
      ],
      "stateMutability": "view",
      "type": "function"
    },
    {
      "inputs": [],
      "name": "amountToSwap",
      "outputs": [
        {
          "internalType": "uint256",
          "name": "",
          "type": "uint256"
        }
      ],
      "stateMutability": "view",
      "type": "function"
    },
    {
      "inputs": [
        {
          "internalType": "address",
          "name": "token",
          "type": "address"
        }
      ],
      "name": "balance",
      "outputs": [
        {
          "internalType": "uint256",
          "name": "",
          "type": "uint256"
        }
      ],
      "stateMutability": "view",
      "type": "function"
    },
    {
      "inputs": [],
      "name": "burnLimit",
      "outputs": [
        {
          "internalType": "uint256",
          "name": "",
          "type": "uint256"
        }
      ],
      "stateMutability": "view",
      "type": "function"
    },
    {
      "inputs": [
        {
          "internalType": "uint256",
          "name": "amount",
          "type": "uint256"
        }
      ],
      "name": "burnToEarn",
      "outputs": [],
      "stateMutability": "nonpayable",
      "type": "function"
    },
    {
      "inputs": [
        {
          "internalType": "bytes32",
          "name": "role",
          "type": "bytes32"
        }
      ],
      "name": "getRoleAdmin",
      "outputs": [
        {
          "internalType": "bytes32",
          "name": "",
          "type": "bytes32"
        }
      ],
      "stateMutability": "view",
      "type": "function"
    },
    {
      "inputs": [
        {
          "internalType": "bytes32",
          "name": "role",
          "type": "bytes32"
        },
        {
          "internalType": "address",
          "name": "account",
          "type": "address"
        }
      ],
      "name": "grantRole",
      "outputs": [],
      "stateMutability": "nonpayable",
      "type": "function"
    },
    {
      "inputs": [
        {
          "internalType": "bytes32",
          "name": "role",
          "type": "bytes32"
        },
        {
          "internalType": "address",
          "name": "account",
          "type": "address"
        }
      ],
      "name": "hasRole",
      "outputs": [
        {
          "internalType": "bool",
          "name": "",
          "type": "bool"
        }
      ],
      "stateMutability": "view",
      "type": "function"
    },
    {
      "inputs": [],
      "name": "intervalBlockNum",
      "outputs": [
        {
          "internalType": "uint256",
          "name": "",
          "type": "uint256"
        }
      ],
      "stateMutability": "view",
      "type": "function"
    },
    {
      "inputs": [],
      "name": "limitIndex",
      "outputs": [
        {
          "internalType": "uint256",
          "name": "",
          "type": "uint256"
        }
      ],
      "stateMutability": "view",
      "type": "function"
    },
    {
      "inputs": [],
      "name": "minToBurn",
      "outputs": [
        {
          "internalType": "uint256",
          "name": "",
          "type": "uint256"
        }
      ],
      "stateMutability": "view",
      "type": "function"
    },
    {
      "inputs": [
        {
          "internalType": "address",
          "name": "",
          "type": "address"
        }
      ],
      "name": "nonces",
      "outputs": [
        {
          "internalType": "uint256",
          "name": "",
          "type": "uint256"
        }
      ],
      "stateMutability": "view",
      "type": "function"
    },
    {
      "inputs": [
        {
          "internalType": "uint256",
          "name": "amountIn",
          "type": "uint256"
        }
      ],
      "name": "queryAmountOut",
      "outputs": [
        {
          "internalType": "uint256",
          "name": "",
          "type": "uint256"
        }
      ],
      "stateMutability": "view",
      "type": "function"
    },
    {
      "inputs": [
        {
          "internalType": "uint256",
          "name": "amountIn",
          "type": "uint256"
        }
      ],
      "name": "querySBLAmountOut",
      "outputs": [
        {
          "internalType": "uint256",
          "name": "",
          "type": "uint256"
        }
      ],
      "stateMutability": "view",
      "type": "function"
    },
    {
      "inputs": [
        {
          "internalType": "bytes32",
          "name": "role",
          "type": "bytes32"
        },
        {
          "internalType": "address",
          "name": "account",
          "type": "address"
        }
      ],
      "name": "renounceRole",
      "outputs": [],
      "stateMutability": "nonpayable",
      "type": "function"
    },
    {
      "inputs": [
        {
          "internalType": "bytes32",
          "name": "role",
          "type": "bytes32"
        },
        {
          "internalType": "address",
          "name": "account",
          "type": "address"
        }
      ],
      "name": "revokeRole",
      "outputs": [],
      "stateMutability": "nonpayable",
      "type": "function"
    },
    {
      "inputs": [],
      "name": "routerAdd",
      "outputs": [
        {
          "internalType": "address",
          "name": "",
          "type": "address"
        }
      ],
      "stateMutability": "view",
      "type": "function"
    },
    {
      "inputs": [],
      "name": "signer",
      "outputs": [
        {
          "internalType": "address",
          "name": "",
          "type": "address"
        }
      ],
      "stateMutability": "view",
      "type": "function"
    },
    {
      "inputs": [
        {
          "internalType": "address",
          "name": "",
          "type": "address"
        }
      ],
      "name": "subscribed",
      "outputs": [
        {
          "internalType": "uint256",
          "name": "",
          "type": "uint256"
        }
      ],
      "stateMutability": "view",
      "type": "function"
    },
    {
      "inputs": [
        {
          "internalType": "address",
          "name": "",
          "type": "address"
        }
      ],
      "name": "subscribedBlockNum",
      "outputs": [
        {
          "internalType": "uint256",
          "name": "",
          "type": "uint256"
        }
      ],
      "stateMutability": "view",
      "type": "function"
    },
    {
      "inputs": [
        {
          "internalType": "bytes4",
          "name": "interfaceId",
          "type": "bytes4"
        }
      ],
      "name": "supportsInterface",
      "outputs": [
        {
          "internalType": "bool",
          "name": "",
          "type": "bool"
        }
      ],
      "stateMutability": "view",
      "type": "function"
    },
    {
      "inputs": [],
      "name": "swapSBLToETH",
      "outputs": [],
      "stateMutability": "nonpayable",
      "type": "function"
    },
    {
      "inputs": [
        {
          "internalType": "uint256",
          "name": "_amountToSwap",
          "type": "uint256"
        }
      ],
      "name": "updateAmountToSwap",
      "outputs": [],
      "stateMutability": "nonpayable",
      "type": "function"
    },
    {
      "inputs": [
        {
          "internalType": "uint256",
          "name": "_intervalBlockNum",
          "type": "uint256"
        }
      ],
      "name": "updateIntervalBlockNum",
      "outputs": [],
      "stateMutability": "nonpayable",
      "type": "function"
    },
    {
      "inputs": [
        {
          "internalType": "uint256",
          "name": "_limitIndex",
          "type": "uint256"
        }
      ],
      "name": "updateLimitIndex",
      "outputs": [],
      "stateMutability": "nonpayable",
      "type": "function"
    },
    {
      "inputs": [
        {
          "internalType": "uint256",
          "name": "_minToBurn",
          "type": "uint256"
        }
      ],
      "name": "updateMinToBurn",
      "outputs": [],
      "stateMutability": "nonpayable",
      "type": "function"
    },
    {
      "inputs": [
        {
          "internalType": "address",
          "name": "_SBLTokenAdd",
          "type": "address"
        }
      ],
      "name": "updateSBLTokenAdd",
      "outputs": [],
      "stateMutability": "nonpayable",
      "type": "function"
    },
    {
      "inputs": [
        {
          "internalType": "bytes",
          "name": "data",
          "type": "bytes"
        }
      ],
      "name": "withdrawReward",
      "outputs": [],
      "stateMutability": "nonpayable",
      "type": "function"
    },
    {
      "stateMutability": "payable",
      "type": "receive"
    }
  ],
  "bytecode": "0x60806040526801158e460913d00000600455600d60065561708060095567016345785d8a0000600a553480156200003557600080fd5b50604051620026ed380380620026ed83398101604081905262000058916200026f565b60018055600280546001600160a01b038086166001600160a01b03199283161790925560038054858416908316179055600e805492841692909116919091179055620000ad6000620000a73390565b620001b1565b620000d97fa076a07f65bcd51bcb15a0f01a65bc18f2d922acb81bcfd8af4caf5adb55709133620001b1565b50506040805180820182526008815267109d5c9b919d5b9960c21b6020918201528151808301835260018152603160f81b9082015281517f8b73c3c69bb8fe3d512ecc4cf759cc79239f7b179b0ffacaa9a75d522b39400f818301527fa1cc0d5db86c3557b13f04ab1b0053ea772a0555c9bbdd46af99feb25a2f5d8b818401527fc89efdaa54c0f20c7adf612882df0950f5a951637e0307cdcb4c672f298b8bc660608201524660808201523060a0808301919091528351808303909101815260c09091019092528151910120600c5550620002b9565b6000828152602081815260408083206001600160a01b038516845290915290205460ff166200024e576000828152602081815260408083206001600160a01b03851684529091529020805460ff191660011790556200020d3390565b6001600160a01b0316816001600160a01b0316837f2f8788117e7eff1d82e926ec794901d17c78024a50270940304540a733656f0d60405160405180910390a45b5050565b80516001600160a01b03811681146200026a57600080fd5b919050565b6000806000606084860312156200028557600080fd5b620002908462000252565b9250620002a06020850162000252565b9150620002b06040850162000252565b90509250925092565b61242480620002c96000396000f3fe6080604052600436106101f25760003560e01c80637ecebe001161010d578063c4981b44116100a0578063d9a83b4c1161006f578063d9a83b4c146105a1578063e1a4ac20146105c1578063e3d670d7146105d7578063eac13e61146105f7578063f55b2c4f1461060d57600080fd5b8063c4981b4414610511578063c7db76551461053e578063d18d69af14610554578063d547741f1461058157600080fd5b8063a217fddf116100dc578063a217fddf1461049c578063a79260d2146104b1578063aa01dd77146104d1578063ae5ade83146104f157600080fd5b80637ecebe0014610419578063875257f7146104465780639006b7441461045c57806391d148541461047c57600080fd5b80633644e515116101855780636763ccbd116101545780636763ccbd146103ad5780636c8b1738146103cd5780636dc697a6146103e35780637286ec321461040357600080fd5b80633644e5151461034057806336568abe1461035657806357548ddd1461037657806360a4b76a1461038b57600080fd5b8063248a9ca3116101c1578063248a9ca3146102bb5780632a6168f2146102eb5780632a9c72c81461030b5780632f2ff15d1461032057600080fd5b806301ffc9a7146101fe578063107328961461023357806314127b4814610261578063238ac9331461028357600080fd5b366101f957005b600080fd5b34801561020a57600080fd5b5061021e610219366004611e3e565b61062d565b60405190151581526020015b60405180910390f35b34801561023f57600080fd5b5061025361024e366004611e68565b610664565b60405190815260200161022a565b34801561026d57600080fd5b5061028161027c366004611e68565b6108e6565b005b34801561028f57600080fd5b50600e546102a3906001600160a01b031681565b6040516001600160a01b03909116815260200161022a565b3480156102c757600080fd5b506102536102d6366004611e68565b60009081526020819052604090206001015490565b3480156102f757600080fd5b50610253610306366004611e68565b610bc3565b34801561031757600080fd5b50610253610e81565b34801561032c57600080fd5b5061028161033b366004611e96565b610f3c565b34801561034c57600080fd5b50610253600c5481565b34801561036257600080fd5b50610281610371366004611e96565b610f66565b34801561038257600080fd5b50610281610fe4565b34801561039757600080fd5b506102536000805160206123cf83398151915281565b3480156103b957600080fd5b506102816103c8366004611f35565b6112f5565b3480156103d957600080fd5b5061025360095481565b3480156103ef57600080fd5b506102816103fe366004611e68565b61141d565b34801561040f57600080fd5b5061025360055481565b34801561042557600080fd5b50610253610434366004611fb5565b600d6020526000908152604090205481565b34801561045257600080fd5b50610253600b5481565b34801561046857600080fd5b506002546102a3906001600160a01b031681565b34801561048857600080fd5b5061021e610497366004611e96565b61145b565b3480156104a857600080fd5b50610253600081565b3480156104bd57600080fd5b506102816104cc366004611fb5565b611484565b3480156104dd57600080fd5b506102816104ec366004611e68565b61150e565b3480156104fd57600080fd5b506003546102a3906001600160a01b031681565b34801561051d57600080fd5b5061025361052c366004611fb5565b60086020526000908152604090205481565b34801561054a57600080fd5b5061025360065481565b34801561056057600080fd5b5061025361056f366004611fb5565b60076020526000908152604090205481565b34801561058d57600080fd5b5061028161059c366004611e96565b61154c565b3480156105ad57600080fd5b506102816105bc366004611e68565b611571565b3480156105cd57600080fd5b50610253600a5481565b3480156105e357600080fd5b506102536105f2366004611fb5565b6115af565b34801561060357600080fd5b5061025360045481565b34801561061957600080fd5b50610281610628366004611e68565b61162e565b60006001600160e01b03198216637965db0b60e01b148061065e57506301ffc9a760e01b6001600160e01b03198316145b92915050565b6003546040805163c45a015560e01b815290516000926001600160a01b0316918391839163c45a01559160048083019260209291908290030181865afa1580156106b2573d6000803e3d6000fd5b505050506040513d601f19601f820116820180604052508101906106d69190611fd2565b90506000816001600160a01b031663e6a43905846001600160a01b031663ad5c46486040518163ffffffff1660e01b8152600401602060405180830381865afa158015610727573d6000803e3d6000fd5b505050506040513d601f19601f8201168201806040525081019061074b9190611fd2565b60025460405160e084901b6001600160e01b03191681526001600160a01b03928316600482015291166024820152604401602060405180830381865afa158015610799573d6000803e3d6000fd5b505050506040513d601f19601f820116820180604052508101906107bd9190611fd2565b9050600080826001600160a01b0316630902f1ac6040518163ffffffff1660e01b8152600401606060405180830381865afa158015610800573d6000803e3d6000fd5b505050506040513d601f19601f82011682018060405250810190610824919061200b565b506001600160701b031691506001600160701b031691506000836001600160a01b0316630dfe16816040518163ffffffff1660e01b8152600401602060405180830381865afa15801561087b573d6000803e3d6000fd5b505050506040513d601f19601f8201168201806040525081019061089f9190611fd2565b6002549091506001600160a01b038083169116146108be5781836108c1565b82825b90935091506108da836108d48a8561166c565b9061167f565b98975050505050505050565b6108ee61168b565b6009543360009081526008602052604090205461090b9043612071565b101561096c5760405162461bcd60e51b815260206004820152602560248201527f4275726e46756e643a204c4553535f5448414e5f494e54455256414c5f424c4f604482015264434b4e554d60d81b60648201526084015b60405180910390fd5b6000610979600a54610bc3565b9050808210156109cb5760405162461bcd60e51b815260206004820152601e60248201527f4275726e46756e643a204c4553535f5448414e5f4d494e5f414d4f554e5400006044820152606401610963565b60006109e861030660646108d460056109e2610e81565b9061166c565b905080831115610a3a5760405162461bcd60e51b815260206004820152601f60248201527f4275726e46756e643a2047524541545f5448414e5f4d41585f414d4f554e54006044820152606401610963565b6000610a4584610664565b600254604051336024820152604481018790529192506000916001600160a01b039091169060640160408051601f198184030181529181526020820180516001600160e01b031663079cc67960e41b17905251610aa291906120a8565b6000604051808303816000865af19150503d8060008114610adf576040519150601f19603f3d011682016040523d82523d6000602084013e610ae4565b606091505b5050905080610b2b5760405162461bcd60e51b8152602060048201526013602482015272109d5c9b919d5b990e881095539497d1905253606a1b6044820152606401610963565b3360009081526007602052604081208054849290610b4a9084906120c4565b9091555050336000908152600860205260408120439055600b8054849290610b739084906120c4565b9091555050604080518681526020810184905233917f111a68060facc101a2b0264fb8756ea323aef0845ad0bcd6348d20e0d1b7fdd5910160405180910390a250505050610bc060018055565b50565b6003546040805163c45a015560e01b815290516000926001600160a01b0316918391839163c45a01559160048083019260209291908290030181865afa158015610c11573d6000803e3d6000fd5b505050506040513d601f19601f82011682018060405250810190610c359190611fd2565b90506000816001600160a01b031663e6a43905846001600160a01b031663ad5c46486040518163ffffffff1660e01b8152600401602060405180830381865afa158015610c86573d6000803e3d6000fd5b505050506040513d601f19601f82011682018060405250810190610caa9190611fd2565b60025460405160e084901b6001600160e01b03191681526001600160a01b03928316600482015291166024820152604401602060405180830381865afa158015610cf8573d6000803e3d6000fd5b505050506040513d601f19601f82011682018060405250810190610d1c9190611fd2565b9050600080826001600160a01b0316630902f1ac6040518163ffffffff1660e01b8152600401606060405180830381865afa158015610d5f573d6000803e3d6000fd5b505050506040513d601f19601f82011682018060405250810190610d83919061200b565b506001600160701b031691506001600160701b031691506000836001600160a01b0316630dfe16816040518163ffffffff1660e01b8152600401602060405180830381865afa158015610dda573d6000803e3d6000fd5b505050506040513d601f19601f82011682018060405250810190610dfe9190611fd2565b9050856001600160a01b031663ad5c46486040518163ffffffff1660e01b8152600401602060405180830381865afa158015610e3e573d6000803e3d6000fd5b505050506040513d601f19601f82011682018060405250810190610e629190611fd2565b6001600160a01b0316816001600160a01b0316146108be5781836108c1565b6000610e99600b54600261166c90919063ffffffff16565b610eb5600a6108d460065460055461166c90919063ffffffff16565b11610f025760405162461bcd60e51b815260206004820152601960248201527f4275726e46756e643a2043414c43554c4154455f4552524f52000000000000006044820152606401610963565b600b54610f119060029061166c565b610f2d600a6108d460065460055461166c90919063ffffffff16565b610f379190612071565b905090565b600082815260208190526040902060010154610f57816116e4565b610f6183836116ee565b505050565b6001600160a01b0381163314610fd65760405162461bcd60e51b815260206004820152602f60248201527f416363657373436f6e74726f6c3a2063616e206f6e6c792072656e6f756e636560448201526e103937b632b9903337b91039b2b63360891b6064820152608401610963565b610fe08282611772565b5050565b6000805160206123cf833981519152610ffc816116e4565b61100461168b565b60045460025461101c906001600160a01b03166115af565b101561106a5760405162461bcd60e51b815260206004820152601f60248201527f4275726e46756e643a204e4f545f52454143485f535741505f414d4f554e54006044820152606401610963565b600254600090611082906001600160a01b03166115af565b9050600061109060006115af565b6003546040805160028082526060820183529394506001600160a01b039092169260009291602083019080368337505060025482519293506001600160a01b0316918391506000906110e4576110e46120d7565b60200260200101906001600160a01b031690816001600160a01b031681525050816001600160a01b031663ad5c46486040518163ffffffff1660e01b8152600401602060405180830381865afa158015611142573d6000803e3d6000fd5b505050506040513d601f19601f820116820180604052508101906111669190611fd2565b81600181518110611179576111796120d7565b6001600160a01b03928316602091820292909201015260025460035460405163095ea7b360e01b815290831660048201526024810187905291169063095ea7b3906044016020604051808303816000875af11580156111dc573d6000803e3d6000fd5b505050506040513d601f19601f8201168201806040525081019061120091906120ed565b506001600160a01b03821663791ac9478560008430611221426102586120c4565b6040518663ffffffff1660e01b815260040161124195949392919061210f565b600060405180830381600087803b15801561125b57600080fd5b505af115801561126f573d6000803e3d6000fd5b50505050600061127f60006115af565b905061128b81856117d7565b6005600082825461129c91906120c4565b909155503390507f4d37dde1a9569539a519cfca5166a8a83e72405b77d1d7067c0a7b296d7572b6866112cf84886117d7565b6040805192835260208301919091520160405180910390a25050505050610bc060018055565b6112fd61168b565b600080600061130b846117e3565b919450925090506001600160a01b03811661135357604051339083156108fc029084906000818181858888f1935050505015801561134d573d6000803e3d6000fd5b506113c6565b60405163a9059cbb60e01b8152336004820152602481018390526001600160a01b0382169063a9059cbb906044016020604051808303816000875af11580156113a0573d6000803e3d6000fd5b505050506040513d601f19601f820116820180604052508101906113c491906120ed565b505b60408051838152602081018590526001600160a01b03831681830152905133917f5439e0f795f43db933313f18de0d0918fdc79707ac3cc152a3b0d1e5eab0c46e919081900360600190a2505050610bc060018055565b6000805160206123cf833981519152611435816116e4565b600082116114555760405162461bcd60e51b815260040161096390612180565b50600a55565b6000918252602082815260408084206001600160a01b0393909316845291905290205460ff1690565b6000805160206123cf83398151915261149c816116e4565b6001600160a01b0382166114eb5760405162461bcd60e51b81526020600482015260166024820152754275726e46756e643a205a45524f5f4144445245535360501b6044820152606401610963565b50600280546001600160a01b0319166001600160a01b0392909216919091179055565b6000805160206123cf833981519152611526816116e4565b600082116115465760405162461bcd60e51b815260040161096390612180565b50600955565b600082815260208190526040902060010154611567816116e4565b610f618383611772565b6000805160206123cf833981519152611589816116e4565b600082116115a95760405162461bcd60e51b815260040161096390612180565b50600455565b60006001600160a01b0382166115c6575047919050565b6040516370a0823160e01b81523060048201526001600160a01b038316906370a0823190602401602060405180830381865afa15801561160a573d6000803e3d6000fd5b505050506040513d601f19601f8201168201806040525081019061065e91906121ae565b6000805160206123cf833981519152611646816116e4565b600082116116665760405162461bcd60e51b815260040161096390612180565b50600655565b600061167882846121c7565b9392505050565b600061167882846121de565b6002600154036116dd5760405162461bcd60e51b815260206004820152601f60248201527f5265656e7472616e637947756172643a207265656e7472616e742063616c6c006044820152606401610963565b6002600155565b610bc08133611b5f565b6116f8828261145b565b610fe0576000828152602081815260408083206001600160a01b03851684529091529020805460ff1916600117905561172e3390565b6001600160a01b0316816001600160a01b0316837f2f8788117e7eff1d82e926ec794901d17c78024a50270940304540a733656f0d60405160405180910390a45050565b61177c828261145b565b15610fe0576000828152602081815260408083206001600160a01b0385168085529252808320805460ff1916905551339285917ff6391f5c32d9c69d2a47ea670b442974b53935d1edc7fd64eb21e047a839171b9190a45050565b60006116788284612071565b6000806000806000806000806000808a8060200190518101906118069190612200565b9650965096509650965096509650336001600160a01b0316876001600160a01b03161461186e5760405162461bcd60e51b815260206004820152601660248201527521393ab7233ab7321d1024a72b20a624a22faaa9a2a960511b6044820152606401610963565b336000908152600d602052604090205483146118cc5760405162461bcd60e51b815260206004820152601760248201527f4272756e46756e643a20494e56414c49445f4e4f4e43450000000000000000006044820152606401610963565b6118f46040518060400160405280600681526020016503a34b6b29d160d51b81525042611bb8565b814211156119385760405162461bcd60e51b8152602060048201526011602482015270109c9d5b919d5b990e881512535153d555607a1b6044820152606401610963565b600080600061194684611bfd565b9250925092506000600c546040516020016119d0907f5065726d6974286164647265737320757365722c6164647265737320746f6b6581527f6e2c75696e74323536206f726465722c75696e7432353620616d6f756e742c7560208201527f696e74323536206e6f6e63652c75696e7432353620646561646c696e652900006040820152605e0190565b60408051808303601f190181528282528051602091820120818401526001600160a01b038f8116848401528e166060840152608083018d905260a083018c905260c083018b905260e08084018b9052825180850390910181526101008401909252815191012061190160f01b6101208301526101228201929092526101428101919091526101620160408051601f1981840301815282825280516020918201206000845290830180835281905260ff8716918301919091526060820185905260808201849052915060019060a0016020604051602081039080840390855afa158015611ac0573d6000803e3d6000fd5b5050604051601f190151600e546001600160a01b039081169116149050611b295760405162461bcd60e51b815260206004820152601860248201527f4272756e46756e643a20494e56414c49445f53494e47455200000000000000006044820152606401610963565b336000908152600d60205260408120805491611b44836122c8565b90915550989f979e50989c50959a5050505050505050505050565b611b69828261145b565b610fe057611b7681611c6f565b611b81836020611c81565b604051602001611b929291906122e1565b60408051601f198184030181529082905262461bcd60e51b825261096391600401612382565b610fe08282604051602401611bce929190612395565b60408051601f198184030181529190526020810180516001600160e01b0316632d839cb360e21b179052611e1d565b60008060008351604114611c535760405162461bcd60e51b815260206004820152601a60248201527f4e6f7420496e76616c6964205369676e617475726520446174610000000000006044820152606401610963565b5050506020810151604082015160609092015160001a92909190565b606061065e6001600160a01b03831660145b60606000611c908360026121c7565b611c9b9060026120c4565b67ffffffffffffffff811115611cb357611cb3611ec6565b6040519080825280601f01601f191660200182016040528015611cdd576020820181803683370190505b509050600360fc1b81600081518110611cf857611cf86120d7565b60200101906001600160f81b031916908160001a905350600f60fb1b81600181518110611d2757611d276120d7565b60200101906001600160f81b031916908160001a9053506000611d4b8460026121c7565b611d569060016120c4565b90505b6001811115611dce576f181899199a1a9b1b9c1cb0b131b232b360811b85600f1660108110611d8a57611d8a6120d7565b1a60f81b828281518110611da057611da06120d7565b60200101906001600160f81b031916908160001a90535060049490941c93611dc7816123b7565b9050611d59565b5083156116785760405162461bcd60e51b815260206004820181905260248201527f537472696e67733a20686578206c656e67746820696e73756666696369656e746044820152606401610963565b80516a636f6e736f6c652e6c6f67602083016000808483855afa5050505050565b600060208284031215611e5057600080fd5b81356001600160e01b03198116811461167857600080fd5b600060208284031215611e7a57600080fd5b5035919050565b6001600160a01b0381168114610bc057600080fd5b60008060408385031215611ea957600080fd5b823591506020830135611ebb81611e81565b809150509250929050565b634e487b7160e01b600052604160045260246000fd5b604051601f8201601f1916810167ffffffffffffffff81118282101715611f0557611f05611ec6565b604052919050565b600067ffffffffffffffff821115611f2757611f27611ec6565b50601f01601f191660200190565b600060208284031215611f4757600080fd5b813567ffffffffffffffff811115611f5e57600080fd5b8201601f81018413611f6f57600080fd5b8035611f82611f7d82611f0d565b611edc565b818152856020838501011115611f9757600080fd5b81602084016020830137600091810160200191909152949350505050565b600060208284031215611fc757600080fd5b813561167881611e81565b600060208284031215611fe457600080fd5b815161167881611e81565b80516001600160701b038116811461200657600080fd5b919050565b60008060006060848603121561202057600080fd5b61202984611fef565b925061203760208501611fef565b9150604084015163ffffffff8116811461205057600080fd5b809150509250925092565b634e487b7160e01b600052601160045260246000fd5b8181038181111561065e5761065e61205b565b60005b8381101561209f578181015183820152602001612087565b50506000910152565b600082516120ba818460208701612084565b9190910192915050565b8082018082111561065e5761065e61205b565b634e487b7160e01b600052603260045260246000fd5b6000602082840312156120ff57600080fd5b8151801515811461167857600080fd5b600060a082018783526020878185015260a0604085015281875180845260c086019150828901935060005b8181101561215f5784516001600160a01b03168352938301939183019160010161213a565b50506001600160a01b03969096166060850152505050608001529392505050565b6020808252601490820152734275726e46756e643a205a45524f5f56414c554560601b604082015260600190565b6000602082840312156121c057600080fd5b5051919050565b808202811582820484141761065e5761065e61205b565b6000826121fb57634e487b7160e01b600052601260045260246000fd5b500490565b600080600080600080600060e0888a03121561221b57600080fd5b875161222681611e81565b602089015190975061223781611e81565b8096505060408801519450606088015193506080880151925060a0880151915060c088015167ffffffffffffffff81111561227157600080fd5b8801601f81018a1361228257600080fd5b8051612290611f7d82611f0d565b8181528b60208385010111156122a557600080fd5b6122b6826020830160208601612084565b80935050505092959891949750929550565b6000600182016122da576122da61205b565b5060010190565b7f416363657373436f6e74726f6c3a206163636f756e7420000000000000000000815260008351612319816017850160208801612084565b7001034b99036b4b9b9b4b733903937b6329607d1b601791840191820152835161234a816028840160208801612084565b01602801949350505050565b6000815180845261236e816020860160208601612084565b601f01601f19169290920160200192915050565b6020815260006116786020830184612356565b6040815260006123a86040830185612356565b90508260208301529392505050565b6000816123c6576123c661205b565b50600019019056fea076a07f65bcd51bcb15a0f01a65bc18f2d922acb81bcfd8af4caf5adb557091a26469706673582212201c4e4a5febf4f32d5f5e8e1939bdad1584a5c8dfacc6ac63a9068e3bed47165264736f6c63430008110033",
  "linkReferences": {},
  "deployedLinkReferences": {}
}