{
  "_format": "hh-sol-artifact-1",
  "contractName": "ExchangeNFT",
  "sourceName": "contracts/ExchangeCard.sol",
  "abi": [
    {
      "inputs": [
        {
          "internalType": "address",
          "name": "_address",
          "type": "address"
        }
      ],
      "stateMutability": "nonpayable",
      "type": "constructor"
    },
    {
      "anonymous": false,
      "inputs": [
        {
          "indexed": false,
          "internalType": "bytes32",
          "name": "orderId",
          "type": "bytes32"
        }
      ],
      "name": "Cancel",
      "type": "event"
    },
    {
      "anonymous": false,
      "inputs": [
        {
          "indexed": false,
          "internalType": "bytes32",
          "name": "orderId",
          "type": "bytes32"
        },
        {
          "indexed": false,
          "internalType": "address",
          "name": "createMan",
          "type": "address"
        },
        {
          "indexed": false,
          "internalType": "address",
          "name": "payToken",
          "type": "address"
        },
        {
          "indexed": false,
          "internalType": "address",
          "name": "nftToken",
          "type": "address"
        },
        {
          "indexed": false,
          "internalType": "uint256",
          "name": "price",
          "type": "uint256"
        },
        {
          "indexed": false,
          "internalType": "uint256",
          "name": "tokenId",
          "type": "uint256"
        }
      ],
      "name": "CreateOrder",
      "type": "event"
    },
    {
      "anonymous": false,
      "inputs": [
        {
          "indexed": false,
          "internalType": "bytes32",
          "name": "orderId",
          "type": "bytes32"
        },
        {
          "indexed": false,
          "internalType": "uint256",
          "name": "tokenId",
          "type": "uint256"
        },
        {
          "indexed": false,
          "internalType": "uint256",
          "name": "price",
          "type": "uint256"
        },
        {
          "indexed": false,
          "internalType": "address",
          "name": "payToken",
          "type": "address"
        },
        {
          "indexed": false,
          "internalType": "address",
          "name": "nftToken",
          "type": "address"
        },
        {
          "indexed": false,
          "internalType": "address",
          "name": "marker",
          "type": "address"
        },
        {
          "indexed": false,
          "internalType": "address",
          "name": "takeMan",
          "type": "address"
        },
        {
          "indexed": false,
          "internalType": "uint256",
          "name": "finishTime",
          "type": "uint256"
        }
      ],
      "name": "TakeOrder",
      "type": "event"
    },
    {
      "inputs": [],
      "name": "admin",
      "outputs": [
        {
          "internalType": "address",
          "name": "",
          "type": "address"
        }
      ],
      "stateMutability": "view",
      "type": "function"
    },
    {
      "inputs": [
        {
          "internalType": "bytes32",
          "name": "orderId",
          "type": "bytes32"
        }
      ],
      "name": "cancelOrder",
      "outputs": [],
      "stateMutability": "nonpayable",
      "type": "function"
    },
    {
      "inputs": [
        {
          "internalType": "uint256",
          "name": "tokenId",
          "type": "uint256"
        }
      ],
      "name": "checkCardGrade",
      "outputs": [
        {
          "internalType": "bool",
          "name": "",
          "type": "bool"
        }
      ],
      "stateMutability": "view",
      "type": "function"
    },
    {
      "inputs": [
        {
          "internalType": "uint256",
          "name": "tokenId",
          "type": "uint256"
        },
        {
          "internalType": "uint256",
          "name": "price",
          "type": "uint256"
        },
        {
          "internalType": "address",
          "name": "payToken",
          "type": "address"
        },
        {
          "internalType": "address",
          "name": "nftAddr",
          "type": "address"
        }
      ],
      "name": "createOrder",
      "outputs": [],
      "stateMutability": "nonpayable",
      "type": "function"
    },
    {
      "inputs": [],
      "name": "getAllNowOeder",
      "outputs": [
        {
          "components": [
            {
              "internalType": "bytes32",
              "name": "orderId",
              "type": "bytes32"
            },
            {
              "internalType": "uint256",
              "name": "tokenId",
              "type": "uint256"
            },
            {
              "internalType": "uint256",
              "name": "price",
              "type": "uint256"
            },
            {
              "internalType": "address",
              "name": "payToken",
              "type": "address"
            },
            {
              "internalType": "address",
              "name": "nftToken",
              "type": "address"
            },
            {
              "internalType": "address",
              "name": "marker",
              "type": "address"
            },
            {
              "internalType": "address",
              "name": "takeMan",
              "type": "address"
            },
            {
              "internalType": "uint256",
              "name": "finishTime",
              "type": "uint256"
            },
            {
              "internalType": "bool",
              "name": "isUse",
              "type": "bool"
            }
          ],
          "internalType": "struct ExchangeNFT.OrderInfo[]",
          "name": "",
          "type": "tuple[]"
        }
      ],
      "stateMutability": "view",
      "type": "function"
    },
    {
      "inputs": [],
      "name": "getAllTakeOeder",
      "outputs": [
        {
          "components": [
            {
              "internalType": "bytes32",
              "name": "orderId",
              "type": "bytes32"
            },
            {
              "internalType": "uint256",
              "name": "tokenId",
              "type": "uint256"
            },
            {
              "internalType": "uint256",
              "name": "price",
              "type": "uint256"
            },
            {
              "internalType": "address",
              "name": "payToken",
              "type": "address"
            },
            {
              "internalType": "address",
              "name": "nftToken",
              "type": "address"
            },
            {
              "internalType": "address",
              "name": "marker",
              "type": "address"
            },
            {
              "internalType": "address",
              "name": "takeMan",
              "type": "address"
            },
            {
              "internalType": "uint256",
              "name": "finishTime",
              "type": "uint256"
            },
            {
              "internalType": "bool",
              "name": "isUse",
              "type": "bool"
            }
          ],
          "internalType": "struct ExchangeNFT.OrderInfo[]",
          "name": "",
          "type": "tuple[]"
        }
      ],
      "stateMutability": "view",
      "type": "function"
    },
    {
      "inputs": [],
      "name": "getNewAdmin",
      "outputs": [],
      "stateMutability": "nonpayable",
      "type": "function"
    },
    {
      "inputs": [],
      "name": "manager",
      "outputs": [
        {
          "internalType": "contract Manager",
          "name": "",
          "type": "address"
        }
      ],
      "stateMutability": "view",
      "type": "function"
    },
    {
      "inputs": [],
      "name": "newAdmin",
      "outputs": [
        {
          "internalType": "address",
          "name": "",
          "type": "address"
        }
      ],
      "stateMutability": "view",
      "type": "function"
    },
    {
      "inputs": [
        {
          "internalType": "uint256",
          "name": "",
          "type": "uint256"
        }
      ],
      "name": "nowOrder",
      "outputs": [
        {
          "internalType": "bytes32",
          "name": "orderId",
          "type": "bytes32"
        },
        {
          "internalType": "uint256",
          "name": "tokenId",
          "type": "uint256"
        },
        {
          "internalType": "uint256",
          "name": "price",
          "type": "uint256"
        },
        {
          "internalType": "address",
          "name": "payToken",
          "type": "address"
        },
        {
          "internalType": "address",
          "name": "nftToken",
          "type": "address"
        },
        {
          "internalType": "address",
          "name": "marker",
          "type": "address"
        },
        {
          "internalType": "address",
          "name": "takeMan",
          "type": "address"
        },
        {
          "internalType": "uint256",
          "name": "finishTime",
          "type": "uint256"
        },
        {
          "internalType": "bool",
          "name": "isUse",
          "type": "bool"
        }
      ],
      "stateMutability": "view",
      "type": "function"
    },
    {
      "inputs": [
        {
          "internalType": "address",
          "name": "operator",
          "type": "address"
        },
        {
          "internalType": "address",
          "name": "from",
          "type": "address"
        },
        {
          "internalType": "uint256",
          "name": "tokenId",
          "type": "uint256"
        },
        {
          "internalType": "bytes",
          "name": "data",
          "type": "bytes"
        }
      ],
      "name": "onERC721Received",
      "outputs": [
        {
          "internalType": "bytes4",
          "name": "",
          "type": "bytes4"
        }
      ],
      "stateMutability": "nonpayable",
      "type": "function"
    },
    {
      "inputs": [
        {
          "internalType": "uint256",
          "name": "_fee",
          "type": "uint256"
        },
        {
          "internalType": "address",
          "name": "_feeMan",
          "type": "address"
        }
      ],
      "name": "setFee",
      "outputs": [],
      "stateMutability": "nonpayable",
      "type": "function"
    },
    {
      "inputs": [
        {
          "internalType": "address",
          "name": "addr",
          "type": "address"
        }
      ],
      "name": "setManager",
      "outputs": [],
      "stateMutability": "nonpayable",
      "type": "function"
    },
    {
      "inputs": [
        {
          "internalType": "address",
          "name": "_newAdmin",
          "type": "address"
        }
      ],
      "name": "setNewAdmin",
      "outputs": [],
      "stateMutability": "nonpayable",
      "type": "function"
    },
    {
      "inputs": [
        {
          "internalType": "address",
          "name": "addr",
          "type": "address"
        },
        {
          "internalType": "bool",
          "name": "status",
          "type": "bool"
        }
      ],
      "name": "setNftAddress",
      "outputs": [],
      "stateMutability": "nonpayable",
      "type": "function"
    },
    {
      "inputs": [
        {
          "internalType": "uint256",
          "name": "_grade",
          "type": "uint256"
        },
        {
          "internalType": "bool",
          "name": "_isUser",
          "type": "bool"
        }
      ],
      "name": "setNftGrade",
      "outputs": [],
      "stateMutability": "nonpayable",
      "type": "function"
    },
    {
      "inputs": [
        {
          "internalType": "bytes32",
          "name": "orderId",
          "type": "bytes32"
        }
      ],
      "name": "takeOrder",
      "outputs": [],
      "stateMutability": "payable",
      "type": "function"
    },
    {
      "inputs": [
        {
          "internalType": "uint256",
          "name": "",
          "type": "uint256"
        }
      ],
      "name": "takeOrderList",
      "outputs": [
        {
          "internalType": "bytes32",
          "name": "orderId",
          "type": "bytes32"
        },
        {
          "internalType": "uint256",
          "name": "tokenId",
          "type": "uint256"
        },
        {
          "internalType": "uint256",
          "name": "price",
          "type": "uint256"
        },
        {
          "internalType": "address",
          "name": "payToken",
          "type": "address"
        },
        {
          "internalType": "address",
          "name": "nftToken",
          "type": "address"
        },
        {
          "internalType": "address",
          "name": "marker",
          "type": "address"
        },
        {
          "internalType": "address",
          "name": "takeMan",
          "type": "address"
        },
        {
          "internalType": "uint256",
          "name": "finishTime",
          "type": "uint256"
        },
        {
          "internalType": "bool",
          "name": "isUse",
          "type": "bool"
        }
      ],
      "stateMutability": "view",
      "type": "function"
    }
  ],
  "bytecode": "0x608060405234801561001057600080fd5b5060405161205838038061205883398101604081905261002f916100ea565b600180546001600160a01b03199081163317825560046020527f04cde762ef08b6b6c5ded8e8c4c0b3f4e5c9ad7342c88fcc93681b4588b73f05805460ff19908116841790915560066000527fc59312466997bb42aaaf719ece141047820e6b34531e1670dc1852a453648f0f8054909116909217909155600580546001600160a01b039390931692821692909217909155600a805490911673c71a734958dc368386dc637db4c72bc11591147d179055606460095561011a565b6000602082840312156100fc57600080fd5b81516001600160a01b038116811461011357600080fd5b9392505050565b611f2f806101296000396000f3fe6080604052600436106101095760003560e01c806372a2ea5e116100955780639ddd4974116100645780639ddd49741461033d578063b4f2e8b814610352578063c544851a14610372578063d0ebdbe714610392578063f851a440146103b257600080fd5b806372a2ea5e146102bd5780637489ec23146102dd578063813133c4146102fd5780638eec99c81461031d57600080fd5b806355862d83116100dc57806355862d83146101e057806358b91f0d146101f55780635b1ff357146102155780636022878b1461023757806364bff1bf146102a857600080fd5b8063150b7a021461010e57806329ef4a99146101585780633ea2638414610188578063481c6a75146101c0575b600080fd5b34801561011a57600080fd5b5061013a610129366004611af0565b630a85bd0160e11b95945050505050565b6040516001600160e01b031990911681526020015b60405180910390f35b34801561016457600080fd5b50610178610173366004611b8f565b6103d2565b604051901515815260200161014f565b34801561019457600080fd5b506002546101a8906001600160a01b031681565b6040516001600160a01b03909116815260200161014f565b3480156101cc57600080fd5b506000546101a8906001600160a01b031681565b6101f36101ee366004611b8f565b61045d565b005b34801561020157600080fd5b506101f3610210366004611ba8565b610a95565b34801561022157600080fd5b5061022a610f60565b60405161014f9190611bf2565b34801561024357600080fd5b50610257610252366004611b8f565b61102a565b60408051998a5260208a0198909852968801959095526001600160a01b0393841660608801529183166080870152821660a08601521660c084015260e083015215156101008201526101200161014f565b3480156102b457600080fd5b5061022a61109a565b3480156102c957600080fd5b506102576102d8366004611b8f565b61115a565b3480156102e957600080fd5b506101f36102f8366004611b8f565b61116a565b34801561030957600080fd5b506101f3610318366004611caf565b6114f5565b34801561032957600080fd5b506101f3610338366004611ce8565b6115cb565b34801561034957600080fd5b506101f361168b565b34801561035e57600080fd5b506101f361036d366004611d05565b6116f0565b34801561037e57600080fd5b506101f361038d366004611d2a565b6117c2565b34801561039e57600080fd5b506101f36103ad366004611ce8565b61188d565b3480156103be57600080fd5b506001546101a8906001600160a01b031681565b600554604051634b8094df60e11b81526004810183905260009182916001600160a01b039091169063970129be906024016040805180830381865afa15801561041f573d6000803e3d6000fd5b505050506040513d601f19601f820116820180604052508101906104439190611d4f565b5060009081526004602052604090205460ff169392505050565b6000818152600660205260409020600881015460ff166104b15760405162461bcd60e51b815260206004820152600a6024820152694f646572206572726f6560b01b60448201526064015b60405180910390fd5b60006104d86103e86104d260095485600201546118ff90919063ffffffff16565b9061198a565b60038301549091506001600160a01b031661058b5781600201543410156104fe57600080fd5b600a546040516001600160a01b039091169082156108fc029083906000818181858888f19350505050158015610538573d6000803e3d6000fd5b50600582015460028301546001600160a01b03909116906108fc9061055d90846119cc565b6040518115909202916000818181858888f19350505050158015610585573d6000803e3d6000fd5b506106a5565b6003820154600a5460405163a9059cbb60e01b81526001600160a01b0391821660048201526024810184905291169063a9059cbb906044016020604051808303816000875af11580156105e2573d6000803e3d6000fd5b505050506040513d601f19601f820116820180604052508101906106069190611d73565b506003820154600583015460028401546001600160a01b039283169263a9059cbb92169061063490856119cc565b6040516001600160e01b031960e085901b1681526001600160a01b03909216600483015260248201526044016020604051808303816000875af115801561067f573d6000803e3d6000fd5b505050506040513d601f19601f820116820180604052508101906106a39190611d73565b505b4260078301556006820180546001600160a01b0319163390811790915560088301805460ff1916905560048084015460018501546040516323b872dd60e01b81523093810193909352602483019390935260448201929092526001600160a01b03909116906323b872dd90606401600060405180830381600087803b15801561072d57600080fd5b505af1158015610741573d6000803e3d6000fd5b505060088054600180820183556000839052865460099092027ff3f7a9fe364faab93b216da50a3214154f22a0a2b415b23a84c8169e8b636ee3810192909255860180547ff3f7a9fe364faab93b216da50a3214154f22a0a2b415b23a84c8169e8b636ee48301556002870180547ff3f7a9fe364faab93b216da50a3214154f22a0a2b415b23a84c8169e8b636ee58401556003880180547ff3f7a9fe364faab93b216da50a3214154f22a0a2b415b23a84c8169e8b636ee6850180546001600160a01b03199081166001600160a01b039384161790915560048b0180547ff3f7a9fe364faab93b216da50a3214154f22a0a2b415b23a84c8169e8b636ee788018054841691851691909117905560058c0180547ff3f7a9fe364faab93b216da50a3214154f22a0a2b415b23a84c8169e8b636ee889018054851691861691909117905560068d01547ff3f7a9fe364faab93b216da50a3214154f22a0a2b415b23a84c8169e8b636ee9890180549094169085161790925560078c01547ff3f7a9fe364faab93b216da50a3214154f22a0a2b415b23a84c8169e8b636eea880155968b01547ff3f7a9fe364faab93b216da50a3214154f22a0a2b415b23a84c8169e8b636eeb909601805460ff909716151560ff199097169690961790955592549154905494549354604080518c815260208101949094528381019290925294831660608301529282166080820152921660a08301523360c08301524260e0830152517fee3eee9f37417f7b578a99a1254787d83a1154be42988cedbcb82ba7e56bb0e4935090819003610100019150a16000838152600660208190526040822082815560018101839055600281018390556003810180546001600160a01b03199081169091556004820180548216905560058201805482169055918101805490921690915560078101829055600801805460ff19169055610a0284611a0e565b90508015610a8f576007610a17600183611da6565b81548110610a2757610a27611db9565b60009182526020822060099091020181815560018101829055600281018290556003810180546001600160a01b0319908116909155600482018054821690556005820180548216905560068201805490911690556007810191909155600801805460ff191690555b50505050565b6001600160a01b03811660009081526003602052604090205460ff16610af15760405162461bcd60e51b815260206004820152601160248201527027232a1020b2323932b9b99022b93937b960791b60448201526064016104a8565b610afa846103d2565b610b395760405162461bcd60e51b815260206004820152601060248201526f21b0b9321033b930b2329032b93937b960811b60448201526064016104a8565b6040516323b872dd60e01b8152336004820152306024820152604481018590526001600160a01b038216906323b872dd90606401600060405180830381600087803b158015610b8757600080fd5b505af1158015610b9b573d6000803e3d6000fd5b505060408051602081018890523391810191909152436060820152600092506080019050604051602081830303815290604052805190602001209050604051806101200160405280828152602001868152602001858152602001846001600160a01b03168152602001836001600160a01b03168152602001336001600160a01b0316815260200160006001600160a01b0316815260200160008152602001600115158152506006600083815260200190815260200160002060008201518160000155602082015181600101556040820151816002015560608201518160030160006101000a8154816001600160a01b0302191690836001600160a01b0316021790555060808201518160040160006101000a8154816001600160a01b0302191690836001600160a01b0316021790555060a08201518160050160006101000a8154816001600160a01b0302191690836001600160a01b0316021790555060c08201518160060160006101000a8154816001600160a01b0302191690836001600160a01b0316021790555060e082015181600701556101008201518160080160006101000a81548160ff02191690831515021790555090505060076006600083815260200190815260200160002090806001815401808255809150506001900390600052602060002090600902016000909190919091506000820154816000015560018201548160010155600282015481600201556003820160009054906101000a90046001600160a01b03168160030160006101000a8154816001600160a01b0302191690836001600160a01b031602179055506004820160009054906101000a90046001600160a01b03168160040160006101000a8154816001600160a01b0302191690836001600160a01b031602179055506005820160009054906101000a90046001600160a01b03168160050160006101000a8154816001600160a01b0302191690836001600160a01b031602179055506006820160009054906101000a90046001600160a01b03168160060160006101000a8154816001600160a01b0302191690836001600160a01b03160217905550600782015481600701556008820160009054906101000a900460ff168160080160006101000a81548160ff02191690831515021790555050507f3c13d4822978e82ae2366b7c6a118ce3186f377d47dff48d4911c8eaf8d6e70281338585888a604051610f51969594939291909586526001600160a01b039485166020870152928416604086015292166060840152608083019190915260a082015260c00190565b60405180910390a15050505050565b60606008805480602002602001604051908101604052809291908181526020016000905b82821015611021576000848152602090819020604080516101208101825260098602909201805483526001808201548486015260028201549284019290925260038101546001600160a01b0390811660608501526004820154811660808501526005820154811660a085015260068201541660c0840152600781015460e08401526008015460ff1615156101008301529083529092019101610f84565b50505050905090565b6007818154811061103a57600080fd5b6000918252602090912060099091020180546001820154600283015460038401546004850154600586015460068701546007880154600890980154969850949693956001600160a01b039384169592841694918416939092169160ff1689565b606060078054806020026020016040519081016040528092919081815260200160009082821015611021576000848152602090819020604080516101208101825260098602909201805483526001808201548486015260028201549284019290925260038101546001600160a01b0390811660608501526004820154811660808501526005820154811660a085015260068201541660c0840152600781015460e08401526008015460ff1615156101008301529083529092019101610f84565b6008818154811061103a57600080fd5b6000818152600660205260409020600501546001600160a01b031633146111c95760405162461bcd60e51b815260206004820152601360248201527224ba1034b9903737ba103cb7ba9037b93232b960691b60448201526064016104a8565b600081815260066020819052604090912001546001600160a01b0316156112275760405162461bcd60e51b8152602060048201526012602482015271027b93232b9103430b9903a30b5b2a6b0b7160751b60448201526064016104a8565b6000818152600660205260409020600701541561127e5760405162461bcd60e51b8152602060048201526015602482015274027b93232b9103430b9903334b734b9b42a34b6b29605d1b60448201526064016104a8565b60008181526006602052604080822060048082015460019092015492516331a9108f60e11b8152908101929092526001600160a01b031690636352211e90602401602060405180830381865afa1580156112dc573d6000803e3d6000fd5b505050506040513d601f19601f820116820180604052508101906113009190611dcf565b90506001600160a01b038116301461134c5760405162461bcd60e51b815260206004820152600f60248201526e27232a103a37b5b2b71032b93937b960891b60448201526064016104a8565b6000828152600660208190526040822060018101805460048301805486855592869055600284018690556003840180546001600160a01b0319908116909155808416909155600584018054821690559383018054909416909355600782018490556008909101805460ff1916905590916001600160a01b03909116906113d185611a0e565b9050801561145e5760076113e6600183611da6565b815481106113f6576113f6611db9565b60009182526020822060099091020181815560018101829055600281018290556003810180546001600160a01b0319908116909155600482018054821690556005820180548216905560068201805490911690556007810191909155600801805460ff191690555b6040516323b872dd60e01b8152306004820152336024820152604481018490526001600160a01b038316906323b872dd90606401600060405180830381600087803b1580156114ac57600080fd5b505af11580156114c0573d6000803e3d6000fd5b505050507fe8d9861dbc9c663ed3accd261bbe2fe01e0d3d9e5f51fa38523b265c7757a93a85604051610f5191815260200190565b6040805180820182526006815265436f6e66696760d01b60208201526000549151637dd13a9560e01b815290916001600160a01b031690637dd13a95906115429033908590600401611e32565b602060405180830381865afa15801561155f573d6000803e3d6000fd5b505050506040513d601f19601f820116820180604052508101906115839190611d73565b61159f5760405162461bcd60e51b81526004016104a890611e5e565b506001600160a01b03919091166000908152600360205260409020805460ff1916911515919091179055565b6001546001600160a01b0316331461161b5760405162461bcd60e51b8152602060048201526013602482015272636f6e7472616374206f776e6572206f6e6c7960681b60448201526064016104a8565b6001546001600160a01b031633146116695760405162461bcd60e51b81526020600482015260116024820152703cb7ba9030b932903737ba1030b236b4b760791b60448201526064016104a8565b600280546001600160a01b0319166001600160a01b0392909216919091179055565b6002546001600160a01b031633146116dc5760405162461bcd60e51b81526020600482015260146024820152733cb7ba9030b932903737ba103732bba0b236b4b760611b60448201526064016104a8565b600180546001600160a01b03191633179055565b6040805180820182526006815265436f6e66696760d01b60208201526000549151637dd13a9560e01b815290916001600160a01b031690637dd13a959061173d9033908590600401611e32565b602060405180830381865afa15801561175a573d6000803e3d6000fd5b505050506040513d601f19601f8201168201806040525081019061177e9190611d73565b61179a5760405162461bcd60e51b81526004016104a890611e5e565b50600991909155600a80546001600160a01b0319166001600160a01b03909216919091179055565b6040805180820182526006815265436f6e66696760d01b60208201526000549151637dd13a9560e01b815290916001600160a01b031690637dd13a959061180f9033908590600401611e32565b602060405180830381865afa15801561182c573d6000803e3d6000fd5b505050506040513d601f19601f820116820180604052508101906118509190611d73565b61186c5760405162461bcd60e51b81526004016104a890611e5e565b50600091825260046020526040909120805460ff1916911515919091179055565b6001546001600160a01b031633146118dd5760405162461bcd60e51b8152602060048201526013602482015272636f6e7472616374206f776e6572206f6e6c7960681b60448201526064016104a8565b600080546001600160a01b0319166001600160a01b0392909216919091179055565b60008260000361191157506000611984565b600061191d8385611e81565b90508261192a8583611e98565b146119815760405162461bcd60e51b815260206004820152602160248201527f536166654d6174683a206d756c7469706c69636174696f6e206f766572666c6f6044820152607760f81b60648201526084016104a8565b90505b92915050565b600061198183836040518060400160405280601a81526020017f536166654d6174683a206469766973696f6e206279207a65726f000000000000815250611a70565b600061198183836040518060400160405280601e81526020017f536166654d6174683a207375627472616374696f6e206f766572666c6f770000815250611aa7565b600080805b6007548114611a695760078181548110611a2f57611a2f611db9565b9060005260206000209060090201600001548403611a5957611a52816001611eba565b9150611a69565b611a6281611ecd565b9050611a13565b5092915050565b60008183611a915760405162461bcd60e51b81526004016104a89190611ee6565b506000611a9e8486611e98565b95945050505050565b60008184841115611acb5760405162461bcd60e51b81526004016104a89190611ee6565b506000611a9e8486611da6565b6001600160a01b0381168114611aed57600080fd5b50565b600080600080600060808688031215611b0857600080fd5b8535611b1381611ad8565b94506020860135611b2381611ad8565b935060408601359250606086013567ffffffffffffffff80821115611b4757600080fd5b818801915088601f830112611b5b57600080fd5b813581811115611b6a57600080fd5b896020828501011115611b7c57600080fd5b9699959850939650602001949392505050565b600060208284031215611ba157600080fd5b5035919050565b60008060008060808587031215611bbe57600080fd5b84359350602085013592506040850135611bd781611ad8565b91506060850135611be781611ad8565b939692955090935050565b602080825282518282018190526000919060409081850190868401855b82811015611c9457815180518552868101518786015285810151868601526060808201516001600160a01b039081169187019190915260808083015182169087015260a08083015182169087015260c0808301519091169086015260e08082015190860152610100908101511515908501526101209093019290850190600101611c0f565b5091979650505050505050565b8015158114611aed57600080fd5b60008060408385031215611cc257600080fd5b8235611ccd81611ad8565b91506020830135611cdd81611ca1565b809150509250929050565b600060208284031215611cfa57600080fd5b813561198181611ad8565b60008060408385031215611d1857600080fd5b823591506020830135611cdd81611ad8565b60008060408385031215611d3d57600080fd5b823591506020830135611cdd81611ca1565b60008060408385031215611d6257600080fd5b505080516020909101519092909150565b600060208284031215611d8557600080fd5b815161198181611ca1565b634e487b7160e01b600052601160045260246000fd5b8181038181111561198457611984611d90565b634e487b7160e01b600052603260045260246000fd5b600060208284031215611de157600080fd5b815161198181611ad8565b6000815180845260005b81811015611e1257602081850181015186830182015201611df6565b506000602082860101526020601f19601f83011685010191505092915050565b6001600160a01b0383168152604060208201819052600090611e5690830184611dec565b949350505050565b6020808252600990820152681b9bc81c195c9b5a5d60ba1b604082015260600190565b808202811582820484141761198457611984611d90565b600082611eb557634e487b7160e01b600052601260045260246000fd5b500490565b8082018082111561198457611984611d90565b600060018201611edf57611edf611d90565b5060010190565b6020815260006119816020830184611dec56fea264697066735822122061c4564ea6c73af7b70b6bf34c21da78a523c78dbd2ebd7f775729541710c0e664736f6c63430008110033",
  "linkReferences": {},
  "deployedLinkReferences": {}
}