{
  "_format": "hh-sol-artifact-1",
  "contractName": "SpaceBallNFT",
  "sourceName": "contracts/BallNFT.sol",
  "abi": [
    {
      "inputs": [],
      "stateMutability": "nonpayable",
      "type": "constructor"
    },
    {
      "anonymous": false,
      "inputs": [
        {
          "indexed": true,
          "internalType": "address",
          "name": "owner",
          "type": "address"
        },
        {
          "indexed": true,
          "internalType": "address",
          "name": "approved",
          "type": "address"
        },
        {
          "indexed": true,
          "internalType": "uint256",
          "name": "tokenId",
          "type": "uint256"
        }
      ],
      "name": "Approval",
      "type": "event"
    },
    {
      "anonymous": false,
      "inputs": [
        {
          "indexed": true,
          "internalType": "address",
          "name": "owner",
          "type": "address"
        },
        {
          "indexed": true,
          "internalType": "address",
          "name": "operator",
          "type": "address"
        },
        {
          "indexed": false,
          "internalType": "bool",
          "name": "approved",
          "type": "bool"
        }
      ],
      "name": "ApprovalForAll",
      "type": "event"
    },
    {
      "anonymous": false,
      "inputs": [
        {
          "indexed": true,
          "internalType": "address",
          "name": "from",
          "type": "address"
        },
        {
          "indexed": true,
          "internalType": "address",
          "name": "to",
          "type": "address"
        },
        {
          "indexed": true,
          "internalType": "uint256",
          "name": "tokenId",
          "type": "uint256"
        }
      ],
      "name": "Transfer",
      "type": "event"
    },
    {
      "inputs": [],
      "name": "admin",
      "outputs": [
        {
          "internalType": "address",
          "name": "",
          "type": "address"
        }
      ],
      "stateMutability": "view",
      "type": "function"
    },
    {
      "inputs": [
        {
          "internalType": "address",
          "name": "to",
          "type": "address"
        },
        {
          "internalType": "uint256",
          "name": "tokenId",
          "type": "uint256"
        }
      ],
      "name": "approve",
      "outputs": [],
      "stateMutability": "nonpayable",
      "type": "function"
    },
    {
      "inputs": [
        {
          "internalType": "address",
          "name": "owner",
          "type": "address"
        }
      ],
      "name": "balanceOf",
      "outputs": [
        {
          "internalType": "uint256",
          "name": "",
          "type": "uint256"
        }
      ],
      "stateMutability": "view",
      "type": "function"
    },
    {
      "inputs": [
        {
          "internalType": "uint256",
          "name": "tokenId",
          "type": "uint256"
        }
      ],
      "name": "burnNFT",
      "outputs": [],
      "stateMutability": "nonpayable",
      "type": "function"
    },
    {
      "inputs": [
        {
          "internalType": "uint256",
          "name": "",
          "type": "uint256"
        }
      ],
      "name": "cards",
      "outputs": [
        {
          "internalType": "uint256",
          "name": "cardGrade",
          "type": "uint256"
        },
        {
          "internalType": "uint256",
          "name": "cardType",
          "type": "uint256"
        }
      ],
      "stateMutability": "view",
      "type": "function"
    },
    {
      "inputs": [
        {
          "internalType": "uint256",
          "name": "tokenId",
          "type": "uint256"
        }
      ],
      "name": "getApproved",
      "outputs": [
        {
          "internalType": "address",
          "name": "",
          "type": "address"
        }
      ],
      "stateMutability": "view",
      "type": "function"
    },
    {
      "inputs": [
        {
          "internalType": "uint256",
          "name": "tokenId",
          "type": "uint256"
        }
      ],
      "name": "getCardInfo",
      "outputs": [
        {
          "internalType": "uint256",
          "name": "",
          "type": "uint256"
        },
        {
          "internalType": "uint256",
          "name": "",
          "type": "uint256"
        }
      ],
      "stateMutability": "view",
      "type": "function"
    },
    {
      "inputs": [],
      "name": "getNewAdmin",
      "outputs": [],
      "stateMutability": "nonpayable",
      "type": "function"
    },
    {
      "inputs": [
        {
          "internalType": "address",
          "name": "owner",
          "type": "address"
        },
        {
          "internalType": "address",
          "name": "operator",
          "type": "address"
        }
      ],
      "name": "isApprovedForAll",
      "outputs": [
        {
          "internalType": "bool",
          "name": "",
          "type": "bool"
        }
      ],
      "stateMutability": "view",
      "type": "function"
    },
    {
      "inputs": [],
      "name": "manager",
      "outputs": [
        {
          "internalType": "contract Manager",
          "name": "",
          "type": "address"
        }
      ],
      "stateMutability": "view",
      "type": "function"
    },
    {
      "inputs": [],
      "name": "name",
      "outputs": [
        {
          "internalType": "string",
          "name": "",
          "type": "string"
        }
      ],
      "stateMutability": "view",
      "type": "function"
    },
    {
      "inputs": [],
      "name": "newAdmin",
      "outputs": [
        {
          "internalType": "address",
          "name": "",
          "type": "address"
        }
      ],
      "stateMutability": "view",
      "type": "function"
    },
    {
      "inputs": [
        {
          "internalType": "address",
          "name": "_user",
          "type": "address"
        },
        {
          "internalType": "string",
          "name": "tokenURI",
          "type": "string"
        },
        {
          "internalType": "uint256",
          "name": "_cardGrade",
          "type": "uint256"
        },
        {
          "internalType": "uint256",
          "name": "_cardType",
          "type": "uint256"
        }
      ],
      "name": "openBox",
      "outputs": [
        {
          "internalType": "uint256",
          "name": "",
          "type": "uint256"
        }
      ],
      "stateMutability": "nonpayable",
      "type": "function"
    },
    {
      "inputs": [
        {
          "internalType": "uint256",
          "name": "tokenId",
          "type": "uint256"
        }
      ],
      "name": "ownerOf",
      "outputs": [
        {
          "internalType": "address",
          "name": "",
          "type": "address"
        }
      ],
      "stateMutability": "view",
      "type": "function"
    },
    {
      "inputs": [
        {
          "internalType": "address",
          "name": "from",
          "type": "address"
        },
        {
          "internalType": "address",
          "name": "to",
          "type": "address"
        },
        {
          "internalType": "uint256",
          "name": "tokenId",
          "type": "uint256"
        }
      ],
      "name": "safeTransferFrom",
      "outputs": [],
      "stateMutability": "nonpayable",
      "type": "function"
    },
    {
      "inputs": [
        {
          "internalType": "address",
          "name": "from",
          "type": "address"
        },
        {
          "internalType": "address",
          "name": "to",
          "type": "address"
        },
        {
          "internalType": "uint256",
          "name": "tokenId",
          "type": "uint256"
        },
        {
          "internalType": "bytes",
          "name": "data",
          "type": "bytes"
        }
      ],
      "name": "safeTransferFrom",
      "outputs": [],
      "stateMutability": "nonpayable",
      "type": "function"
    },
    {
      "inputs": [
        {
          "internalType": "address",
          "name": "operator",
          "type": "address"
        },
        {
          "internalType": "bool",
          "name": "approved",
          "type": "bool"
        }
      ],
      "name": "setApprovalForAll",
      "outputs": [],
      "stateMutability": "nonpayable",
      "type": "function"
    },
    {
      "inputs": [
        {
          "internalType": "address",
          "name": "addr",
          "type": "address"
        }
      ],
      "name": "setManager",
      "outputs": [],
      "stateMutability": "nonpayable",
      "type": "function"
    },
    {
      "inputs": [
        {
          "internalType": "address",
          "name": "_newAdmin",
          "type": "address"
        }
      ],
      "name": "setNewAdmin",
      "outputs": [],
      "stateMutability": "nonpayable",
      "type": "function"
    },
    {
      "inputs": [
        {
          "internalType": "bytes4",
          "name": "interfaceId",
          "type": "bytes4"
        }
      ],
      "name": "supportsInterface",
      "outputs": [
        {
          "internalType": "bool",
          "name": "",
          "type": "bool"
        }
      ],
      "stateMutability": "view",
      "type": "function"
    },
    {
      "inputs": [],
      "name": "symbol",
      "outputs": [
        {
          "internalType": "string",
          "name": "",
          "type": "string"
        }
      ],
      "stateMutability": "view",
      "type": "function"
    },
    {
      "inputs": [
        {
          "internalType": "address",
          "name": "_user",
          "type": "address"
        },
        {
          "internalType": "uint256",
          "name": "_cardType",
          "type": "uint256"
        },
        {
          "internalType": "uint256",
          "name": "_cardGrade",
          "type": "uint256"
        },
        {
          "internalType": "string",
          "name": "_tokenURI",
          "type": "string"
        }
      ],
      "name": "synthesisCard",
      "outputs": [
        {
          "internalType": "uint256",
          "name": "",
          "type": "uint256"
        }
      ],
      "stateMutability": "nonpayable",
      "type": "function"
    },
    {
      "inputs": [
        {
          "internalType": "uint256",
          "name": "tokenId",
          "type": "uint256"
        }
      ],
      "name": "tokenURI",
      "outputs": [
        {
          "internalType": "string",
          "name": "",
          "type": "string"
        }
      ],
      "stateMutability": "view",
      "type": "function"
    },
    {
      "inputs": [
        {
          "internalType": "address",
          "name": "from",
          "type": "address"
        },
        {
          "internalType": "address",
          "name": "to",
          "type": "address"
        },
        {
          "internalType": "uint256",
          "name": "tokenId",
          "type": "uint256"
        }
      ],
      "name": "transferFrom",
      "outputs": [],
      "stateMutability": "nonpayable",
      "type": "function"
    }
  ],
  "bytecode": "0x60806040523480156200001157600080fd5b5060408051808201825260108082526f73706163652062616c6c20626164676560801b60208084018290528451808601909552918452908301529060006200005a838262000129565b50600162000069828262000129565b5050600880546001600160a01b0319163317905550620001f5565b634e487b7160e01b600052604160045260246000fd5b600181811c90821680620000af57607f821691505b602082108103620000d057634e487b7160e01b600052602260045260246000fd5b50919050565b601f8211156200012457600081815260208120601f850160051c81016020861015620000ff5750805b601f850160051c820191505b8181101562000120578281556001016200010b565b5050505b505050565b81516001600160401b0381111562000145576200014562000084565b6200015d816200015684546200009a565b84620000d6565b602080601f8311600181146200019557600084156200017c5750858301515b600019600386901b1c1916600185901b17855562000120565b600085815260208120601f198616915b82811015620001c657888601518255948401946001909101908401620001a5565b5085821015620001e55787850151600019600388901b60f8161c191681555b5050505050600190811b01905550565b611e4280620002056000396000f3fe608060405234801561001057600080fd5b50600436106101585760003560e01c806370a08231116100c3578063a22cb4651161007c578063a22cb4651461031a578063b88d4fde1461032d578063c87b56dd14610340578063d0ebdbe714610353578063e985e9c514610366578063f851a4401461037957600080fd5b806370a08231146102805780638dc10768146102935780638eec99c8146102cf57806395d89b41146102e2578063970129be146102ea5780639ddd49741461031257600080fd5b80632890e0d7116101155780632890e0d71461020e5780633ea263841461022157806342842e0e14610234578063481c6a75146102475780636352211e1461025a5780636395a3931461026d57600080fd5b806301ffc9a71461015d578063051d1fdb1461018557806306fdde03146101a6578063081812fc146101bb578063095ea7b3146101e657806323b872dd146101fb575b600080fd5b61017061016b366004611751565b61038c565b60405190151581526020015b60405180910390f35b610198610193366004611836565b6103de565b60405190815260200161017c565b6101ae6104ee565b60405161017c91906118e4565b6101ce6101c93660046118f7565b610580565b6040516001600160a01b03909116815260200161017c565b6101f96101f4366004611910565b6105a7565b005b6101f961020936600461193a565b6106bc565b6101f961021c3660046118f7565b6106ee565b6009546101ce906001600160a01b031681565b6101f961024236600461193a565b610768565b6007546101ce906001600160a01b031681565b6101ce6102683660046118f7565b610783565b61019861027b366004611976565b6107e3565b61019861028e3660046119d7565b6108f1565b6102ba6102a13660046118f7565b600b602052600090815260409020805460019091015482565b6040805192835260208301919091520161017c565b6101f96102dd3660046119d7565b610977565b6101ae610a37565b6102ba6102f83660046118f7565b6000908152600b6020526040902080546001909101549091565b6101f9610a46565b6101f9610328366004611a00565b610aab565b6101f961033b366004611a37565b610aba565b6101ae61034e3660046118f7565b610af2565b6101f96103613660046119d7565b610c02565b610170610374366004611aa7565b610c74565b6008546101ce906001600160a01b031681565b60006001600160e01b031982166380ac58cd60e01b14806103bd57506001600160e01b03198216635b5e139f60e01b145b806103d857506301ffc9a760e01b6001600160e01b03198316145b92915050565b60408051808201825260078082526609ee0cadc84def60cb1b6020830152549151637dd13a9560e01b81526000926001600160a01b031690637dd13a959061042c9033908590600401611ada565b602060405180830381865afa158015610449573d6000803e3d6000fd5b505050506040513d601f19601f8201168201806040525081019061046d9190611afe565b6104aa5760405162461bcd60e51b81526020600482015260096024820152681b9bc81c195c9b5a5d60ba1b60448201526064015b60405180910390fd5b60006104b68787610ca2565b60408051808201825296875260208088019687526000838152600b909152209551865593516001909501949094555090949350505050565b6060600080546104fd90611b1b565b80601f016020809104026020016040519081016040528092919081815260200182805461052990611b1b565b80156105765780601f1061054b57610100808354040283529160200191610576565b820191906000526020600020905b81548152906001019060200180831161055957829003601f168201915b5050505050905090565b600061058b82610cda565b506000908152600460205260409020546001600160a01b031690565b60006105b282610783565b9050806001600160a01b0316836001600160a01b03160361061f5760405162461bcd60e51b815260206004820152602160248201527f4552433732313a20617070726f76616c20746f2063757272656e74206f776e656044820152603960f91b60648201526084016104a1565b336001600160a01b038216148061063b575061063b8133610c74565b6106ad5760405162461bcd60e51b815260206004820152603d60248201527f4552433732313a20617070726f76652063616c6c6572206973206e6f7420746f60448201527f6b656e206f776e6572206f7220617070726f76656420666f7220616c6c00000060648201526084016104a1565b6106b78383610d39565b505050565b6106c7335b82610da7565b6106e35760405162461bcd60e51b81526004016104a190611b55565b6106b7838383610e05565b6106f7336106c1565b61075c5760405162461bcd60e51b815260206004820152603060248201527f4552433732314275726e61626c653a2063616c6c6572206973206e6f74206f7760448201526f1b995c881b9bdc88185c1c1c9bdd995960821b60648201526084016104a1565b61076581610f76565b50565b6106b783838360405180602001604052806000815250610aba565b6000818152600260205260408120546001600160a01b0316806103d85760405162461bcd60e51b8152602060048201526018602482015277115490cdcc8c4e881a5b9d985b1a59081d1bdad95b88125160421b60448201526064016104a1565b60408051808201825260098152684e4654436f6e66696760b81b60208201526007549151637dd13a9560e01b81526000926001600160a01b031690637dd13a95906108349033908590600401611ada565b602060405180830381865afa158015610851573d6000803e3d6000fd5b505050506040513d601f19601f820116820180604052508101906108759190611afe565b6108ad5760405162461bcd60e51b81526020600482015260096024820152681b9bc81c195c9b5a5d60ba1b60448201526064016104a1565b60006108b98785610ca2565b60408051808201825296875260208088019889526000838152600b909152209551865595516001909501949094555092949350505050565b60006001600160a01b03821661095b5760405162461bcd60e51b815260206004820152602960248201527f4552433732313a2061646472657373207a65726f206973206e6f7420612076616044820152683634b21037bbb732b960b91b60648201526084016104a1565b506001600160a01b031660009081526003602052604090205490565b6008546001600160a01b031633146109c75760405162461bcd60e51b8152602060048201526013602482015272636f6e7472616374206f776e6572206f6e6c7960681b60448201526064016104a1565b6008546001600160a01b03163314610a155760405162461bcd60e51b81526020600482015260116024820152703cb7ba9030b932903737ba1030b236b4b760791b60448201526064016104a1565b600980546001600160a01b0319166001600160a01b0392909216919091179055565b6060600180546104fd90611b1b565b6009546001600160a01b03163314610a975760405162461bcd60e51b81526020600482015260146024820152733cb7ba9030b932903737ba103732bba0b236b4b760611b60448201526064016104a1565b600880546001600160a01b03191633179055565b610ab6338383610fb6565b5050565b610ac43383610da7565b610ae05760405162461bcd60e51b81526004016104a190611b55565b610aec84848484611084565b50505050565b6060610afd82610cda565b60008281526006602052604081208054610b1690611b1b565b80601f0160208091040260200160405190810160405280929190818152602001828054610b4290611b1b565b8015610b8f5780601f10610b6457610100808354040283529160200191610b8f565b820191906000526020600020905b815481529060010190602001808311610b7257829003601f168201915b505050505090506000610bad60408051602081019091526000815290565b90508051600003610bbf575092915050565b815115610bf1578082604051602001610bd9929190611ba2565b60405160208183030381529060405292505050919050565b610bfa846110b7565b949350505050565b6008546001600160a01b03163314610c525760405162461bcd60e51b8152602060048201526013602482015272636f6e7472616374206f776e6572206f6e6c7960681b60448201526064016104a1565b600780546001600160a01b0319166001600160a01b0392909216919091179055565b6001600160a01b03918216600090815260056020908152604080832093909416825291909152205460ff1690565b6000610cb2600a80546001019055565b6000610cbd600a5490565b9050610cc9848261112a565b610cd381846112c3565b9392505050565b6000818152600260205260409020546001600160a01b03166107655760405162461bcd60e51b8152602060048201526018602482015277115490cdcc8c4e881a5b9d985b1a59081d1bdad95b88125160421b60448201526064016104a1565b600081815260046020526040902080546001600160a01b0319166001600160a01b0384169081179091558190610d6e82610783565b6001600160a01b03167f8c5be1e5ebec7d5bd14f71427d1e84f3dd0314c0f7b2291e5b200ac8c7c3b92560405160405180910390a45050565b600080610db383610783565b9050806001600160a01b0316846001600160a01b03161480610dda5750610dda8185610c74565b80610bfa5750836001600160a01b0316610df384610580565b6001600160a01b031614949350505050565b826001600160a01b0316610e1882610783565b6001600160a01b031614610e3e5760405162461bcd60e51b81526004016104a190611bd1565b6001600160a01b038216610ea05760405162461bcd60e51b8152602060048201526024808201527f4552433732313a207472616e7366657220746f20746865207a65726f206164646044820152637265737360e01b60648201526084016104a1565b610ead8383836001611356565b826001600160a01b0316610ec082610783565b6001600160a01b031614610ee65760405162461bcd60e51b81526004016104a190611bd1565b600081815260046020908152604080832080546001600160a01b03199081169091556001600160a01b0387811680865260038552838620805460001901905590871680865283862080546001019055868652600290945282852080549092168417909155905184937fddf252ad1be2c89b69c2b068fc378daa952ba7f163c4a11628f55a4df523b3ef91a4505050565b610f7f816113de565b60008181526006602052604090208054610f9890611b1b565b159050610765576000818152600660205260408120610765916116ed565b816001600160a01b0316836001600160a01b0316036110175760405162461bcd60e51b815260206004820152601960248201527f4552433732313a20617070726f766520746f2063616c6c65720000000000000060448201526064016104a1565b6001600160a01b03838116600081815260056020908152604080832094871680845294825291829020805460ff191686151590811790915591519182527f17307eab39ab6107e8899845ad3d59bd9653f200f220920489ca2b5937696c31910160405180910390a3505050565b61108f848484610e05565b61109b84848484611481565b610aec5760405162461bcd60e51b81526004016104a190611c16565b60606110c282610cda565b60006110d960408051602081019091526000815290565b905060008151116110f95760405180602001604052806000815250610cd3565b8061110384611582565b604051602001611114929190611ba2565b6040516020818303038152906040529392505050565b6001600160a01b0382166111805760405162461bcd60e51b815260206004820181905260248201527f4552433732313a206d696e7420746f20746865207a65726f206164647265737360448201526064016104a1565b6000818152600260205260409020546001600160a01b0316156111e55760405162461bcd60e51b815260206004820152601c60248201527f4552433732313a20746f6b656e20616c7265616479206d696e7465640000000060448201526064016104a1565b6111f3600083836001611356565b6000818152600260205260409020546001600160a01b0316156112585760405162461bcd60e51b815260206004820152601c60248201527f4552433732313a20746f6b656e20616c7265616479206d696e7465640000000060448201526064016104a1565b6001600160a01b038216600081815260036020908152604080832080546001019055848352600290915280822080546001600160a01b0319168417905551839291907fddf252ad1be2c89b69c2b068fc378daa952ba7f163c4a11628f55a4df523b3ef908290a45050565b6000828152600260205260409020546001600160a01b031661133e5760405162461bcd60e51b815260206004820152602e60248201527f45524337323155524953746f726167653a2055524920736574206f66206e6f6e60448201526d32bc34b9ba32b73a103a37b5b2b760911b60648201526084016104a1565b60008281526006602052604090206106b78282611cb6565b6001811115610aec576001600160a01b0384161561139c576001600160a01b03841660009081526003602052604081208054839290611396908490611d8c565b90915550505b6001600160a01b03831615610aec576001600160a01b038316600090815260036020526040812080548392906113d3908490611d9f565b909155505050505050565b60006113e982610783565b90506113f9816000846001611356565b61140282610783565b600083815260046020908152604080832080546001600160a01b03199081169091556001600160a01b0385168085526003845282852080546000190190558785526002909352818420805490911690555192935084927fddf252ad1be2c89b69c2b068fc378daa952ba7f163c4a11628f55a4df523b3ef908390a45050565b60006001600160a01b0384163b1561157757604051630a85bd0160e11b81526001600160a01b0385169063150b7a02906114c5903390899088908890600401611db2565b6020604051808303816000875af1925050508015611500575060408051601f3d908101601f191682019092526114fd91810190611def565b60015b61155d573d80801561152e576040519150601f19603f3d011682016040523d82523d6000602084013e611533565b606091505b5080516000036115555760405162461bcd60e51b81526004016104a190611c16565b805181602001fd5b6001600160e01b031916630a85bd0160e11b149050610bfa565b506001949350505050565b6060600061158f83611615565b600101905060008167ffffffffffffffff8111156115af576115af61178a565b6040519080825280601f01601f1916602001820160405280156115d9576020820181803683370190505b5090508181016020015b600019016f181899199a1a9b1b9c1cb0b131b232b360811b600a86061a8153600a85049450846115e357509392505050565b60008072184f03e93ff9f4daa797ed6e38ed64bf6a1f0160401b83106116545772184f03e93ff9f4daa797ed6e38ed64bf6a1f0160401b830492506040015b6d04ee2d6d415b85acef81000000008310611680576d04ee2d6d415b85acef8100000000830492506020015b662386f26fc10000831061169e57662386f26fc10000830492506010015b6305f5e10083106116b6576305f5e100830492506008015b61271083106116ca57612710830492506004015b606483106116dc576064830492506002015b600a83106103d85760010192915050565b5080546116f990611b1b565b6000825580601f10611709575050565b601f01602090049060005260206000209081019061076591905b808211156117375760008155600101611723565b5090565b6001600160e01b03198116811461076557600080fd5b60006020828403121561176357600080fd5b8135610cd38161173b565b80356001600160a01b038116811461178557600080fd5b919050565b634e487b7160e01b600052604160045260246000fd5b600067ffffffffffffffff808411156117bb576117bb61178a565b604051601f8501601f19908116603f011681019082821181831017156117e3576117e361178a565b816040528093508581528686860111156117fc57600080fd5b858560208301376000602087830101525050509392505050565b600082601f83011261182757600080fd5b610cd3838335602085016117a0565b6000806000806080858703121561184c57600080fd5b6118558561176e565b9350602085013567ffffffffffffffff81111561187157600080fd5b61187d87828801611816565b949794965050505060408301359260600135919050565b60005b838110156118af578181015183820152602001611897565b50506000910152565b600081518084526118d0816020860160208601611894565b601f01601f19169290920160200192915050565b602081526000610cd360208301846118b8565b60006020828403121561190957600080fd5b5035919050565b6000806040838503121561192357600080fd5b61192c8361176e565b946020939093013593505050565b60008060006060848603121561194f57600080fd5b6119588461176e565b92506119666020850161176e565b9150604084013590509250925092565b6000806000806080858703121561198c57600080fd5b6119958561176e565b93506020850135925060408501359150606085013567ffffffffffffffff8111156119bf57600080fd5b6119cb87828801611816565b91505092959194509250565b6000602082840312156119e957600080fd5b610cd38261176e565b801515811461076557600080fd5b60008060408385031215611a1357600080fd5b611a1c8361176e565b91506020830135611a2c816119f2565b809150509250929050565b60008060008060808587031215611a4d57600080fd5b611a568561176e565b9350611a646020860161176e565b925060408501359150606085013567ffffffffffffffff811115611a8757600080fd5b8501601f81018713611a9857600080fd5b6119cb878235602084016117a0565b60008060408385031215611aba57600080fd5b611ac38361176e565b9150611ad16020840161176e565b90509250929050565b6001600160a01b0383168152604060208201819052600090610bfa908301846118b8565b600060208284031215611b1057600080fd5b8151610cd3816119f2565b600181811c90821680611b2f57607f821691505b602082108103611b4f57634e487b7160e01b600052602260045260246000fd5b50919050565b6020808252602d908201527f4552433732313a2063616c6c6572206973206e6f7420746f6b656e206f776e6560408201526c1c881bdc88185c1c1c9bdd9959609a1b606082015260800190565b60008351611bb4818460208801611894565b835190830190611bc8818360208801611894565b01949350505050565b60208082526025908201527f4552433732313a207472616e736665722066726f6d20696e636f72726563742060408201526437bbb732b960d91b606082015260800190565b60208082526032908201527f4552433732313a207472616e7366657220746f206e6f6e20455243373231526560408201527131b2b4bb32b91034b6b83632b6b2b73a32b960711b606082015260800190565b601f8211156106b757600081815260208120601f850160051c81016020861015611c8f5750805b601f850160051c820191505b81811015611cae57828155600101611c9b565b505050505050565b815167ffffffffffffffff811115611cd057611cd061178a565b611ce481611cde8454611b1b565b84611c68565b602080601f831160018114611d195760008415611d015750858301515b600019600386901b1c1916600185901b178555611cae565b600085815260208120601f198616915b82811015611d4857888601518255948401946001909101908401611d29565b5085821015611d665787850151600019600388901b60f8161c191681555b5050505050600190811b01905550565b634e487b7160e01b600052601160045260246000fd5b818103818111156103d8576103d8611d76565b808201808211156103d8576103d8611d76565b6001600160a01b0385811682528416602082015260408101839052608060608201819052600090611de5908301846118b8565b9695505050505050565b600060208284031215611e0157600080fd5b8151610cd38161173b56fea26469706673582212203876ecc0ec13c2ae49937f8d1c35135bdb2abfa1d05a0220db59d3ddf1755a3164736f6c63430008110033",
  "linkReferences": {},
  "deployedLinkReferences": {}
}