{
  "_format": "hh-sol-artifact-1",
  "contractName": "BoxNFT",
  "sourceName": "contracts/BoxNFT.sol",
  "abi": [
    {
      "inputs": [
        {
          "internalType": "address",
          "name": "_verify",
          "type": "address"
        },
        {
          "internalType": "address",
          "name": "_nftAddr",
          "type": "address"
        },
        {
          "internalType": "address",
          "name": "_getTokenAdd",
          "type": "address"
        },
        {
          "internalType": "address",
          "name": "_mainAddress",
          "type": "address"
        },
        {
          "internalType": "uint256",
          "name": "_fee",
          "type": "uint256"
        }
      ],
      "stateMutability": "nonpayable",
      "type": "constructor"
    },
    {
      "anonymous": false,
      "inputs": [
        {
          "indexed": true,
          "internalType": "address",
          "name": "owner",
          "type": "address"
        },
        {
          "indexed": true,
          "internalType": "address",
          "name": "approved",
          "type": "address"
        },
        {
          "indexed": true,
          "internalType": "uint256",
          "name": "tokenId",
          "type": "uint256"
        }
      ],
      "name": "Approval",
      "type": "event"
    },
    {
      "anonymous": false,
      "inputs": [
        {
          "indexed": true,
          "internalType": "address",
          "name": "owner",
          "type": "address"
        },
        {
          "indexed": true,
          "internalType": "address",
          "name": "operator",
          "type": "address"
        },
        {
          "indexed": false,
          "internalType": "bool",
          "name": "approved",
          "type": "bool"
        }
      ],
      "name": "ApprovalForAll",
      "type": "event"
    },
    {
      "anonymous": false,
      "inputs": [
        {
          "indexed": false,
          "internalType": "address",
          "name": "",
          "type": "address"
        },
        {
          "indexed": false,
          "internalType": "address",
          "name": "",
          "type": "address"
        },
        {
          "indexed": false,
          "internalType": "uint256",
          "name": "",
          "type": "uint256"
        },
        {
          "indexed": false,
          "internalType": "uint256",
          "name": "",
          "type": "uint256"
        },
        {
          "indexed": false,
          "internalType": "uint256",
          "name": "",
          "type": "uint256"
        }
      ],
      "name": "BuyBox",
      "type": "event"
    },
    {
      "anonymous": false,
      "inputs": [
        {
          "indexed": false,
          "internalType": "address",
          "name": "user",
          "type": "address"
        },
        {
          "indexed": false,
          "internalType": "uint256",
          "name": "tokenId",
          "type": "uint256"
        },
        {
          "indexed": false,
          "internalType": "uint256",
          "name": "cardGrade",
          "type": "uint256"
        },
        {
          "indexed": false,
          "internalType": "uint256",
          "name": "cardType",
          "type": "uint256"
        },
        {
          "indexed": false,
          "internalType": "uint256",
          "name": "burnTokenId",
          "type": "uint256"
        }
      ],
      "name": "OpenBoxEven",
      "type": "event"
    },
    {
      "anonymous": false,
      "inputs": [
        {
          "indexed": true,
          "internalType": "address",
          "name": "sender",
          "type": "address"
        },
        {
          "indexed": false,
          "internalType": "uint256",
          "name": "amount",
          "type": "uint256"
        }
      ],
      "name": "ReceivedEther",
      "type": "event"
    },
    {
      "anonymous": false,
      "inputs": [
        {
          "indexed": true,
          "internalType": "address",
          "name": "from",
          "type": "address"
        },
        {
          "indexed": true,
          "internalType": "address",
          "name": "to",
          "type": "address"
        },
        {
          "indexed": true,
          "internalType": "uint256",
          "name": "tokenId",
          "type": "uint256"
        }
      ],
      "name": "Transfer",
      "type": "event"
    },
    {
      "inputs": [
        {
          "internalType": "bytes",
          "name": "data",
          "type": "bytes"
        }
      ],
      "name": "OpenBox",
      "outputs": [],
      "stateMutability": "nonpayable",
      "type": "function"
    },
    {
      "inputs": [],
      "name": "admin",
      "outputs": [
        {
          "internalType": "address",
          "name": "",
          "type": "address"
        }
      ],
      "stateMutability": "view",
      "type": "function"
    },
    {
      "inputs": [
        {
          "internalType": "address",
          "name": "to",
          "type": "address"
        },
        {
          "internalType": "uint256",
          "name": "tokenId",
          "type": "uint256"
        }
      ],
      "name": "approve",
      "outputs": [],
      "stateMutability": "nonpayable",
      "type": "function"
    },
    {
      "inputs": [
        {
          "internalType": "address",
          "name": "owner",
          "type": "address"
        }
      ],
      "name": "balanceOf",
      "outputs": [
        {
          "internalType": "uint256",
          "name": "",
          "type": "uint256"
        }
      ],
      "stateMutability": "view",
      "type": "function"
    },
    {
      "inputs": [
        {
          "internalType": "uint256",
          "name": "tokenId",
          "type": "uint256"
        }
      ],
      "name": "burnNFT",
      "outputs": [],
      "stateMutability": "nonpayable",
      "type": "function"
    },
    {
      "inputs": [
        {
          "internalType": "bytes",
          "name": "data",
          "type": "bytes"
        }
      ],
      "name": "buyBox",
      "outputs": [],
      "stateMutability": "payable",
      "type": "function"
    },
    {
      "inputs": [],
      "name": "fee",
      "outputs": [
        {
          "internalType": "uint256",
          "name": "",
          "type": "uint256"
        }
      ],
      "stateMutability": "view",
      "type": "function"
    },
    {
      "inputs": [
        {
          "internalType": "uint256",
          "name": "tokenId",
          "type": "uint256"
        }
      ],
      "name": "getApproved",
      "outputs": [
        {
          "internalType": "address",
          "name": "",
          "type": "address"
        }
      ],
      "stateMutability": "view",
      "type": "function"
    },
    {
      "inputs": [],
      "name": "getNewAdmin",
      "outputs": [],
      "stateMutability": "nonpayable",
      "type": "function"
    },
    {
      "inputs": [],
      "name": "getTokenAddr",
      "outputs": [
        {
          "internalType": "address",
          "name": "",
          "type": "address"
        }
      ],
      "stateMutability": "view",
      "type": "function"
    },
    {
      "inputs": [
        {
          "internalType": "address",
          "name": "owner",
          "type": "address"
        },
        {
          "internalType": "address",
          "name": "operator",
          "type": "address"
        }
      ],
      "name": "isApprovedForAll",
      "outputs": [
        {
          "internalType": "bool",
          "name": "",
          "type": "bool"
        }
      ],
      "stateMutability": "view",
      "type": "function"
    },
    {
      "inputs": [
        {
          "internalType": "uint256",
          "name": "",
          "type": "uint256"
        }
      ],
      "name": "isBurnBox",
      "outputs": [
        {
          "internalType": "uint256",
          "name": "cont",
          "type": "uint256"
        },
        {
          "internalType": "bool",
          "name": "isBurn",
          "type": "bool"
        }
      ],
      "stateMutability": "view",
      "type": "function"
    },
    {
      "inputs": [],
      "name": "mainAddress",
      "outputs": [
        {
          "internalType": "address",
          "name": "",
          "type": "address"
        }
      ],
      "stateMutability": "view",
      "type": "function"
    },
    {
      "inputs": [],
      "name": "manager",
      "outputs": [
        {
          "internalType": "contract Manager",
          "name": "",
          "type": "address"
        }
      ],
      "stateMutability": "view",
      "type": "function"
    },
    {
      "inputs": [],
      "name": "name",
      "outputs": [
        {
          "internalType": "string",
          "name": "",
          "type": "string"
        }
      ],
      "stateMutability": "view",
      "type": "function"
    },
    {
      "inputs": [],
      "name": "newAdmin",
      "outputs": [
        {
          "internalType": "address",
          "name": "",
          "type": "address"
        }
      ],
      "stateMutability": "view",
      "type": "function"
    },
    {
      "inputs": [],
      "name": "nftAddr",
      "outputs": [
        {
          "internalType": "contract NftOpen",
          "name": "",
          "type": "address"
        }
      ],
      "stateMutability": "view",
      "type": "function"
    },
    {
      "inputs": [
        {
          "internalType": "uint256",
          "name": "tokenId",
          "type": "uint256"
        }
      ],
      "name": "ownerOf",
      "outputs": [
        {
          "internalType": "address",
          "name": "",
          "type": "address"
        }
      ],
      "stateMutability": "view",
      "type": "function"
    },
    {
      "inputs": [
        {
          "internalType": "address",
          "name": "from",
          "type": "address"
        },
        {
          "internalType": "address",
          "name": "to",
          "type": "address"
        },
        {
          "internalType": "uint256",
          "name": "tokenId",
          "type": "uint256"
        }
      ],
      "name": "safeTransferFrom",
      "outputs": [],
      "stateMutability": "nonpayable",
      "type": "function"
    },
    {
      "inputs": [
        {
          "internalType": "address",
          "name": "from",
          "type": "address"
        },
        {
          "internalType": "address",
          "name": "to",
          "type": "address"
        },
        {
          "internalType": "uint256",
          "name": "tokenId",
          "type": "uint256"
        },
        {
          "internalType": "bytes",
          "name": "data",
          "type": "bytes"
        }
      ],
      "name": "safeTransferFrom",
      "outputs": [],
      "stateMutability": "nonpayable",
      "type": "function"
    },
    {
      "inputs": [
        {
          "internalType": "address",
          "name": "operator",
          "type": "address"
        },
        {
          "internalType": "bool",
          "name": "approved",
          "type": "bool"
        }
      ],
      "name": "setApprovalForAll",
      "outputs": [],
      "stateMutability": "nonpayable",
      "type": "function"
    },
    {
      "inputs": [
        {
          "internalType": "address",
          "name": "_addr",
          "type": "address"
        },
        {
          "internalType": "address",
          "name": "mainAddr",
          "type": "address"
        },
        {
          "internalType": "uint256",
          "name": "_fee",
          "type": "uint256"
        }
      ],
      "name": "setGetTolenAddr",
      "outputs": [],
      "stateMutability": "nonpayable",
      "type": "function"
    },
    {
      "inputs": [
        {
          "internalType": "address",
          "name": "addr",
          "type": "address"
        }
      ],
      "name": "setManager",
      "outputs": [],
      "stateMutability": "nonpayable",
      "type": "function"
    },
    {
      "inputs": [
        {
          "internalType": "string",
          "name": "_url",
          "type": "string"
        }
      ],
      "name": "setMyURL",
      "outputs": [],
      "stateMutability": "nonpayable",
      "type": "function"
    },
    {
      "inputs": [
        {
          "internalType": "address",
          "name": "_newAdmin",
          "type": "address"
        }
      ],
      "name": "setNewAdmin",
      "outputs": [],
      "stateMutability": "nonpayable",
      "type": "function"
    },
    {
      "inputs": [
        {
          "internalType": "address",
          "name": "_nft",
          "type": "address"
        }
      ],
      "name": "setNftAddr",
      "outputs": [],
      "stateMutability": "nonpayable",
      "type": "function"
    },
    {
      "inputs": [
        {
          "internalType": "address",
          "name": "_verify",
          "type": "address"
        }
      ],
      "name": "setVerifyAddr",
      "outputs": [],
      "stateMutability": "nonpayable",
      "type": "function"
    },
    {
      "inputs": [
        {
          "internalType": "bytes4",
          "name": "interfaceId",
          "type": "bytes4"
        }
      ],
      "name": "supportsInterface",
      "outputs": [
        {
          "internalType": "bool",
          "name": "",
          "type": "bool"
        }
      ],
      "stateMutability": "view",
      "type": "function"
    },
    {
      "inputs": [],
      "name": "symbol",
      "outputs": [
        {
          "internalType": "string",
          "name": "",
          "type": "string"
        }
      ],
      "stateMutability": "view",
      "type": "function"
    },
    {
      "inputs": [
        {
          "internalType": "uint256",
          "name": "tokenId",
          "type": "uint256"
        }
      ],
      "name": "tokenURI",
      "outputs": [
        {
          "internalType": "string",
          "name": "",
          "type": "string"
        }
      ],
      "stateMutability": "view",
      "type": "function"
    },
    {
      "inputs": [
        {
          "internalType": "address",
          "name": "from",
          "type": "address"
        },
        {
          "internalType": "address",
          "name": "to",
          "type": "address"
        },
        {
          "internalType": "uint256",
          "name": "tokenId",
          "type": "uint256"
        }
      ],
      "name": "transferFrom",
      "outputs": [],
      "stateMutability": "nonpayable",
      "type": "function"
    }
  ],
  "bytecode": "0x60e0604052603c6080818152906200307460a039600f90620000229082620001b4565b503480156200003057600080fd5b50604051620030b0380380620030b083398101604081905262000053916200029d565b604080518082018252600f8082526e73706163652062616c6c206361736560881b60208084018290528451808601909552918452908301529060006200009a8382620001b4565b506001620000a98282620001b4565b505060088054336001600160a01b031991821617909155600b805482166001600160a01b03968716179055600c805482169486169490941790935550600e80548316958416959095179094556011805490911692909116919091179055600d5562000304565b634e487b7160e01b600052604160045260246000fd5b600181811c908216806200013a57607f821691505b6020821081036200015b57634e487b7160e01b600052602260045260246000fd5b50919050565b601f821115620001af57600081815260208120601f850160051c810160208610156200018a5750805b601f850160051c820191505b81811015620001ab5782815560010162000196565b5050505b505050565b81516001600160401b03811115620001d057620001d06200010f565b620001e881620001e1845462000125565b8462000161565b602080601f831160018114620002205760008415620002075750858301515b600019600386901b1c1916600185901b178555620001ab565b600085815260208120601f198616915b82811015620002515788860151825594840194600190910190840162000230565b5085821015620002705787850151600019600388901b60f8161c191681555b5050505050600190811b01905550565b80516001600160a01b03811681146200029857600080fd5b919050565b600080600080600060a08688031215620002b657600080fd5b620002c18662000280565b9450620002d16020870162000280565b9350620002e16040870162000280565b9250620002f16060870162000280565b9150608086015190509295509295909350565b612d6080620003146000396000f3fe6080604052600436106101d85760003560e01c806370a0823111610102578063bcb86eea11610095578063ddca3f4311610064578063ddca3f4314610585578063dec1f6371461059b578063e985e9c5146105bb578063f851a440146105db57600080fd5b8063bcb86eea14610505578063c483960914610525578063c87b56dd14610545578063d0ebdbe71461056557600080fd5b806395d89b41116100d157806395d89b411461049b5780639ddd4974146104b0578063a22cb465146104c5578063b88d4fde146104e557600080fd5b806370a082311461041a578063740f1e18146104485780638eec99c81461046857806390a192db1461048857600080fd5b80632890e0d71161017a5780634d2be779116101495780634d2be7791461036e5780634e269bf8146103ba578063582b2720146103da5780636352211e146103fa57600080fd5b80632890e0d7146102ee5780633ea263841461030e57806342842e0e1461032e578063481c6a751461034e57600080fd5b8063095ea7b3116101b6578063095ea7b31461026c5780630cdd42341461028e57806321d66b9b146102ae57806323b872dd146102ce57600080fd5b806301ffc9a7146101dd57806306fdde0314610212578063081812fc14610234575b600080fd5b3480156101e957600080fd5b506101fd6101f8366004612339565b6105fb565b60405190151581526020015b60405180910390f35b34801561021e57600080fd5b5061022761064d565b60405161020991906123a6565b34801561024057600080fd5b5061025461024f3660046123b9565b6106df565b6040516001600160a01b039091168152602001610209565b34801561027857600080fd5b5061028c6102873660046123e7565b610706565b005b34801561029a57600080fd5b50600c54610254906001600160a01b031681565b3480156102ba57600080fd5b5061028c6102c93660046124e0565b610820565b3480156102da57600080fd5b5061028c6102e9366004612515565b610af1565b3480156102fa57600080fd5b5061028c6103093660046123b9565b610b23565b34801561031a57600080fd5b50600954610254906001600160a01b031681565b34801561033a57600080fd5b5061028c610349366004612515565b610b9d565b34801561035a57600080fd5b50600754610254906001600160a01b031681565b34801561037a57600080fd5b506103a56103893660046123b9565b6010602052600090815260409020805460019091015460ff1682565b60408051928352901515602083015201610209565b3480156103c657600080fd5b5061028c6103d5366004612556565b610bb8565b3480156103e657600080fd5b50600b54610254906001600160a01b031681565b34801561040657600080fd5b506102546104153660046123b9565b610c6e565b34801561042657600080fd5b5061043a61043536600461259f565b610cce565b604051908152602001610209565b34801561045457600080fd5b50601154610254906001600160a01b031681565b34801561047457600080fd5b5061028c61048336600461259f565b610d54565b61028c6104963660046124e0565b610e14565b3480156104a757600080fd5b50610227611136565b3480156104bc57600080fd5b5061028c611145565b3480156104d157600080fd5b5061028c6104e03660046125ca565b6111aa565b3480156104f157600080fd5b5061028c610500366004612603565b6111b9565b34801561051157600080fd5b5061028c61052036600461259f565b6111f1565b34801561053157600080fd5b5061028c610540366004612515565b6112be565b34801561055157600080fd5b506102276105603660046123b9565b61139e565b34801561057157600080fd5b5061028c61058036600461259f565b6114ae565b34801561059157600080fd5b5061043a600d5481565b3480156105a757600080fd5b5061028c6105b636600461259f565b611520565b3480156105c757600080fd5b506101fd6105d636600461266f565b6115ed565b3480156105e757600080fd5b50600854610254906001600160a01b031681565b60006001600160e01b031982166380ac58cd60e01b148061062c57506001600160e01b03198216635b5e139f60e01b145b8061064757506301ffc9a760e01b6001600160e01b03198316145b92915050565b60606000805461065c9061269d565b80601f01602080910402602001604051908101604052809291908181526020018280546106889061269d565b80156106d55780601f106106aa576101008083540402835291602001916106d5565b820191906000526020600020905b8154815290600101906020018083116106b857829003601f168201915b5050505050905090565b60006106ea8261161b565b506000908152600460205260409020546001600160a01b031690565b600061071182610c6e565b9050806001600160a01b0316836001600160a01b0316036107835760405162461bcd60e51b815260206004820152602160248201527f4552433732313a20617070726f76616c20746f2063757272656e74206f776e656044820152603960f91b60648201526084015b60405180910390fd5b336001600160a01b038216148061079f575061079f81336115ed565b6108115760405162461bcd60e51b815260206004820152603d60248201527f4552433732313a20617070726f76652063616c6c6572206973206e6f7420746f60448201527f6b656e206f776e6572206f7220617070726f76656420666f7220616c6c000000606482015260840161077a565b61081b838361167a565b505050565b600e54604051637efc6ca560e11b815260009182918291829182916001600160a01b03169063fdf8d94a906108599089906004016123a6565b6000604051808303816000875af1158015610878573d6000803e3d6000fd5b505050506040513d6000823e601f3d908101601f191682016040526108a09190810190612767565b6000838152601060205260409020600101549499509297509095509350915060ff16156109035760405162461bcd60e51b81526020600482015260116024820152702a3434b9903137bc103bb0b990313ab93760791b604482015260640161077a565b61090c83610b23565b60008381526010602052604081206001908101805460ff191690911790555b6000848152601060205260409020548114610ae8576000600f6109668884815181106109595761095961280d565b60200260200101516116e8565b604051602001610977929190612823565b60405160208183030381529060405290506000601160009054906101000a90046001600160a01b03166001600160a01b031663051d1fdb88848787815181106109c2576109c261280d565b60200260200101518988815181106109dc576109dc61280d565b60200260200101516040518563ffffffff1660e01b8152600401610a0394939291906128aa565b6020604051808303816000875af1158015610a22573d6000803e3d6000fd5b505050506040513d601f19601f82011682018060405250810190610a4691906128e1565b90507fce362fa542424cc0d1ce56fc9384fdf5f355df8963beceb5bf4f5f4771154fc58782868681518110610a7d57610a7d61280d565b6020026020010151888781518110610a9757610a9761280d565b602090810291909101810151604080516001600160a01b0390961686529185019390935283015260608201526080810188905260a00160405180910390a1505080610ae190612910565b905061092b565b50505050505050565b610afc335b826117e9565b610b185760405162461bcd60e51b815260040161077a90612929565b61081b838383611847565b610b2c33610af6565b610b915760405162461bcd60e51b815260206004820152603060248201527f4552433732314275726e61626c653a2063616c6c6572206973206e6f74206f7760448201526f1b995c881b9bdc88185c1c1c9bdd995960821b606482015260840161077a565b610b9a816119b8565b50565b61081b838383604051806020016040528060008152506111b9565b6040805180820182526006815265436f6e66696760d01b60208201526007549151637dd13a9560e01b815290916001600160a01b031690637dd13a9590610c059033908590600401612976565b602060405180830381865afa158015610c22573d6000803e3d6000fd5b505050506040513d601f19601f82011682018060405250810190610c46919061299a565b610c625760405162461bcd60e51b815260040161077a906129b7565b600f61081b8382612a28565b6000818152600260205260408120546001600160a01b0316806106475760405162461bcd60e51b8152602060048201526018602482015277115490cdcc8c4e881a5b9d985b1a59081d1bdad95b88125160421b604482015260640161077a565b60006001600160a01b038216610d385760405162461bcd60e51b815260206004820152602960248201527f4552433732313a2061646472657373207a65726f206973206e6f7420612076616044820152683634b21037bbb732b960b91b606482015260840161077a565b506001600160a01b031660009081526003602052604090205490565b6008546001600160a01b03163314610da45760405162461bcd60e51b8152602060048201526013602482015272636f6e7472616374206f776e6572206f6e6c7960681b604482015260640161077a565b6008546001600160a01b03163314610df25760405162461bcd60e51b81526020600482015260116024820152703cb7ba9030b932903737ba1030b236b4b760791b604482015260640161077a565b600980546001600160a01b0319166001600160a01b0392909216919091179055565b600e54604051637c39e32b60e11b815260009182918291829182916001600160a01b03169063f873c65690610e4d9089906004016123a6565b6000604051808303816000875af1158015610e6c573d6000803e3d6000fd5b505050506040513d6000823e601f3d908101601f19168201604052610e949190810190612ae8565b945094509450945094506000610ec16103e8610ebb600d54896119f890919063ffffffff16565b90611a81565b90506001600160a01b03831615610ff057600c546040516323b872dd60e01b81523360048201526001600160a01b03918216602482015260448101839052908416906323b872dd906064016020604051808303816000875af1158015610f2b573d6000803e3d6000fd5b505050506040513d601f19601f82011682018060405250810190610f4f919061299a565b50600b546001600160a01b03808516916323b872dd91339116610f728a86611ac3565b6040516001600160e01b031960e086901b1681526001600160a01b03938416600482015292909116602483015260448201526064016020604051808303816000875af1158015610fc6573d6000803e3d6000fd5b505050506040513d601f19601f82011682018060405250810190610fea919061299a565b506110af565b853410156110315760405162461bcd60e51b815260206004820152600e60248201526d2cb7bab9102127211022b93937b960911b604482015260640161077a565b600c546040516001600160a01b039091169082156108fc029083906000818181858888f1935050505015801561106b573d6000803e3d6000fd5b50600b546001600160a01b03166108fc6110858884611ac3565b6040518115909202916000818181858888f193505050501580156110ad573d6000803e3d6000fd5b505b60006110bb8386611b05565b60008181526010602090815260409182902089905581516001600160a01b03808816825288169181019190915290810189905260608101829052608081018890529091507f7aacf95b78820b42520d196b2c96d6386cdbccb6bf41dc1b756fb24ce716f5df9060a00160405180910390a15050505050505050565b60606001805461065c9061269d565b6009546001600160a01b031633146111965760405162461bcd60e51b81526020600482015260146024820152733cb7ba9030b932903737ba103732bba0b236b4b760611b604482015260640161077a565b600880546001600160a01b03191633179055565b6111b5338383611b36565b5050565b6111c333836117e9565b6111df5760405162461bcd60e51b815260040161077a90612929565b6111eb84848484611c04565b50505050565b6040805180820182526006815265436f6e66696760d01b60208201526007549151637dd13a9560e01b815290916001600160a01b031690637dd13a959061123e9033908590600401612976565b602060405180830381865afa15801561125b573d6000803e3d6000fd5b505050506040513d601f19601f8201168201806040525081019061127f919061299a565b61129b5760405162461bcd60e51b815260040161077a906129b7565b50600e80546001600160a01b0319166001600160a01b0392909216919091179055565b6040805180820182526006815265436f6e66696760d01b60208201526007549151637dd13a9560e01b815290916001600160a01b031690637dd13a959061130b9033908590600401612976565b602060405180830381865afa158015611328573d6000803e3d6000fd5b505050506040513d601f19601f8201168201806040525081019061134c919061299a565b6113685760405162461bcd60e51b815260040161077a906129b7565b50600b80546001600160a01b039485166001600160a01b031991821617909155600c805493909416921691909117909155600d55565b60606113a98261161b565b600082815260066020526040812080546113c29061269d565b80601f01602080910402602001604051908101604052809291908181526020018280546113ee9061269d565b801561143b5780601f106114105761010080835404028352916020019161143b565b820191906000526020600020905b81548152906001019060200180831161141e57829003601f168201915b50505050509050600061145960408051602081019091526000815290565b9050805160000361146b575092915050565b81511561149d578082604051602001611485929190612b98565b60405160208183030381529060405292505050919050565b6114a684611c37565b949350505050565b6008546001600160a01b031633146114fe5760405162461bcd60e51b8152602060048201526013602482015272636f6e7472616374206f776e6572206f6e6c7960681b604482015260640161077a565b600780546001600160a01b0319166001600160a01b0392909216919091179055565b6040805180820182526006815265436f6e66696760d01b60208201526007549151637dd13a9560e01b815290916001600160a01b031690637dd13a959061156d9033908590600401612976565b602060405180830381865afa15801561158a573d6000803e3d6000fd5b505050506040513d601f19601f820116820180604052508101906115ae919061299a565b6115ca5760405162461bcd60e51b815260040161077a906129b7565b50601180546001600160a01b0319166001600160a01b0392909216919091179055565b6001600160a01b03918216600090815260056020908152604080832093909416825291909152205460ff1690565b6000818152600260205260409020546001600160a01b0316610b9a5760405162461bcd60e51b8152602060048201526018602482015277115490cdcc8c4e881a5b9d985b1a59081d1bdad95b88125160421b604482015260640161077a565b600081815260046020526040902080546001600160a01b0319166001600160a01b03841690811790915581906116af82610c6e565b6001600160a01b03167f8c5be1e5ebec7d5bd14f71427d1e84f3dd0314c0f7b2291e5b200ac8c7c3b92560405160405180910390a45050565b60608160000361170f5750506040805180820190915260018152600360fc1b602082015290565b8160005b8115611739578061172381612910565b91506117329050600a83612bd4565b9150611713565b60008167ffffffffffffffff81111561175457611754612413565b6040519080825280601f01601f19166020018201604052801561177e576020820181803683370190505b5090505b84156114a657611793600183612be8565b91506117a0600a86612bfb565b6117ab906030612c0f565b60f81b8183815181106117c0576117c061280d565b60200101906001600160f81b031916908160001a9053506117e2600a86612bd4565b9450611782565b6000806117f583610c6e565b9050806001600160a01b0316846001600160a01b0316148061181c575061181c81856115ed565b806114a65750836001600160a01b0316611835846106df565b6001600160a01b031614949350505050565b826001600160a01b031661185a82610c6e565b6001600160a01b0316146118805760405162461bcd60e51b815260040161077a90612c22565b6001600160a01b0382166118e25760405162461bcd60e51b8152602060048201526024808201527f4552433732313a207472616e7366657220746f20746865207a65726f206164646044820152637265737360e01b606482015260840161077a565b6118ef8383836001611caa565b826001600160a01b031661190282610c6e565b6001600160a01b0316146119285760405162461bcd60e51b815260040161077a90612c22565b600081815260046020908152604080832080546001600160a01b03199081169091556001600160a01b0387811680865260038552838620805460001901905590871680865283862080546001019055868652600290945282852080549092168417909155905184937fddf252ad1be2c89b69c2b068fc378daa952ba7f163c4a11628f55a4df523b3ef91a4505050565b6119c181611d32565b600081815260066020526040902080546119da9061269d565b159050610b9a576000818152600660205260408120610b9a916122d5565b600082600003611a0a57506000610647565b6000611a168385612c67565b905082611a238583612bd4565b14611a7a5760405162461bcd60e51b815260206004820152602160248201527f536166654d6174683a206d756c7469706c69636174696f6e206f766572666c6f6044820152607760f81b606482015260840161077a565b9392505050565b6000611a7a83836040518060400160405280601a81526020017f536166654d6174683a206469766973696f6e206279207a65726f000000000000815250611dd5565b6000611a7a83836040518060400160405280601e81526020017f536166654d6174683a207375627472616374696f6e206f766572666c6f770000815250611e0c565b6000611b15600a80546001019055565b6000611b20600a5490565b9050611b2c8482611e3d565b611a7a8184611fd6565b816001600160a01b0316836001600160a01b031603611b975760405162461bcd60e51b815260206004820152601960248201527f4552433732313a20617070726f766520746f2063616c6c657200000000000000604482015260640161077a565b6001600160a01b03838116600081815260056020908152604080832094871680845294825291829020805460ff191686151590811790915591519182527f17307eab39ab6107e8899845ad3d59bd9653f200f220920489ca2b5937696c31910160405180910390a3505050565b611c0f848484611847565b611c1b84848484612069565b6111eb5760405162461bcd60e51b815260040161077a90612c7e565b6060611c428261161b565b6000611c5960408051602081019091526000815290565b90506000815111611c795760405180602001604052806000815250611a7a565b80611c838461216a565b604051602001611c94929190612b98565b6040516020818303038152906040529392505050565b60018111156111eb576001600160a01b03841615611cf0576001600160a01b03841660009081526003602052604081208054839290611cea908490612be8565b90915550505b6001600160a01b038316156111eb576001600160a01b03831660009081526003602052604081208054839290611d27908490612c0f565b909155505050505050565b6000611d3d82610c6e565b9050611d4d816000846001611caa565b611d5682610c6e565b600083815260046020908152604080832080546001600160a01b03199081169091556001600160a01b0385168085526003845282852080546000190190558785526002909352818420805490911690555192935084927fddf252ad1be2c89b69c2b068fc378daa952ba7f163c4a11628f55a4df523b3ef908390a45050565b60008183611df65760405162461bcd60e51b815260040161077a91906123a6565b506000611e038486612bd4565b95945050505050565b60008184841115611e305760405162461bcd60e51b815260040161077a91906123a6565b506000611e038486612be8565b6001600160a01b038216611e935760405162461bcd60e51b815260206004820181905260248201527f4552433732313a206d696e7420746f20746865207a65726f2061646472657373604482015260640161077a565b6000818152600260205260409020546001600160a01b031615611ef85760405162461bcd60e51b815260206004820152601c60248201527f4552433732313a20746f6b656e20616c7265616479206d696e74656400000000604482015260640161077a565b611f06600083836001611caa565b6000818152600260205260409020546001600160a01b031615611f6b5760405162461bcd60e51b815260206004820152601c60248201527f4552433732313a20746f6b656e20616c7265616479206d696e74656400000000604482015260640161077a565b6001600160a01b038216600081815260036020908152604080832080546001019055848352600290915280822080546001600160a01b0319168417905551839291907fddf252ad1be2c89b69c2b068fc378daa952ba7f163c4a11628f55a4df523b3ef908290a45050565b6000828152600260205260409020546001600160a01b03166120515760405162461bcd60e51b815260206004820152602e60248201527f45524337323155524953746f726167653a2055524920736574206f66206e6f6e60448201526d32bc34b9ba32b73a103a37b5b2b760911b606482015260840161077a565b600082815260066020526040902061081b8282612a28565b60006001600160a01b0384163b1561215f57604051630a85bd0160e11b81526001600160a01b0385169063150b7a02906120ad903390899088908890600401612cd0565b6020604051808303816000875af19250505080156120e8575060408051601f3d908101601f191682019092526120e591810190612d0d565b60015b612145573d808015612116576040519150601f19603f3d011682016040523d82523d6000602084013e61211b565b606091505b50805160000361213d5760405162461bcd60e51b815260040161077a90612c7e565b805181602001fd5b6001600160e01b031916630a85bd0160e11b1490506114a6565b506001949350505050565b60606000612177836121fd565b600101905060008167ffffffffffffffff81111561219757612197612413565b6040519080825280601f01601f1916602001820160405280156121c1576020820181803683370190505b5090508181016020015b600019016f181899199a1a9b1b9c1cb0b131b232b360811b600a86061a8153600a85049450846121cb57509392505050565b60008072184f03e93ff9f4daa797ed6e38ed64bf6a1f0160401b831061223c5772184f03e93ff9f4daa797ed6e38ed64bf6a1f0160401b830492506040015b6d04ee2d6d415b85acef81000000008310612268576d04ee2d6d415b85acef8100000000830492506020015b662386f26fc10000831061228657662386f26fc10000830492506010015b6305f5e100831061229e576305f5e100830492506008015b61271083106122b257612710830492506004015b606483106122c4576064830492506002015b600a83106106475760010192915050565b5080546122e19061269d565b6000825580601f106122f1575050565b601f016020900490600052602060002090810190610b9a91905b8082111561231f576000815560010161230b565b5090565b6001600160e01b031981168114610b9a57600080fd5b60006020828403121561234b57600080fd5b8135611a7a81612323565b60005b83811015612371578181015183820152602001612359565b50506000910152565b60008151808452612392816020860160208601612356565b601f01601f19169290920160200192915050565b602081526000611a7a602083018461237a565b6000602082840312156123cb57600080fd5b5035919050565b6001600160a01b0381168114610b9a57600080fd5b600080604083850312156123fa57600080fd5b8235612405816123d2565b946020939093013593505050565b634e487b7160e01b600052604160045260246000fd5b604051601f8201601f1916810167ffffffffffffffff8111828210171561245257612452612413565b604052919050565b600067ffffffffffffffff82111561247457612474612413565b50601f01601f191660200190565b60006124956124908461245a565b612429565b90508281528383830111156124a957600080fd5b828260208301376000602084830101529392505050565b600082601f8301126124d157600080fd5b611a7a83833560208501612482565b6000602082840312156124f257600080fd5b813567ffffffffffffffff81111561250957600080fd5b6114a6848285016124c0565b60008060006060848603121561252a57600080fd5b8335612535816123d2565b92506020840135612545816123d2565b929592945050506040919091013590565b60006020828403121561256857600080fd5b813567ffffffffffffffff81111561257f57600080fd5b8201601f8101841361259057600080fd5b6114a684823560208401612482565b6000602082840312156125b157600080fd5b8135611a7a816123d2565b8015158114610b9a57600080fd5b600080604083850312156125dd57600080fd5b82356125e8816123d2565b915060208301356125f8816125bc565b809150509250929050565b6000806000806080858703121561261957600080fd5b8435612624816123d2565b93506020850135612634816123d2565b925060408501359150606085013567ffffffffffffffff81111561265757600080fd5b612663878288016124c0565b91505092959194509250565b6000806040838503121561268257600080fd5b823561268d816123d2565b915060208301356125f8816123d2565b600181811c908216806126b157607f821691505b6020821081036126d157634e487b7160e01b600052602260045260246000fd5b50919050565b600082601f8301126126e857600080fd5b8151602067ffffffffffffffff82111561270457612704612413565b8160051b612713828201612429565b928352848101820192828101908785111561272d57600080fd5b83870192505b8483101561274c57825182529183019190830190612733565b979650505050505050565b8051612762816123d2565b919050565b600080600080600060a0868803121561277f57600080fd5b855167ffffffffffffffff8082111561279757600080fd5b6127a389838a016126d7565b9650602088015191506127b5826123d2565b604088015160608901519296509450808211156127d157600080fd5b6127dd89838a016126d7565b935060808801519150808211156127f357600080fd5b50612800888289016126d7565b9150509295509295909350565b634e487b7160e01b600052603260045260246000fd5b60008084546128318161269d565b60018281168015612849576001811461285e5761288d565b60ff198416875282151583028701945061288d565b8860005260208060002060005b858110156128845781548a82015290840190820161286b565b50505082870194505b5050505083516128a1818360208801612356565b01949350505050565b6001600160a01b03851681526080602082018190526000906128ce9083018661237a565b6040830194909452506060015292915050565b6000602082840312156128f357600080fd5b5051919050565b634e487b7160e01b600052601160045260246000fd5b600060018201612922576129226128fa565b5060010190565b6020808252602d908201527f4552433732313a2063616c6c6572206973206e6f7420746f6b656e206f776e6560408201526c1c881bdc88185c1c1c9bdd9959609a1b606082015260800190565b6001600160a01b03831681526040602082018190526000906114a69083018461237a565b6000602082840312156129ac57600080fd5b8151611a7a816125bc565b6020808252600990820152681b9bc81c195c9b5a5d60ba1b604082015260600190565b601f82111561081b57600081815260208120601f850160051c81016020861015612a015750805b601f850160051c820191505b81811015612a2057828155600101612a0d565b505050505050565b815167ffffffffffffffff811115612a4257612a42612413565b612a5681612a50845461269d565b846129da565b602080601f831160018114612a8b5760008415612a735750858301515b600019600386901b1c1916600185901b178555612a20565b600085815260208120601f198616915b82811015612aba57888601518255948401946001909101908401612a9b565b5085821015612ad85787850151600019600388901b60f8161c191681555b5050505050600190811b01905550565b600080600080600060a08688031215612b0057600080fd5b8551945060208601519350604086015167ffffffffffffffff811115612b2557600080fd5b8601601f81018813612b3657600080fd5b8051612b446124908261245a565b818152896020838501011115612b5957600080fd5b612b6a826020830160208601612356565b8095505050506060860151612b7e816123d2565b9150612b8c60808701612757565b90509295509295909350565b60008351612baa818460208801612356565b8351908301906128a1818360208801612356565b634e487b7160e01b600052601260045260246000fd5b600082612be357612be3612bbe565b500490565b81810381811115610647576106476128fa565b600082612c0a57612c0a612bbe565b500690565b80820180821115610647576106476128fa565b60208082526025908201527f4552433732313a207472616e736665722066726f6d20696e636f72726563742060408201526437bbb732b960d91b606082015260800190565b8082028115828204841417610647576106476128fa565b60208082526032908201527f4552433732313a207472616e7366657220746f206e6f6e20455243373231526560408201527131b2b4bb32b91034b6b83632b6b2b73a32b960711b606082015260800190565b6001600160a01b0385811682528416602082015260408101839052608060608201819052600090612d039083018461237a565b9695505050505050565b600060208284031215612d1f57600080fd5b8151611a7a8161232356fea264697066735822122071ed3b2719de33b111ece21c0f863bb3fd098e093d1c5a2c2ab358c8edc5bce664736f6c63430008110033687474703a2f2f737061636562616c6c67616d65732e636f6d3a31303030302f757365722f62426f78426173652f67657443617264496e666f2f322f",
  "linkReferences": {},
  "deployedLinkReferences": {}
}